{
	"schemaVersion": "2.0.0",
	"contractName": "FluxAggregator",
	"compilerOutput": {
		"abi": [
			{
				"inputs": [
					{
						"internalType": "address",
						"name": "_link",
						"type": "address"
					},
					{
						"internalType": "uint128",
						"name": "_paymentAmount",
						"type": "uint128"
					},
					{
						"internalType": "uint32",
						"name": "_timeout",
						"type": "uint32"
					},
					{
						"internalType": "address",
						"name": "_validator",
						"type": "address"
					},
					{
						"internalType": "int256",
						"name": "_minSubmissionValue",
						"type": "int256"
					},
					{
						"internalType": "int256",
						"name": "_maxSubmissionValue",
						"type": "int256"
					},
					{
						"internalType": "uint8",
						"name": "_decimals",
						"type": "uint8"
					},
					{
						"internalType": "string",
						"name": "_description",
						"type": "string"
					}
				],
				"stateMutability": "nonpayable",
				"type": "constructor"
			},
			{
				"anonymous": false,
				"inputs": [
					{
						"indexed": true,
						"internalType": "int256",
						"name": "current",
						"type": "int256"
					},
					{
						"indexed": true,
						"internalType": "uint256",
						"name": "roundId",
						"type": "uint256"
					},
					{
						"indexed": false,
						"internalType": "uint256",
						"name": "updatedAt",
						"type": "uint256"
					}
				],
				"name": "AnswerUpdated",
				"type": "event"
			},
			{
				"anonymous": false,
				"inputs": [
					{
						"indexed": true,
						"internalType": "uint256",
						"name": "amount",
						"type": "uint256"
					}
				],
				"name": "AvailableFundsUpdated",
				"type": "event"
			},
			{
				"anonymous": false,
				"inputs": [
					{
						"indexed": true,
						"internalType": "uint256",
						"name": "roundId",
						"type": "uint256"
					},
					{
						"indexed": true,
						"internalType": "address",
						"name": "startedBy",
						"type": "address"
					},
					{
						"indexed": false,
						"internalType": "uint256",
						"name": "startedAt",
						"type": "uint256"
					}
				],
				"name": "NewRound",
				"type": "event"
			},
			{
				"anonymous": false,
				"inputs": [
					{
						"indexed": true,
						"internalType": "address",
						"name": "oracle",
						"type": "address"
					},
					{
						"indexed": false,
						"internalType": "address",
						"name": "admin",
						"type": "address"
					},
					{
						"indexed": false,
						"internalType": "address",
						"name": "newAdmin",
						"type": "address"
					}
				],
				"name": "OracleAdminUpdateRequested",
				"type": "event"
			},
			{
				"anonymous": false,
				"inputs": [
					{
						"indexed": true,
						"internalType": "address",
						"name": "oracle",
						"type": "address"
					},
					{
						"indexed": true,
						"internalType": "address",
						"name": "newAdmin",
						"type": "address"
					}
				],
				"name": "OracleAdminUpdated",
				"type": "event"
			},
			{
				"anonymous": false,
				"inputs": [
					{
						"indexed": true,
						"internalType": "address",
						"name": "oracle",
						"type": "address"
					},
					{
						"indexed": true,
						"internalType": "bool",
						"name": "whitelisted",
						"type": "bool"
					}
				],
				"name": "OraclePermissionsUpdated",
				"type": "event"
			},
			{
				"anonymous": false,
				"inputs": [
					{
						"indexed": true,
						"internalType": "address",
						"name": "from",
						"type": "address"
					},
					{
						"indexed": true,
						"internalType": "address",
						"name": "to",
						"type": "address"
					}
				],
				"name": "OwnershipTransferRequested",
				"type": "event"
			},
			{
				"anonymous": false,
				"inputs": [
					{
						"indexed": true,
						"internalType": "address",
						"name": "from",
						"type": "address"
					},
					{
						"indexed": true,
						"internalType": "address",
						"name": "to",
						"type": "address"
					}
				],
				"name": "OwnershipTransferred",
				"type": "event"
			},
			{
				"anonymous": false,
				"inputs": [
					{
						"indexed": true,
						"internalType": "address",
						"name": "requester",
						"type": "address"
					},
					{
						"indexed": false,
						"internalType": "bool",
						"name": "authorized",
						"type": "bool"
					},
					{
						"indexed": false,
						"internalType": "uint32",
						"name": "delay",
						"type": "uint32"
					}
				],
				"name": "RequesterPermissionsSet",
				"type": "event"
			},
			{
				"anonymous": false,
				"inputs": [
					{
						"indexed": true,
						"internalType": "uint128",
						"name": "paymentAmount",
						"type": "uint128"
					},
					{
						"indexed": true,
						"internalType": "uint32",
						"name": "minSubmissionCount",
						"type": "uint32"
					},
					{
						"indexed": true,
						"internalType": "uint32",
						"name": "maxSubmissionCount",
						"type": "uint32"
					},
					{
						"indexed": false,
						"internalType": "uint32",
						"name": "restartDelay",
						"type": "uint32"
					},
					{
						"indexed": false,
						"internalType": "uint32",
						"name": "timeout",
						"type": "uint32"
					}
				],
				"name": "RoundDetailsUpdated",
				"type": "event"
			},
			{
				"anonymous": false,
				"inputs": [
					{
						"indexed": true,
						"internalType": "int256",
						"name": "submission",
						"type": "int256"
					},
					{
						"indexed": true,
						"internalType": "uint32",
						"name": "round",
						"type": "uint32"
					},
					{
						"indexed": true,
						"internalType": "address",
						"name": "oracle",
						"type": "address"
					}
				],
				"name": "SubmissionReceived",
				"type": "event"
			},
			{
				"anonymous": false,
				"inputs": [
					{
						"indexed": true,
						"internalType": "address",
						"name": "previous",
						"type": "address"
					},
					{
						"indexed": true,
						"internalType": "address",
						"name": "current",
						"type": "address"
					}
				],
				"name": "ValidatorUpdated",
				"type": "event"
			},
			{
				"inputs": [
					{
						"internalType": "address",
						"name": "_oracle",
						"type": "address"
					}
				],
				"name": "acceptAdmin",
				"outputs": [],
				"stateMutability": "nonpayable",
				"type": "function"
			},
			{
				"inputs": [],
				"name": "acceptOwnership",
				"outputs": [],
				"stateMutability": "nonpayable",
				"type": "function"
			},
			{
				"inputs": [],
				"name": "allocatedFunds",
				"outputs": [
					{
						"internalType": "uint128",
						"name": "",
						"type": "uint128"
					}
				],
				"stateMutability": "view",
				"type": "function"
			},
			{
				"inputs": [],
				"name": "availableFunds",
				"outputs": [
					{
						"internalType": "uint128",
						"name": "",
						"type": "uint128"
					}
				],
				"stateMutability": "view",
				"type": "function"
			},
			{
				"inputs": [
					{
						"internalType": "address[]",
						"name": "_removed",
						"type": "address[]"
					},
					{
						"internalType": "address[]",
						"name": "_added",
						"type": "address[]"
					},
					{
						"internalType": "address[]",
						"name": "_addedAdmins",
						"type": "address[]"
					},
					{
						"internalType": "uint32",
						"name": "_minSubmissions",
						"type": "uint32"
					},
					{
						"internalType": "uint32",
						"name": "_maxSubmissions",
						"type": "uint32"
					},
					{
						"internalType": "uint32",
						"name": "_restartDelay",
						"type": "uint32"
					}
				],
				"name": "changeOracles",
				"outputs": [],
				"stateMutability": "nonpayable",
				"type": "function"
			},
			{
				"inputs": [],
				"name": "decimals",
				"outputs": [
					{
						"internalType": "uint8",
						"name": "",
						"type": "uint8"
					}
				],
				"stateMutability": "view",
				"type": "function"
			},
			{
				"inputs": [],
				"name": "description",
				"outputs": [
					{
						"internalType": "string",
						"name": "",
						"type": "string"
					}
				],
				"stateMutability": "view",
				"type": "function"
			},
			{
				"inputs": [
					{
						"internalType": "address",
						"name": "_oracle",
						"type": "address"
					}
				],
				"name": "getAdmin",
				"outputs": [
					{
						"internalType": "address",
						"name": "",
						"type": "address"
					}
				],
				"stateMutability": "view",
				"type": "function"
			},
			{
				"inputs": [
					{
						"internalType": "uint256",
						"name": "_roundId",
						"type": "uint256"
					}
				],
				"name": "getAnswer",
				"outputs": [
					{
						"internalType": "int256",
						"name": "",
						"type": "int256"
					}
				],
				"stateMutability": "view",
				"type": "function"
			},
			{
				"inputs": [],
				"name": "getOracles",
				"outputs": [
					{
						"internalType": "address[]",
						"name": "",
						"type": "address[]"
					}
				],
				"stateMutability": "view",
				"type": "function"
			},
			{
				"inputs": [
					{
						"internalType": "uint80",
						"name": "_roundId",
						"type": "uint80"
					}
				],
				"name": "getRoundData",
				"outputs": [
					{
						"internalType": "uint80",
						"name": "roundId",
						"type": "uint80"
					},
					{
						"internalType": "int256",
						"name": "answer",
						"type": "int256"
					},
					{
						"internalType": "uint256",
						"name": "startedAt",
						"type": "uint256"
					},
					{
						"internalType": "uint256",
						"name": "updatedAt",
						"type": "uint256"
					},
					{
						"internalType": "uint80",
						"name": "answeredInRound",
						"type": "uint80"
					}
				],
				"stateMutability": "view",
				"type": "function"
			},
			{
				"inputs": [
					{
						"internalType": "uint256",
						"name": "_roundId",
						"type": "uint256"
					}
				],
				"name": "getTimestamp",
				"outputs": [
					{
						"internalType": "uint256",
						"name": "",
						"type": "uint256"
					}
				],
				"stateMutability": "view",
				"type": "function"
			},
			{
				"inputs": [],
				"name": "latestAnswer",
				"outputs": [
					{
						"internalType": "int256",
						"name": "",
						"type": "int256"
					}
				],
				"stateMutability": "view",
				"type": "function"
			},
			{
				"inputs": [],
				"name": "latestRound",
				"outputs": [
					{
						"internalType": "uint256",
						"name": "",
						"type": "uint256"
					}
				],
				"stateMutability": "view",
				"type": "function"
			},
			{
				"inputs": [],
				"name": "latestRoundData",
				"outputs": [
					{
						"internalType": "uint80",
						"name": "roundId",
						"type": "uint80"
					},
					{
						"internalType": "int256",
						"name": "answer",
						"type": "int256"
					},
					{
						"internalType": "uint256",
						"name": "startedAt",
						"type": "uint256"
					},
					{
						"internalType": "uint256",
						"name": "updatedAt",
						"type": "uint256"
					},
					{
						"internalType": "uint80",
						"name": "answeredInRound",
						"type": "uint80"
					}
				],
				"stateMutability": "view",
				"type": "function"
			},
			{
				"inputs": [],
				"name": "latestTimestamp",
				"outputs": [
					{
						"internalType": "uint256",
						"name": "",
						"type": "uint256"
					}
				],
				"stateMutability": "view",
				"type": "function"
			},
			{
				"inputs": [],
				"name": "linkToken",
				"outputs": [
					{
						"internalType": "contract LinkTokenInterface",
						"name": "",
						"type": "address"
					}
				],
				"stateMutability": "view",
				"type": "function"
			},
			{
				"inputs": [],
				"name": "maxSubmissionCount",
				"outputs": [
					{
						"internalType": "uint32",
						"name": "",
						"type": "uint32"
					}
				],
				"stateMutability": "view",
				"type": "function"
			},
			{
				"inputs": [],
				"name": "maxSubmissionValue",
				"outputs": [
					{
						"internalType": "int256",
						"name": "",
						"type": "int256"
					}
				],
				"stateMutability": "view",
				"type": "function"
			},
			{
				"inputs": [],
				"name": "minSubmissionCount",
				"outputs": [
					{
						"internalType": "uint32",
						"name": "",
						"type": "uint32"
					}
				],
				"stateMutability": "view",
				"type": "function"
			},
			{
				"inputs": [],
				"name": "minSubmissionValue",
				"outputs": [
					{
						"internalType": "int256",
						"name": "",
						"type": "int256"
					}
				],
				"stateMutability": "view",
				"type": "function"
			},
			{
				"inputs": [
					{
						"internalType": "address",
						"name": "",
						"type": "address"
					},
					{
						"internalType": "uint256",
						"name": "",
						"type": "uint256"
					},
					{
						"internalType": "bytes",
						"name": "_data",
						"type": "bytes"
					}
				],
				"name": "onTokenTransfer",
				"outputs": [],
				"stateMutability": "nonpayable",
				"type": "function"
			},
			{
				"inputs": [],
				"name": "oracleCount",
				"outputs": [
					{
						"internalType": "uint8",
						"name": "",
						"type": "uint8"
					}
				],
				"stateMutability": "view",
				"type": "function"
			},
			{
				"inputs": [
					{
						"internalType": "address",
						"name": "_oracle",
						"type": "address"
					},
					{
						"internalType": "uint32",
						"name": "_queriedRoundId",
						"type": "uint32"
					}
				],
				"name": "oracleRoundState",
				"outputs": [
					{
						"internalType": "bool",
						"name": "_eligibleToSubmit",
						"type": "bool"
					},
					{
						"internalType": "uint32",
						"name": "_roundId",
						"type": "uint32"
					},
					{
						"internalType": "int256",
						"name": "_latestSubmission",
						"type": "int256"
					},
					{
						"internalType": "uint64",
						"name": "_startedAt",
						"type": "uint64"
					},
					{
						"internalType": "uint64",
						"name": "_timeout",
						"type": "uint64"
					},
					{
						"internalType": "uint128",
						"name": "_availableFunds",
						"type": "uint128"
					},
					{
						"internalType": "uint8",
						"name": "_oracleCount",
						"type": "uint8"
					},
					{
						"internalType": "uint128",
						"name": "_paymentAmount",
						"type": "uint128"
					}
				],
				"stateMutability": "view",
				"type": "function"
			},
			{
				"inputs": [],
				"name": "owner",
				"outputs": [
					{
						"internalType": "address",
						"name": "",
						"type": "address"
					}
				],
				"stateMutability": "view",
				"type": "function"
			},
			{
				"inputs": [],
				"name": "paymentAmount",
				"outputs": [
					{
						"internalType": "uint128",
						"name": "",
						"type": "uint128"
					}
				],
				"stateMutability": "view",
				"type": "function"
			},
			{
				"inputs": [],
				"name": "requestNewRound",
				"outputs": [
					{
						"internalType": "uint80",
						"name": "",
						"type": "uint80"
					}
				],
				"stateMutability": "nonpayable",
				"type": "function"
			},
			{
				"inputs": [],
				"name": "restartDelay",
				"outputs": [
					{
						"internalType": "uint32",
						"name": "",
						"type": "uint32"
					}
				],
				"stateMutability": "view",
				"type": "function"
			},
			{
				"inputs": [
					{
						"internalType": "address",
						"name": "_requester",
						"type": "address"
					},
					{
						"internalType": "bool",
						"name": "_authorized",
						"type": "bool"
					},
					{
						"internalType": "uint32",
						"name": "_delay",
						"type": "uint32"
					}
				],
				"name": "setRequesterPermissions",
				"outputs": [],
				"stateMutability": "nonpayable",
				"type": "function"
			},
			{
				"inputs": [
					{
						"internalType": "address",
						"name": "_newValidator",
						"type": "address"
					}
				],
				"name": "setValidator",
				"outputs": [],
				"stateMutability": "nonpayable",
				"type": "function"
			},
			{
				"inputs": [
					{
						"internalType": "uint256",
						"name": "_roundId",
						"type": "uint256"
					},
					{
						"internalType": "int256",
						"name": "_submission",
						"type": "int256"
					}
				],
				"name": "submit",
				"outputs": [],
				"stateMutability": "nonpayable",
				"type": "function"
			},
			{
				"inputs": [],
				"name": "timeout",
				"outputs": [
					{
						"internalType": "uint32",
						"name": "",
						"type": "uint32"
					}
				],
				"stateMutability": "view",
				"type": "function"
			},
			{
				"inputs": [
					{
						"internalType": "address",
						"name": "_oracle",
						"type": "address"
					},
					{
						"internalType": "address",
						"name": "_newAdmin",
						"type": "address"
					}
				],
				"name": "transferAdmin",
				"outputs": [],
				"stateMutability": "nonpayable",
				"type": "function"
			},
			{
				"inputs": [
					{
						"internalType": "address",
						"name": "_to",
						"type": "address"
					}
				],
				"name": "transferOwnership",
				"outputs": [],
				"stateMutability": "nonpayable",
				"type": "function"
			},
			{
				"inputs": [],
				"name": "updateAvailableFunds",
				"outputs": [],
				"stateMutability": "nonpayable",
				"type": "function"
			},
			{
				"inputs": [
					{
						"internalType": "uint128",
						"name": "_paymentAmount",
						"type": "uint128"
					},
					{
						"internalType": "uint32",
						"name": "_minSubmissions",
						"type": "uint32"
					},
					{
						"internalType": "uint32",
						"name": "_maxSubmissions",
						"type": "uint32"
					},
					{
						"internalType": "uint32",
						"name": "_restartDelay",
						"type": "uint32"
					},
					{
						"internalType": "uint32",
						"name": "_timeout",
						"type": "uint32"
					}
				],
				"name": "updateFutureRounds",
				"outputs": [],
				"stateMutability": "nonpayable",
				"type": "function"
			},
			{
				"inputs": [],
				"name": "validator",
				"outputs": [
					{
						"internalType": "contract AggregatorValidatorInterface",
						"name": "",
						"type": "address"
					}
				],
				"stateMutability": "view",
				"type": "function"
			},
			{
				"inputs": [],
				"name": "version",
				"outputs": [
					{
						"internalType": "uint256",
						"name": "",
						"type": "uint256"
					}
				],
				"stateMutability": "view",
				"type": "function"
			},
			{
				"inputs": [
					{
						"internalType": "address",
						"name": "_recipient",
						"type": "address"
					},
					{
						"internalType": "uint256",
						"name": "_amount",
						"type": "uint256"
					}
				],
				"name": "withdrawFunds",
				"outputs": [],
				"stateMutability": "nonpayable",
				"type": "function"
			},
			{
				"inputs": [
					{
						"internalType": "address",
						"name": "_oracle",
						"type": "address"
					},
					{
						"internalType": "address",
						"name": "_recipient",
						"type": "address"
					},
					{
						"internalType": "uint256",
						"name": "_amount",
						"type": "uint256"
					}
				],
				"name": "withdrawPayment",
				"outputs": [],
				"stateMutability": "nonpayable",
				"type": "function"
			},
			{
				"inputs": [
					{
						"internalType": "address",
						"name": "_oracle",
						"type": "address"
					}
				],
				"name": "withdrawablePayment",
				"outputs": [
					{
						"internalType": "uint256",
						"name": "",
						"type": "uint256"
					}
				],
				"stateMutability": "view",
				"type": "function"
			}
		],
		"devdoc": {
			"kind": "dev",
			"methods": {
				"acceptAdmin(address)": {
					"params": {
						"_oracle": "is the address of the oracle whose admin is being transferred"
					}
				},
				"acceptOwnership()": {
					"details": "Allows an ownership transfer to be completed by the recipient."
				},
				"changeOracles(address[],address[],address[],uint32,uint32,uint32)": {
					"params": {
						"_added": "is the list of addresses for the new Oracles being added",
						"_addedAdmins": "is the admin addresses for the new respective _added list. Only this address is allowed to access the respective oracle's funds",
						"_maxSubmissions": "is the new maximum submission count for each round",
						"_minSubmissions": "is the new minimum submission count for each round",
						"_removed": "is the list of addresses for the new Oracles being removed",
						"_restartDelay": "is the number of rounds an Oracle has to wait before they can initiate a round"
					}
				},
				"constructor": {
					"params": {
						"_decimals": "represents the number of decimals to offset the answer by",
						"_description": "a short description of what is being reported",
						"_link": "The address of the LINK token",
						"_maxSubmissionValue": "is an immutable check for an upper bound of what submission values are accepted from an oracle",
						"_minSubmissionValue": "is an immutable check for a lower bound of what submission values are accepted from an oracle",
						"_paymentAmount": "The amount paid of LINK paid to each oracle per submission, in wei (units of 10⁻¹⁸ LINK)",
						"_timeout": "is the number of seconds after the previous round that are allowed to lapse before allowing an oracle to skip an unfinished round",
						"_validator": "is an optional contract address for validating external validation of answers"
					}
				},
				"getAdmin(address)": {
					"params": {
						"_oracle": "is the address of the oracle whose admin is being queried"
					}
				},
				"getAnswer(uint256)": {
					"details": "#[deprecated] Use getRoundData instead. This does not error if no answer has been reached, it will simply return 0. Either wait to point to an already answered Aggregator or use the recommended getRoundData instead which includes better verification information.",
					"params": {
						"_roundId": "the round number to retrieve the answer for"
					}
				},
				"getRoundData(uint80)": {
					"details": "Note that for in-progress rounds (i.e. rounds that haven't yet received maxSubmissions) answer and updatedAt may change between queries.",
					"params": {
						"_roundId": "the round ID to retrieve the round data for"
					},
					"returns": {
						"answer": "is the answer for the given round",
						"answeredInRound": "is the round ID of the round in which the answer was computed. answeredInRound may be smaller than roundId when the round timed out. answeredInRound is equal to roundId when the round didn't time out and was completed regularly.",
						"roundId": "is the round ID for which data was retrieved",
						"startedAt": "is the timestamp when the round was started. This is 0 if the round hasn't been started yet.",
						"updatedAt": "is the timestamp when the round last was updated (i.e. answer was last computed)"
					}
				},
				"getTimestamp(uint256)": {
					"details": "#[deprecated] Use getRoundData instead. This does not error if no answer has been reached, it will simply return 0. Either wait to point to an already answered Aggregator or use the recommended getRoundData instead which includes better verification information.",
					"params": {
						"_roundId": "the round number to retrieve the updated timestamp for"
					}
				},
				"latestAnswer()": {
					"details": "#[deprecated] Use latestRoundData instead. This does not error if no answer has been reached, it will simply return 0. Either wait to point to an already answered Aggregator or use the recommended latestRoundData instead which includes better verification information."
				},
				"latestRound()": {
					"details": "#[deprecated] Use latestRoundData instead. This does not error if no answer has been reached, it will simply return 0. Either wait to point to an already answered Aggregator or use the recommended latestRoundData instead which includes better verification information."
				},
				"latestRoundData()": {
					"details": "Note that for in-progress rounds (i.e. rounds that haven't yet received maxSubmissions) answer and updatedAt may change between queries.",
					"returns": {
						"answer": "is the answer for the given round",
						"answeredInRound": "is the round ID of the round in which the answer was computed. answeredInRound may be smaller than roundId when the round timed out. answeredInRound is equal to roundId when the round didn't time out and was completed regularly.",
						"roundId": "is the round ID for which data was retrieved",
						"startedAt": "is the timestamp when the round was started. This is 0 if the round hasn't been started yet.",
						"updatedAt": "is the timestamp when the round last was updated (i.e. answer was last computed)"
					}
				},
				"latestTimestamp()": {
					"details": "#[deprecated] Use latestRoundData instead. This does not error if no answer has been reached, it will simply return 0. Either wait to point to an already answered Aggregator or use the recommended latestRoundData instead which includes better verification information."
				},
				"onTokenTransfer(address,uint256,bytes)": {
					"params": {
						"_data": "is mostly ignored. It is checked for length, to be sure nothing strange is passed in."
					}
				},
				"oracleRoundState(address,uint32)": {
					"params": {
						"_oracle": "the address to look up information for."
					}
				},
				"setRequesterPermissions(address,bool,uint32)": {
					"params": {
						"_authorized": "is a boolean specifying whether they can start new rounds or not",
						"_delay": "is the number of rounds the requester must wait before starting another round",
						"_requester": "is the address to set permissions for"
					}
				},
				"setValidator(address)": {
					"params": {
						"_newValidator": "designates the address of the new validation contract."
					}
				},
				"submit(uint256,int256)": {
					"params": {
						"_roundId": "is the ID of the round this submission pertains to",
						"_submission": "is the updated data that the oracle is submitting"
					}
				},
				"transferAdmin(address,address)": {
					"params": {
						"_newAdmin": "is the new admin address",
						"_oracle": "is the address of the oracle whose admin is being transferred"
					}
				},
				"transferOwnership(address)": {
					"details": "Allows an owner to begin transferring ownership to a new address, pending."
				},
				"updateFutureRounds(uint128,uint32,uint32,uint32,uint32)": {
					"params": {
						"_maxSubmissions": "is the new maximum submission count for each round",
						"_minSubmissions": "is the new minimum submission count for each round",
						"_paymentAmount": "is the payment amount for subsequent rounds",
						"_restartDelay": "is the number of rounds an Oracle has to wait before they can initiate a round"
					}
				},
				"withdrawFunds(address,uint256)": {
					"params": {
						"_amount": "is the amount of LINK to send",
						"_recipient": "is the address to send the LINK to"
					}
				},
				"withdrawPayment(address,address,uint256)": {
					"params": {
						"_amount": "is the amount of LINK to send",
						"_oracle": "is the oracle whose LINK is transferred",
						"_recipient": "is the address to send the LINK to"
					}
				}
			},
			"title": "The Prepaid Aggregator contract",
			"version": 1
		},
		"evm": {
			"bytecode": {
				"linkReferences": {},
				"object": "0x60c06040523480156200001c576000806200001962000886565b50505b50604051620060b5380380620060b583398181016040526101008110156200004e576000806200004b62000886565b50505b81019080805192919060200180519291906020018051929190602001805192919060200180519291906020018051929190602001805192919060200180516040519392919084640100000000821115620000b257600080620000af62000886565b50505b908301906020820185811115620000d357600080620000d062000886565b50505b8251640100000000811182820188101715620000f957600080620000f662000886565b50505b825250602001908051906020019080838360005b83811015620001275780820151838201526020016200010d565b50505050905090810190601f168015620001555780820380516001836020036101000a031916815260200191505b506040525050505a62000167620008f3565b6000600181620001766200094f565b816001600160a01b0302191690836001600160a01b03160217906200019a6200099c565b50505087600260006101000a81620001b16200094f565b816001600160a01b0302191690836001600160a01b0316021790620001d56200099c565b505050620001ef8760008060008a620002cb60201b60201c565b620001fa8562000604565b608084905260a0839052816005600181620002146200094f565b8160ff021916908360ff160217906200022c6200099c565b50505080600690805162000245929160200190620009eb565b50620002708663ffffffff165a6200025c62000a9a565b6200075260201b620027c51790919060201c565b60008080526009602052604090206001016801000000000000000081620002966200094f565b816001600160401b0302191690836001600160401b0316021790620002ba6200099c565b505050505050505050505062000b04565b600080620002d86200094f565b906101000a90046001600160a01b03166001600160a01b03165a620002fc620008f3565b6001600160a01b031614620003625760405162461bcd60e51b815260206004820152601660248201527f4f6e6c792063616c6c61626c65206279206f776e6572000000000000000000006044820152606401604051809103906200035f62000886565b50505b60006200036e620007bf565b60ff1690508463ffffffff168463ffffffff16101562000398576000806200039562000886565b50505b8363ffffffff168163ffffffff161015620003bd57600080620003ba62000886565b50505b63ffffffff81161580620003dc57508263ffffffff168163ffffffff16115b620003f157600080620003ee62000886565b50505b620004056001600160801b038716620007d4565b6000600d620004136200094f565b906101000a90046001600160801b03166001600160801b0316101562000443576000806200044062000886565b50505b60006200044f620007bf565b60ff161115620004785760008563ffffffff161162000478576000806200047562000886565b50505b856004600181620004886200094f565b816001600160801b0302191690836001600160801b0316021790620004ac6200099c565b50505084600460146101000a81620004c36200094f565b8163ffffffff021916908363ffffffff16021790620004e16200099c565b50505083600460106101000a81620004f86200094f565b8163ffffffff021916908363ffffffff16021790620005166200099c565b50505082600460186101000a816200052d6200094f565b8163ffffffff021916908363ffffffff160217906200054b6200099c565b505050816004601c6101000a81620005626200094f565b8163ffffffff021916908363ffffffff16021790620005806200099c565b5050508363ffffffff168563ffffffff166004600090620005a06200094f565b906101000a90046001600160801b03166001600160801b03167f56800c9d1ed723511246614d15e58cfcde15b6a33c245b5c961b689c1890fd8f868660405163ffffffff9283168152911660208201526040908101905180910390a4505050505050565b600080620006116200094f565b906101000a90046001600160a01b03166001600160a01b03165a62000635620008f3565b6001600160a01b0316146200069b5760405162461bcd60e51b815260206004820152601660248201527f4f6e6c792063616c6c61626c65206279206f776e6572000000000000000000006044820152606401604051809103906200069862000886565b50505b6000806003620006aa6200094f565b906101000a90046001600160a01b03169050816001600160a01b0316816001600160a01b0316146200074e57816003600181620006e66200094f565b816001600160a01b0302191690836001600160a01b03160217906200070a6200099c565b505050816001600160a01b0316816001600160a01b03167fcfac5dc75b8d9a7e074162f59d9adcd33da59f0fe8dfb21580db298fc0fdad0d60405160405180910390a35b5050565b600082821115620007b45760405162461bcd60e51b815260206004820152601e60248201527f536166654d6174683a207375627472616374696f6e206f766572666c6f770000604482015260640160405180910390620007b162000886565b50505b508082035b92915050565b6000600c80620007ce6200094f565b91505090565b6000620007b9600262000802620007ea620007bf565b60ff16856200081660201b6200281d1790919060201c565b6200081660201b6200281d1790919060201c565b6000826200082757506000620007b9565b828202828482816200083557fe5b04146200087f5760405162461bcd60e51b81526004018080602001828103825260218152602001806200609460219139604001915050604051809103906200087c62000886565b50505b9392505050565b632a2a7adb598160e01b8152600481016020815285602082015260005b86811015620008c0578086015182820160400152602001620008a3565b506020828760640184336000905af158600e01573d6000803e3d6000fd5b3d6001141558600a015760016000f35b505050565b6373509064598160e01b8152602081600483336000905af158600e01573d6000803e3d6000fd5b3d6001141558600a015760016000f35b8051935060005b60408110156200094a5760008282015260200162000931565b505050565b6303daa959598160e01b8152836004820152602081602483336000905af158600e01573d6000803e3d6000fd5b3d6001141558600a015760016000f35b8051600082529350602062000931565b6322bd64c0598160e01b8152836004820152846024820152600081604483336000905af158600e01573d6000803e3d6000fd5b3d6001141558600a015760016000f35b60008152602062000931565b8280620009f76200094f565b600181600116156101000203166002900490600052602060002090601f016020900481019282601f1062000a4257805160ff1916838001178562000a3a6200099c565b505062000a88565b8280016001018562000a536200099c565b5050821562000a88579182015b8281111562000a885782518262000a766200099c565b50509160200191906001019062000a60565b5062000a9692915062000ae1565b5090565b63bdbf8c36598160e01b8152602081600483336000905af158600e01573d6000803e3d6000fd5b3d6001141558600a015760016000f35b8051600082529350602062000931565b8082111562000a96576000808262000af86200099c565b50505060010162000ae1565b60805160a05161556262000b3260003980610ba75280610f38525080610b2a5280611d7852506155626000f3fe608060405234801561001957600080610016614fa9565b50505b50600436106101ec5760003560e01c80631327d3d8146101fa578063202ee0ed1461022b57806320ed02751461025757806323ca29031461029a578063313ce567146102b4578063357ebb02146102d257806338aa4c72146102f35780633969c20f146103465780633a5381b5146104c65780633d3d7714146104ea57806340884c521461052957806346fcff4c146105845780634f8fc3b5146105a857806350d25bcd146105b057806354fd4d50146105b857806357970e93146105c057806358609e44146105c8578063613d8fcc146105d0578063628806ef146105d857806364efb22b14610607578063668a0f021461063657806370dea79a1461063e5780637284e4161461064657806379ba5097146106c55780637c2b0b21146106cd5780638205bf6a146106d557806388aa80e7146106dd5780638da5cb5b1461077e57806398e5b12a146107865780639a6fc8f5146107aa578063a4c0ed361461081d578063b5ab58dc146108c4578063b633620c146108ea578063c107532914610910578063c35905c614610945578063c93745001461094d578063d4cc54e414610955578063e2e403171461095d578063e9ee6eeb1461098c578063f2fde38b146109c3578063feaf968c146109f2575b6000806101f7614fa9565b50505b6102296004803603602081101561021957600080610216614fa9565b50505b50356001600160a01b03166109fa565b005b6102296004803603604081101561024a57600080610247614fa9565b50505b5080359060200135610b28565b6102296004803603606081101561027657600080610273614fa9565b50505b5080356001600160a01b03169060208101351515906040013563ffffffff16610d1b565b6102a2610f36565b60405190815260200160405180910390f35b6102bc610f5a565b60405160ff909116815260200160405180910390f35b6102da610f73565b60405163ffffffff909116815260200160405180910390f35b610229600480360360a08110156103125760008061030f614fa9565b50505b506001600160801b038135169063ffffffff6020820135811691604081013582169160608201358116916080013516610f8f565b610229600480360360c081101561036557600080610362614fa9565b50505b810190602081018135600160201b81111561038857600080610385614fa9565b50505b8201836020820111156103a3576000806103a0614fa9565b50505b803590602001918460208302840111600160201b831117156103cd576000806103ca614fa9565b50505b919390929091602081019035600160201b8111156103f3576000806103f0614fa9565b50505b82018360208201111561040e5760008061040b614fa9565b50505b803590602001918460208302840111600160201b8311171561043857600080610435614fa9565b50505b919390929091602081019035600160201b81111561045e5760008061045b614fa9565b50505b82018360208201111561047957600080610476614fa9565b50505b803590602001918460208302840111600160201b831117156104a3576000806104a0614fa9565b50505b919350915063ffffffff8135811691602081013582169160409091013516611280565b6104ce611416565b6040516001600160a01b03909116815260200160405180910390f35b6102296004803603606081101561050957600080610506614fa9565b50505b506001600160a01b03813581169160208101359091169060400135611435565b610531611693565b60405160208082528190810183818151815260200191508051906020019060200280838360005b83811015610570578082015183820152602001610558565b505050509050019250505060405180910390f35b61058c61171a565b6040516001600160801b03909116815260200160405180910390f35b61022961173c565b6102a2611939565b6102a261197e565b6104ce611983565b6102da61198f565b6102bc61199b565b610229600480360360208110156105f7576000806105f4614fa9565b50505b50356001600160a01b03166119ae565b6104ce6004803603602081101561062657600080610623614fa9565b50505b50356001600160a01b0316611ae7565b6102a2611b25565b6102da611b4b565b61064e611b57565b60405160208082528190810183818151815260200191508051906020019080838360005b8381101561068a578082015183820152602001610672565b50505050905090810190601f1680156106b75780820380516001836020036101000a031916815260200191505b509250505060405180910390f35b610229611c10565b6102a2611d76565b6102a2611d9a565b610718600480360360408110156106fc576000806106f9614fa9565b50505b5080356001600160a01b0316906020013563ffffffff16611dfe565b604051971515885263ffffffff90961660208801526040808801959095526001600160401b0393841660608801529190921660808601526001600160801b0391821660a086015260ff1660c08501529190911660e0830152610100909101905180910390f35b6104ce611fab565b61078e611fb6565b6040516001600160501b03909116815260200160405180910390f35b6107d9600480360360208110156107c9576000806107c6614fa9565b50505b50356001600160501b03166120b0565b60405180866001600160501b03168152602001858152602001848152602001838152602001826001600160501b031681526020019550505050505060405180910390f35b6102296004803603606081101561083c57600080610839614fa9565b50505b6001600160a01b0382351691602081013591810190606081016040820135600160201b81111561087457600080610871614fa9565b50505b82018360208201111561088f5760008061088c614fa9565b50505b803590602001918460018302840111600160201b831117156108b9576000806108b6614fa9565b50505b509092509050612272565b6102a2600480360360208110156108e3576000806108e0614fa9565b50505b5035612294565b6102a26004803603602081101561090957600080610906614fa9565b50505b50356122d0565b6102296004803603604081101561092f5760008061092c614fa9565b50505b506001600160a01b038135169060200135612323565b61058c6124fe565b6102da61251d565b61058c612529565b6102a26004803603602081101561097c57600080610979614fa9565b50505b50356001600160a01b0316612537565b610229600480360360408110156109ab576000806109a8614fa9565b50505b506001600160a01b0381358116916020013516612572565b610229600480360360208110156109e2576000806109df614fa9565b50505b50356001600160a01b031661267a565b6107d9612787565b600080610a05615014565b906101000a90046001600160a01b03166001600160a01b03165a610a2761506f565b6001600160a01b031614610a785760405162461bcd60e51b81526020600482015260166024820152600080516020615502833981519152604482015260640160405180910390610a75614fa9565b50505b6000806003610a85615014565b906101000a90046001600160a01b03169050816001600160a01b0316816001600160a01b031614610b2457816003600181610abe615014565b816001600160a01b0302191690836001600160a01b0316021790610ae06150b5565b505050816001600160a01b0316816001600160a01b03167fcfac5dc75b8d9a7e074162f59d9adcd33da59f0fe8dfb21580db298fc0fdad0d60405160405180910390a35b5050565b7f0000000000000000000000000000000000000000000000000000000000000000811215610ba55760405162461bcd60e51b815260206004820152601e60248201527f76616c75652062656c6f77206d696e5375626d697373696f6e56616c75650000604482015260640160405180910390610ba2614fa9565b50505b7f0000000000000000000000000000000000000000000000000000000000000000811315610c225760405162461bcd60e51b815260206004820152601e60248201527f76616c75652061626f7665206d61785375626d697373696f6e56616c75650000604482015260640160405180910390610c1f614fa9565b50505b6060610c365a610c3061506f565b84612886565b90508051819015610cce5760405162461bcd60e51b81526004018080602001828103825283818151815260200191508051906020019080838360005b83811015610c8a578082015183820152602001610c72565b50505050905090810190601f168015610cb75780820380516001836020036101000a031916815260200191505b509250505060405180910390610ccb614fa9565b50505b50610cd883612b72565b610ce28284612c73565b600080610cee85612dbb565b91509150610cfb85612fdf565b610d0485613202565b8115610d1457610d148582613314565b5050505050565b600080610d26615014565b906101000a90046001600160a01b03166001600160a01b03165a610d4861506f565b6001600160a01b031614610d995760405162461bcd60e51b81526020600482015260166024820152600080516020615502833981519152604482015260640160405180910390610d96614fa9565b50505b6001600160a01b0383166000908152600b6020528215159060409020600090610dc0615014565b906101000a900460ff1615151415610dd757610f31565b8115610e64576001600160a01b0383166000908152600b602052829060409020600181610e02615014565b8160ff02191690831515021790610e176150b5565b5050506001600160a01b0383166000908152600b60205281906040902061010081610e40615014565b8163ffffffff021916908363ffffffff16021790610e5c6150b5565b505050610ee4565b6001600160a01b0383166000908152600b60205260409020600081600181610e8a615014565b9060ff02191690610e996150b5565b5082905061010081610ea9615014565b9063ffffffff02191690610ebb6150b5565b50829050600160281b81610ecd615014565b9063ffffffff02191690610edf6150b5565b505050505b826001600160a01b03167fc3df5a754e002718f2e10804b99e6605e7c701d95cec9552c7680ca2b6f2820a8383604051911515825263ffffffff1660208201526040908101905180910390a25b505050565b7f000000000000000000000000000000000000000000000000000000000000000081565b60006005610f66615014565b906101000a900460ff1681565b60186004610f7f615014565b906101000a900463ffffffff1681565b600080610f9a615014565b906101000a90046001600160a01b03166001600160a01b03165a610fbc61506f565b6001600160a01b03161461100d5760405162461bcd60e51b8152602060048201526016602482015260008051602061550283398151915260448201526064016040518091039061100a614fa9565b50505b600061101761199b565b60ff1690508463ffffffff168463ffffffff16101561103e5760008061103b614fa9565b50505b8363ffffffff168163ffffffff1610156110605760008061105d614fa9565b50505b63ffffffff8116158061107e57508263ffffffff168163ffffffff16115b6110905760008061108d614fa9565b50505b6110a2866001600160801b031661347e565b6000600d6110ae615014565b906101000a90046001600160801b03166001600160801b031610156110db576000806110d8614fa9565b50505b60006110e561199b565b60ff16111561110a5760008563ffffffff161161110a57600080611107614fa9565b50505b856004600181611118615014565b816001600160801b0302191690836001600160801b031602179061113a6150b5565b50505084600460146101000a8161114f615014565b8163ffffffff021916908363ffffffff1602179061116b6150b5565b50505083600460106101000a81611180615014565b8163ffffffff021916908363ffffffff1602179061119c6150b5565b50505082600460186101000a816111b1615014565b8163ffffffff021916908363ffffffff160217906111cd6150b5565b505050816004601c6101000a816111e2615014565b8163ffffffff021916908363ffffffff160217906111fe6150b5565b5050508363ffffffff168563ffffffff16600460009061121c615014565b906101000a90046001600160801b03166001600160801b03167f56800c9d1ed723511246614d15e58cfcde15b6a33c245b5c961b689c1890fd8f868660405163ffffffff9283168152911660208201526040908101905180910390a4505050505050565b60008061128b615014565b906101000a90046001600160a01b03166001600160a01b03165a6112ad61506f565b6001600160a01b0316146112fe5760405162461bcd60e51b815260206004820152601660248201526000805160206155028339815191526044820152606401604051809103906112fb614fa9565b50505b60005b888110156113355761132d8a8a8381811061131857fe5b905060200201356001600160a01b03166134a0565b600101611301565b5085841461134b57600080611348614fa9565b50505b604d6113628761135961199b565b60ff16906136ff565b111561137657600080611373614fa9565b50505b60005b868110156113c9576113c188888381811061139057fe5b905060200201356001600160a01b03168787848181106113ac57fe5b905060200201356001600160a01b031661374c565b600101611379565b5061140b600060046113d9615014565b906101000a90046001600160801b03168484846004601c906113f9615014565b906101000a900463ffffffff16610f8f565b505050505050505050565b60006003611422615014565b906101000a90046001600160a01b031681565b5a61143e61506f565b6001600160a01b038481166000908152600860205291169060409020600201600290611468615014565b906101000a90046001600160a01b03166001600160a01b03161461149457600080611491614fa9565b50505b6001600160a01b038316600090815260086020528190604081206000906114b9615014565b906101000a90046001600160801b03169050816001600160801b0316816001600160801b031610156114f3576000806114f0614fa9565b50505b6115066001600160801b03821683613a0f565b6001600160a01b0386166000908152600860205260409020600181611529615014565b816001600160801b0302191690836001600160801b031602179061154b6150b5565b5061157891508390506010600d611560615014565b6001600160801b036101009290920a90041690613a0f565b600d600160801b81611588615014565b816001600160801b0302191690836001600160801b03160217906115aa6150b5565b50505060026000906115ba615014565b906101000a90046001600160a01b03166001600160a01b031663a9059cbb85846001600160801b03166040516001600160e01b031960e085901b1681526001600160a01b039092166004830152602482015260440160206040518083038160008780611624615103565b15801561163957600080611636614fa9565b50505b505a61164361514f565b505050505050158015611663573d6000803e3d6000611660614fa9565b50505b505050506040513d60208110156116825760008061167f614fa9565b50505b8101908080519250610d1491505057fe5b6060600c806116a0615014565b8060200260200160405190810160405281815291906020830182806116c3615014565b801561171057602002820191906000526020600020905b6000826116e5615014565b906101000a90046001600160a01b03166001600160a01b0316815260200190600101908083116116da575b5050505050905090565b600080600d611727615014565b906101000a90046001600160801b0316905090565b61174461523a565b600d60405160408082019052908160008261175d615014565b6001600160801b036101009290920a900416815260200160108261177f615014565b6001600160801b036101009290920a900416905250905060006118d460208301516001600160801b0316600060026117b5615014565b906101000a90046001600160a01b03166001600160a01b03166370a082315a63996d79a5598160e01b8152602081600483336000905af158600e01573d6000803e3d6000fd5b3d6001141558600a015760016000f35b8051925060005b604081101561182957600082820152602001611812565b5050506040516001600160e01b031960e084901b1681526001600160a01b0390911660048201526024016020604051808303818680611866615103565b15801561187b57600080611878614fa9565b50505b505a611885615251565b50505050501580156118a4573d6000803e3d60006118a1614fa9565b50505b505050506040513d60208110156118c3576000806118c0614fa9565b50505b810190808051939250506127c59050565b90508082516001600160801b031614610b245780600d6001816118f5615014565b816001600160801b0302191690836001600160801b03160217906119176150b5565b5050508060008051602061554283398151915260405160405180910390a25050565b60006009816004600761194a615014565b906101000a900463ffffffff1663ffffffff1663ffffffff168152602001908152602001600020611979615014565b905090565b600381565b60006002611422615014565b60106004610f7f615014565b6000600c806119a8615014565b91505090565b5a6119b761506f565b6001600160a01b0382811660009081526008602052911690604090206003016000906119e1615014565b906101000a90046001600160a01b03166001600160a01b031614611a0d57600080611a0a614fa9565b50505b6001600160a01b0381166000908152600860205260408120600301600181611a33615014565b816001600160a01b0302191690836001600160a01b0316021790611a556150b5565b5050505a611a6161506f565b6001600160a01b03821660009081526008602052604090206002016201000081611a89615014565b816001600160a01b0302191690836001600160a01b0316021790611aab6150b5565b5050505a611ab761506f565b6001600160a01b0316816001600160a01b031660008051602061546083398151915260405160405180910390a350565b6001600160a01b0381166000908152600860205260408120600201600290611b0d615014565b906101000a90046001600160a01b031690505b919050565b600060046007611b33615014565b906101000a900463ffffffff1663ffffffff16905090565b601c6004610f7f615014565b600680611b62615014565b600181600116156101000203166002900480601f016020809104026020016040519081016040528181529190602083018280611b9c615014565b60018160011615610100020316600290048015611c085780601f10611bd6576101008083611bc8615014565b040283529160200191611c08565b820191906000526020600020905b81611bed615014565b81529060010190602001808311611be457829003601f168201915b505050505081565b60006001611c1c615014565b906101000a90046001600160a01b03166001600160a01b03165a611c3e61506f565b6001600160a01b031614611c9a5760405162461bcd60e51b815260206004820152601660248201527526bab9ba10313290383937b837b9b2b21037bbb732b960511b604482015260640160405180910390611c97614fa9565b50505b60008080611ca6615014565b906101000a90046001600160a01b031690505a611cc161506f565b6000600181611cce615014565b816001600160a01b0302191690836001600160a01b0316021790611cf06150b5565b5050506000600160006101000a81611d06615014565b816001600160a01b0302191690836001600160a01b0316021790611d286150b5565b5050505a611d3461506f565b6001600160a01b0316816001600160a01b03167f8be0079c531659141344cd1fd0a4f28419497f9722a3daafe3b4186f6b6457e060405160405180910390a350565b7f000000000000000000000000000000000000000000000000000000000000000081565b600060098160046007611dab615014565b906101000a900463ffffffff1663ffffffff1663ffffffff168152602001908152602001600020600101600890611de0615014565b906101000a90046001600160401b03166001600160401b0316905090565b600080808080808080805a611e1161506f565b6001600160a01b031614611e2d57600080611e2a614fa9565b50505b63ffffffff891615611f845763ffffffff8916600090815260096020526040812063ffffffff8b166000908152600a602052909150604081209050611e728c8c613a6b565b6001600160a01b038d16600090815260086020528c9060409020600101611e97615014565b600060018601611ea5615014565b906101000a90046001600160401b031684600101600890611ec4615014565b63ffffffff6101009290920a9004166000600d611edf615014565b906101000a90046001600160801b0316611ef761199b565b60008060018b01611f06615014565b906101000a90046001600160401b03166001600160401b031611611f455760006004611f30615014565b906101000a90046001600160801b0316611f64565b600c60018901611f53615014565b906101000a90046001600160801b03165b8363ffffffff169350995099509950995099509950995099505050611f9e565b611f8d8a613adc565b975097509750975097509750975097505b9295985092959890939650565b600080611422615014565b6000600b60005a611fc561506f565b6001600160a01b03166001600160a01b03168152602001908152602001600020600090611ff0615014565b906101000a900460ff1661200c57600080612009614fa9565b50505b6000806007612019615014565b63ffffffff6101009290920a9004166000818152600960205290915060408120600101600890612047615014565b906101000a90046001600160401b03166001600160401b03161180612070575061207081613d37565b6120825760008061207f614fa9565b50505b600061209963ffffffff80841690600190613e0916565b90506120a481613e5f565b63ffffffff1691505090565b60008060008060006120c0615317565b63ffffffff87166000908152600960205260409020604051608081016040529081816120ea615014565b81526020016000600183016120fd615014565b6001600160401b036101009290920a9004168152602001600860018301612122615014565b6001600160401b036101009290920a9004168152602001601060018301612147615014565b63ffffffff6101009290920a90041690525090506000606082015163ffffffff161180156121825750612182876001600160501b0316613f75565b60405160408082019052600f81526e139bc819185d18481c1c995cd95b9d608a1b60208201529061223a5760405162461bcd60e51b81526004018080602001828103825283818151815260200191508051906020019080838360005b838110156121f65780820151838201526020016121de565b50505050905090810190601f1680156122235780820380516001836020036101000a031916815260200191505b509250505060405180910390612237614fa9565b50505b50868151826020015183604001518460600151939b929a506001600160401b03918216995016965063ffffffff909116945092505050565b801561228657600080612283614fa9565b50505b61228e61173c565b50505050565b600061229f82613f75565b156122c85763ffffffff821660009081526009602052604090206122c1615014565b9050611b20565b506000919050565b60006122db82613f75565b156122c85763ffffffff82166000908152600960205260409020600101600890612303615014565b906101000a90046001600160401b03166001600160401b03169050611b20565b60008061232e615014565b906101000a90046001600160a01b03166001600160a01b03165a61235061506f565b6001600160a01b0316146123a15760405162461bcd60e51b8152602060048201526016602482015260008051602061550283398151915260448201526064016040518091039061239e614fa9565b50505b600080600d6123ae615014565b6001600160801b036101009290920a9004169050816123fa6123f3600060046123d5615014565b906101000a90046001600160801b03166001600160801b031661347e565b83906127c5565b101561240e5760008061240b614fa9565b50505b6000600261241a615014565b906101000a90046001600160a01b03166001600160a01b031663a9059cbb84846040516001600160e01b031960e085901b1681526001600160a01b03909216600483015260248201526044016020604051808303816000878061247b615103565b1580156124905760008061248d614fa9565b50505b505a61249a61514f565b5050505050501580156124ba573d6000803e3d60006124b7614fa9565b50505b505050506040513d60208110156124d9576000806124d6614fa9565b50505b81019080805192506124f6915050576000806124f3614fa9565b50505b610f3161173c565b6000600461250a615014565b906101000a90046001600160801b031681565b60146004610f7f615014565b60006010600d611727615014565b6001600160a01b038116600090815260086020526040812060009061255a615014565b6001600160801b036101009290920a90041692915050565b5a61257b61506f565b6001600160a01b0383811660009081526008602052911690604090206002016002906125a5615014565b906101000a90046001600160a01b03166001600160a01b0316146125d1576000806125ce614fa9565b50505b6001600160a01b038216600090815260086020528190604090206003016001816125f9615014565b816001600160a01b0302191690836001600160a01b031602179061261b6150b5565b505050816001600160a01b03167fb79bf2e89c2d70dde91d2991fb1ea69b7e478061ad7c04ed5b02b96bc52b81045a61265261506f565b836040516001600160a01b039283168152911660208201526040908101905180910390a25050565b600080612685615014565b906101000a90046001600160a01b03166001600160a01b03165a6126a761506f565b6001600160a01b0316146126f85760405162461bcd60e51b815260206004820152601660248201526000805160206155028339815191526044820152606401604051809103906126f5614fa9565b50505b8060018080612705615014565b816001600160a01b0302191690836001600160a01b03160217906127276150b5565b505050806001600160a01b031660008061273f615014565b906101000a90046001600160a01b03166001600160a01b03167fed8889f560326eb138920d842192f0eb3dd22b4f139c87a2c57538e05bae127860405160405180910390a350565b6000808080806127b46004600761279c615014565b906101000a900463ffffffff1663ffffffff166120b0565b945094509450945094509091929394565b6000828211156128125760405162461bcd60e51b815260206004820152601e602482015260008051602061552283398151915260448201526064016040518091039061280f614fa9565b50505b508082035b92915050565b60008261282c57506000612817565b8282028284828161283957fe5b041461287f5760405162461bcd60e51b81526004018080602001828103825260218152602001806154e1602191396040019150506040518091039061287c614fa9565b50505b9392505050565b6001600160a01b03821660009081526008602052606090604081206010906128ac615014565b906101000a900463ffffffff169050600060076000906128ca615014565b906101000a900463ffffffff1690508163ffffffff166000141561291c57604051806040016040528060128152602001716e6f7420656e61626c6564206f7261636c6560701b81525092505050612817565b8363ffffffff168263ffffffff16111561296857604051806040016040528060168152602001756e6f742079657420656e61626c6564206f7261636c6560501b81525092505050612817565b6001600160a01b0385166000908152600860205263ffffffff85169060409020601490612993615014565b906101000a900463ffffffff1663ffffffff1610156129e657604051806040016040528060188152602001776e6f206c6f6e67657220616c6c6f776564206f7261636c6560401b81525092505050612817565b6001600160a01b0385166000908152600860205263ffffffff85169060409020601890612a11615014565b906101000a900463ffffffff1663ffffffff1610612a68576040518060400160405280602081526020017f63616e6e6f74207265706f7274206f6e2070726576696f757320726f756e647381525092505050612817565b8063ffffffff168463ffffffff1614158015612aa45750612a9463ffffffff80831690600190613e0916565b63ffffffff168463ffffffff1614155b8015612ab75750612ab58482613f7f565b155b15612af557604051806040016040528060178152602001761a5b9d985b1a59081c9bdd5b99081d1bc81c995c1bdc9d604a1b81525092505050612817565b8363ffffffff16600114158015612b265750612b24612b1f63ffffffff80871690600190613fed16565b614043565b155b15612b6a576040518060400160405280601f81526020017f70726576696f757320726f756e64206e6f7420737570657273656461626c650081525092505050612817565b505092915050565b612b7b81614090565b612b8457612c70565b6000600860005a612b9361506f565b6001600160a01b03166001600160a01b03168152602001908152602001600020601c90612bbe615014565b63ffffffff6101009290920a900416905060186004612bdb615014565b906101000a900463ffffffff1663ffffffff1681018263ffffffff1611158015612c0457508015155b15612c0f5750612c70565b612c18826140b7565b81600860005a612c2661506f565b6001600160a01b03166001600160a01b03168152602001908152602001600020600160e01b81612c54615014565b8163ffffffff021916908363ffffffff16021790610d146150b5565b50565b612c7c816143b0565b612c8e57600080612c8b614fa9565b50505b63ffffffff81166000908152600a60205260409020829080600181612cb1615014565b018082612cbc6150b5565b505060009283526000190191602091502001612cd66150b5565b505080600860005a612ce661506f565b6001600160a01b03166001600160a01b03168152602001908152602001600020600160c01b81612d14615014565b8163ffffffff021916908363ffffffff16021790612d306150b5565b50505081600860005a612d4161506f565b6001600160a01b03166001600160a01b031681526020019081526020016000206001018190612d6e6150b5565b5050505a612d7a61506f565b6001600160a01b03168163ffffffff16837f92e98423f8adac6e64d0608e519fd1cefb861498385c6dee70d58fc926ddc68c60405160405180910390a45050565b63ffffffff81166000908152600a6020528060408120600101600490612ddf615014565b63ffffffff8581166000908152600a6020526101009390930a90910416906040902080612e0a615014565b90501015612e1d57506000905080612fda565b63ffffffff83166000908152600a602052612e9d6040822080612e3e615014565b806020026020016040519081016040528181529190602083018280612e61615014565b8015612e9357602002820191906000526020600020905b81612e81615014565b81526020019060010190808311612e78575b50505050506143ea565b63ffffffff8516600090815260096020529091508190604090208190612ec16150b5565b5050505a612ecd61533d565b63ffffffff85166000908152600960205260409020600101600160401b81612ef3615014565b816001600160401b0302191690836001600160401b0316021790612f156150b5565b50505063ffffffff841660009081526009602052849060409020600101600160801b81612f40615014565b8163ffffffff021916908363ffffffff16021790612f5c6150b5565b50505083600760046101000a81612f71615014565b8163ffffffff021916908363ffffffff16021790612f8d6150b5565b5050508363ffffffff16817f0559884fd3a460db3073b7fc896cc77986f16e378210ded43186175bf646fc5f5a612fc261533d565b60405190815260200160405180910390a36001925090505b915091565b63ffffffff81166000908152600a60205260408120600101600c90613002615014565b906101000a90046001600160801b0316905061301c61523a565b600d604051604080820190529081600082613035615014565b6001600160801b036101009290920a9004168152602001601082613057615014565b6001600160801b036101009290920a90041690525090506130838282516001600160801b031690613a0f565b6001600160801b031681526130a68260208301516001600160801b03169061449f565b6001600160801b0316602082015280600d8151816001816130c5615014565b816001600160801b0302191690836001600160801b03160217906130e76150b5565b505050602082015181600160801b816130fe615014565b816001600160801b0302191690836001600160801b03160217906131206150b5565b50505090505061317a82600860005a61313761506f565b6001600160a01b03166001600160a01b03168152602001908152602001600020600090613162615014565b6001600160801b036101009290920a9004169061449f565b600860005a61318761506f565b6001600160a01b03166001600160a01b031681526020019081526020016000206001816131b2615014565b816001600160801b0302191690836001600160801b03160217906131d46150b5565b5082915050516001600160801b031660008051602061554283398151915260405160405180910390a2505050565b63ffffffff81166000908152600a60205260409020600101600090613225615014565b63ffffffff8381166000908152600a6020526101009390930a90910416906040902080613250615014565b9050101561325d57612c70565b63ffffffff81166000908152600a60205260409020600061327e8282615383565b6001828101908161328d615014565b9063ffffffff0219169061329f6150b5565b505060018201600160201b816132b3615014565b9063ffffffff021916906132c56150b5565b505060018201600160401b816132d9615014565b9063ffffffff021916906132eb6150b5565b505060018201600160601b816132ff615014565b906001600160801b0302191690610d146150b5565b6000806003613321615014565b6001600160a01b036101009290920a9004169050806133405750610b24565b600061335763ffffffff80861690600190613fed16565b63ffffffff8116600090815260096020529091506040812060010160109061337d615014565b63ffffffff848116600090815260096020526101009390930a909104169150604081206133a8615014565b9050836001600160a01b031663beed9b51620493e084848a8a6040516001600160e01b031960e088901b16815263ffffffff9485166004820152602481019390935292166044820152606481019190915260840160206040518083038160008880613411615103565b15801561342657600080613423614fa9565b50505b508761343061514f565b5050505050509350505050801561346b57506040513d602081101561345d5760008061345a614fa9565b50505b810190808051925060019150505b61347457613476565b505b505050505050565b6000612817600261349a61349061199b565b859060ff1661281d565b9061281d565b6134a9816144f8565b6134bb576000806134b8614fa9565b50505b6134e46001600060076134cc615014565b63ffffffff6101009290920a900481169190613e0916565b6001600160a01b0382166000908152600860205260409020600160a01b8161350a615014565b8163ffffffff021916908363ffffffff160217906135266150b5565b5050506000600c613543600161353a61199b565b60ff16906127c5565b8161354c615014565b811061355457fe5b90600052602060002001600090613569615014565b6001600160a01b03848116600090815260086020526101009390930a9091041691506040812060020160009061359d615014565b906101000a900461ffff1690508060086000846001600160a01b03166001600160a01b031681526020019081526020016000206002016001816135de615014565b8161ffff021916908361ffff160217906135f66150b5565b5050506001600160a01b038316600090815260086020526040902060020160018161361f615014565b9061ffff0219169061362f6150b5565b505081600c8261ffff1681613642615014565b811061364a57fe5b9060005260206000200160018161365f615014565b816001600160a01b0302191690836001600160a01b03160217906136816150b5565b505050600c8061368f615014565b8061369657fe5b600190038181906000526020600020016001816136b1615014565b906001600160a01b03021916906136c66150b5565b5050906136d16150b5565b50600090506001600160a01b0384166000805160206154a183398151915260405160405180910390a3505050565b60008282018381101561287f5760405162461bcd60e51b815260206004820152601b60248201526000805160206154c183398151915260448201526064016040518091039061287c614fa9565b613755826144f8565b1561376857600080613765614fa9565b50505b6001600160a01b03811661378457600080613781614fa9565b50505b6001600160a01b03821660009081526008602052604081206002016002906137aa615014565b906101000a90046001600160a01b03166001600160a01b0316148061381057506001600160a01b038281166000908152600860205290821690604090206002016002906137f5615014565b906101000a90046001600160a01b03166001600160a01b0316145b6138225760008061381f614fa9565b50505b61382b82614536565b6001600160a01b0383166000908152600860205260409020600160801b81613851615014565b8163ffffffff021916908363ffffffff1602179061386d6150b5565b5050506001600160a01b0382166000908152600860205263ffffffff9060409020600160a01b8161389c615014565b8163ffffffff021916908363ffffffff160217906138b86150b5565b505050600c806138c6615014565b6001600160a01b03841660009081526008602052909150604090206002016001816138ef615014565b8161ffff021916908361ffff160217906139076150b5565b505050600c82908060018161391a615014565b0180826139256150b5565b505060009283526000190191602091502001600181613942615014565b816001600160a01b0302191690836001600160a01b03160217906139646150b5565b5050506001600160a01b038216600090815260086020528190604090206002016201000081613991615014565b816001600160a01b0302191690836001600160a01b03160217906139b36150b5565b5060019150506001600160a01b0383166000805160206154a183398151915260405160405180910390a3806001600160a01b0316826001600160a01b031660008051602061546083398151915260405160405180910390a35050565b6000826001600160801b0316826001600160801b031611156128125760405162461bcd60e51b815260206004820152601e602482015260008051602061552283398151915260448201526064016040518091039061280f614fa9565b63ffffffff8116600090815260096020528060408120600101600090613a8f615014565b906101000a90046001600160401b03166001600160401b03161115613ad257613ab7826143b0565b8015613acb5750613ac88383612886565b51155b9050612817565b613ab783836145bf565b600080805260096020528080808080808080604081206001600160a01b038b16600090815260086020529091506040812090506000806007613b1c615014565b63ffffffff6101009290920a900416601883613b36615014565b906101000a900463ffffffff1663ffffffff161480613b735750613b7160006007613b5f615014565b906101000a900463ffffffff166143b0565b155b9050613b9660006007613b84615014565b906101000a900463ffffffff16614043565b8015613b9f5750805b15613bfe57613bb56001600060076134cc615014565b63ffffffff811660009081526009602052909a5060409020925060006004613bdb615014565b906101000a90046001600160801b03169350613bf78c8b6145bf565b9a50613c6e565b60006007613c0a615014565b63ffffffff6101009290920a90041660008181526009602052909a506040902063ffffffff8b166000908152600a60205290935060409020600101600c90613c50615014565b906101000a90046001600160801b03169350613c6b8a6143b0565b9a505b613c788c8b612886565b5115613c835760009a505b8a8a83600101613c91615014565b600060018701613c9f615014565b906101000a90046001600160401b0316600a60008f63ffffffff1663ffffffff168152602001908152602001600020600101600890613cdc615014565b63ffffffff6101009290920a9004166000600d613cf7615014565b906101000a90046001600160801b0316613d0f61199b565b8a8363ffffffff1693509a509a509a509a509a509a509a509a50505050919395975091939597565b63ffffffff8116600090815260096020528060408120600101600090613d5b615014565b906101000a90046001600160401b031690506000600a60008563ffffffff1663ffffffff168152602001908152602001600020600101600890613d9c615014565b906101000a900463ffffffff1690506000826001600160401b0316118015613dca575060008163ffffffff16115b8015613e0157505a613dda61533d565b613df66001600160401b03841663ffffffff8085169061462b16565b6001600160401b0316105b949350505050565b600082820163ffffffff808516908216101561287f5760405162461bcd60e51b815260206004820152601b60248201526000805160206154c183398151915260448201526064016040518091039061287c614fa9565b613e6881614090565b613e7157612c70565b6000600b60005a613e8061506f565b6001600160a01b03166001600160a01b03168152602001908152602001600020600590613eab615014565b906101000a900463ffffffff1663ffffffff169050600b60005a613ecd61506f565b6001600160a01b03166001600160a01b03168152602001908152602001600020600190613ef8615014565b906101000a900463ffffffff1663ffffffff1681018263ffffffff161180613f1e575080155b613f3057600080613f2d614fa9565b50505b613f39826140b7565b81600b60005a613f4761506f565b6001600160a01b03166001600160a01b03168152602001908152602001600020600160281b81612c54615014565b63ffffffff101590565b60008163ffffffff16613fa260018563ffffffff16613e0990919063ffffffff16565b63ffffffff1614801561287f575063ffffffff82166000908152600960205260409020600101600890613fd3615014565b6001600160401b036101009290920a900416159392505050565b60008263ffffffff168263ffffffff1611156128125760405162461bcd60e51b815260206004820152601e602482015260008051602061552283398151915260448201526064016040518091039061280f614fa9565b63ffffffff8116600090815260096020528060408120600101600890614067615014565b906101000a90046001600160401b03166001600160401b03161180612817575061281782613d37565b60006140a260018260076134cc615014565b63ffffffff168263ffffffff16149050919050565b6140d46140cf63ffffffff80841690600190613fed16565b614684565b8060076001816140e2615014565b8163ffffffff021916908363ffffffff160217906140fe6150b5565b5050506141096153af565b60405160a0810160405280600060405190808252806020026020018201604052801561413f578160200160208202803683370190505b50815260200160106004614151615014565b63ffffffff6101009290920a900416815260200160146004614171615014565b63ffffffff6101009290920a9004168152602001601c6004614191615014565b63ffffffff6101009290920a9004168152602001600060046141b1615014565b6001600160801b036101009290920a900416905263ffffffff83166000908152600a6020529091508190604090208151819080516141f39291602001906153dc565b50602082015160018083019081614208615014565b8163ffffffff021916908363ffffffff160217906142246150b5565b505050604082015160018201600160201b8161423e615014565b8163ffffffff021916908363ffffffff1602179061425a6150b5565b505050606082015160018201600160401b81614274615014565b8163ffffffff021916908363ffffffff160217906142906150b5565b505050608082015160018201600160601b816142aa615014565b816001600160801b0302191690836001600160801b03160217906142cc6150b5565b50505050505a6142da61533d565b63ffffffff8316600090815260096020526040902060010160006101000a81614301615014565b816001600160401b0302191690836001600160401b03160217906143236150b5565b5050505a61432f61506f565b63ffffffff8316600081815260096020526001600160a01b0392909216917f0109fc6f55cf40689f02fbaad7af7fe7bbac8a3d2186600afc7d3e10cac602719060409020600101600090614381615014565b906101000a90046001600160401b03166040516001600160401b03909116815260200160405180910390a35050565b63ffffffff81166000908152600a602052604081206001016000906143d3615014565b6101009190910a900463ffffffff16151592915050565b600081516000106144435760405162461bcd60e51b81526020600482015260166024820152756c697374206d757374206e6f7420626520656d70747960501b604482015260640160405180910390614440614fa9565b50505b60008251905060028104600182166144865760008061446c86600060018703600187038761486f565b909250905061447b8282614967565b945050505050611b20565b61449684600060018503846149d5565b92505050611b20565b60008282016001600160801b03808516908216101561287f5760405162461bcd60e51b815260206004820152601b60248201526000805160206154c183398151915260448201526064016040518091039061287c614fa9565b6001600160a01b0381166000908152600860205263ffffffff60408220601490614520615014565b63ffffffff6101009290920a9004161492915050565b600080806007614544615014565b63ffffffff6101009290920a9004169050801580159061459e57506001600160a01b0383166000908152600860205260409020601490614582615014565b906101000a900463ffffffff1663ffffffff168163ffffffff16145b156145aa579050611b20565b61287f63ffffffff80831690600190613e0916565b6001600160a01b038216600090815260086020528060408120601c906145e3615014565b63ffffffff6101009290920a900416905060186004614600615014565b906101000a900463ffffffff1663ffffffff1681018363ffffffff161180613e015750159392505050565b60008282016001600160401b03808516908216101561287f5760405162461bcd60e51b815260206004820152601b60248201526000805160206154c183398151915260448201526064016040518091039061287c614fa9565b61468d81613d37565b61469657612c70565b60006146ad63ffffffff80841690600190613fed16565b63ffffffff811660009081526009602052909150604090206146cd615014565b63ffffffff8316600090815260096020526040902081906146ec6150b5565b50505063ffffffff81166000908152600960205260409020600101601090614712615014565b63ffffffff848116600090815260096020526101009390930a909104169060409020600101600160801b81614745615014565b8163ffffffff021916908363ffffffff160217906147616150b5565b5050505a61476d61533d565b63ffffffff83166000908152600960205260409020600101600160401b81614793615014565b816001600160401b0302191690836001600160401b03160217906147b56150b5565b50505063ffffffff82166000908152600a6020526040902060006147d98282615383565b600182810190816147e8615014565b9063ffffffff021916906147fa6150b5565b505060018201600160201b8161480e615014565b9063ffffffff021916906148206150b5565b505060018201600160401b81614834615014565b9063ffffffff021916906148466150b5565b505060018201600160601b8161485a615014565b906001600160801b03021916906134766150b5565b60008082841061488757600080614884614fa9565b50505b8386111580156148975750848411155b6148a9576000806148a6614fa9565b50505b8286111580156148b95750848311155b6148cb576000806148c8614fa9565b50505b600786860310156148ec576148e38787878787614a77565b9150915061495d565b60006148f9888888614e65565b905080841161490a57809550614957565b8481101561491d57806001019650614957565b80851115801561492c57508381105b61493257fe5b61493e888883886149d5565b925061494f888260010188876149d5565b91505061495d565b506148cb565b9550959350505050565b600080831280156149785750600082135b8061498e575060008313801561498e5750600082125b156149ae57600261499f8484614f42565b816149a657fe5b059050612817565b6000600280850781850701059050613e016149cf6002860560028605614f42565b82614f42565b6000818411156149ed576000806149ea614fa9565b50505b82821115614a0357600080614a00614fa9565b50505b82841015614a5a5760078484031015614a2f576000614a258686868687614a77565b509150613e019050565b6000614a3c868686614e65565b9050808311614a4d57809350614a54565b8060010194505b50614a03565b848481518110614a6657fe5b602002602001015195945050505050565b60008085850360010181888881518110614a8d57fe5b60200260200101519050600082600110614aae576001600160ff1b03614ac6565b898960010181518110614abd57fe5b60200260200101515b9050600083600210614adf576001600160ff1b03614af7565b8a8a60020181518110614aee57fe5b60200260200101515b9050600084600310614b10576001600160ff1b03614b28565b8b8b60030181518110614b1f57fe5b60200260200101515b9050600085600410614b41576001600160ff1b03614b59565b8c8c60040181518110614b5057fe5b60200260200101515b9050600086600510614b72576001600160ff1b03614b8a565b8d8d60050181518110614b8157fe5b60200260200101515b9050600087600610614ba3576001600160ff1b03614bbb565b8e8e60060181518110614bb257fe5b60200260200101515b905085871315614bc9579495945b83851315614bd5579293925b81831315614be1579091905b84871315614bed579395935b83861315614bf9579294925b80831315614c0357915b84861315614c0f579394935b80821315614c1957905b82871315614c25579195915b81861315614c31579094905b80851315614c3b57935b82861315614c47579194915b80841315614c5157925b82851315614c5d579193915b81841315614c69579092905b82841315614c75579192915b8d8c0380614c8557879a50614d33565b8060011415614c9657869a50614d33565b8060021415614ca757859a50614d33565b8060031415614cb857849a50614d33565b8060041415614cc957839a50614d33565b8060051415614cda57829a50614d33565b8060061415614ceb57819a50614d33565b60405162461bcd60e51b815260206004820152601060248201526f6b31206f7574206f6620626f756e647360801b604482015260640160405180910390614d30614fa9565b50505b8e8c038d8d1415614d5157508a995061495d98505050505050505050565b80614d68575096985061495d975050505050505050565b8060011415614d83575095985061495d975050505050505050565b8060021415614d9e575094985061495d975050505050505050565b8060031415614db9575093985061495d975050505050505050565b8060041415614dd4575092985061495d975050505050505050565b8060051415614def575091985061495d975050505050505050565b8060061415614e0a575090985061495d975050505050505050565b60405162461bcd60e51b815260206004820152601060248201526f6b32206f7574206f6620626f756e647360801b604482015260640160405180910390614e4f614fa9565b5050505050505050505050509550959350505050565b6000808460028585010481518110614e7957fe5b602002602001015190506001840393506001830192505b60018401935080858581518110614ea357fe5b602002602001015112614e90575b60018303925080858481518110614ec457fe5b602002602001015113614eb15782841015614f3457848381518110614ee557fe5b6020026020010151858581518110614ef957fe5b6020026020010151868681518110614f0d57fe5b60200260200101878681518110614f2057fe5b602090810291909101019190915252614f3d565b8291505061287f565b614e90565b6000828201818312801590614f575750838112155b80614f6c5750600083128015614f6c57508381125b61287f5760405162461bcd60e51b8152600401808060200182810382526021815260200180615480602191396040019150506040518091039061287c5b632a2a7adb598160e01b8152600481016020815285602082015260005b86811015614fe1578086015182820160400152602001614fc6565b506020828760640184336000905af158600e01573d6000803e3d6000fd5b3d6001141558600a015760016000f35b505050565b6303daa959598160e01b8152836004820152602081602483336000905af158600e01573d6000803e3d6000fd5b3d6001141558600a015760016000f35b8051935060005b6040811015610f3157600082820152602001615058565b6373509064598160e01b8152602081600483336000905af158600e01573d6000803e3d6000fd5b3d6001141558600a015760016000f35b80516000825293506020615058565b6322bd64c0598160e01b8152836004820152846024820152600081604483336000905af158600e01573d6000803e3d6000fd5b3d6001141558600a015760016000f35b600081526020615058565b638435035b598160e01b8152836004820152602081602483336000905af158600e01573d6000803e3d6000fd5b3d6001141558600a015760016000f35b80516000825293506020615058565b6385979f76598160e01b8152615180565b8080831115612817575090919050565b8080831015612817575090919050565b836004820152846024820152606060448201528760648201526084810160005b898110156151b85780890151828201526020016151a0565b506060828a60a40184336000905af158600e01573d6000803e3d6000fd5b3d6001141558600a015760016000f35b815160408301513d6000853e8c8c82606087013350600060045af1505961520d8e3d615170565b8d016152198187615160565b5b8281101561522e576000815260200161521a565b50929d50505050505050565b604051604080820190526000808252602082015290565b638540661f598160e01b8152836004820152846024820152606060448201528660648201526084810160005b8881101561529557808801518282015260200161527d565b506060828960a40184336000905af158600e01573d6000803e3d6000fd5b3d6001141558600a015760016000f35b815160408301513d6000853e8b8b82606087013350600060045af150596152ea8d3d615170565b8c016152f68187615160565b5b8281101561530b57600081526020016152f7565b50929c50505050505050565b604051608081016040908152600080835260208301819052908201819052606082015290565b63bdbf8c36598160e01b8152602081600483336000905af158600e01573d6000803e3d6000fd5b3d6001141558600a015760016000f35b80516000825293506020615058565b508061538d615014565b6000826153986150b5565b5050906000526020600020612c7091810190615440565b60405160a08101604090815260608083526000602084018190529183018290528201819052608082015290565b82806153e6615014565b82826153f06150b5565b5050906000526020600020908101928215615430579160200282015b828111156154305782518261541f6150b5565b50509160200191906001019061540c565b5061543c929150615440565b5090565b8082111561543c57600080826154546150b5565b50505060010161544056fe0c5055390645c15a4be9a21b3f8d019153dcb4a0c125685da6eb84048e2fe9045369676e6564536166654d6174683a206164646974696f6e206f766572666c6f7718dd09695e4fbdae8d1a5edb11221eb04564269c29a089b9753a6535c54ba92e536166654d6174683a206164646974696f6e206f766572666c6f770000000000536166654d6174683a206d756c7469706c69636174696f6e206f766572666c6f774f6e6c792063616c6c61626c65206279206f776e657200000000000000000000536166654d6174683a207375627472616374696f6e206f766572666c6f770000fe25c73e3b9089fac37d55c4c7efcba6f04af04cebd2fc4d6d7dbb07e1e5234f536166654d6174683a206d756c7469706c69636174696f6e206f766572666c6f77",
				"opcodes": "PUSH1 0xC0 PUSH1 0x40 MSTORE CALLVALUE DUP1 ISZERO PUSH3 0x1C JUMPI PUSH1 0x0 DUP1 PUSH3 0x19 PUSH3 0x886 JUMP JUMPDEST POP POP JUMPDEST POP PUSH1 0x40 MLOAD PUSH3 0x60B5 CODESIZE SUB DUP1 PUSH3 0x60B5 DUP4 CODECOPY DUP2 DUP2 ADD PUSH1 0x40 MSTORE PUSH2 0x100 DUP2 LT ISZERO PUSH3 0x4E JUMPI PUSH1 0x0 DUP1 PUSH3 0x4B PUSH3 0x886 JUMP JUMPDEST POP POP JUMPDEST DUP2 ADD SWAP1 DUP1 DUP1 MLOAD SWAP3 SWAP2 SWAP1 PUSH1 0x20 ADD DUP1 MLOAD SWAP3 SWAP2 SWAP1 PUSH1 0x20 ADD DUP1 MLOAD SWAP3 SWAP2 SWAP1 PUSH1 0x20 ADD DUP1 MLOAD SWAP3 SWAP2 SWAP1 PUSH1 0x20 ADD DUP1 MLOAD SWAP3 SWAP2 SWAP1 PUSH1 0x20 ADD DUP1 MLOAD SWAP3 SWAP2 SWAP1 PUSH1 0x20 ADD DUP1 MLOAD SWAP3 SWAP2 SWAP1 PUSH1 0x20 ADD DUP1 MLOAD PUSH1 0x40 MLOAD SWAP4 SWAP3 SWAP2 SWAP1 DUP5 PUSH5 0x100000000 DUP3 GT ISZERO PUSH3 0xB2 JUMPI PUSH1 0x0 DUP1 PUSH3 0xAF PUSH3 0x886 JUMP JUMPDEST POP POP JUMPDEST SWAP1 DUP4 ADD SWAP1 PUSH1 0x20 DUP3 ADD DUP6 DUP2 GT ISZERO PUSH3 0xD3 JUMPI PUSH1 0x0 DUP1 PUSH3 0xD0 PUSH3 0x886 JUMP JUMPDEST POP POP JUMPDEST DUP3 MLOAD PUSH5 0x100000000 DUP2 GT DUP3 DUP3 ADD DUP9 LT OR ISZERO PUSH3 0xF9 JUMPI PUSH1 0x0 DUP1 PUSH3 0xF6 PUSH3 0x886 JUMP JUMPDEST POP POP JUMPDEST DUP3 MSTORE POP PUSH1 0x20 ADD SWAP1 DUP1 MLOAD SWAP1 PUSH1 0x20 ADD SWAP1 DUP1 DUP4 DUP4 PUSH1 0x0 JUMPDEST DUP4 DUP2 LT ISZERO PUSH3 0x127 JUMPI DUP1 DUP3 ADD MLOAD DUP4 DUP3 ADD MSTORE PUSH1 0x20 ADD PUSH3 0x10D JUMP JUMPDEST POP POP POP POP SWAP1 POP SWAP1 DUP2 ADD SWAP1 PUSH1 0x1F AND DUP1 ISZERO PUSH3 0x155 JUMPI DUP1 DUP3 SUB DUP1 MLOAD PUSH1 0x1 DUP4 PUSH1 0x20 SUB PUSH2 0x100 EXP SUB NOT AND DUP2 MSTORE PUSH1 0x20 ADD SWAP2 POP JUMPDEST POP PUSH1 0x40 MSTORE POP POP POP GAS PUSH3 0x167 PUSH3 0x8F3 JUMP JUMPDEST PUSH1 0x0 PUSH1 0x1 DUP2 PUSH3 0x176 PUSH3 0x94F JUMP JUMPDEST DUP2 PUSH1 0x1 PUSH1 0x1 PUSH1 0xA0 SHL SUB MUL NOT AND SWAP1 DUP4 PUSH1 0x1 PUSH1 0x1 PUSH1 0xA0 SHL SUB AND MUL OR SWAP1 PUSH3 0x19A PUSH3 0x99C JUMP JUMPDEST POP POP POP DUP8 PUSH1 0x2 PUSH1 0x0 PUSH2 0x100 EXP DUP2 PUSH3 0x1B1 PUSH3 0x94F JUMP JUMPDEST DUP2 PUSH1 0x1 PUSH1 0x1 PUSH1 0xA0 SHL SUB MUL NOT AND SWAP1 DUP4 PUSH1 0x1 PUSH1 0x1 PUSH1 0xA0 SHL SUB AND MUL OR SWAP1 PUSH3 0x1D5 PUSH3 0x99C JUMP JUMPDEST POP POP POP PUSH3 0x1EF DUP8 PUSH1 0x0 DUP1 PUSH1 0x0 DUP11 PUSH3 0x2CB PUSH1 0x20 SHL PUSH1 0x20 SHR JUMP JUMPDEST PUSH3 0x1FA DUP6 PUSH3 0x604 JUMP JUMPDEST PUSH1 0x80 DUP5 SWAP1 MSTORE PUSH1 0xA0 DUP4 SWAP1 MSTORE DUP2 PUSH1 0x5 PUSH1 0x1 DUP2 PUSH3 0x214 PUSH3 0x94F JUMP JUMPDEST DUP2 PUSH1 0xFF MUL NOT AND SWAP1 DUP4 PUSH1 0xFF AND MUL OR SWAP1 PUSH3 0x22C PUSH3 0x99C JUMP JUMPDEST POP POP POP DUP1 PUSH1 0x6 SWAP1 DUP1 MLOAD PUSH3 0x245 SWAP3 SWAP2 PUSH1 0x20 ADD SWAP1 PUSH3 0x9EB JUMP JUMPDEST POP PUSH3 0x270 DUP7 PUSH4 0xFFFFFFFF AND GAS PUSH3 0x25C PUSH3 0xA9A JUMP JUMPDEST PUSH3 0x752 PUSH1 0x20 SHL PUSH3 0x27C5 OR SWAP1 SWAP2 SWAP1 PUSH1 0x20 SHR JUMP JUMPDEST PUSH1 0x0 DUP1 DUP1 MSTORE PUSH1 0x9 PUSH1 0x20 MSTORE PUSH1 0x40 SWAP1 KECCAK256 PUSH1 0x1 ADD PUSH9 0x10000000000000000 DUP2 PUSH3 0x296 PUSH3 0x94F JUMP JUMPDEST DUP2 PUSH1 0x1 PUSH1 0x1 PUSH1 0x40 SHL SUB MUL NOT AND SWAP1 DUP4 PUSH1 0x1 PUSH1 0x1 PUSH1 0x40 SHL SUB AND MUL OR SWAP1 PUSH3 0x2BA PUSH3 0x99C JUMP JUMPDEST POP POP POP POP POP POP POP POP POP POP POP PUSH3 0xB04 JUMP JUMPDEST PUSH1 0x0 DUP1 PUSH3 0x2D8 PUSH3 0x94F JUMP JUMPDEST SWAP1 PUSH2 0x100 EXP SWAP1 DIV PUSH1 0x1 PUSH1 0x1 PUSH1 0xA0 SHL SUB AND PUSH1 0x1 PUSH1 0x1 PUSH1 0xA0 SHL SUB AND GAS PUSH3 0x2FC PUSH3 0x8F3 JUMP JUMPDEST PUSH1 0x1 PUSH1 0x1 PUSH1 0xA0 SHL SUB AND EQ PUSH3 0x362 JUMPI PUSH1 0x40 MLOAD PUSH3 0x461BCD PUSH1 0xE5 SHL DUP2 MSTORE PUSH1 0x20 PUSH1 0x4 DUP3 ADD MSTORE PUSH1 0x16 PUSH1 0x24 DUP3 ADD MSTORE PUSH32 0x4F6E6C792063616C6C61626C65206279206F776E657200000000000000000000 PUSH1 0x44 DUP3 ADD MSTORE PUSH1 0x64 ADD PUSH1 0x40 MLOAD DUP1 SWAP2 SUB SWAP1 PUSH3 0x35F PUSH3 0x886 JUMP JUMPDEST POP POP JUMPDEST PUSH1 0x0 PUSH3 0x36E PUSH3 0x7BF JUMP JUMPDEST PUSH1 0xFF AND SWAP1 POP DUP5 PUSH4 0xFFFFFFFF AND DUP5 PUSH4 0xFFFFFFFF AND LT ISZERO PUSH3 0x398 JUMPI PUSH1 0x0 DUP1 PUSH3 0x395 PUSH3 0x886 JUMP JUMPDEST POP POP JUMPDEST DUP4 PUSH4 0xFFFFFFFF AND DUP2 PUSH4 0xFFFFFFFF AND LT ISZERO PUSH3 0x3BD JUMPI PUSH1 0x0 DUP1 PUSH3 0x3BA PUSH3 0x886 JUMP JUMPDEST POP POP JUMPDEST PUSH4 0xFFFFFFFF DUP2 AND ISZERO DUP1 PUSH3 0x3DC JUMPI POP DUP3 PUSH4 0xFFFFFFFF AND DUP2 PUSH4 0xFFFFFFFF AND GT JUMPDEST PUSH3 0x3F1 JUMPI PUSH1 0x0 DUP1 PUSH3 0x3EE PUSH3 0x886 JUMP JUMPDEST POP POP JUMPDEST PUSH3 0x405 PUSH1 0x1 PUSH1 0x1 PUSH1 0x80 SHL SUB DUP8 AND PUSH3 0x7D4 JUMP JUMPDEST PUSH1 0x0 PUSH1 0xD PUSH3 0x413 PUSH3 0x94F JUMP JUMPDEST SWAP1 PUSH2 0x100 EXP SWAP1 DIV PUSH1 0x1 PUSH1 0x1 PUSH1 0x80 SHL SUB AND PUSH1 0x1 PUSH1 0x1 PUSH1 0x80 SHL SUB AND LT ISZERO PUSH3 0x443 JUMPI PUSH1 0x0 DUP1 PUSH3 0x440 PUSH3 0x886 JUMP JUMPDEST POP POP JUMPDEST PUSH1 0x0 PUSH3 0x44F PUSH3 0x7BF JUMP JUMPDEST PUSH1 0xFF AND GT ISZERO PUSH3 0x478 JUMPI PUSH1 0x0 DUP6 PUSH4 0xFFFFFFFF AND GT PUSH3 0x478 JUMPI PUSH1 0x0 DUP1 PUSH3 0x475 PUSH3 0x886 JUMP JUMPDEST POP POP JUMPDEST DUP6 PUSH1 0x4 PUSH1 0x1 DUP2 PUSH3 0x488 PUSH3 0x94F JUMP JUMPDEST DUP2 PUSH1 0x1 PUSH1 0x1 PUSH1 0x80 SHL SUB MUL NOT AND SWAP1 DUP4 PUSH1 0x1 PUSH1 0x1 PUSH1 0x80 SHL SUB AND MUL OR SWAP1 PUSH3 0x4AC PUSH3 0x99C JUMP JUMPDEST POP POP POP DUP5 PUSH1 0x4 PUSH1 0x14 PUSH2 0x100 EXP DUP2 PUSH3 0x4C3 PUSH3 0x94F JUMP JUMPDEST DUP2 PUSH4 0xFFFFFFFF MUL NOT AND SWAP1 DUP4 PUSH4 0xFFFFFFFF AND MUL OR SWAP1 PUSH3 0x4E1 PUSH3 0x99C JUMP JUMPDEST POP POP POP DUP4 PUSH1 0x4 PUSH1 0x10 PUSH2 0x100 EXP DUP2 PUSH3 0x4F8 PUSH3 0x94F JUMP JUMPDEST DUP2 PUSH4 0xFFFFFFFF MUL NOT AND SWAP1 DUP4 PUSH4 0xFFFFFFFF AND MUL OR SWAP1 PUSH3 0x516 PUSH3 0x99C JUMP JUMPDEST POP POP POP DUP3 PUSH1 0x4 PUSH1 0x18 PUSH2 0x100 EXP DUP2 PUSH3 0x52D PUSH3 0x94F JUMP JUMPDEST DUP2 PUSH4 0xFFFFFFFF MUL NOT AND SWAP1 DUP4 PUSH4 0xFFFFFFFF AND MUL OR SWAP1 PUSH3 0x54B PUSH3 0x99C JUMP JUMPDEST POP POP POP DUP2 PUSH1 0x4 PUSH1 0x1C PUSH2 0x100 EXP DUP2 PUSH3 0x562 PUSH3 0x94F JUMP JUMPDEST DUP2 PUSH4 0xFFFFFFFF MUL NOT AND SWAP1 DUP4 PUSH4 0xFFFFFFFF AND MUL OR SWAP1 PUSH3 0x580 PUSH3 0x99C JUMP JUMPDEST POP POP POP DUP4 PUSH4 0xFFFFFFFF AND DUP6 PUSH4 0xFFFFFFFF AND PUSH1 0x4 PUSH1 0x0 SWAP1 PUSH3 0x5A0 PUSH3 0x94F JUMP JUMPDEST SWAP1 PUSH2 0x100 EXP SWAP1 DIV PUSH1 0x1 PUSH1 0x1 PUSH1 0x80 SHL SUB AND PUSH1 0x1 PUSH1 0x1 PUSH1 0x80 SHL SUB AND PUSH32 0x56800C9D1ED723511246614D15E58CFCDE15B6A33C245B5C961B689C1890FD8F DUP7 DUP7 PUSH1 0x40 MLOAD PUSH4 0xFFFFFFFF SWAP3 DUP4 AND DUP2 MSTORE SWAP2 AND PUSH1 0x20 DUP3 ADD MSTORE PUSH1 0x40 SWAP1 DUP2 ADD SWAP1 MLOAD DUP1 SWAP2 SUB SWAP1 LOG4 POP POP POP POP POP POP JUMP JUMPDEST PUSH1 0x0 DUP1 PUSH3 0x611 PUSH3 0x94F JUMP JUMPDEST SWAP1 PUSH2 0x100 EXP SWAP1 DIV PUSH1 0x1 PUSH1 0x1 PUSH1 0xA0 SHL SUB AND PUSH1 0x1 PUSH1 0x1 PUSH1 0xA0 SHL SUB AND GAS PUSH3 0x635 PUSH3 0x8F3 JUMP JUMPDEST PUSH1 0x1 PUSH1 0x1 PUSH1 0xA0 SHL SUB AND EQ PUSH3 0x69B JUMPI PUSH1 0x40 MLOAD PUSH3 0x461BCD PUSH1 0xE5 SHL DUP2 MSTORE PUSH1 0x20 PUSH1 0x4 DUP3 ADD MSTORE PUSH1 0x16 PUSH1 0x24 DUP3 ADD MSTORE PUSH32 0x4F6E6C792063616C6C61626C65206279206F776E657200000000000000000000 PUSH1 0x44 DUP3 ADD MSTORE PUSH1 0x64 ADD PUSH1 0x40 MLOAD DUP1 SWAP2 SUB SWAP1 PUSH3 0x698 PUSH3 0x886 JUMP JUMPDEST POP POP JUMPDEST PUSH1 0x0 DUP1 PUSH1 0x3 PUSH3 0x6AA PUSH3 0x94F JUMP JUMPDEST SWAP1 PUSH2 0x100 EXP SWAP1 DIV PUSH1 0x1 PUSH1 0x1 PUSH1 0xA0 SHL SUB AND SWAP1 POP DUP2 PUSH1 0x1 PUSH1 0x1 PUSH1 0xA0 SHL SUB AND DUP2 PUSH1 0x1 PUSH1 0x1 PUSH1 0xA0 SHL SUB AND EQ PUSH3 0x74E JUMPI DUP2 PUSH1 0x3 PUSH1 0x1 DUP2 PUSH3 0x6E6 PUSH3 0x94F JUMP JUMPDEST DUP2 PUSH1 0x1 PUSH1 0x1 PUSH1 0xA0 SHL SUB MUL NOT AND SWAP1 DUP4 PUSH1 0x1 PUSH1 0x1 PUSH1 0xA0 SHL SUB AND MUL OR SWAP1 PUSH3 0x70A PUSH3 0x99C JUMP JUMPDEST POP POP POP DUP2 PUSH1 0x1 PUSH1 0x1 PUSH1 0xA0 SHL SUB AND DUP2 PUSH1 0x1 PUSH1 0x1 PUSH1 0xA0 SHL SUB AND PUSH32 0xCFAC5DC75B8D9A7E074162F59D9ADCD33DA59F0FE8DFB21580DB298FC0FDAD0D PUSH1 0x40 MLOAD PUSH1 0x40 MLOAD DUP1 SWAP2 SUB SWAP1 LOG3 JUMPDEST POP POP JUMP JUMPDEST PUSH1 0x0 DUP3 DUP3 GT ISZERO PUSH3 0x7B4 JUMPI PUSH1 0x40 MLOAD PUSH3 0x461BCD PUSH1 0xE5 SHL DUP2 MSTORE PUSH1 0x20 PUSH1 0x4 DUP3 ADD MSTORE PUSH1 0x1E PUSH1 0x24 DUP3 ADD MSTORE PUSH32 0x536166654D6174683A207375627472616374696F6E206F766572666C6F770000 PUSH1 0x44 DUP3 ADD MSTORE PUSH1 0x64 ADD PUSH1 0x40 MLOAD DUP1 SWAP2 SUB SWAP1 PUSH3 0x7B1 PUSH3 0x886 JUMP JUMPDEST POP POP JUMPDEST POP DUP1 DUP3 SUB JUMPDEST SWAP3 SWAP2 POP POP JUMP JUMPDEST PUSH1 0x0 PUSH1 0xC DUP1 PUSH3 0x7CE PUSH3 0x94F JUMP JUMPDEST SWAP2 POP POP SWAP1 JUMP JUMPDEST PUSH1 0x0 PUSH3 0x7B9 PUSH1 0x2 PUSH3 0x802 PUSH3 0x7EA PUSH3 0x7BF JUMP JUMPDEST PUSH1 0xFF AND DUP6 PUSH3 0x816 PUSH1 0x20 SHL PUSH3 0x281D OR SWAP1 SWAP2 SWAP1 PUSH1 0x20 SHR JUMP JUMPDEST PUSH3 0x816 PUSH1 0x20 SHL PUSH3 0x281D OR SWAP1 SWAP2 SWAP1 PUSH1 0x20 SHR JUMP JUMPDEST PUSH1 0x0 DUP3 PUSH3 0x827 JUMPI POP PUSH1 0x0 PUSH3 0x7B9 JUMP JUMPDEST DUP3 DUP3 MUL DUP3 DUP5 DUP3 DUP2 PUSH3 0x835 JUMPI INVALID JUMPDEST DIV EQ PUSH3 0x87F JUMPI PUSH1 0x40 MLOAD PUSH3 0x461BCD PUSH1 0xE5 SHL DUP2 MSTORE PUSH1 0x4 ADD DUP1 DUP1 PUSH1 0x20 ADD DUP3 DUP2 SUB DUP3 MSTORE PUSH1 0x21 DUP2 MSTORE PUSH1 0x20 ADD DUP1 PUSH3 0x6094 PUSH1 0x21 SWAP2 CODECOPY PUSH1 0x40 ADD SWAP2 POP POP PUSH1 0x40 MLOAD DUP1 SWAP2 SUB SWAP1 PUSH3 0x87C PUSH3 0x886 JUMP JUMPDEST POP POP JUMPDEST SWAP4 SWAP3 POP POP POP JUMP JUMPDEST PUSH4 0x2A2A7ADB MSIZE DUP2 PUSH1 0xE0 SHL DUP2 MSTORE PUSH1 0x4 DUP2 ADD PUSH1 0x20 DUP2 MSTORE DUP6 PUSH1 0x20 DUP3 ADD MSTORE PUSH1 0x0 JUMPDEST DUP7 DUP2 LT ISZERO PUSH3 0x8C0 JUMPI DUP1 DUP7 ADD MLOAD DUP3 DUP3 ADD PUSH1 0x40 ADD MSTORE PUSH1 0x20 ADD PUSH3 0x8A3 JUMP JUMPDEST POP PUSH1 0x20 DUP3 DUP8 PUSH1 0x64 ADD DUP5 CALLER PUSH1 0x0 SWAP1 GAS CALL PC PUSH1 0xE ADD JUMPI RETURNDATASIZE PUSH1 0x0 DUP1 RETURNDATACOPY RETURNDATASIZE PUSH1 0x0 REVERT JUMPDEST RETURNDATASIZE PUSH1 0x1 EQ ISZERO PC PUSH1 0xA ADD JUMPI PUSH1 0x1 PUSH1 0x0 RETURN JUMPDEST POP POP POP JUMP JUMPDEST PUSH4 0x73509064 MSIZE DUP2 PUSH1 0xE0 SHL DUP2 MSTORE PUSH1 0x20 DUP2 PUSH1 0x4 DUP4 CALLER PUSH1 0x0 SWAP1 GAS CALL PC PUSH1 0xE ADD JUMPI RETURNDATASIZE PUSH1 0x0 DUP1 RETURNDATACOPY RETURNDATASIZE PUSH1 0x0 REVERT JUMPDEST RETURNDATASIZE PUSH1 0x1 EQ ISZERO PC PUSH1 0xA ADD JUMPI PUSH1 0x1 PUSH1 0x0 RETURN JUMPDEST DUP1 MLOAD SWAP4 POP PUSH1 0x0 JUMPDEST PUSH1 0x40 DUP2 LT ISZERO PUSH3 0x94A JUMPI PUSH1 0x0 DUP3 DUP3 ADD MSTORE PUSH1 0x20 ADD PUSH3 0x931 JUMP JUMPDEST POP POP POP JUMP JUMPDEST PUSH4 0x3DAA959 MSIZE DUP2 PUSH1 0xE0 SHL DUP2 MSTORE DUP4 PUSH1 0x4 DUP3 ADD MSTORE PUSH1 0x20 DUP2 PUSH1 0x24 DUP4 CALLER PUSH1 0x0 SWAP1 GAS CALL PC PUSH1 0xE ADD JUMPI RETURNDATASIZE PUSH1 0x0 DUP1 RETURNDATACOPY RETURNDATASIZE PUSH1 0x0 REVERT JUMPDEST RETURNDATASIZE PUSH1 0x1 EQ ISZERO PC PUSH1 0xA ADD JUMPI PUSH1 0x1 PUSH1 0x0 RETURN JUMPDEST DUP1 MLOAD PUSH1 0x0 DUP3 MSTORE SWAP4 POP PUSH1 0x20 PUSH3 0x931 JUMP JUMPDEST PUSH4 0x22BD64C0 MSIZE DUP2 PUSH1 0xE0 SHL DUP2 MSTORE DUP4 PUSH1 0x4 DUP3 ADD MSTORE DUP5 PUSH1 0x24 DUP3 ADD MSTORE PUSH1 0x0 DUP2 PUSH1 0x44 DUP4 CALLER PUSH1 0x0 SWAP1 GAS CALL PC PUSH1 0xE ADD JUMPI RETURNDATASIZE PUSH1 0x0 DUP1 RETURNDATACOPY RETURNDATASIZE PUSH1 0x0 REVERT JUMPDEST RETURNDATASIZE PUSH1 0x1 EQ ISZERO PC PUSH1 0xA ADD JUMPI PUSH1 0x1 PUSH1 0x0 RETURN JUMPDEST PUSH1 0x0 DUP2 MSTORE PUSH1 0x20 PUSH3 0x931 JUMP JUMPDEST DUP3 DUP1 PUSH3 0x9F7 PUSH3 0x94F JUMP JUMPDEST PUSH1 0x1 DUP2 PUSH1 0x1 AND ISZERO PUSH2 0x100 MUL SUB AND PUSH1 0x2 SWAP1 DIV SWAP1 PUSH1 0x0 MSTORE PUSH1 0x20 PUSH1 0x0 KECCAK256 SWAP1 PUSH1 0x1F ADD PUSH1 0x20 SWAP1 DIV DUP2 ADD SWAP3 DUP3 PUSH1 0x1F LT PUSH3 0xA42 JUMPI DUP1 MLOAD PUSH1 0xFF NOT AND DUP4 DUP1 ADD OR DUP6 PUSH3 0xA3A PUSH3 0x99C JUMP JUMPDEST POP POP PUSH3 0xA88 JUMP JUMPDEST DUP3 DUP1 ADD PUSH1 0x1 ADD DUP6 PUSH3 0xA53 PUSH3 0x99C JUMP JUMPDEST POP POP DUP3 ISZERO PUSH3 0xA88 JUMPI SWAP2 DUP3 ADD JUMPDEST DUP3 DUP2 GT ISZERO PUSH3 0xA88 JUMPI DUP3 MLOAD DUP3 PUSH3 0xA76 PUSH3 0x99C JUMP JUMPDEST POP POP SWAP2 PUSH1 0x20 ADD SWAP2 SWAP1 PUSH1 0x1 ADD SWAP1 PUSH3 0xA60 JUMP JUMPDEST POP PUSH3 0xA96 SWAP3 SWAP2 POP PUSH3 0xAE1 JUMP JUMPDEST POP SWAP1 JUMP JUMPDEST PUSH4 0xBDBF8C36 MSIZE DUP2 PUSH1 0xE0 SHL DUP2 MSTORE PUSH1 0x20 DUP2 PUSH1 0x4 DUP4 CALLER PUSH1 0x0 SWAP1 GAS CALL PC PUSH1 0xE ADD JUMPI RETURNDATASIZE PUSH1 0x0 DUP1 RETURNDATACOPY RETURNDATASIZE PUSH1 0x0 REVERT JUMPDEST RETURNDATASIZE PUSH1 0x1 EQ ISZERO PC PUSH1 0xA ADD JUMPI PUSH1 0x1 PUSH1 0x0 RETURN JUMPDEST DUP1 MLOAD PUSH1 0x0 DUP3 MSTORE SWAP4 POP PUSH1 0x20 PUSH3 0x931 JUMP JUMPDEST DUP1 DUP3 GT ISZERO PUSH3 0xA96 JUMPI PUSH1 0x0 DUP1 DUP3 PUSH3 0xAF8 PUSH3 0x99C JUMP JUMPDEST POP POP POP PUSH1 0x1 ADD PUSH3 0xAE1 JUMP JUMPDEST PUSH1 0x80 MLOAD PUSH1 0xA0 MLOAD PUSH2 0x5562 PUSH3 0xB32 PUSH1 0x0 CODECOPY DUP1 PUSH2 0xBA7 MSTORE DUP1 PUSH2 0xF38 MSTORE POP DUP1 PUSH2 0xB2A MSTORE DUP1 PUSH2 0x1D78 MSTORE POP PUSH2 0x5562 PUSH1 0x0 RETURN INVALID PUSH1 0x80 PUSH1 0x40 MSTORE CALLVALUE DUP1 ISZERO PUSH2 0x19 JUMPI PUSH1 0x0 DUP1 PUSH2 0x16 PUSH2 0x4FA9 JUMP JUMPDEST POP POP JUMPDEST POP PUSH1 0x4 CALLDATASIZE LT PUSH2 0x1EC JUMPI PUSH1 0x0 CALLDATALOAD PUSH1 0xE0 SHR DUP1 PUSH4 0x1327D3D8 EQ PUSH2 0x1FA JUMPI DUP1 PUSH4 0x202EE0ED EQ PUSH2 0x22B JUMPI DUP1 PUSH4 0x20ED0275 EQ PUSH2 0x257 JUMPI DUP1 PUSH4 0x23CA2903 EQ PUSH2 0x29A JUMPI DUP1 PUSH4 0x313CE567 EQ PUSH2 0x2B4 JUMPI DUP1 PUSH4 0x357EBB02 EQ PUSH2 0x2D2 JUMPI DUP1 PUSH4 0x38AA4C72 EQ PUSH2 0x2F3 JUMPI DUP1 PUSH4 0x3969C20F EQ PUSH2 0x346 JUMPI DUP1 PUSH4 0x3A5381B5 EQ PUSH2 0x4C6 JUMPI DUP1 PUSH4 0x3D3D7714 EQ PUSH2 0x4EA JUMPI DUP1 PUSH4 0x40884C52 EQ PUSH2 0x529 JUMPI DUP1 PUSH4 0x46FCFF4C EQ PUSH2 0x584 JUMPI DUP1 PUSH4 0x4F8FC3B5 EQ PUSH2 0x5A8 JUMPI DUP1 PUSH4 0x50D25BCD EQ PUSH2 0x5B0 JUMPI DUP1 PUSH4 0x54FD4D50 EQ PUSH2 0x5B8 JUMPI DUP1 PUSH4 0x57970E93 EQ PUSH2 0x5C0 JUMPI DUP1 PUSH4 0x58609E44 EQ PUSH2 0x5C8 JUMPI DUP1 PUSH4 0x613D8FCC EQ PUSH2 0x5D0 JUMPI DUP1 PUSH4 0x628806EF EQ PUSH2 0x5D8 JUMPI DUP1 PUSH4 0x64EFB22B EQ PUSH2 0x607 JUMPI DUP1 PUSH4 0x668A0F02 EQ PUSH2 0x636 JUMPI DUP1 PUSH4 0x70DEA79A EQ PUSH2 0x63E JUMPI DUP1 PUSH4 0x7284E416 EQ PUSH2 0x646 JUMPI DUP1 PUSH4 0x79BA5097 EQ PUSH2 0x6C5 JUMPI DUP1 PUSH4 0x7C2B0B21 EQ PUSH2 0x6CD JUMPI DUP1 PUSH4 0x8205BF6A EQ PUSH2 0x6D5 JUMPI DUP1 PUSH4 0x88AA80E7 EQ PUSH2 0x6DD JUMPI DUP1 PUSH4 0x8DA5CB5B EQ PUSH2 0x77E JUMPI DUP1 PUSH4 0x98E5B12A EQ PUSH2 0x786 JUMPI DUP1 PUSH4 0x9A6FC8F5 EQ PUSH2 0x7AA JUMPI DUP1 PUSH4 0xA4C0ED36 EQ PUSH2 0x81D JUMPI DUP1 PUSH4 0xB5AB58DC EQ PUSH2 0x8C4 JUMPI DUP1 PUSH4 0xB633620C EQ PUSH2 0x8EA JUMPI DUP1 PUSH4 0xC1075329 EQ PUSH2 0x910 JUMPI DUP1 PUSH4 0xC35905C6 EQ PUSH2 0x945 JUMPI DUP1 PUSH4 0xC9374500 EQ PUSH2 0x94D JUMPI DUP1 PUSH4 0xD4CC54E4 EQ PUSH2 0x955 JUMPI DUP1 PUSH4 0xE2E40317 EQ PUSH2 0x95D JUMPI DUP1 PUSH4 0xE9EE6EEB EQ PUSH2 0x98C JUMPI DUP1 PUSH4 0xF2FDE38B EQ PUSH2 0x9C3 JUMPI DUP1 PUSH4 0xFEAF968C EQ PUSH2 0x9F2 JUMPI JUMPDEST PUSH1 0x0 DUP1 PUSH2 0x1F7 PUSH2 0x4FA9 JUMP JUMPDEST POP POP JUMPDEST PUSH2 0x229 PUSH1 0x4 DUP1 CALLDATASIZE SUB PUSH1 0x20 DUP2 LT ISZERO PUSH2 0x219 JUMPI PUSH1 0x0 DUP1 PUSH2 0x216 PUSH2 0x4FA9 JUMP JUMPDEST POP POP JUMPDEST POP CALLDATALOAD PUSH1 0x1 PUSH1 0x1 PUSH1 0xA0 SHL SUB AND PUSH2 0x9FA JUMP JUMPDEST STOP JUMPDEST PUSH2 0x229 PUSH1 0x4 DUP1 CALLDATASIZE SUB PUSH1 0x40 DUP2 LT ISZERO PUSH2 0x24A JUMPI PUSH1 0x0 DUP1 PUSH2 0x247 PUSH2 0x4FA9 JUMP JUMPDEST POP POP JUMPDEST POP DUP1 CALLDATALOAD SWAP1 PUSH1 0x20 ADD CALLDATALOAD PUSH2 0xB28 JUMP JUMPDEST PUSH2 0x229 PUSH1 0x4 DUP1 CALLDATASIZE SUB PUSH1 0x60 DUP2 LT ISZERO PUSH2 0x276 JUMPI PUSH1 0x0 DUP1 PUSH2 0x273 PUSH2 0x4FA9 JUMP JUMPDEST POP POP JUMPDEST POP DUP1 CALLDATALOAD PUSH1 0x1 PUSH1 0x1 PUSH1 0xA0 SHL SUB AND SWAP1 PUSH1 0x20 DUP2 ADD CALLDATALOAD ISZERO ISZERO SWAP1 PUSH1 0x40 ADD CALLDATALOAD PUSH4 0xFFFFFFFF AND PUSH2 0xD1B JUMP JUMPDEST PUSH2 0x2A2 PUSH2 0xF36 JUMP JUMPDEST PUSH1 0x40 MLOAD SWAP1 DUP2 MSTORE PUSH1 0x20 ADD PUSH1 0x40 MLOAD DUP1 SWAP2 SUB SWAP1 RETURN JUMPDEST PUSH2 0x2BC PUSH2 0xF5A JUMP JUMPDEST PUSH1 0x40 MLOAD PUSH1 0xFF SWAP1 SWAP2 AND DUP2 MSTORE PUSH1 0x20 ADD PUSH1 0x40 MLOAD DUP1 SWAP2 SUB SWAP1 RETURN JUMPDEST PUSH2 0x2DA PUSH2 0xF73 JUMP JUMPDEST PUSH1 0x40 MLOAD PUSH4 0xFFFFFFFF SWAP1 SWAP2 AND DUP2 MSTORE PUSH1 0x20 ADD PUSH1 0x40 MLOAD DUP1 SWAP2 SUB SWAP1 RETURN JUMPDEST PUSH2 0x229 PUSH1 0x4 DUP1 CALLDATASIZE SUB PUSH1 0xA0 DUP2 LT ISZERO PUSH2 0x312 JUMPI PUSH1 0x0 DUP1 PUSH2 0x30F PUSH2 0x4FA9 JUMP JUMPDEST POP POP JUMPDEST POP PUSH1 0x1 PUSH1 0x1 PUSH1 0x80 SHL SUB DUP2 CALLDATALOAD AND SWAP1 PUSH4 0xFFFFFFFF PUSH1 0x20 DUP3 ADD CALLDATALOAD DUP2 AND SWAP2 PUSH1 0x40 DUP2 ADD CALLDATALOAD DUP3 AND SWAP2 PUSH1 0x60 DUP3 ADD CALLDATALOAD DUP2 AND SWAP2 PUSH1 0x80 ADD CALLDATALOAD AND PUSH2 0xF8F JUMP JUMPDEST PUSH2 0x229 PUSH1 0x4 DUP1 CALLDATASIZE SUB PUSH1 0xC0 DUP2 LT ISZERO PUSH2 0x365 JUMPI PUSH1 0x0 DUP1 PUSH2 0x362 PUSH2 0x4FA9 JUMP JUMPDEST POP POP JUMPDEST DUP2 ADD SWAP1 PUSH1 0x20 DUP2 ADD DUP2 CALLDATALOAD PUSH1 0x1 PUSH1 0x20 SHL DUP2 GT ISZERO PUSH2 0x388 JUMPI PUSH1 0x0 DUP1 PUSH2 0x385 PUSH2 0x4FA9 JUMP JUMPDEST POP POP JUMPDEST DUP3 ADD DUP4 PUSH1 0x20 DUP3 ADD GT ISZERO PUSH2 0x3A3 JUMPI PUSH1 0x0 DUP1 PUSH2 0x3A0 PUSH2 0x4FA9 JUMP JUMPDEST POP POP JUMPDEST DUP1 CALLDATALOAD SWAP1 PUSH1 0x20 ADD SWAP2 DUP5 PUSH1 0x20 DUP4 MUL DUP5 ADD GT PUSH1 0x1 PUSH1 0x20 SHL DUP4 GT OR ISZERO PUSH2 0x3CD JUMPI PUSH1 0x0 DUP1 PUSH2 0x3CA PUSH2 0x4FA9 JUMP JUMPDEST POP POP JUMPDEST SWAP2 SWAP4 SWAP1 SWAP3 SWAP1 SWAP2 PUSH1 0x20 DUP2 ADD SWAP1 CALLDATALOAD PUSH1 0x1 PUSH1 0x20 SHL DUP2 GT ISZERO PUSH2 0x3F3 JUMPI PUSH1 0x0 DUP1 PUSH2 0x3F0 PUSH2 0x4FA9 JUMP JUMPDEST POP POP JUMPDEST DUP3 ADD DUP4 PUSH1 0x20 DUP3 ADD GT ISZERO PUSH2 0x40E JUMPI PUSH1 0x0 DUP1 PUSH2 0x40B PUSH2 0x4FA9 JUMP JUMPDEST POP POP JUMPDEST DUP1 CALLDATALOAD SWAP1 PUSH1 0x20 ADD SWAP2 DUP5 PUSH1 0x20 DUP4 MUL DUP5 ADD GT PUSH1 0x1 PUSH1 0x20 SHL DUP4 GT OR ISZERO PUSH2 0x438 JUMPI PUSH1 0x0 DUP1 PUSH2 0x435 PUSH2 0x4FA9 JUMP JUMPDEST POP POP JUMPDEST SWAP2 SWAP4 SWAP1 SWAP3 SWAP1 SWAP2 PUSH1 0x20 DUP2 ADD SWAP1 CALLDATALOAD PUSH1 0x1 PUSH1 0x20 SHL DUP2 GT ISZERO PUSH2 0x45E JUMPI PUSH1 0x0 DUP1 PUSH2 0x45B PUSH2 0x4FA9 JUMP JUMPDEST POP POP JUMPDEST DUP3 ADD DUP4 PUSH1 0x20 DUP3 ADD GT ISZERO PUSH2 0x479 JUMPI PUSH1 0x0 DUP1 PUSH2 0x476 PUSH2 0x4FA9 JUMP JUMPDEST POP POP JUMPDEST DUP1 CALLDATALOAD SWAP1 PUSH1 0x20 ADD SWAP2 DUP5 PUSH1 0x20 DUP4 MUL DUP5 ADD GT PUSH1 0x1 PUSH1 0x20 SHL DUP4 GT OR ISZERO PUSH2 0x4A3 JUMPI PUSH1 0x0 DUP1 PUSH2 0x4A0 PUSH2 0x4FA9 JUMP JUMPDEST POP POP JUMPDEST SWAP2 SWAP4 POP SWAP2 POP PUSH4 0xFFFFFFFF DUP2 CALLDATALOAD DUP2 AND SWAP2 PUSH1 0x20 DUP2 ADD CALLDATALOAD DUP3 AND SWAP2 PUSH1 0x40 SWAP1 SWAP2 ADD CALLDATALOAD AND PUSH2 0x1280 JUMP JUMPDEST PUSH2 0x4CE PUSH2 0x1416 JUMP JUMPDEST PUSH1 0x40 MLOAD PUSH1 0x1 PUSH1 0x1 PUSH1 0xA0 SHL SUB SWAP1 SWAP2 AND DUP2 MSTORE PUSH1 0x20 ADD PUSH1 0x40 MLOAD DUP1 SWAP2 SUB SWAP1 RETURN JUMPDEST PUSH2 0x229 PUSH1 0x4 DUP1 CALLDATASIZE SUB PUSH1 0x60 DUP2 LT ISZERO PUSH2 0x509 JUMPI PUSH1 0x0 DUP1 PUSH2 0x506 PUSH2 0x4FA9 JUMP JUMPDEST POP POP JUMPDEST POP PUSH1 0x1 PUSH1 0x1 PUSH1 0xA0 SHL SUB DUP2 CALLDATALOAD DUP2 AND SWAP2 PUSH1 0x20 DUP2 ADD CALLDATALOAD SWAP1 SWAP2 AND SWAP1 PUSH1 0x40 ADD CALLDATALOAD PUSH2 0x1435 JUMP JUMPDEST PUSH2 0x531 PUSH2 0x1693 JUMP JUMPDEST PUSH1 0x40 MLOAD PUSH1 0x20 DUP1 DUP3 MSTORE DUP2 SWAP1 DUP2 ADD DUP4 DUP2 DUP2 MLOAD DUP2 MSTORE PUSH1 0x20 ADD SWAP2 POP DUP1 MLOAD SWAP1 PUSH1 0x20 ADD SWAP1 PUSH1 0x20 MUL DUP1 DUP4 DUP4 PUSH1 0x0 JUMPDEST DUP4 DUP2 LT ISZERO PUSH2 0x570 JUMPI DUP1 DUP3 ADD MLOAD DUP4 DUP3 ADD MSTORE PUSH1 0x20 ADD PUSH2 0x558 JUMP JUMPDEST POP POP POP POP SWAP1 POP ADD SWAP3 POP POP POP PUSH1 0x40 MLOAD DUP1 SWAP2 SUB SWAP1 RETURN JUMPDEST PUSH2 0x58C PUSH2 0x171A JUMP JUMPDEST PUSH1 0x40 MLOAD PUSH1 0x1 PUSH1 0x1 PUSH1 0x80 SHL SUB SWAP1 SWAP2 AND DUP2 MSTORE PUSH1 0x20 ADD PUSH1 0x40 MLOAD DUP1 SWAP2 SUB SWAP1 RETURN JUMPDEST PUSH2 0x229 PUSH2 0x173C JUMP JUMPDEST PUSH2 0x2A2 PUSH2 0x1939 JUMP JUMPDEST PUSH2 0x2A2 PUSH2 0x197E JUMP JUMPDEST PUSH2 0x4CE PUSH2 0x1983 JUMP JUMPDEST PUSH2 0x2DA PUSH2 0x198F JUMP JUMPDEST PUSH2 0x2BC PUSH2 0x199B JUMP JUMPDEST PUSH2 0x229 PUSH1 0x4 DUP1 CALLDATASIZE SUB PUSH1 0x20 DUP2 LT ISZERO PUSH2 0x5F7 JUMPI PUSH1 0x0 DUP1 PUSH2 0x5F4 PUSH2 0x4FA9 JUMP JUMPDEST POP POP JUMPDEST POP CALLDATALOAD PUSH1 0x1 PUSH1 0x1 PUSH1 0xA0 SHL SUB AND PUSH2 0x19AE JUMP JUMPDEST PUSH2 0x4CE PUSH1 0x4 DUP1 CALLDATASIZE SUB PUSH1 0x20 DUP2 LT ISZERO PUSH2 0x626 JUMPI PUSH1 0x0 DUP1 PUSH2 0x623 PUSH2 0x4FA9 JUMP JUMPDEST POP POP JUMPDEST POP CALLDATALOAD PUSH1 0x1 PUSH1 0x1 PUSH1 0xA0 SHL SUB AND PUSH2 0x1AE7 JUMP JUMPDEST PUSH2 0x2A2 PUSH2 0x1B25 JUMP JUMPDEST PUSH2 0x2DA PUSH2 0x1B4B JUMP JUMPDEST PUSH2 0x64E PUSH2 0x1B57 JUMP JUMPDEST PUSH1 0x40 MLOAD PUSH1 0x20 DUP1 DUP3 MSTORE DUP2 SWAP1 DUP2 ADD DUP4 DUP2 DUP2 MLOAD DUP2 MSTORE PUSH1 0x20 ADD SWAP2 POP DUP1 MLOAD SWAP1 PUSH1 0x20 ADD SWAP1 DUP1 DUP4 DUP4 PUSH1 0x0 JUMPDEST DUP4 DUP2 LT ISZERO PUSH2 0x68A JUMPI DUP1 DUP3 ADD MLOAD DUP4 DUP3 ADD MSTORE PUSH1 0x20 ADD PUSH2 0x672 JUMP JUMPDEST POP POP POP POP SWAP1 POP SWAP1 DUP2 ADD SWAP1 PUSH1 0x1F AND DUP1 ISZERO PUSH2 0x6B7 JUMPI DUP1 DUP3 SUB DUP1 MLOAD PUSH1 0x1 DUP4 PUSH1 0x20 SUB PUSH2 0x100 EXP SUB NOT AND DUP2 MSTORE PUSH1 0x20 ADD SWAP2 POP JUMPDEST POP SWAP3 POP POP POP PUSH1 0x40 MLOAD DUP1 SWAP2 SUB SWAP1 RETURN JUMPDEST PUSH2 0x229 PUSH2 0x1C10 JUMP JUMPDEST PUSH2 0x2A2 PUSH2 0x1D76 JUMP JUMPDEST PUSH2 0x2A2 PUSH2 0x1D9A JUMP JUMPDEST PUSH2 0x718 PUSH1 0x4 DUP1 CALLDATASIZE SUB PUSH1 0x40 DUP2 LT ISZERO PUSH2 0x6FC JUMPI PUSH1 0x0 DUP1 PUSH2 0x6F9 PUSH2 0x4FA9 JUMP JUMPDEST POP POP JUMPDEST POP DUP1 CALLDATALOAD PUSH1 0x1 PUSH1 0x1 PUSH1 0xA0 SHL SUB AND SWAP1 PUSH1 0x20 ADD CALLDATALOAD PUSH4 0xFFFFFFFF AND PUSH2 0x1DFE JUMP JUMPDEST PUSH1 0x40 MLOAD SWAP8 ISZERO ISZERO DUP9 MSTORE PUSH4 0xFFFFFFFF SWAP1 SWAP7 AND PUSH1 0x20 DUP9 ADD MSTORE PUSH1 0x40 DUP1 DUP9 ADD SWAP6 SWAP1 SWAP6 MSTORE PUSH1 0x1 PUSH1 0x1 PUSH1 0x40 SHL SUB SWAP4 DUP5 AND PUSH1 0x60 DUP9 ADD MSTORE SWAP2 SWAP1 SWAP3 AND PUSH1 0x80 DUP7 ADD MSTORE PUSH1 0x1 PUSH1 0x1 PUSH1 0x80 SHL SUB SWAP2 DUP3 AND PUSH1 0xA0 DUP7 ADD MSTORE PUSH1 0xFF AND PUSH1 0xC0 DUP6 ADD MSTORE SWAP2 SWAP1 SWAP2 AND PUSH1 0xE0 DUP4 ADD MSTORE PUSH2 0x100 SWAP1 SWAP2 ADD SWAP1 MLOAD DUP1 SWAP2 SUB SWAP1 RETURN JUMPDEST PUSH2 0x4CE PUSH2 0x1FAB JUMP JUMPDEST PUSH2 0x78E PUSH2 0x1FB6 JUMP JUMPDEST PUSH1 0x40 MLOAD PUSH1 0x1 PUSH1 0x1 PUSH1 0x50 SHL SUB SWAP1 SWAP2 AND DUP2 MSTORE PUSH1 0x20 ADD PUSH1 0x40 MLOAD DUP1 SWAP2 SUB SWAP1 RETURN JUMPDEST PUSH2 0x7D9 PUSH1 0x4 DUP1 CALLDATASIZE SUB PUSH1 0x20 DUP2 LT ISZERO PUSH2 0x7C9 JUMPI PUSH1 0x0 DUP1 PUSH2 0x7C6 PUSH2 0x4FA9 JUMP JUMPDEST POP POP JUMPDEST POP CALLDATALOAD PUSH1 0x1 PUSH1 0x1 PUSH1 0x50 SHL SUB AND PUSH2 0x20B0 JUMP JUMPDEST PUSH1 0x40 MLOAD DUP1 DUP7 PUSH1 0x1 PUSH1 0x1 PUSH1 0x50 SHL SUB AND DUP2 MSTORE PUSH1 0x20 ADD DUP6 DUP2 MSTORE PUSH1 0x20 ADD DUP5 DUP2 MSTORE PUSH1 0x20 ADD DUP4 DUP2 MSTORE PUSH1 0x20 ADD DUP3 PUSH1 0x1 PUSH1 0x1 PUSH1 0x50 SHL SUB AND DUP2 MSTORE PUSH1 0x20 ADD SWAP6 POP POP POP POP POP POP PUSH1 0x40 MLOAD DUP1 SWAP2 SUB SWAP1 RETURN JUMPDEST PUSH2 0x229 PUSH1 0x4 DUP1 CALLDATASIZE SUB PUSH1 0x60 DUP2 LT ISZERO PUSH2 0x83C JUMPI PUSH1 0x0 DUP1 PUSH2 0x839 PUSH2 0x4FA9 JUMP JUMPDEST POP POP JUMPDEST PUSH1 0x1 PUSH1 0x1 PUSH1 0xA0 SHL SUB DUP3 CALLDATALOAD AND SWAP2 PUSH1 0x20 DUP2 ADD CALLDATALOAD SWAP2 DUP2 ADD SWAP1 PUSH1 0x60 DUP2 ADD PUSH1 0x40 DUP3 ADD CALLDATALOAD PUSH1 0x1 PUSH1 0x20 SHL DUP2 GT ISZERO PUSH2 0x874 JUMPI PUSH1 0x0 DUP1 PUSH2 0x871 PUSH2 0x4FA9 JUMP JUMPDEST POP POP JUMPDEST DUP3 ADD DUP4 PUSH1 0x20 DUP3 ADD GT ISZERO PUSH2 0x88F JUMPI PUSH1 0x0 DUP1 PUSH2 0x88C PUSH2 0x4FA9 JUMP JUMPDEST POP POP JUMPDEST DUP1 CALLDATALOAD SWAP1 PUSH1 0x20 ADD SWAP2 DUP5 PUSH1 0x1 DUP4 MUL DUP5 ADD GT PUSH1 0x1 PUSH1 0x20 SHL DUP4 GT OR ISZERO PUSH2 0x8B9 JUMPI PUSH1 0x0 DUP1 PUSH2 0x8B6 PUSH2 0x4FA9 JUMP JUMPDEST POP POP JUMPDEST POP SWAP1 SWAP3 POP SWAP1 POP PUSH2 0x2272 JUMP JUMPDEST PUSH2 0x2A2 PUSH1 0x4 DUP1 CALLDATASIZE SUB PUSH1 0x20 DUP2 LT ISZERO PUSH2 0x8E3 JUMPI PUSH1 0x0 DUP1 PUSH2 0x8E0 PUSH2 0x4FA9 JUMP JUMPDEST POP POP JUMPDEST POP CALLDATALOAD PUSH2 0x2294 JUMP JUMPDEST PUSH2 0x2A2 PUSH1 0x4 DUP1 CALLDATASIZE SUB PUSH1 0x20 DUP2 LT ISZERO PUSH2 0x909 JUMPI PUSH1 0x0 DUP1 PUSH2 0x906 PUSH2 0x4FA9 JUMP JUMPDEST POP POP JUMPDEST POP CALLDATALOAD PUSH2 0x22D0 JUMP JUMPDEST PUSH2 0x229 PUSH1 0x4 DUP1 CALLDATASIZE SUB PUSH1 0x40 DUP2 LT ISZERO PUSH2 0x92F JUMPI PUSH1 0x0 DUP1 PUSH2 0x92C PUSH2 0x4FA9 JUMP JUMPDEST POP POP JUMPDEST POP PUSH1 0x1 PUSH1 0x1 PUSH1 0xA0 SHL SUB DUP2 CALLDATALOAD AND SWAP1 PUSH1 0x20 ADD CALLDATALOAD PUSH2 0x2323 JUMP JUMPDEST PUSH2 0x58C PUSH2 0x24FE JUMP JUMPDEST PUSH2 0x2DA PUSH2 0x251D JUMP JUMPDEST PUSH2 0x58C PUSH2 0x2529 JUMP JUMPDEST PUSH2 0x2A2 PUSH1 0x4 DUP1 CALLDATASIZE SUB PUSH1 0x20 DUP2 LT ISZERO PUSH2 0x97C JUMPI PUSH1 0x0 DUP1 PUSH2 0x979 PUSH2 0x4FA9 JUMP JUMPDEST POP POP JUMPDEST POP CALLDATALOAD PUSH1 0x1 PUSH1 0x1 PUSH1 0xA0 SHL SUB AND PUSH2 0x2537 JUMP JUMPDEST PUSH2 0x229 PUSH1 0x4 DUP1 CALLDATASIZE SUB PUSH1 0x40 DUP2 LT ISZERO PUSH2 0x9AB JUMPI PUSH1 0x0 DUP1 PUSH2 0x9A8 PUSH2 0x4FA9 JUMP JUMPDEST POP POP JUMPDEST POP PUSH1 0x1 PUSH1 0x1 PUSH1 0xA0 SHL SUB DUP2 CALLDATALOAD DUP2 AND SWAP2 PUSH1 0x20 ADD CALLDATALOAD AND PUSH2 0x2572 JUMP JUMPDEST PUSH2 0x229 PUSH1 0x4 DUP1 CALLDATASIZE SUB PUSH1 0x20 DUP2 LT ISZERO PUSH2 0x9E2 JUMPI PUSH1 0x0 DUP1 PUSH2 0x9DF PUSH2 0x4FA9 JUMP JUMPDEST POP POP JUMPDEST POP CALLDATALOAD PUSH1 0x1 PUSH1 0x1 PUSH1 0xA0 SHL SUB AND PUSH2 0x267A JUMP JUMPDEST PUSH2 0x7D9 PUSH2 0x2787 JUMP JUMPDEST PUSH1 0x0 DUP1 PUSH2 0xA05 PUSH2 0x5014 JUMP JUMPDEST SWAP1 PUSH2 0x100 EXP SWAP1 DIV PUSH1 0x1 PUSH1 0x1 PUSH1 0xA0 SHL SUB AND PUSH1 0x1 PUSH1 0x1 PUSH1 0xA0 SHL SUB AND GAS PUSH2 0xA27 PUSH2 0x506F JUMP JUMPDEST PUSH1 0x1 PUSH1 0x1 PUSH1 0xA0 SHL SUB AND EQ PUSH2 0xA78 JUMPI PUSH1 0x40 MLOAD PUSH3 0x461BCD PUSH1 0xE5 SHL DUP2 MSTORE PUSH1 0x20 PUSH1 0x4 DUP3 ADD MSTORE PUSH1 0x16 PUSH1 0x24 DUP3 ADD MSTORE PUSH1 0x0 DUP1 MLOAD PUSH1 0x20 PUSH2 0x5502 DUP4 CODECOPY DUP2 MLOAD SWAP2 MSTORE PUSH1 0x44 DUP3 ADD MSTORE PUSH1 0x64 ADD PUSH1 0x40 MLOAD DUP1 SWAP2 SUB SWAP1 PUSH2 0xA75 PUSH2 0x4FA9 JUMP JUMPDEST POP POP JUMPDEST PUSH1 0x0 DUP1 PUSH1 0x3 PUSH2 0xA85 PUSH2 0x5014 JUMP JUMPDEST SWAP1 PUSH2 0x100 EXP SWAP1 DIV PUSH1 0x1 PUSH1 0x1 PUSH1 0xA0 SHL SUB AND SWAP1 POP DUP2 PUSH1 0x1 PUSH1 0x1 PUSH1 0xA0 SHL SUB AND DUP2 PUSH1 0x1 PUSH1 0x1 PUSH1 0xA0 SHL SUB AND EQ PUSH2 0xB24 JUMPI DUP2 PUSH1 0x3 PUSH1 0x1 DUP2 PUSH2 0xABE PUSH2 0x5014 JUMP JUMPDEST DUP2 PUSH1 0x1 PUSH1 0x1 PUSH1 0xA0 SHL SUB MUL NOT AND SWAP1 DUP4 PUSH1 0x1 PUSH1 0x1 PUSH1 0xA0 SHL SUB AND MUL OR SWAP1 PUSH2 0xAE0 PUSH2 0x50B5 JUMP JUMPDEST POP POP POP DUP2 PUSH1 0x1 PUSH1 0x1 PUSH1 0xA0 SHL SUB AND DUP2 PUSH1 0x1 PUSH1 0x1 PUSH1 0xA0 SHL SUB AND PUSH32 0xCFAC5DC75B8D9A7E074162F59D9ADCD33DA59F0FE8DFB21580DB298FC0FDAD0D PUSH1 0x40 MLOAD PUSH1 0x40 MLOAD DUP1 SWAP2 SUB SWAP1 LOG3 JUMPDEST POP POP JUMP JUMPDEST PUSH32 0x0 DUP2 SLT ISZERO PUSH2 0xBA5 JUMPI PUSH1 0x40 MLOAD PUSH3 0x461BCD PUSH1 0xE5 SHL DUP2 MSTORE PUSH1 0x20 PUSH1 0x4 DUP3 ADD MSTORE PUSH1 0x1E PUSH1 0x24 DUP3 ADD MSTORE PUSH32 0x76616C75652062656C6F77206D696E5375626D697373696F6E56616C75650000 PUSH1 0x44 DUP3 ADD MSTORE PUSH1 0x64 ADD PUSH1 0x40 MLOAD DUP1 SWAP2 SUB SWAP1 PUSH2 0xBA2 PUSH2 0x4FA9 JUMP JUMPDEST POP POP JUMPDEST PUSH32 0x0 DUP2 SGT ISZERO PUSH2 0xC22 JUMPI PUSH1 0x40 MLOAD PUSH3 0x461BCD PUSH1 0xE5 SHL DUP2 MSTORE PUSH1 0x20 PUSH1 0x4 DUP3 ADD MSTORE PUSH1 0x1E PUSH1 0x24 DUP3 ADD MSTORE PUSH32 0x76616C75652061626F7665206D61785375626D697373696F6E56616C75650000 PUSH1 0x44 DUP3 ADD MSTORE PUSH1 0x64 ADD PUSH1 0x40 MLOAD DUP1 SWAP2 SUB SWAP1 PUSH2 0xC1F PUSH2 0x4FA9 JUMP JUMPDEST POP POP JUMPDEST PUSH1 0x60 PUSH2 0xC36 GAS PUSH2 0xC30 PUSH2 0x506F JUMP JUMPDEST DUP5 PUSH2 0x2886 JUMP JUMPDEST SWAP1 POP DUP1 MLOAD DUP2 SWAP1 ISZERO PUSH2 0xCCE JUMPI PUSH1 0x40 MLOAD PUSH3 0x461BCD PUSH1 0xE5 SHL DUP2 MSTORE PUSH1 0x4 ADD DUP1 DUP1 PUSH1 0x20 ADD DUP3 DUP2 SUB DUP3 MSTORE DUP4 DUP2 DUP2 MLOAD DUP2 MSTORE PUSH1 0x20 ADD SWAP2 POP DUP1 MLOAD SWAP1 PUSH1 0x20 ADD SWAP1 DUP1 DUP4 DUP4 PUSH1 0x0 JUMPDEST DUP4 DUP2 LT ISZERO PUSH2 0xC8A JUMPI DUP1 DUP3 ADD MLOAD DUP4 DUP3 ADD MSTORE PUSH1 0x20 ADD PUSH2 0xC72 JUMP JUMPDEST POP POP POP POP SWAP1 POP SWAP1 DUP2 ADD SWAP1 PUSH1 0x1F AND DUP1 ISZERO PUSH2 0xCB7 JUMPI DUP1 DUP3 SUB DUP1 MLOAD PUSH1 0x1 DUP4 PUSH1 0x20 SUB PUSH2 0x100 EXP SUB NOT AND DUP2 MSTORE PUSH1 0x20 ADD SWAP2 POP JUMPDEST POP SWAP3 POP POP POP PUSH1 0x40 MLOAD DUP1 SWAP2 SUB SWAP1 PUSH2 0xCCB PUSH2 0x4FA9 JUMP JUMPDEST POP POP JUMPDEST POP PUSH2 0xCD8 DUP4 PUSH2 0x2B72 JUMP JUMPDEST PUSH2 0xCE2 DUP3 DUP5 PUSH2 0x2C73 JUMP JUMPDEST PUSH1 0x0 DUP1 PUSH2 0xCEE DUP6 PUSH2 0x2DBB JUMP JUMPDEST SWAP2 POP SWAP2 POP PUSH2 0xCFB DUP6 PUSH2 0x2FDF JUMP JUMPDEST PUSH2 0xD04 DUP6 PUSH2 0x3202 JUMP JUMPDEST DUP2 ISZERO PUSH2 0xD14 JUMPI PUSH2 0xD14 DUP6 DUP3 PUSH2 0x3314 JUMP JUMPDEST POP POP POP POP POP JUMP JUMPDEST PUSH1 0x0 DUP1 PUSH2 0xD26 PUSH2 0x5014 JUMP JUMPDEST SWAP1 PUSH2 0x100 EXP SWAP1 DIV PUSH1 0x1 PUSH1 0x1 PUSH1 0xA0 SHL SUB AND PUSH1 0x1 PUSH1 0x1 PUSH1 0xA0 SHL SUB AND GAS PUSH2 0xD48 PUSH2 0x506F JUMP JUMPDEST PUSH1 0x1 PUSH1 0x1 PUSH1 0xA0 SHL SUB AND EQ PUSH2 0xD99 JUMPI PUSH1 0x40 MLOAD PUSH3 0x461BCD PUSH1 0xE5 SHL DUP2 MSTORE PUSH1 0x20 PUSH1 0x4 DUP3 ADD MSTORE PUSH1 0x16 PUSH1 0x24 DUP3 ADD MSTORE PUSH1 0x0 DUP1 MLOAD PUSH1 0x20 PUSH2 0x5502 DUP4 CODECOPY DUP2 MLOAD SWAP2 MSTORE PUSH1 0x44 DUP3 ADD MSTORE PUSH1 0x64 ADD PUSH1 0x40 MLOAD DUP1 SWAP2 SUB SWAP1 PUSH2 0xD96 PUSH2 0x4FA9 JUMP JUMPDEST POP POP JUMPDEST PUSH1 0x1 PUSH1 0x1 PUSH1 0xA0 SHL SUB DUP4 AND PUSH1 0x0 SWAP1 DUP2 MSTORE PUSH1 0xB PUSH1 0x20 MSTORE DUP3 ISZERO ISZERO SWAP1 PUSH1 0x40 SWAP1 KECCAK256 PUSH1 0x0 SWAP1 PUSH2 0xDC0 PUSH2 0x5014 JUMP JUMPDEST SWAP1 PUSH2 0x100 EXP SWAP1 DIV PUSH1 0xFF AND ISZERO ISZERO EQ ISZERO PUSH2 0xDD7 JUMPI PUSH2 0xF31 JUMP JUMPDEST DUP2 ISZERO PUSH2 0xE64 JUMPI PUSH1 0x1 PUSH1 0x1 PUSH1 0xA0 SHL SUB DUP4 AND PUSH1 0x0 SWAP1 DUP2 MSTORE PUSH1 0xB PUSH1 0x20 MSTORE DUP3 SWAP1 PUSH1 0x40 SWAP1 KECCAK256 PUSH1 0x1 DUP2 PUSH2 0xE02 PUSH2 0x5014 JUMP JUMPDEST DUP2 PUSH1 0xFF MUL NOT AND SWAP1 DUP4 ISZERO ISZERO MUL OR SWAP1 PUSH2 0xE17 PUSH2 0x50B5 JUMP JUMPDEST POP POP POP PUSH1 0x1 PUSH1 0x1 PUSH1 0xA0 SHL SUB DUP4 AND PUSH1 0x0 SWAP1 DUP2 MSTORE PUSH1 0xB PUSH1 0x20 MSTORE DUP2 SWAP1 PUSH1 0x40 SWAP1 KECCAK256 PUSH2 0x100 DUP2 PUSH2 0xE40 PUSH2 0x5014 JUMP JUMPDEST DUP2 PUSH4 0xFFFFFFFF MUL NOT AND SWAP1 DUP4 PUSH4 0xFFFFFFFF AND MUL OR SWAP1 PUSH2 0xE5C PUSH2 0x50B5 JUMP JUMPDEST POP POP POP PUSH2 0xEE4 JUMP JUMPDEST PUSH1 0x1 PUSH1 0x1 PUSH1 0xA0 SHL SUB DUP4 AND PUSH1 0x0 SWAP1 DUP2 MSTORE PUSH1 0xB PUSH1 0x20 MSTORE PUSH1 0x40 SWAP1 KECCAK256 PUSH1 0x0 DUP2 PUSH1 0x1 DUP2 PUSH2 0xE8A PUSH2 0x5014 JUMP JUMPDEST SWAP1 PUSH1 0xFF MUL NOT AND SWAP1 PUSH2 0xE99 PUSH2 0x50B5 JUMP JUMPDEST POP DUP3 SWAP1 POP PUSH2 0x100 DUP2 PUSH2 0xEA9 PUSH2 0x5014 JUMP JUMPDEST SWAP1 PUSH4 0xFFFFFFFF MUL NOT AND SWAP1 PUSH2 0xEBB PUSH2 0x50B5 JUMP JUMPDEST POP DUP3 SWAP1 POP PUSH1 0x1 PUSH1 0x28 SHL DUP2 PUSH2 0xECD PUSH2 0x5014 JUMP JUMPDEST SWAP1 PUSH4 0xFFFFFFFF MUL NOT AND SWAP1 PUSH2 0xEDF PUSH2 0x50B5 JUMP JUMPDEST POP POP POP POP JUMPDEST DUP3 PUSH1 0x1 PUSH1 0x1 PUSH1 0xA0 SHL SUB AND PUSH32 0xC3DF5A754E002718F2E10804B99E6605E7C701D95CEC9552C7680CA2B6F2820A DUP4 DUP4 PUSH1 0x40 MLOAD SWAP2 ISZERO ISZERO DUP3 MSTORE PUSH4 0xFFFFFFFF AND PUSH1 0x20 DUP3 ADD MSTORE PUSH1 0x40 SWAP1 DUP2 ADD SWAP1 MLOAD DUP1 SWAP2 SUB SWAP1 LOG2 JUMPDEST POP POP POP JUMP JUMPDEST PUSH32 0x0 DUP2 JUMP JUMPDEST PUSH1 0x0 PUSH1 0x5 PUSH2 0xF66 PUSH2 0x5014 JUMP JUMPDEST SWAP1 PUSH2 0x100 EXP SWAP1 DIV PUSH1 0xFF AND DUP2 JUMP JUMPDEST PUSH1 0x18 PUSH1 0x4 PUSH2 0xF7F PUSH2 0x5014 JUMP JUMPDEST SWAP1 PUSH2 0x100 EXP SWAP1 DIV PUSH4 0xFFFFFFFF AND DUP2 JUMP JUMPDEST PUSH1 0x0 DUP1 PUSH2 0xF9A PUSH2 0x5014 JUMP JUMPDEST SWAP1 PUSH2 0x100 EXP SWAP1 DIV PUSH1 0x1 PUSH1 0x1 PUSH1 0xA0 SHL SUB AND PUSH1 0x1 PUSH1 0x1 PUSH1 0xA0 SHL SUB AND GAS PUSH2 0xFBC PUSH2 0x506F JUMP JUMPDEST PUSH1 0x1 PUSH1 0x1 PUSH1 0xA0 SHL SUB AND EQ PUSH2 0x100D JUMPI PUSH1 0x40 MLOAD PUSH3 0x461BCD PUSH1 0xE5 SHL DUP2 MSTORE PUSH1 0x20 PUSH1 0x4 DUP3 ADD MSTORE PUSH1 0x16 PUSH1 0x24 DUP3 ADD MSTORE PUSH1 0x0 DUP1 MLOAD PUSH1 0x20 PUSH2 0x5502 DUP4 CODECOPY DUP2 MLOAD SWAP2 MSTORE PUSH1 0x44 DUP3 ADD MSTORE PUSH1 0x64 ADD PUSH1 0x40 MLOAD DUP1 SWAP2 SUB SWAP1 PUSH2 0x100A PUSH2 0x4FA9 JUMP JUMPDEST POP POP JUMPDEST PUSH1 0x0 PUSH2 0x1017 PUSH2 0x199B JUMP JUMPDEST PUSH1 0xFF AND SWAP1 POP DUP5 PUSH4 0xFFFFFFFF AND DUP5 PUSH4 0xFFFFFFFF AND LT ISZERO PUSH2 0x103E JUMPI PUSH1 0x0 DUP1 PUSH2 0x103B PUSH2 0x4FA9 JUMP JUMPDEST POP POP JUMPDEST DUP4 PUSH4 0xFFFFFFFF AND DUP2 PUSH4 0xFFFFFFFF AND LT ISZERO PUSH2 0x1060 JUMPI PUSH1 0x0 DUP1 PUSH2 0x105D PUSH2 0x4FA9 JUMP JUMPDEST POP POP JUMPDEST PUSH4 0xFFFFFFFF DUP2 AND ISZERO DUP1 PUSH2 0x107E JUMPI POP DUP3 PUSH4 0xFFFFFFFF AND DUP2 PUSH4 0xFFFFFFFF AND GT JUMPDEST PUSH2 0x1090 JUMPI PUSH1 0x0 DUP1 PUSH2 0x108D PUSH2 0x4FA9 JUMP JUMPDEST POP POP JUMPDEST PUSH2 0x10A2 DUP7 PUSH1 0x1 PUSH1 0x1 PUSH1 0x80 SHL SUB AND PUSH2 0x347E JUMP JUMPDEST PUSH1 0x0 PUSH1 0xD PUSH2 0x10AE PUSH2 0x5014 JUMP JUMPDEST SWAP1 PUSH2 0x100 EXP SWAP1 DIV PUSH1 0x1 PUSH1 0x1 PUSH1 0x80 SHL SUB AND PUSH1 0x1 PUSH1 0x1 PUSH1 0x80 SHL SUB AND LT ISZERO PUSH2 0x10DB JUMPI PUSH1 0x0 DUP1 PUSH2 0x10D8 PUSH2 0x4FA9 JUMP JUMPDEST POP POP JUMPDEST PUSH1 0x0 PUSH2 0x10E5 PUSH2 0x199B JUMP JUMPDEST PUSH1 0xFF AND GT ISZERO PUSH2 0x110A JUMPI PUSH1 0x0 DUP6 PUSH4 0xFFFFFFFF AND GT PUSH2 0x110A JUMPI PUSH1 0x0 DUP1 PUSH2 0x1107 PUSH2 0x4FA9 JUMP JUMPDEST POP POP JUMPDEST DUP6 PUSH1 0x4 PUSH1 0x1 DUP2 PUSH2 0x1118 PUSH2 0x5014 JUMP JUMPDEST DUP2 PUSH1 0x1 PUSH1 0x1 PUSH1 0x80 SHL SUB MUL NOT AND SWAP1 DUP4 PUSH1 0x1 PUSH1 0x1 PUSH1 0x80 SHL SUB AND MUL OR SWAP1 PUSH2 0x113A PUSH2 0x50B5 JUMP JUMPDEST POP POP POP DUP5 PUSH1 0x4 PUSH1 0x14 PUSH2 0x100 EXP DUP2 PUSH2 0x114F PUSH2 0x5014 JUMP JUMPDEST DUP2 PUSH4 0xFFFFFFFF MUL NOT AND SWAP1 DUP4 PUSH4 0xFFFFFFFF AND MUL OR SWAP1 PUSH2 0x116B PUSH2 0x50B5 JUMP JUMPDEST POP POP POP DUP4 PUSH1 0x4 PUSH1 0x10 PUSH2 0x100 EXP DUP2 PUSH2 0x1180 PUSH2 0x5014 JUMP JUMPDEST DUP2 PUSH4 0xFFFFFFFF MUL NOT AND SWAP1 DUP4 PUSH4 0xFFFFFFFF AND MUL OR SWAP1 PUSH2 0x119C PUSH2 0x50B5 JUMP JUMPDEST POP POP POP DUP3 PUSH1 0x4 PUSH1 0x18 PUSH2 0x100 EXP DUP2 PUSH2 0x11B1 PUSH2 0x5014 JUMP JUMPDEST DUP2 PUSH4 0xFFFFFFFF MUL NOT AND SWAP1 DUP4 PUSH4 0xFFFFFFFF AND MUL OR SWAP1 PUSH2 0x11CD PUSH2 0x50B5 JUMP JUMPDEST POP POP POP DUP2 PUSH1 0x4 PUSH1 0x1C PUSH2 0x100 EXP DUP2 PUSH2 0x11E2 PUSH2 0x5014 JUMP JUMPDEST DUP2 PUSH4 0xFFFFFFFF MUL NOT AND SWAP1 DUP4 PUSH4 0xFFFFFFFF AND MUL OR SWAP1 PUSH2 0x11FE PUSH2 0x50B5 JUMP JUMPDEST POP POP POP DUP4 PUSH4 0xFFFFFFFF AND DUP6 PUSH4 0xFFFFFFFF AND PUSH1 0x4 PUSH1 0x0 SWAP1 PUSH2 0x121C PUSH2 0x5014 JUMP JUMPDEST SWAP1 PUSH2 0x100 EXP SWAP1 DIV PUSH1 0x1 PUSH1 0x1 PUSH1 0x80 SHL SUB AND PUSH1 0x1 PUSH1 0x1 PUSH1 0x80 SHL SUB AND PUSH32 0x56800C9D1ED723511246614D15E58CFCDE15B6A33C245B5C961B689C1890FD8F DUP7 DUP7 PUSH1 0x40 MLOAD PUSH4 0xFFFFFFFF SWAP3 DUP4 AND DUP2 MSTORE SWAP2 AND PUSH1 0x20 DUP3 ADD MSTORE PUSH1 0x40 SWAP1 DUP2 ADD SWAP1 MLOAD DUP1 SWAP2 SUB SWAP1 LOG4 POP POP POP POP POP POP JUMP JUMPDEST PUSH1 0x0 DUP1 PUSH2 0x128B PUSH2 0x5014 JUMP JUMPDEST SWAP1 PUSH2 0x100 EXP SWAP1 DIV PUSH1 0x1 PUSH1 0x1 PUSH1 0xA0 SHL SUB AND PUSH1 0x1 PUSH1 0x1 PUSH1 0xA0 SHL SUB AND GAS PUSH2 0x12AD PUSH2 0x506F JUMP JUMPDEST PUSH1 0x1 PUSH1 0x1 PUSH1 0xA0 SHL SUB AND EQ PUSH2 0x12FE JUMPI PUSH1 0x40 MLOAD PUSH3 0x461BCD PUSH1 0xE5 SHL DUP2 MSTORE PUSH1 0x20 PUSH1 0x4 DUP3 ADD MSTORE PUSH1 0x16 PUSH1 0x24 DUP3 ADD MSTORE PUSH1 0x0 DUP1 MLOAD PUSH1 0x20 PUSH2 0x5502 DUP4 CODECOPY DUP2 MLOAD SWAP2 MSTORE PUSH1 0x44 DUP3 ADD MSTORE PUSH1 0x64 ADD PUSH1 0x40 MLOAD DUP1 SWAP2 SUB SWAP1 PUSH2 0x12FB PUSH2 0x4FA9 JUMP JUMPDEST POP POP JUMPDEST PUSH1 0x0 JUMPDEST DUP9 DUP2 LT ISZERO PUSH2 0x1335 JUMPI PUSH2 0x132D DUP11 DUP11 DUP4 DUP2 DUP2 LT PUSH2 0x1318 JUMPI INVALID JUMPDEST SWAP1 POP PUSH1 0x20 MUL ADD CALLDATALOAD PUSH1 0x1 PUSH1 0x1 PUSH1 0xA0 SHL SUB AND PUSH2 0x34A0 JUMP JUMPDEST PUSH1 0x1 ADD PUSH2 0x1301 JUMP JUMPDEST POP DUP6 DUP5 EQ PUSH2 0x134B JUMPI PUSH1 0x0 DUP1 PUSH2 0x1348 PUSH2 0x4FA9 JUMP JUMPDEST POP POP JUMPDEST PUSH1 0x4D PUSH2 0x1362 DUP8 PUSH2 0x1359 PUSH2 0x199B JUMP JUMPDEST PUSH1 0xFF AND SWAP1 PUSH2 0x36FF JUMP JUMPDEST GT ISZERO PUSH2 0x1376 JUMPI PUSH1 0x0 DUP1 PUSH2 0x1373 PUSH2 0x4FA9 JUMP JUMPDEST POP POP JUMPDEST PUSH1 0x0 JUMPDEST DUP7 DUP2 LT ISZERO PUSH2 0x13C9 JUMPI PUSH2 0x13C1 DUP9 DUP9 DUP4 DUP2 DUP2 LT PUSH2 0x1390 JUMPI INVALID JUMPDEST SWAP1 POP PUSH1 0x20 MUL ADD CALLDATALOAD PUSH1 0x1 PUSH1 0x1 PUSH1 0xA0 SHL SUB AND DUP8 DUP8 DUP5 DUP2 DUP2 LT PUSH2 0x13AC JUMPI INVALID JUMPDEST SWAP1 POP PUSH1 0x20 MUL ADD CALLDATALOAD PUSH1 0x1 PUSH1 0x1 PUSH1 0xA0 SHL SUB AND PUSH2 0x374C JUMP JUMPDEST PUSH1 0x1 ADD PUSH2 0x1379 JUMP JUMPDEST POP PUSH2 0x140B PUSH1 0x0 PUSH1 0x4 PUSH2 0x13D9 PUSH2 0x5014 JUMP JUMPDEST SWAP1 PUSH2 0x100 EXP SWAP1 DIV PUSH1 0x1 PUSH1 0x1 PUSH1 0x80 SHL SUB AND DUP5 DUP5 DUP5 PUSH1 0x4 PUSH1 0x1C SWAP1 PUSH2 0x13F9 PUSH2 0x5014 JUMP JUMPDEST SWAP1 PUSH2 0x100 EXP SWAP1 DIV PUSH4 0xFFFFFFFF AND PUSH2 0xF8F JUMP JUMPDEST POP POP POP POP POP POP POP POP POP JUMP JUMPDEST PUSH1 0x0 PUSH1 0x3 PUSH2 0x1422 PUSH2 0x5014 JUMP JUMPDEST SWAP1 PUSH2 0x100 EXP SWAP1 DIV PUSH1 0x1 PUSH1 0x1 PUSH1 0xA0 SHL SUB AND DUP2 JUMP JUMPDEST GAS PUSH2 0x143E PUSH2 0x506F JUMP JUMPDEST PUSH1 0x1 PUSH1 0x1 PUSH1 0xA0 SHL SUB DUP5 DUP2 AND PUSH1 0x0 SWAP1 DUP2 MSTORE PUSH1 0x8 PUSH1 0x20 MSTORE SWAP2 AND SWAP1 PUSH1 0x40 SWAP1 KECCAK256 PUSH1 0x2 ADD PUSH1 0x2 SWAP1 PUSH2 0x1468 PUSH2 0x5014 JUMP JUMPDEST SWAP1 PUSH2 0x100 EXP SWAP1 DIV PUSH1 0x1 PUSH1 0x1 PUSH1 0xA0 SHL SUB AND PUSH1 0x1 PUSH1 0x1 PUSH1 0xA0 SHL SUB AND EQ PUSH2 0x1494 JUMPI PUSH1 0x0 DUP1 PUSH2 0x1491 PUSH2 0x4FA9 JUMP JUMPDEST POP POP JUMPDEST PUSH1 0x1 PUSH1 0x1 PUSH1 0xA0 SHL SUB DUP4 AND PUSH1 0x0 SWAP1 DUP2 MSTORE PUSH1 0x8 PUSH1 0x20 MSTORE DUP2 SWAP1 PUSH1 0x40 DUP2 KECCAK256 PUSH1 0x0 SWAP1 PUSH2 0x14B9 PUSH2 0x5014 JUMP JUMPDEST SWAP1 PUSH2 0x100 EXP SWAP1 DIV PUSH1 0x1 PUSH1 0x1 PUSH1 0x80 SHL SUB AND SWAP1 POP DUP2 PUSH1 0x1 PUSH1 0x1 PUSH1 0x80 SHL SUB AND DUP2 PUSH1 0x1 PUSH1 0x1 PUSH1 0x80 SHL SUB AND LT ISZERO PUSH2 0x14F3 JUMPI PUSH1 0x0 DUP1 PUSH2 0x14F0 PUSH2 0x4FA9 JUMP JUMPDEST POP POP JUMPDEST PUSH2 0x1506 PUSH1 0x1 PUSH1 0x1 PUSH1 0x80 SHL SUB DUP3 AND DUP4 PUSH2 0x3A0F JUMP JUMPDEST PUSH1 0x1 PUSH1 0x1 PUSH1 0xA0 SHL SUB DUP7 AND PUSH1 0x0 SWAP1 DUP2 MSTORE PUSH1 0x8 PUSH1 0x20 MSTORE PUSH1 0x40 SWAP1 KECCAK256 PUSH1 0x1 DUP2 PUSH2 0x1529 PUSH2 0x5014 JUMP JUMPDEST DUP2 PUSH1 0x1 PUSH1 0x1 PUSH1 0x80 SHL SUB MUL NOT AND SWAP1 DUP4 PUSH1 0x1 PUSH1 0x1 PUSH1 0x80 SHL SUB AND MUL OR SWAP1 PUSH2 0x154B PUSH2 0x50B5 JUMP JUMPDEST POP PUSH2 0x1578 SWAP2 POP DUP4 SWAP1 POP PUSH1 0x10 PUSH1 0xD PUSH2 0x1560 PUSH2 0x5014 JUMP JUMPDEST PUSH1 0x1 PUSH1 0x1 PUSH1 0x80 SHL SUB PUSH2 0x100 SWAP3 SWAP1 SWAP3 EXP SWAP1 DIV AND SWAP1 PUSH2 0x3A0F JUMP JUMPDEST PUSH1 0xD PUSH1 0x1 PUSH1 0x80 SHL DUP2 PUSH2 0x1588 PUSH2 0x5014 JUMP JUMPDEST DUP2 PUSH1 0x1 PUSH1 0x1 PUSH1 0x80 SHL SUB MUL NOT AND SWAP1 DUP4 PUSH1 0x1 PUSH1 0x1 PUSH1 0x80 SHL SUB AND MUL OR SWAP1 PUSH2 0x15AA PUSH2 0x50B5 JUMP JUMPDEST POP POP POP PUSH1 0x2 PUSH1 0x0 SWAP1 PUSH2 0x15BA PUSH2 0x5014 JUMP JUMPDEST SWAP1 PUSH2 0x100 EXP SWAP1 DIV PUSH1 0x1 PUSH1 0x1 PUSH1 0xA0 SHL SUB AND PUSH1 0x1 PUSH1 0x1 PUSH1 0xA0 SHL SUB AND PUSH4 0xA9059CBB DUP6 DUP5 PUSH1 0x1 PUSH1 0x1 PUSH1 0x80 SHL SUB AND PUSH1 0x40 MLOAD PUSH1 0x1 PUSH1 0x1 PUSH1 0xE0 SHL SUB NOT PUSH1 0xE0 DUP6 SWAP1 SHL AND DUP2 MSTORE PUSH1 0x1 PUSH1 0x1 PUSH1 0xA0 SHL SUB SWAP1 SWAP3 AND PUSH1 0x4 DUP4 ADD MSTORE PUSH1 0x24 DUP3 ADD MSTORE PUSH1 0x44 ADD PUSH1 0x20 PUSH1 0x40 MLOAD DUP1 DUP4 SUB DUP2 PUSH1 0x0 DUP8 DUP1 PUSH2 0x1624 PUSH2 0x5103 JUMP JUMPDEST ISZERO DUP1 ISZERO PUSH2 0x1639 JUMPI PUSH1 0x0 DUP1 PUSH2 0x1636 PUSH2 0x4FA9 JUMP JUMPDEST POP POP JUMPDEST POP GAS PUSH2 0x1643 PUSH2 0x514F JUMP JUMPDEST POP POP POP POP POP POP ISZERO DUP1 ISZERO PUSH2 0x1663 JUMPI RETURNDATASIZE PUSH1 0x0 DUP1 RETURNDATACOPY RETURNDATASIZE PUSH1 0x0 PUSH2 0x1660 PUSH2 0x4FA9 JUMP JUMPDEST POP POP JUMPDEST POP POP POP POP PUSH1 0x40 MLOAD RETURNDATASIZE PUSH1 0x20 DUP2 LT ISZERO PUSH2 0x1682 JUMPI PUSH1 0x0 DUP1 PUSH2 0x167F PUSH2 0x4FA9 JUMP JUMPDEST POP POP JUMPDEST DUP2 ADD SWAP1 DUP1 DUP1 MLOAD SWAP3 POP PUSH2 0xD14 SWAP2 POP POP JUMPI INVALID JUMPDEST PUSH1 0x60 PUSH1 0xC DUP1 PUSH2 0x16A0 PUSH2 0x5014 JUMP JUMPDEST DUP1 PUSH1 0x20 MUL PUSH1 0x20 ADD PUSH1 0x40 MLOAD SWAP1 DUP2 ADD PUSH1 0x40 MSTORE DUP2 DUP2 MSTORE SWAP2 SWAP1 PUSH1 0x20 DUP4 ADD DUP3 DUP1 PUSH2 0x16C3 PUSH2 0x5014 JUMP JUMPDEST DUP1 ISZERO PUSH2 0x1710 JUMPI PUSH1 0x20 MUL DUP3 ADD SWAP2 SWAP1 PUSH1 0x0 MSTORE PUSH1 0x20 PUSH1 0x0 KECCAK256 SWAP1 JUMPDEST PUSH1 0x0 DUP3 PUSH2 0x16E5 PUSH2 0x5014 JUMP JUMPDEST SWAP1 PUSH2 0x100 EXP SWAP1 DIV PUSH1 0x1 PUSH1 0x1 PUSH1 0xA0 SHL SUB AND PUSH1 0x1 PUSH1 0x1 PUSH1 0xA0 SHL SUB AND DUP2 MSTORE PUSH1 0x20 ADD SWAP1 PUSH1 0x1 ADD SWAP1 DUP1 DUP4 GT PUSH2 0x16DA JUMPI JUMPDEST POP POP POP POP POP SWAP1 POP SWAP1 JUMP JUMPDEST PUSH1 0x0 DUP1 PUSH1 0xD PUSH2 0x1727 PUSH2 0x5014 JUMP JUMPDEST SWAP1 PUSH2 0x100 EXP SWAP1 DIV PUSH1 0x1 PUSH1 0x1 PUSH1 0x80 SHL SUB AND SWAP1 POP SWAP1 JUMP JUMPDEST PUSH2 0x1744 PUSH2 0x523A JUMP JUMPDEST PUSH1 0xD PUSH1 0x40 MLOAD PUSH1 0x40 DUP1 DUP3 ADD SWAP1 MSTORE SWAP1 DUP2 PUSH1 0x0 DUP3 PUSH2 0x175D PUSH2 0x5014 JUMP JUMPDEST PUSH1 0x1 PUSH1 0x1 PUSH1 0x80 SHL SUB PUSH2 0x100 SWAP3 SWAP1 SWAP3 EXP SWAP1 DIV AND DUP2 MSTORE PUSH1 0x20 ADD PUSH1 0x10 DUP3 PUSH2 0x177F PUSH2 0x5014 JUMP JUMPDEST PUSH1 0x1 PUSH1 0x1 PUSH1 0x80 SHL SUB PUSH2 0x100 SWAP3 SWAP1 SWAP3 EXP SWAP1 DIV AND SWAP1 MSTORE POP SWAP1 POP PUSH1 0x0 PUSH2 0x18D4 PUSH1 0x20 DUP4 ADD MLOAD PUSH1 0x1 PUSH1 0x1 PUSH1 0x80 SHL SUB AND PUSH1 0x0 PUSH1 0x2 PUSH2 0x17B5 PUSH2 0x5014 JUMP JUMPDEST SWAP1 PUSH2 0x100 EXP SWAP1 DIV PUSH1 0x1 PUSH1 0x1 PUSH1 0xA0 SHL SUB AND PUSH1 0x1 PUSH1 0x1 PUSH1 0xA0 SHL SUB AND PUSH4 0x70A08231 GAS PUSH4 0x996D79A5 MSIZE DUP2 PUSH1 0xE0 SHL DUP2 MSTORE PUSH1 0x20 DUP2 PUSH1 0x4 DUP4 CALLER PUSH1 0x0 SWAP1 GAS CALL PC PUSH1 0xE ADD JUMPI RETURNDATASIZE PUSH1 0x0 DUP1 RETURNDATACOPY RETURNDATASIZE PUSH1 0x0 REVERT JUMPDEST RETURNDATASIZE PUSH1 0x1 EQ ISZERO PC PUSH1 0xA ADD JUMPI PUSH1 0x1 PUSH1 0x0 RETURN JUMPDEST DUP1 MLOAD SWAP3 POP PUSH1 0x0 JUMPDEST PUSH1 0x40 DUP2 LT ISZERO PUSH2 0x1829 JUMPI PUSH1 0x0 DUP3 DUP3 ADD MSTORE PUSH1 0x20 ADD PUSH2 0x1812 JUMP JUMPDEST POP POP POP PUSH1 0x40 MLOAD PUSH1 0x1 PUSH1 0x1 PUSH1 0xE0 SHL SUB NOT PUSH1 0xE0 DUP5 SWAP1 SHL AND DUP2 MSTORE PUSH1 0x1 PUSH1 0x1 PUSH1 0xA0 SHL SUB SWAP1 SWAP2 AND PUSH1 0x4 DUP3 ADD MSTORE PUSH1 0x24 ADD PUSH1 0x20 PUSH1 0x40 MLOAD DUP1 DUP4 SUB DUP2 DUP7 DUP1 PUSH2 0x1866 PUSH2 0x5103 JUMP JUMPDEST ISZERO DUP1 ISZERO PUSH2 0x187B JUMPI PUSH1 0x0 DUP1 PUSH2 0x1878 PUSH2 0x4FA9 JUMP JUMPDEST POP POP JUMPDEST POP GAS PUSH2 0x1885 PUSH2 0x5251 JUMP JUMPDEST POP POP POP POP POP ISZERO DUP1 ISZERO PUSH2 0x18A4 JUMPI RETURNDATASIZE PUSH1 0x0 DUP1 RETURNDATACOPY RETURNDATASIZE PUSH1 0x0 PUSH2 0x18A1 PUSH2 0x4FA9 JUMP JUMPDEST POP POP JUMPDEST POP POP POP POP PUSH1 0x40 MLOAD RETURNDATASIZE PUSH1 0x20 DUP2 LT ISZERO PUSH2 0x18C3 JUMPI PUSH1 0x0 DUP1 PUSH2 0x18C0 PUSH2 0x4FA9 JUMP JUMPDEST POP POP JUMPDEST DUP2 ADD SWAP1 DUP1 DUP1 MLOAD SWAP4 SWAP3 POP POP PUSH2 0x27C5 SWAP1 POP JUMP JUMPDEST SWAP1 POP DUP1 DUP3 MLOAD PUSH1 0x1 PUSH1 0x1 PUSH1 0x80 SHL SUB AND EQ PUSH2 0xB24 JUMPI DUP1 PUSH1 0xD PUSH1 0x1 DUP2 PUSH2 0x18F5 PUSH2 0x5014 JUMP JUMPDEST DUP2 PUSH1 0x1 PUSH1 0x1 PUSH1 0x80 SHL SUB MUL NOT AND SWAP1 DUP4 PUSH1 0x1 PUSH1 0x1 PUSH1 0x80 SHL SUB AND MUL OR SWAP1 PUSH2 0x1917 PUSH2 0x50B5 JUMP JUMPDEST POP POP POP DUP1 PUSH1 0x0 DUP1 MLOAD PUSH1 0x20 PUSH2 0x5542 DUP4 CODECOPY DUP2 MLOAD SWAP2 MSTORE PUSH1 0x40 MLOAD PUSH1 0x40 MLOAD DUP1 SWAP2 SUB SWAP1 LOG2 POP POP JUMP JUMPDEST PUSH1 0x0 PUSH1 0x9 DUP2 PUSH1 0x4 PUSH1 0x7 PUSH2 0x194A PUSH2 0x5014 JUMP JUMPDEST SWAP1 PUSH2 0x100 EXP SWAP1 DIV PUSH4 0xFFFFFFFF AND PUSH4 0xFFFFFFFF AND PUSH4 0xFFFFFFFF AND DUP2 MSTORE PUSH1 0x20 ADD SWAP1 DUP2 MSTORE PUSH1 0x20 ADD PUSH1 0x0 KECCAK256 PUSH2 0x1979 PUSH2 0x5014 JUMP JUMPDEST SWAP1 POP SWAP1 JUMP JUMPDEST PUSH1 0x3 DUP2 JUMP JUMPDEST PUSH1 0x0 PUSH1 0x2 PUSH2 0x1422 PUSH2 0x5014 JUMP JUMPDEST PUSH1 0x10 PUSH1 0x4 PUSH2 0xF7F PUSH2 0x5014 JUMP JUMPDEST PUSH1 0x0 PUSH1 0xC DUP1 PUSH2 0x19A8 PUSH2 0x5014 JUMP JUMPDEST SWAP2 POP POP SWAP1 JUMP JUMPDEST GAS PUSH2 0x19B7 PUSH2 0x506F JUMP JUMPDEST PUSH1 0x1 PUSH1 0x1 PUSH1 0xA0 SHL SUB DUP3 DUP2 AND PUSH1 0x0 SWAP1 DUP2 MSTORE PUSH1 0x8 PUSH1 0x20 MSTORE SWAP2 AND SWAP1 PUSH1 0x40 SWAP1 KECCAK256 PUSH1 0x3 ADD PUSH1 0x0 SWAP1 PUSH2 0x19E1 PUSH2 0x5014 JUMP JUMPDEST SWAP1 PUSH2 0x100 EXP SWAP1 DIV PUSH1 0x1 PUSH1 0x1 PUSH1 0xA0 SHL SUB AND PUSH1 0x1 PUSH1 0x1 PUSH1 0xA0 SHL SUB AND EQ PUSH2 0x1A0D JUMPI PUSH1 0x0 DUP1 PUSH2 0x1A0A PUSH2 0x4FA9 JUMP JUMPDEST POP POP JUMPDEST PUSH1 0x1 PUSH1 0x1 PUSH1 0xA0 SHL SUB DUP2 AND PUSH1 0x0 SWAP1 DUP2 MSTORE PUSH1 0x8 PUSH1 0x20 MSTORE PUSH1 0x40 DUP2 KECCAK256 PUSH1 0x3 ADD PUSH1 0x1 DUP2 PUSH2 0x1A33 PUSH2 0x5014 JUMP JUMPDEST DUP2 PUSH1 0x1 PUSH1 0x1 PUSH1 0xA0 SHL SUB MUL NOT AND SWAP1 DUP4 PUSH1 0x1 PUSH1 0x1 PUSH1 0xA0 SHL SUB AND MUL OR SWAP1 PUSH2 0x1A55 PUSH2 0x50B5 JUMP JUMPDEST POP POP POP GAS PUSH2 0x1A61 PUSH2 0x506F JUMP JUMPDEST PUSH1 0x1 PUSH1 0x1 PUSH1 0xA0 SHL SUB DUP3 AND PUSH1 0x0 SWAP1 DUP2 MSTORE PUSH1 0x8 PUSH1 0x20 MSTORE PUSH1 0x40 SWAP1 KECCAK256 PUSH1 0x2 ADD PUSH3 0x10000 DUP2 PUSH2 0x1A89 PUSH2 0x5014 JUMP JUMPDEST DUP2 PUSH1 0x1 PUSH1 0x1 PUSH1 0xA0 SHL SUB MUL NOT AND SWAP1 DUP4 PUSH1 0x1 PUSH1 0x1 PUSH1 0xA0 SHL SUB AND MUL OR SWAP1 PUSH2 0x1AAB PUSH2 0x50B5 JUMP JUMPDEST POP POP POP GAS PUSH2 0x1AB7 PUSH2 0x506F JUMP JUMPDEST PUSH1 0x1 PUSH1 0x1 PUSH1 0xA0 SHL SUB AND DUP2 PUSH1 0x1 PUSH1 0x1 PUSH1 0xA0 SHL SUB AND PUSH1 0x0 DUP1 MLOAD PUSH1 0x20 PUSH2 0x5460 DUP4 CODECOPY DUP2 MLOAD SWAP2 MSTORE PUSH1 0x40 MLOAD PUSH1 0x40 MLOAD DUP1 SWAP2 SUB SWAP1 LOG3 POP JUMP JUMPDEST PUSH1 0x1 PUSH1 0x1 PUSH1 0xA0 SHL SUB DUP2 AND PUSH1 0x0 SWAP1 DUP2 MSTORE PUSH1 0x8 PUSH1 0x20 MSTORE PUSH1 0x40 DUP2 KECCAK256 PUSH1 0x2 ADD PUSH1 0x2 SWAP1 PUSH2 0x1B0D PUSH2 0x5014 JUMP JUMPDEST SWAP1 PUSH2 0x100 EXP SWAP1 DIV PUSH1 0x1 PUSH1 0x1 PUSH1 0xA0 SHL SUB AND SWAP1 POP JUMPDEST SWAP2 SWAP1 POP JUMP JUMPDEST PUSH1 0x0 PUSH1 0x4 PUSH1 0x7 PUSH2 0x1B33 PUSH2 0x5014 JUMP JUMPDEST SWAP1 PUSH2 0x100 EXP SWAP1 DIV PUSH4 0xFFFFFFFF AND PUSH4 0xFFFFFFFF AND SWAP1 POP SWAP1 JUMP JUMPDEST PUSH1 0x1C PUSH1 0x4 PUSH2 0xF7F PUSH2 0x5014 JUMP JUMPDEST PUSH1 0x6 DUP1 PUSH2 0x1B62 PUSH2 0x5014 JUMP JUMPDEST PUSH1 0x1 DUP2 PUSH1 0x1 AND ISZERO PUSH2 0x100 MUL SUB AND PUSH1 0x2 SWAP1 DIV DUP1 PUSH1 0x1F ADD PUSH1 0x20 DUP1 SWAP2 DIV MUL PUSH1 0x20 ADD PUSH1 0x40 MLOAD SWAP1 DUP2 ADD PUSH1 0x40 MSTORE DUP2 DUP2 MSTORE SWAP2 SWAP1 PUSH1 0x20 DUP4 ADD DUP3 DUP1 PUSH2 0x1B9C PUSH2 0x5014 JUMP JUMPDEST PUSH1 0x1 DUP2 PUSH1 0x1 AND ISZERO PUSH2 0x100 MUL SUB AND PUSH1 0x2 SWAP1 DIV DUP1 ISZERO PUSH2 0x1C08 JUMPI DUP1 PUSH1 0x1F LT PUSH2 0x1BD6 JUMPI PUSH2 0x100 DUP1 DUP4 PUSH2 0x1BC8 PUSH2 0x5014 JUMP JUMPDEST DIV MUL DUP4 MSTORE SWAP2 PUSH1 0x20 ADD SWAP2 PUSH2 0x1C08 JUMP JUMPDEST DUP3 ADD SWAP2 SWAP1 PUSH1 0x0 MSTORE PUSH1 0x20 PUSH1 0x0 KECCAK256 SWAP1 JUMPDEST DUP2 PUSH2 0x1BED PUSH2 0x5014 JUMP JUMPDEST DUP2 MSTORE SWAP1 PUSH1 0x1 ADD SWAP1 PUSH1 0x20 ADD DUP1 DUP4 GT PUSH2 0x1BE4 JUMPI DUP3 SWAP1 SUB PUSH1 0x1F AND DUP3 ADD SWAP2 JUMPDEST POP POP POP POP POP DUP2 JUMP JUMPDEST PUSH1 0x0 PUSH1 0x1 PUSH2 0x1C1C PUSH2 0x5014 JUMP JUMPDEST SWAP1 PUSH2 0x100 EXP SWAP1 DIV PUSH1 0x1 PUSH1 0x1 PUSH1 0xA0 SHL SUB AND PUSH1 0x1 PUSH1 0x1 PUSH1 0xA0 SHL SUB AND GAS PUSH2 0x1C3E PUSH2 0x506F JUMP JUMPDEST PUSH1 0x1 PUSH1 0x1 PUSH1 0xA0 SHL SUB AND EQ PUSH2 0x1C9A JUMPI PUSH1 0x40 MLOAD PUSH3 0x461BCD PUSH1 0xE5 SHL DUP2 MSTORE PUSH1 0x20 PUSH1 0x4 DUP3 ADD MSTORE PUSH1 0x16 PUSH1 0x24 DUP3 ADD MSTORE PUSH22 0x26BAB9BA10313290383937B837B9B2B21037BBB732B9 PUSH1 0x51 SHL PUSH1 0x44 DUP3 ADD MSTORE PUSH1 0x64 ADD PUSH1 0x40 MLOAD DUP1 SWAP2 SUB SWAP1 PUSH2 0x1C97 PUSH2 0x4FA9 JUMP JUMPDEST POP POP JUMPDEST PUSH1 0x0 DUP1 DUP1 PUSH2 0x1CA6 PUSH2 0x5014 JUMP JUMPDEST SWAP1 PUSH2 0x100 EXP SWAP1 DIV PUSH1 0x1 PUSH1 0x1 PUSH1 0xA0 SHL SUB AND SWAP1 POP GAS PUSH2 0x1CC1 PUSH2 0x506F JUMP JUMPDEST PUSH1 0x0 PUSH1 0x1 DUP2 PUSH2 0x1CCE PUSH2 0x5014 JUMP JUMPDEST DUP2 PUSH1 0x1 PUSH1 0x1 PUSH1 0xA0 SHL SUB MUL NOT AND SWAP1 DUP4 PUSH1 0x1 PUSH1 0x1 PUSH1 0xA0 SHL SUB AND MUL OR SWAP1 PUSH2 0x1CF0 PUSH2 0x50B5 JUMP JUMPDEST POP POP POP PUSH1 0x0 PUSH1 0x1 PUSH1 0x0 PUSH2 0x100 EXP DUP2 PUSH2 0x1D06 PUSH2 0x5014 JUMP JUMPDEST DUP2 PUSH1 0x1 PUSH1 0x1 PUSH1 0xA0 SHL SUB MUL NOT AND SWAP1 DUP4 PUSH1 0x1 PUSH1 0x1 PUSH1 0xA0 SHL SUB AND MUL OR SWAP1 PUSH2 0x1D28 PUSH2 0x50B5 JUMP JUMPDEST POP POP POP GAS PUSH2 0x1D34 PUSH2 0x506F JUMP JUMPDEST PUSH1 0x1 PUSH1 0x1 PUSH1 0xA0 SHL SUB AND DUP2 PUSH1 0x1 PUSH1 0x1 PUSH1 0xA0 SHL SUB AND PUSH32 0x8BE0079C531659141344CD1FD0A4F28419497F9722A3DAAFE3B4186F6B6457E0 PUSH1 0x40 MLOAD PUSH1 0x40 MLOAD DUP1 SWAP2 SUB SWAP1 LOG3 POP JUMP JUMPDEST PUSH32 0x0 DUP2 JUMP JUMPDEST PUSH1 0x0 PUSH1 0x9 DUP2 PUSH1 0x4 PUSH1 0x7 PUSH2 0x1DAB PUSH2 0x5014 JUMP JUMPDEST SWAP1 PUSH2 0x100 EXP SWAP1 DIV PUSH4 0xFFFFFFFF AND PUSH4 0xFFFFFFFF AND PUSH4 0xFFFFFFFF AND DUP2 MSTORE PUSH1 0x20 ADD SWAP1 DUP2 MSTORE PUSH1 0x20 ADD PUSH1 0x0 KECCAK256 PUSH1 0x1 ADD PUSH1 0x8 SWAP1 PUSH2 0x1DE0 PUSH2 0x5014 JUMP JUMPDEST SWAP1 PUSH2 0x100 EXP SWAP1 DIV PUSH1 0x1 PUSH1 0x1 PUSH1 0x40 SHL SUB AND PUSH1 0x1 PUSH1 0x1 PUSH1 0x40 SHL SUB AND SWAP1 POP SWAP1 JUMP JUMPDEST PUSH1 0x0 DUP1 DUP1 DUP1 DUP1 DUP1 DUP1 DUP1 DUP1 GAS PUSH2 0x1E11 PUSH2 0x506F JUMP JUMPDEST PUSH1 0x1 PUSH1 0x1 PUSH1 0xA0 SHL SUB AND EQ PUSH2 0x1E2D JUMPI PUSH1 0x0 DUP1 PUSH2 0x1E2A PUSH2 0x4FA9 JUMP JUMPDEST POP POP JUMPDEST PUSH4 0xFFFFFFFF DUP10 AND ISZERO PUSH2 0x1F84 JUMPI PUSH4 0xFFFFFFFF DUP10 AND PUSH1 0x0 SWAP1 DUP2 MSTORE PUSH1 0x9 PUSH1 0x20 MSTORE PUSH1 0x40 DUP2 KECCAK256 PUSH4 0xFFFFFFFF DUP12 AND PUSH1 0x0 SWAP1 DUP2 MSTORE PUSH1 0xA PUSH1 0x20 MSTORE SWAP1 SWAP2 POP PUSH1 0x40 DUP2 KECCAK256 SWAP1 POP PUSH2 0x1E72 DUP13 DUP13 PUSH2 0x3A6B JUMP JUMPDEST PUSH1 0x1 PUSH1 0x1 PUSH1 0xA0 SHL SUB DUP14 AND PUSH1 0x0 SWAP1 DUP2 MSTORE PUSH1 0x8 PUSH1 0x20 MSTORE DUP13 SWAP1 PUSH1 0x40 SWAP1 KECCAK256 PUSH1 0x1 ADD PUSH2 0x1E97 PUSH2 0x5014 JUMP JUMPDEST PUSH1 0x0 PUSH1 0x1 DUP7 ADD PUSH2 0x1EA5 PUSH2 0x5014 JUMP JUMPDEST SWAP1 PUSH2 0x100 EXP SWAP1 DIV PUSH1 0x1 PUSH1 0x1 PUSH1 0x40 SHL SUB AND DUP5 PUSH1 0x1 ADD PUSH1 0x8 SWAP1 PUSH2 0x1EC4 PUSH2 0x5014 JUMP JUMPDEST PUSH4 0xFFFFFFFF PUSH2 0x100 SWAP3 SWAP1 SWAP3 EXP SWAP1 DIV AND PUSH1 0x0 PUSH1 0xD PUSH2 0x1EDF PUSH2 0x5014 JUMP JUMPDEST SWAP1 PUSH2 0x100 EXP SWAP1 DIV PUSH1 0x1 PUSH1 0x1 PUSH1 0x80 SHL SUB AND PUSH2 0x1EF7 PUSH2 0x199B JUMP JUMPDEST PUSH1 0x0 DUP1 PUSH1 0x1 DUP12 ADD PUSH2 0x1F06 PUSH2 0x5014 JUMP JUMPDEST SWAP1 PUSH2 0x100 EXP SWAP1 DIV PUSH1 0x1 PUSH1 0x1 PUSH1 0x40 SHL SUB AND PUSH1 0x1 PUSH1 0x1 PUSH1 0x40 SHL SUB AND GT PUSH2 0x1F45 JUMPI PUSH1 0x0 PUSH1 0x4 PUSH2 0x1F30 PUSH2 0x5014 JUMP JUMPDEST SWAP1 PUSH2 0x100 EXP SWAP1 DIV PUSH1 0x1 PUSH1 0x1 PUSH1 0x80 SHL SUB AND PUSH2 0x1F64 JUMP JUMPDEST PUSH1 0xC PUSH1 0x1 DUP10 ADD PUSH2 0x1F53 PUSH2 0x5014 JUMP JUMPDEST SWAP1 PUSH2 0x100 EXP SWAP1 DIV PUSH1 0x1 PUSH1 0x1 PUSH1 0x80 SHL SUB AND JUMPDEST DUP4 PUSH4 0xFFFFFFFF AND SWAP4 POP SWAP10 POP SWAP10 POP SWAP10 POP SWAP10 POP SWAP10 POP SWAP10 POP SWAP10 POP SWAP10 POP POP POP PUSH2 0x1F9E JUMP JUMPDEST PUSH2 0x1F8D DUP11 PUSH2 0x3ADC JUMP JUMPDEST SWAP8 POP SWAP8 POP SWAP8 POP SWAP8 POP SWAP8 POP SWAP8 POP SWAP8 POP SWAP8 POP JUMPDEST SWAP3 SWAP6 SWAP9 POP SWAP3 SWAP6 SWAP9 SWAP1 SWAP4 SWAP7 POP JUMP JUMPDEST PUSH1 0x0 DUP1 PUSH2 0x1422 PUSH2 0x5014 JUMP JUMPDEST PUSH1 0x0 PUSH1 0xB PUSH1 0x0 GAS PUSH2 0x1FC5 PUSH2 0x506F JUMP JUMPDEST PUSH1 0x1 PUSH1 0x1 PUSH1 0xA0 SHL SUB AND PUSH1 0x1 PUSH1 0x1 PUSH1 0xA0 SHL SUB AND DUP2 MSTORE PUSH1 0x20 ADD SWAP1 DUP2 MSTORE PUSH1 0x20 ADD PUSH1 0x0 KECCAK256 PUSH1 0x0 SWAP1 PUSH2 0x1FF0 PUSH2 0x5014 JUMP JUMPDEST SWAP1 PUSH2 0x100 EXP SWAP1 DIV PUSH1 0xFF AND PUSH2 0x200C JUMPI PUSH1 0x0 DUP1 PUSH2 0x2009 PUSH2 0x4FA9 JUMP JUMPDEST POP POP JUMPDEST PUSH1 0x0 DUP1 PUSH1 0x7 PUSH2 0x2019 PUSH2 0x5014 JUMP JUMPDEST PUSH4 0xFFFFFFFF PUSH2 0x100 SWAP3 SWAP1 SWAP3 EXP SWAP1 DIV AND PUSH1 0x0 DUP2 DUP2 MSTORE PUSH1 0x9 PUSH1 0x20 MSTORE SWAP1 SWAP2 POP PUSH1 0x40 DUP2 KECCAK256 PUSH1 0x1 ADD PUSH1 0x8 SWAP1 PUSH2 0x2047 PUSH2 0x5014 JUMP JUMPDEST SWAP1 PUSH2 0x100 EXP SWAP1 DIV PUSH1 0x1 PUSH1 0x1 PUSH1 0x40 SHL SUB AND PUSH1 0x1 PUSH1 0x1 PUSH1 0x40 SHL SUB AND GT DUP1 PUSH2 0x2070 JUMPI POP PUSH2 0x2070 DUP2 PUSH2 0x3D37 JUMP JUMPDEST PUSH2 0x2082 JUMPI PUSH1 0x0 DUP1 PUSH2 0x207F PUSH2 0x4FA9 JUMP JUMPDEST POP POP JUMPDEST PUSH1 0x0 PUSH2 0x2099 PUSH4 0xFFFFFFFF DUP1 DUP5 AND SWAP1 PUSH1 0x1 SWAP1 PUSH2 0x3E09 AND JUMP JUMPDEST SWAP1 POP PUSH2 0x20A4 DUP2 PUSH2 0x3E5F JUMP JUMPDEST PUSH4 0xFFFFFFFF AND SWAP2 POP POP SWAP1 JUMP JUMPDEST PUSH1 0x0 DUP1 PUSH1 0x0 DUP1 PUSH1 0x0 PUSH2 0x20C0 PUSH2 0x5317 JUMP JUMPDEST PUSH4 0xFFFFFFFF DUP8 AND PUSH1 0x0 SWAP1 DUP2 MSTORE PUSH1 0x9 PUSH1 0x20 MSTORE PUSH1 0x40 SWAP1 KECCAK256 PUSH1 0x40 MLOAD PUSH1 0x80 DUP2 ADD PUSH1 0x40 MSTORE SWAP1 DUP2 DUP2 PUSH2 0x20EA PUSH2 0x5014 JUMP JUMPDEST DUP2 MSTORE PUSH1 0x20 ADD PUSH1 0x0 PUSH1 0x1 DUP4 ADD PUSH2 0x20FD PUSH2 0x5014 JUMP JUMPDEST PUSH1 0x1 PUSH1 0x1 PUSH1 0x40 SHL SUB PUSH2 0x100 SWAP3 SWAP1 SWAP3 EXP SWAP1 DIV AND DUP2 MSTORE PUSH1 0x20 ADD PUSH1 0x8 PUSH1 0x1 DUP4 ADD PUSH2 0x2122 PUSH2 0x5014 JUMP JUMPDEST PUSH1 0x1 PUSH1 0x1 PUSH1 0x40 SHL SUB PUSH2 0x100 SWAP3 SWAP1 SWAP3 EXP SWAP1 DIV AND DUP2 MSTORE PUSH1 0x20 ADD PUSH1 0x10 PUSH1 0x1 DUP4 ADD PUSH2 0x2147 PUSH2 0x5014 JUMP JUMPDEST PUSH4 0xFFFFFFFF PUSH2 0x100 SWAP3 SWAP1 SWAP3 EXP SWAP1 DIV AND SWAP1 MSTORE POP SWAP1 POP PUSH1 0x0 PUSH1 0x60 DUP3 ADD MLOAD PUSH4 0xFFFFFFFF AND GT DUP1 ISZERO PUSH2 0x2182 JUMPI POP PUSH2 0x2182 DUP8 PUSH1 0x1 PUSH1 0x1 PUSH1 0x50 SHL SUB AND PUSH2 0x3F75 JUMP JUMPDEST PUSH1 0x40 MLOAD PUSH1 0x40 DUP1 DUP3 ADD SWAP1 MSTORE PUSH1 0xF DUP2 MSTORE PUSH15 0x139BC819185D18481C1C995CD95B9D PUSH1 0x8A SHL PUSH1 0x20 DUP3 ADD MSTORE SWAP1 PUSH2 0x223A JUMPI PUSH1 0x40 MLOAD PUSH3 0x461BCD PUSH1 0xE5 SHL DUP2 MSTORE PUSH1 0x4 ADD DUP1 DUP1 PUSH1 0x20 ADD DUP3 DUP2 SUB DUP3 MSTORE DUP4 DUP2 DUP2 MLOAD DUP2 MSTORE PUSH1 0x20 ADD SWAP2 POP DUP1 MLOAD SWAP1 PUSH1 0x20 ADD SWAP1 DUP1 DUP4 DUP4 PUSH1 0x0 JUMPDEST DUP4 DUP2 LT ISZERO PUSH2 0x21F6 JUMPI DUP1 DUP3 ADD MLOAD DUP4 DUP3 ADD MSTORE PUSH1 0x20 ADD PUSH2 0x21DE JUMP JUMPDEST POP POP POP POP SWAP1 POP SWAP1 DUP2 ADD SWAP1 PUSH1 0x1F AND DUP1 ISZERO PUSH2 0x2223 JUMPI DUP1 DUP3 SUB DUP1 MLOAD PUSH1 0x1 DUP4 PUSH1 0x20 SUB PUSH2 0x100 EXP SUB NOT AND DUP2 MSTORE PUSH1 0x20 ADD SWAP2 POP JUMPDEST POP SWAP3 POP POP POP PUSH1 0x40 MLOAD DUP1 SWAP2 SUB SWAP1 PUSH2 0x2237 PUSH2 0x4FA9 JUMP JUMPDEST POP POP JUMPDEST POP DUP7 DUP2 MLOAD DUP3 PUSH1 0x20 ADD MLOAD DUP4 PUSH1 0x40 ADD MLOAD DUP5 PUSH1 0x60 ADD MLOAD SWAP4 SWAP12 SWAP3 SWAP11 POP PUSH1 0x1 PUSH1 0x1 PUSH1 0x40 SHL SUB SWAP2 DUP3 AND SWAP10 POP AND SWAP7 POP PUSH4 0xFFFFFFFF SWAP1 SWAP2 AND SWAP5 POP SWAP3 POP POP POP JUMP JUMPDEST DUP1 ISZERO PUSH2 0x2286 JUMPI PUSH1 0x0 DUP1 PUSH2 0x2283 PUSH2 0x4FA9 JUMP JUMPDEST POP POP JUMPDEST PUSH2 0x228E PUSH2 0x173C JUMP JUMPDEST POP POP POP POP JUMP JUMPDEST PUSH1 0x0 PUSH2 0x229F DUP3 PUSH2 0x3F75 JUMP JUMPDEST ISZERO PUSH2 0x22C8 JUMPI PUSH4 0xFFFFFFFF DUP3 AND PUSH1 0x0 SWAP1 DUP2 MSTORE PUSH1 0x9 PUSH1 0x20 MSTORE PUSH1 0x40 SWAP1 KECCAK256 PUSH2 0x22C1 PUSH2 0x5014 JUMP JUMPDEST SWAP1 POP PUSH2 0x1B20 JUMP JUMPDEST POP PUSH1 0x0 SWAP2 SWAP1 POP JUMP JUMPDEST PUSH1 0x0 PUSH2 0x22DB DUP3 PUSH2 0x3F75 JUMP JUMPDEST ISZERO PUSH2 0x22C8 JUMPI PUSH4 0xFFFFFFFF DUP3 AND PUSH1 0x0 SWAP1 DUP2 MSTORE PUSH1 0x9 PUSH1 0x20 MSTORE PUSH1 0x40 SWAP1 KECCAK256 PUSH1 0x1 ADD PUSH1 0x8 SWAP1 PUSH2 0x2303 PUSH2 0x5014 JUMP JUMPDEST SWAP1 PUSH2 0x100 EXP SWAP1 DIV PUSH1 0x1 PUSH1 0x1 PUSH1 0x40 SHL SUB AND PUSH1 0x1 PUSH1 0x1 PUSH1 0x40 SHL SUB AND SWAP1 POP PUSH2 0x1B20 JUMP JUMPDEST PUSH1 0x0 DUP1 PUSH2 0x232E PUSH2 0x5014 JUMP JUMPDEST SWAP1 PUSH2 0x100 EXP SWAP1 DIV PUSH1 0x1 PUSH1 0x1 PUSH1 0xA0 SHL SUB AND PUSH1 0x1 PUSH1 0x1 PUSH1 0xA0 SHL SUB AND GAS PUSH2 0x2350 PUSH2 0x506F JUMP JUMPDEST PUSH1 0x1 PUSH1 0x1 PUSH1 0xA0 SHL SUB AND EQ PUSH2 0x23A1 JUMPI PUSH1 0x40 MLOAD PUSH3 0x461BCD PUSH1 0xE5 SHL DUP2 MSTORE PUSH1 0x20 PUSH1 0x4 DUP3 ADD MSTORE PUSH1 0x16 PUSH1 0x24 DUP3 ADD MSTORE PUSH1 0x0 DUP1 MLOAD PUSH1 0x20 PUSH2 0x5502 DUP4 CODECOPY DUP2 MLOAD SWAP2 MSTORE PUSH1 0x44 DUP3 ADD MSTORE PUSH1 0x64 ADD PUSH1 0x40 MLOAD DUP1 SWAP2 SUB SWAP1 PUSH2 0x239E PUSH2 0x4FA9 JUMP JUMPDEST POP POP JUMPDEST PUSH1 0x0 DUP1 PUSH1 0xD PUSH2 0x23AE PUSH2 0x5014 JUMP JUMPDEST PUSH1 0x1 PUSH1 0x1 PUSH1 0x80 SHL SUB PUSH2 0x100 SWAP3 SWAP1 SWAP3 EXP SWAP1 DIV AND SWAP1 POP DUP2 PUSH2 0x23FA PUSH2 0x23F3 PUSH1 0x0 PUSH1 0x4 PUSH2 0x23D5 PUSH2 0x5014 JUMP JUMPDEST SWAP1 PUSH2 0x100 EXP SWAP1 DIV PUSH1 0x1 PUSH1 0x1 PUSH1 0x80 SHL SUB AND PUSH1 0x1 PUSH1 0x1 PUSH1 0x80 SHL SUB AND PUSH2 0x347E JUMP JUMPDEST DUP4 SWAP1 PUSH2 0x27C5 JUMP JUMPDEST LT ISZERO PUSH2 0x240E JUMPI PUSH1 0x0 DUP1 PUSH2 0x240B PUSH2 0x4FA9 JUMP JUMPDEST POP POP JUMPDEST PUSH1 0x0 PUSH1 0x2 PUSH2 0x241A PUSH2 0x5014 JUMP JUMPDEST SWAP1 PUSH2 0x100 EXP SWAP1 DIV PUSH1 0x1 PUSH1 0x1 PUSH1 0xA0 SHL SUB AND PUSH1 0x1 PUSH1 0x1 PUSH1 0xA0 SHL SUB AND PUSH4 0xA9059CBB DUP5 DUP5 PUSH1 0x40 MLOAD PUSH1 0x1 PUSH1 0x1 PUSH1 0xE0 SHL SUB NOT PUSH1 0xE0 DUP6 SWAP1 SHL AND DUP2 MSTORE PUSH1 0x1 PUSH1 0x1 PUSH1 0xA0 SHL SUB SWAP1 SWAP3 AND PUSH1 0x4 DUP4 ADD MSTORE PUSH1 0x24 DUP3 ADD MSTORE PUSH1 0x44 ADD PUSH1 0x20 PUSH1 0x40 MLOAD DUP1 DUP4 SUB DUP2 PUSH1 0x0 DUP8 DUP1 PUSH2 0x247B PUSH2 0x5103 JUMP JUMPDEST ISZERO DUP1 ISZERO PUSH2 0x2490 JUMPI PUSH1 0x0 DUP1 PUSH2 0x248D PUSH2 0x4FA9 JUMP JUMPDEST POP POP JUMPDEST POP GAS PUSH2 0x249A PUSH2 0x514F JUMP JUMPDEST POP POP POP POP POP POP ISZERO DUP1 ISZERO PUSH2 0x24BA JUMPI RETURNDATASIZE PUSH1 0x0 DUP1 RETURNDATACOPY RETURNDATASIZE PUSH1 0x0 PUSH2 0x24B7 PUSH2 0x4FA9 JUMP JUMPDEST POP POP JUMPDEST POP POP POP POP PUSH1 0x40 MLOAD RETURNDATASIZE PUSH1 0x20 DUP2 LT ISZERO PUSH2 0x24D9 JUMPI PUSH1 0x0 DUP1 PUSH2 0x24D6 PUSH2 0x4FA9 JUMP JUMPDEST POP POP JUMPDEST DUP2 ADD SWAP1 DUP1 DUP1 MLOAD SWAP3 POP PUSH2 0x24F6 SWAP2 POP POP JUMPI PUSH1 0x0 DUP1 PUSH2 0x24F3 PUSH2 0x4FA9 JUMP JUMPDEST POP POP JUMPDEST PUSH2 0xF31 PUSH2 0x173C JUMP JUMPDEST PUSH1 0x0 PUSH1 0x4 PUSH2 0x250A PUSH2 0x5014 JUMP JUMPDEST SWAP1 PUSH2 0x100 EXP SWAP1 DIV PUSH1 0x1 PUSH1 0x1 PUSH1 0x80 SHL SUB AND DUP2 JUMP JUMPDEST PUSH1 0x14 PUSH1 0x4 PUSH2 0xF7F PUSH2 0x5014 JUMP JUMPDEST PUSH1 0x0 PUSH1 0x10 PUSH1 0xD PUSH2 0x1727 PUSH2 0x5014 JUMP JUMPDEST PUSH1 0x1 PUSH1 0x1 PUSH1 0xA0 SHL SUB DUP2 AND PUSH1 0x0 SWAP1 DUP2 MSTORE PUSH1 0x8 PUSH1 0x20 MSTORE PUSH1 0x40 DUP2 KECCAK256 PUSH1 0x0 SWAP1 PUSH2 0x255A PUSH2 0x5014 JUMP JUMPDEST PUSH1 0x1 PUSH1 0x1 PUSH1 0x80 SHL SUB PUSH2 0x100 SWAP3 SWAP1 SWAP3 EXP SWAP1 DIV AND SWAP3 SWAP2 POP POP JUMP JUMPDEST GAS PUSH2 0x257B PUSH2 0x506F JUMP JUMPDEST PUSH1 0x1 PUSH1 0x1 PUSH1 0xA0 SHL SUB DUP4 DUP2 AND PUSH1 0x0 SWAP1 DUP2 MSTORE PUSH1 0x8 PUSH1 0x20 MSTORE SWAP2 AND SWAP1 PUSH1 0x40 SWAP1 KECCAK256 PUSH1 0x2 ADD PUSH1 0x2 SWAP1 PUSH2 0x25A5 PUSH2 0x5014 JUMP JUMPDEST SWAP1 PUSH2 0x100 EXP SWAP1 DIV PUSH1 0x1 PUSH1 0x1 PUSH1 0xA0 SHL SUB AND PUSH1 0x1 PUSH1 0x1 PUSH1 0xA0 SHL SUB AND EQ PUSH2 0x25D1 JUMPI PUSH1 0x0 DUP1 PUSH2 0x25CE PUSH2 0x4FA9 JUMP JUMPDEST POP POP JUMPDEST PUSH1 0x1 PUSH1 0x1 PUSH1 0xA0 SHL SUB DUP3 AND PUSH1 0x0 SWAP1 DUP2 MSTORE PUSH1 0x8 PUSH1 0x20 MSTORE DUP2 SWAP1 PUSH1 0x40 SWAP1 KECCAK256 PUSH1 0x3 ADD PUSH1 0x1 DUP2 PUSH2 0x25F9 PUSH2 0x5014 JUMP JUMPDEST DUP2 PUSH1 0x1 PUSH1 0x1 PUSH1 0xA0 SHL SUB MUL NOT AND SWAP1 DUP4 PUSH1 0x1 PUSH1 0x1 PUSH1 0xA0 SHL SUB AND MUL OR SWAP1 PUSH2 0x261B PUSH2 0x50B5 JUMP JUMPDEST POP POP POP DUP2 PUSH1 0x1 PUSH1 0x1 PUSH1 0xA0 SHL SUB AND PUSH32 0xB79BF2E89C2D70DDE91D2991FB1EA69B7E478061AD7C04ED5B02B96BC52B8104 GAS PUSH2 0x2652 PUSH2 0x506F JUMP JUMPDEST DUP4 PUSH1 0x40 MLOAD PUSH1 0x1 PUSH1 0x1 PUSH1 0xA0 SHL SUB SWAP3 DUP4 AND DUP2 MSTORE SWAP2 AND PUSH1 0x20 DUP3 ADD MSTORE PUSH1 0x40 SWAP1 DUP2 ADD SWAP1 MLOAD DUP1 SWAP2 SUB SWAP1 LOG2 POP POP JUMP JUMPDEST PUSH1 0x0 DUP1 PUSH2 0x2685 PUSH2 0x5014 JUMP JUMPDEST SWAP1 PUSH2 0x100 EXP SWAP1 DIV PUSH1 0x1 PUSH1 0x1 PUSH1 0xA0 SHL SUB AND PUSH1 0x1 PUSH1 0x1 PUSH1 0xA0 SHL SUB AND GAS PUSH2 0x26A7 PUSH2 0x506F JUMP JUMPDEST PUSH1 0x1 PUSH1 0x1 PUSH1 0xA0 SHL SUB AND EQ PUSH2 0x26F8 JUMPI PUSH1 0x40 MLOAD PUSH3 0x461BCD PUSH1 0xE5 SHL DUP2 MSTORE PUSH1 0x20 PUSH1 0x4 DUP3 ADD MSTORE PUSH1 0x16 PUSH1 0x24 DUP3 ADD MSTORE PUSH1 0x0 DUP1 MLOAD PUSH1 0x20 PUSH2 0x5502 DUP4 CODECOPY DUP2 MLOAD SWAP2 MSTORE PUSH1 0x44 DUP3 ADD MSTORE PUSH1 0x64 ADD PUSH1 0x40 MLOAD DUP1 SWAP2 SUB SWAP1 PUSH2 0x26F5 PUSH2 0x4FA9 JUMP JUMPDEST POP POP JUMPDEST DUP1 PUSH1 0x1 DUP1 DUP1 PUSH2 0x2705 PUSH2 0x5014 JUMP JUMPDEST DUP2 PUSH1 0x1 PUSH1 0x1 PUSH1 0xA0 SHL SUB MUL NOT AND SWAP1 DUP4 PUSH1 0x1 PUSH1 0x1 PUSH1 0xA0 SHL SUB AND MUL OR SWAP1 PUSH2 0x2727 PUSH2 0x50B5 JUMP JUMPDEST POP POP POP DUP1 PUSH1 0x1 PUSH1 0x1 PUSH1 0xA0 SHL SUB AND PUSH1 0x0 DUP1 PUSH2 0x273F PUSH2 0x5014 JUMP JUMPDEST SWAP1 PUSH2 0x100 EXP SWAP1 DIV PUSH1 0x1 PUSH1 0x1 PUSH1 0xA0 SHL SUB AND PUSH1 0x1 PUSH1 0x1 PUSH1 0xA0 SHL SUB AND PUSH32 0xED8889F560326EB138920D842192F0EB3DD22B4F139C87A2C57538E05BAE1278 PUSH1 0x40 MLOAD PUSH1 0x40 MLOAD DUP1 SWAP2 SUB SWAP1 LOG3 POP JUMP JUMPDEST PUSH1 0x0 DUP1 DUP1 DUP1 DUP1 PUSH2 0x27B4 PUSH1 0x4 PUSH1 0x7 PUSH2 0x279C PUSH2 0x5014 JUMP JUMPDEST SWAP1 PUSH2 0x100 EXP SWAP1 DIV PUSH4 0xFFFFFFFF AND PUSH4 0xFFFFFFFF AND PUSH2 0x20B0 JUMP JUMPDEST SWAP5 POP SWAP5 POP SWAP5 POP SWAP5 POP SWAP5 POP SWAP1 SWAP2 SWAP3 SWAP4 SWAP5 JUMP JUMPDEST PUSH1 0x0 DUP3 DUP3 GT ISZERO PUSH2 0x2812 JUMPI PUSH1 0x40 MLOAD PUSH3 0x461BCD PUSH1 0xE5 SHL DUP2 MSTORE PUSH1 0x20 PUSH1 0x4 DUP3 ADD MSTORE PUSH1 0x1E PUSH1 0x24 DUP3 ADD MSTORE PUSH1 0x0 DUP1 MLOAD PUSH1 0x20 PUSH2 0x5522 DUP4 CODECOPY DUP2 MLOAD SWAP2 MSTORE PUSH1 0x44 DUP3 ADD MSTORE PUSH1 0x64 ADD PUSH1 0x40 MLOAD DUP1 SWAP2 SUB SWAP1 PUSH2 0x280F PUSH2 0x4FA9 JUMP JUMPDEST POP POP JUMPDEST POP DUP1 DUP3 SUB JUMPDEST SWAP3 SWAP2 POP POP JUMP JUMPDEST PUSH1 0x0 DUP3 PUSH2 0x282C JUMPI POP PUSH1 0x0 PUSH2 0x2817 JUMP JUMPDEST DUP3 DUP3 MUL DUP3 DUP5 DUP3 DUP2 PUSH2 0x2839 JUMPI INVALID JUMPDEST DIV EQ PUSH2 0x287F JUMPI PUSH1 0x40 MLOAD PUSH3 0x461BCD PUSH1 0xE5 SHL DUP2 MSTORE PUSH1 0x4 ADD DUP1 DUP1 PUSH1 0x20 ADD DUP3 DUP2 SUB DUP3 MSTORE PUSH1 0x21 DUP2 MSTORE PUSH1 0x20 ADD DUP1 PUSH2 0x54E1 PUSH1 0x21 SWAP2 CODECOPY PUSH1 0x40 ADD SWAP2 POP POP PUSH1 0x40 MLOAD DUP1 SWAP2 SUB SWAP1 PUSH2 0x287C PUSH2 0x4FA9 JUMP JUMPDEST POP POP JUMPDEST SWAP4 SWAP3 POP POP POP JUMP JUMPDEST PUSH1 0x1 PUSH1 0x1 PUSH1 0xA0 SHL SUB DUP3 AND PUSH1 0x0 SWAP1 DUP2 MSTORE PUSH1 0x8 PUSH1 0x20 MSTORE PUSH1 0x60 SWAP1 PUSH1 0x40 DUP2 KECCAK256 PUSH1 0x10 SWAP1 PUSH2 0x28AC PUSH2 0x5014 JUMP JUMPDEST SWAP1 PUSH2 0x100 EXP SWAP1 DIV PUSH4 0xFFFFFFFF AND SWAP1 POP PUSH1 0x0 PUSH1 0x7 PUSH1 0x0 SWAP1 PUSH2 0x28CA PUSH2 0x5014 JUMP JUMPDEST SWAP1 PUSH2 0x100 EXP SWAP1 DIV PUSH4 0xFFFFFFFF AND SWAP1 POP DUP2 PUSH4 0xFFFFFFFF AND PUSH1 0x0 EQ ISZERO PUSH2 0x291C JUMPI PUSH1 0x40 MLOAD DUP1 PUSH1 0x40 ADD PUSH1 0x40 MSTORE DUP1 PUSH1 0x12 DUP2 MSTORE PUSH1 0x20 ADD PUSH18 0x6E6F7420656E61626C6564206F7261636C65 PUSH1 0x70 SHL DUP2 MSTORE POP SWAP3 POP POP POP PUSH2 0x2817 JUMP JUMPDEST DUP4 PUSH4 0xFFFFFFFF AND DUP3 PUSH4 0xFFFFFFFF AND GT ISZERO PUSH2 0x2968 JUMPI PUSH1 0x40 MLOAD DUP1 PUSH1 0x40 ADD PUSH1 0x40 MSTORE DUP1 PUSH1 0x16 DUP2 MSTORE PUSH1 0x20 ADD PUSH22 0x6E6F742079657420656E61626C6564206F7261636C65 PUSH1 0x50 SHL DUP2 MSTORE POP SWAP3 POP POP POP PUSH2 0x2817 JUMP JUMPDEST PUSH1 0x1 PUSH1 0x1 PUSH1 0xA0 SHL SUB DUP6 AND PUSH1 0x0 SWAP1 DUP2 MSTORE PUSH1 0x8 PUSH1 0x20 MSTORE PUSH4 0xFFFFFFFF DUP6 AND SWAP1 PUSH1 0x40 SWAP1 KECCAK256 PUSH1 0x14 SWAP1 PUSH2 0x2993 PUSH2 0x5014 JUMP JUMPDEST SWAP1 PUSH2 0x100 EXP SWAP1 DIV PUSH4 0xFFFFFFFF AND PUSH4 0xFFFFFFFF AND LT ISZERO PUSH2 0x29E6 JUMPI PUSH1 0x40 MLOAD DUP1 PUSH1 0x40 ADD PUSH1 0x40 MSTORE DUP1 PUSH1 0x18 DUP2 MSTORE PUSH1 0x20 ADD PUSH24 0x6E6F206C6F6E67657220616C6C6F776564206F7261636C65 PUSH1 0x40 SHL DUP2 MSTORE POP SWAP3 POP POP POP PUSH2 0x2817 JUMP JUMPDEST PUSH1 0x1 PUSH1 0x1 PUSH1 0xA0 SHL SUB DUP6 AND PUSH1 0x0 SWAP1 DUP2 MSTORE PUSH1 0x8 PUSH1 0x20 MSTORE PUSH4 0xFFFFFFFF DUP6 AND SWAP1 PUSH1 0x40 SWAP1 KECCAK256 PUSH1 0x18 SWAP1 PUSH2 0x2A11 PUSH2 0x5014 JUMP JUMPDEST SWAP1 PUSH2 0x100 EXP SWAP1 DIV PUSH4 0xFFFFFFFF AND PUSH4 0xFFFFFFFF AND LT PUSH2 0x2A68 JUMPI PUSH1 0x40 MLOAD DUP1 PUSH1 0x40 ADD PUSH1 0x40 MSTORE DUP1 PUSH1 0x20 DUP2 MSTORE PUSH1 0x20 ADD PUSH32 0x63616E6E6F74207265706F7274206F6E2070726576696F757320726F756E6473 DUP2 MSTORE POP SWAP3 POP POP POP PUSH2 0x2817 JUMP JUMPDEST DUP1 PUSH4 0xFFFFFFFF AND DUP5 PUSH4 0xFFFFFFFF AND EQ ISZERO DUP1 ISZERO PUSH2 0x2AA4 JUMPI POP PUSH2 0x2A94 PUSH4 0xFFFFFFFF DUP1 DUP4 AND SWAP1 PUSH1 0x1 SWAP1 PUSH2 0x3E09 AND JUMP JUMPDEST PUSH4 0xFFFFFFFF AND DUP5 PUSH4 0xFFFFFFFF AND EQ ISZERO JUMPDEST DUP1 ISZERO PUSH2 0x2AB7 JUMPI POP PUSH2 0x2AB5 DUP5 DUP3 PUSH2 0x3F7F JUMP JUMPDEST ISZERO JUMPDEST ISZERO PUSH2 0x2AF5 JUMPI PUSH1 0x40 MLOAD DUP1 PUSH1 0x40 ADD PUSH1 0x40 MSTORE DUP1 PUSH1 0x17 DUP2 MSTORE PUSH1 0x20 ADD PUSH23 0x1A5B9D985B1A59081C9BDD5B99081D1BC81C995C1BDC9D PUSH1 0x4A SHL DUP2 MSTORE POP SWAP3 POP POP POP PUSH2 0x2817 JUMP JUMPDEST DUP4 PUSH4 0xFFFFFFFF AND PUSH1 0x1 EQ ISZERO DUP1 ISZERO PUSH2 0x2B26 JUMPI POP PUSH2 0x2B24 PUSH2 0x2B1F PUSH4 0xFFFFFFFF DUP1 DUP8 AND SWAP1 PUSH1 0x1 SWAP1 PUSH2 0x3FED AND JUMP JUMPDEST PUSH2 0x4043 JUMP JUMPDEST ISZERO JUMPDEST ISZERO PUSH2 0x2B6A JUMPI PUSH1 0x40 MLOAD DUP1 PUSH1 0x40 ADD PUSH1 0x40 MSTORE DUP1 PUSH1 0x1F DUP2 MSTORE PUSH1 0x20 ADD PUSH32 0x70726576696F757320726F756E64206E6F7420737570657273656461626C6500 DUP2 MSTORE POP SWAP3 POP POP POP PUSH2 0x2817 JUMP JUMPDEST POP POP SWAP3 SWAP2 POP POP JUMP JUMPDEST PUSH2 0x2B7B DUP2 PUSH2 0x4090 JUMP JUMPDEST PUSH2 0x2B84 JUMPI PUSH2 0x2C70 JUMP JUMPDEST PUSH1 0x0 PUSH1 0x8 PUSH1 0x0 GAS PUSH2 0x2B93 PUSH2 0x506F JUMP JUMPDEST PUSH1 0x1 PUSH1 0x1 PUSH1 0xA0 SHL SUB AND PUSH1 0x1 PUSH1 0x1 PUSH1 0xA0 SHL SUB AND DUP2 MSTORE PUSH1 0x20 ADD SWAP1 DUP2 MSTORE PUSH1 0x20 ADD PUSH1 0x0 KECCAK256 PUSH1 0x1C SWAP1 PUSH2 0x2BBE PUSH2 0x5014 JUMP JUMPDEST PUSH4 0xFFFFFFFF PUSH2 0x100 SWAP3 SWAP1 SWAP3 EXP SWAP1 DIV AND SWAP1 POP PUSH1 0x18 PUSH1 0x4 PUSH2 0x2BDB PUSH2 0x5014 JUMP JUMPDEST SWAP1 PUSH2 0x100 EXP SWAP1 DIV PUSH4 0xFFFFFFFF AND PUSH4 0xFFFFFFFF AND DUP2 ADD DUP3 PUSH4 0xFFFFFFFF AND GT ISZERO DUP1 ISZERO PUSH2 0x2C04 JUMPI POP DUP1 ISZERO ISZERO JUMPDEST ISZERO PUSH2 0x2C0F JUMPI POP PUSH2 0x2C70 JUMP JUMPDEST PUSH2 0x2C18 DUP3 PUSH2 0x40B7 JUMP JUMPDEST DUP2 PUSH1 0x8 PUSH1 0x0 GAS PUSH2 0x2C26 PUSH2 0x506F JUMP JUMPDEST PUSH1 0x1 PUSH1 0x1 PUSH1 0xA0 SHL SUB AND PUSH1 0x1 PUSH1 0x1 PUSH1 0xA0 SHL SUB AND DUP2 MSTORE PUSH1 0x20 ADD SWAP1 DUP2 MSTORE PUSH1 0x20 ADD PUSH1 0x0 KECCAK256 PUSH1 0x1 PUSH1 0xE0 SHL DUP2 PUSH2 0x2C54 PUSH2 0x5014 JUMP JUMPDEST DUP2 PUSH4 0xFFFFFFFF MUL NOT AND SWAP1 DUP4 PUSH4 0xFFFFFFFF AND MUL OR SWAP1 PUSH2 0xD14 PUSH2 0x50B5 JUMP JUMPDEST POP JUMP JUMPDEST PUSH2 0x2C7C DUP2 PUSH2 0x43B0 JUMP JUMPDEST PUSH2 0x2C8E JUMPI PUSH1 0x0 DUP1 PUSH2 0x2C8B PUSH2 0x4FA9 JUMP JUMPDEST POP POP JUMPDEST PUSH4 0xFFFFFFFF DUP2 AND PUSH1 0x0 SWAP1 DUP2 MSTORE PUSH1 0xA PUSH1 0x20 MSTORE PUSH1 0x40 SWAP1 KECCAK256 DUP3 SWAP1 DUP1 PUSH1 0x1 DUP2 PUSH2 0x2CB1 PUSH2 0x5014 JUMP JUMPDEST ADD DUP1 DUP3 PUSH2 0x2CBC PUSH2 0x50B5 JUMP JUMPDEST POP POP PUSH1 0x0 SWAP3 DUP4 MSTORE PUSH1 0x0 NOT ADD SWAP2 PUSH1 0x20 SWAP2 POP KECCAK256 ADD PUSH2 0x2CD6 PUSH2 0x50B5 JUMP JUMPDEST POP POP DUP1 PUSH1 0x8 PUSH1 0x0 GAS PUSH2 0x2CE6 PUSH2 0x506F JUMP JUMPDEST PUSH1 0x1 PUSH1 0x1 PUSH1 0xA0 SHL SUB AND PUSH1 0x1 PUSH1 0x1 PUSH1 0xA0 SHL SUB AND DUP2 MSTORE PUSH1 0x20 ADD SWAP1 DUP2 MSTORE PUSH1 0x20 ADD PUSH1 0x0 KECCAK256 PUSH1 0x1 PUSH1 0xC0 SHL DUP2 PUSH2 0x2D14 PUSH2 0x5014 JUMP JUMPDEST DUP2 PUSH4 0xFFFFFFFF MUL NOT AND SWAP1 DUP4 PUSH4 0xFFFFFFFF AND MUL OR SWAP1 PUSH2 0x2D30 PUSH2 0x50B5 JUMP JUMPDEST POP POP POP DUP2 PUSH1 0x8 PUSH1 0x0 GAS PUSH2 0x2D41 PUSH2 0x506F JUMP JUMPDEST PUSH1 0x1 PUSH1 0x1 PUSH1 0xA0 SHL SUB AND PUSH1 0x1 PUSH1 0x1 PUSH1 0xA0 SHL SUB AND DUP2 MSTORE PUSH1 0x20 ADD SWAP1 DUP2 MSTORE PUSH1 0x20 ADD PUSH1 0x0 KECCAK256 PUSH1 0x1 ADD DUP2 SWAP1 PUSH2 0x2D6E PUSH2 0x50B5 JUMP JUMPDEST POP POP POP GAS PUSH2 0x2D7A PUSH2 0x506F JUMP JUMPDEST PUSH1 0x1 PUSH1 0x1 PUSH1 0xA0 SHL SUB AND DUP2 PUSH4 0xFFFFFFFF AND DUP4 PUSH32 0x92E98423F8ADAC6E64D0608E519FD1CEFB861498385C6DEE70D58FC926DDC68C PUSH1 0x40 MLOAD PUSH1 0x40 MLOAD DUP1 SWAP2 SUB SWAP1 LOG4 POP POP JUMP JUMPDEST PUSH4 0xFFFFFFFF DUP2 AND PUSH1 0x0 SWAP1 DUP2 MSTORE PUSH1 0xA PUSH1 0x20 MSTORE DUP1 PUSH1 0x40 DUP2 KECCAK256 PUSH1 0x1 ADD PUSH1 0x4 SWAP1 PUSH2 0x2DDF PUSH2 0x5014 JUMP JUMPDEST PUSH4 0xFFFFFFFF DUP6 DUP2 AND PUSH1 0x0 SWAP1 DUP2 MSTORE PUSH1 0xA PUSH1 0x20 MSTORE PUSH2 0x100 SWAP4 SWAP1 SWAP4 EXP SWAP1 SWAP2 DIV AND SWAP1 PUSH1 0x40 SWAP1 KECCAK256 DUP1 PUSH2 0x2E0A PUSH2 0x5014 JUMP JUMPDEST SWAP1 POP LT ISZERO PUSH2 0x2E1D JUMPI POP PUSH1 0x0 SWAP1 POP DUP1 PUSH2 0x2FDA JUMP JUMPDEST PUSH4 0xFFFFFFFF DUP4 AND PUSH1 0x0 SWAP1 DUP2 MSTORE PUSH1 0xA PUSH1 0x20 MSTORE PUSH2 0x2E9D PUSH1 0x40 DUP3 KECCAK256 DUP1 PUSH2 0x2E3E PUSH2 0x5014 JUMP JUMPDEST DUP1 PUSH1 0x20 MUL PUSH1 0x20 ADD PUSH1 0x40 MLOAD SWAP1 DUP2 ADD PUSH1 0x40 MSTORE DUP2 DUP2 MSTORE SWAP2 SWAP1 PUSH1 0x20 DUP4 ADD DUP3 DUP1 PUSH2 0x2E61 PUSH2 0x5014 JUMP JUMPDEST DUP1 ISZERO PUSH2 0x2E93 JUMPI PUSH1 0x20 MUL DUP3 ADD SWAP2 SWAP1 PUSH1 0x0 MSTORE PUSH1 0x20 PUSH1 0x0 KECCAK256 SWAP1 JUMPDEST DUP2 PUSH2 0x2E81 PUSH2 0x5014 JUMP JUMPDEST DUP2 MSTORE PUSH1 0x20 ADD SWAP1 PUSH1 0x1 ADD SWAP1 DUP1 DUP4 GT PUSH2 0x2E78 JUMPI JUMPDEST POP POP POP POP POP PUSH2 0x43EA JUMP JUMPDEST PUSH4 0xFFFFFFFF DUP6 AND PUSH1 0x0 SWAP1 DUP2 MSTORE PUSH1 0x9 PUSH1 0x20 MSTORE SWAP1 SWAP2 POP DUP2 SWAP1 PUSH1 0x40 SWAP1 KECCAK256 DUP2 SWAP1 PUSH2 0x2EC1 PUSH2 0x50B5 JUMP JUMPDEST POP POP POP GAS PUSH2 0x2ECD PUSH2 0x533D JUMP JUMPDEST PUSH4 0xFFFFFFFF DUP6 AND PUSH1 0x0 SWAP1 DUP2 MSTORE PUSH1 0x9 PUSH1 0x20 MSTORE PUSH1 0x40 SWAP1 KECCAK256 PUSH1 0x1 ADD PUSH1 0x1 PUSH1 0x40 SHL DUP2 PUSH2 0x2EF3 PUSH2 0x5014 JUMP JUMPDEST DUP2 PUSH1 0x1 PUSH1 0x1 PUSH1 0x40 SHL SUB MUL NOT AND SWAP1 DUP4 PUSH1 0x1 PUSH1 0x1 PUSH1 0x40 SHL SUB AND MUL OR SWAP1 PUSH2 0x2F15 PUSH2 0x50B5 JUMP JUMPDEST POP POP POP PUSH4 0xFFFFFFFF DUP5 AND PUSH1 0x0 SWAP1 DUP2 MSTORE PUSH1 0x9 PUSH1 0x20 MSTORE DUP5 SWAP1 PUSH1 0x40 SWAP1 KECCAK256 PUSH1 0x1 ADD PUSH1 0x1 PUSH1 0x80 SHL DUP2 PUSH2 0x2F40 PUSH2 0x5014 JUMP JUMPDEST DUP2 PUSH4 0xFFFFFFFF MUL NOT AND SWAP1 DUP4 PUSH4 0xFFFFFFFF AND MUL OR SWAP1 PUSH2 0x2F5C PUSH2 0x50B5 JUMP JUMPDEST POP POP POP DUP4 PUSH1 0x7 PUSH1 0x4 PUSH2 0x100 EXP DUP2 PUSH2 0x2F71 PUSH2 0x5014 JUMP JUMPDEST DUP2 PUSH4 0xFFFFFFFF MUL NOT AND SWAP1 DUP4 PUSH4 0xFFFFFFFF AND MUL OR SWAP1 PUSH2 0x2F8D PUSH2 0x50B5 JUMP JUMPDEST POP POP POP DUP4 PUSH4 0xFFFFFFFF AND DUP2 PUSH32 0x559884FD3A460DB3073B7FC896CC77986F16E378210DED43186175BF646FC5F GAS PUSH2 0x2FC2 PUSH2 0x533D JUMP JUMPDEST PUSH1 0x40 MLOAD SWAP1 DUP2 MSTORE PUSH1 0x20 ADD PUSH1 0x40 MLOAD DUP1 SWAP2 SUB SWAP1 LOG3 PUSH1 0x1 SWAP3 POP SWAP1 POP JUMPDEST SWAP2 POP SWAP2 JUMP JUMPDEST PUSH4 0xFFFFFFFF DUP2 AND PUSH1 0x0 SWAP1 DUP2 MSTORE PUSH1 0xA PUSH1 0x20 MSTORE PUSH1 0x40 DUP2 KECCAK256 PUSH1 0x1 ADD PUSH1 0xC SWAP1 PUSH2 0x3002 PUSH2 0x5014 JUMP JUMPDEST SWAP1 PUSH2 0x100 EXP SWAP1 DIV PUSH1 0x1 PUSH1 0x1 PUSH1 0x80 SHL SUB AND SWAP1 POP PUSH2 0x301C PUSH2 0x523A JUMP JUMPDEST PUSH1 0xD PUSH1 0x40 MLOAD PUSH1 0x40 DUP1 DUP3 ADD SWAP1 MSTORE SWAP1 DUP2 PUSH1 0x0 DUP3 PUSH2 0x3035 PUSH2 0x5014 JUMP JUMPDEST PUSH1 0x1 PUSH1 0x1 PUSH1 0x80 SHL SUB PUSH2 0x100 SWAP3 SWAP1 SWAP3 EXP SWAP1 DIV AND DUP2 MSTORE PUSH1 0x20 ADD PUSH1 0x10 DUP3 PUSH2 0x3057 PUSH2 0x5014 JUMP JUMPDEST PUSH1 0x1 PUSH1 0x1 PUSH1 0x80 SHL SUB PUSH2 0x100 SWAP3 SWAP1 SWAP3 EXP SWAP1 DIV AND SWAP1 MSTORE POP SWAP1 POP PUSH2 0x3083 DUP3 DUP3 MLOAD PUSH1 0x1 PUSH1 0x1 PUSH1 0x80 SHL SUB AND SWAP1 PUSH2 0x3A0F JUMP JUMPDEST PUSH1 0x1 PUSH1 0x1 PUSH1 0x80 SHL SUB AND DUP2 MSTORE PUSH2 0x30A6 DUP3 PUSH1 0x20 DUP4 ADD MLOAD PUSH1 0x1 PUSH1 0x1 PUSH1 0x80 SHL SUB AND SWAP1 PUSH2 0x449F JUMP JUMPDEST PUSH1 0x1 PUSH1 0x1 PUSH1 0x80 SHL SUB AND PUSH1 0x20 DUP3 ADD MSTORE DUP1 PUSH1 0xD DUP2 MLOAD DUP2 PUSH1 0x1 DUP2 PUSH2 0x30C5 PUSH2 0x5014 JUMP JUMPDEST DUP2 PUSH1 0x1 PUSH1 0x1 PUSH1 0x80 SHL SUB MUL NOT AND SWAP1 DUP4 PUSH1 0x1 PUSH1 0x1 PUSH1 0x80 SHL SUB AND MUL OR SWAP1 PUSH2 0x30E7 PUSH2 0x50B5 JUMP JUMPDEST POP POP POP PUSH1 0x20 DUP3 ADD MLOAD DUP2 PUSH1 0x1 PUSH1 0x80 SHL DUP2 PUSH2 0x30FE PUSH2 0x5014 JUMP JUMPDEST DUP2 PUSH1 0x1 PUSH1 0x1 PUSH1 0x80 SHL SUB MUL NOT AND SWAP1 DUP4 PUSH1 0x1 PUSH1 0x1 PUSH1 0x80 SHL SUB AND MUL OR SWAP1 PUSH2 0x3120 PUSH2 0x50B5 JUMP JUMPDEST POP POP POP SWAP1 POP POP PUSH2 0x317A DUP3 PUSH1 0x8 PUSH1 0x0 GAS PUSH2 0x3137 PUSH2 0x506F JUMP JUMPDEST PUSH1 0x1 PUSH1 0x1 PUSH1 0xA0 SHL SUB AND PUSH1 0x1 PUSH1 0x1 PUSH1 0xA0 SHL SUB AND DUP2 MSTORE PUSH1 0x20 ADD SWAP1 DUP2 MSTORE PUSH1 0x20 ADD PUSH1 0x0 KECCAK256 PUSH1 0x0 SWAP1 PUSH2 0x3162 PUSH2 0x5014 JUMP JUMPDEST PUSH1 0x1 PUSH1 0x1 PUSH1 0x80 SHL SUB PUSH2 0x100 SWAP3 SWAP1 SWAP3 EXP SWAP1 DIV AND SWAP1 PUSH2 0x449F JUMP JUMPDEST PUSH1 0x8 PUSH1 0x0 GAS PUSH2 0x3187 PUSH2 0x506F JUMP JUMPDEST PUSH1 0x1 PUSH1 0x1 PUSH1 0xA0 SHL SUB AND PUSH1 0x1 PUSH1 0x1 PUSH1 0xA0 SHL SUB AND DUP2 MSTORE PUSH1 0x20 ADD SWAP1 DUP2 MSTORE PUSH1 0x20 ADD PUSH1 0x0 KECCAK256 PUSH1 0x1 DUP2 PUSH2 0x31B2 PUSH2 0x5014 JUMP JUMPDEST DUP2 PUSH1 0x1 PUSH1 0x1 PUSH1 0x80 SHL SUB MUL NOT AND SWAP1 DUP4 PUSH1 0x1 PUSH1 0x1 PUSH1 0x80 SHL SUB AND MUL OR SWAP1 PUSH2 0x31D4 PUSH2 0x50B5 JUMP JUMPDEST POP DUP3 SWAP2 POP POP MLOAD PUSH1 0x1 PUSH1 0x1 PUSH1 0x80 SHL SUB AND PUSH1 0x0 DUP1 MLOAD PUSH1 0x20 PUSH2 0x5542 DUP4 CODECOPY DUP2 MLOAD SWAP2 MSTORE PUSH1 0x40 MLOAD PUSH1 0x40 MLOAD DUP1 SWAP2 SUB SWAP1 LOG2 POP POP POP JUMP JUMPDEST PUSH4 0xFFFFFFFF DUP2 AND PUSH1 0x0 SWAP1 DUP2 MSTORE PUSH1 0xA PUSH1 0x20 MSTORE PUSH1 0x40 SWAP1 KECCAK256 PUSH1 0x1 ADD PUSH1 0x0 SWAP1 PUSH2 0x3225 PUSH2 0x5014 JUMP JUMPDEST PUSH4 0xFFFFFFFF DUP4 DUP2 AND PUSH1 0x0 SWAP1 DUP2 MSTORE PUSH1 0xA PUSH1 0x20 MSTORE PUSH2 0x100 SWAP4 SWAP1 SWAP4 EXP SWAP1 SWAP2 DIV AND SWAP1 PUSH1 0x40 SWAP1 KECCAK256 DUP1 PUSH2 0x3250 PUSH2 0x5014 JUMP JUMPDEST SWAP1 POP LT ISZERO PUSH2 0x325D JUMPI PUSH2 0x2C70 JUMP JUMPDEST PUSH4 0xFFFFFFFF DUP2 AND PUSH1 0x0 SWAP1 DUP2 MSTORE PUSH1 0xA PUSH1 0x20 MSTORE PUSH1 0x40 SWAP1 KECCAK256 PUSH1 0x0 PUSH2 0x327E DUP3 DUP3 PUSH2 0x5383 JUMP JUMPDEST PUSH1 0x1 DUP3 DUP2 ADD SWAP1 DUP2 PUSH2 0x328D PUSH2 0x5014 JUMP JUMPDEST SWAP1 PUSH4 0xFFFFFFFF MUL NOT AND SWAP1 PUSH2 0x329F PUSH2 0x50B5 JUMP JUMPDEST POP POP PUSH1 0x1 DUP3 ADD PUSH1 0x1 PUSH1 0x20 SHL DUP2 PUSH2 0x32B3 PUSH2 0x5014 JUMP JUMPDEST SWAP1 PUSH4 0xFFFFFFFF MUL NOT AND SWAP1 PUSH2 0x32C5 PUSH2 0x50B5 JUMP JUMPDEST POP POP PUSH1 0x1 DUP3 ADD PUSH1 0x1 PUSH1 0x40 SHL DUP2 PUSH2 0x32D9 PUSH2 0x5014 JUMP JUMPDEST SWAP1 PUSH4 0xFFFFFFFF MUL NOT AND SWAP1 PUSH2 0x32EB PUSH2 0x50B5 JUMP JUMPDEST POP POP PUSH1 0x1 DUP3 ADD PUSH1 0x1 PUSH1 0x60 SHL DUP2 PUSH2 0x32FF PUSH2 0x5014 JUMP JUMPDEST SWAP1 PUSH1 0x1 PUSH1 0x1 PUSH1 0x80 SHL SUB MUL NOT AND SWAP1 PUSH2 0xD14 PUSH2 0x50B5 JUMP JUMPDEST PUSH1 0x0 DUP1 PUSH1 0x3 PUSH2 0x3321 PUSH2 0x5014 JUMP JUMPDEST PUSH1 0x1 PUSH1 0x1 PUSH1 0xA0 SHL SUB PUSH2 0x100 SWAP3 SWAP1 SWAP3 EXP SWAP1 DIV AND SWAP1 POP DUP1 PUSH2 0x3340 JUMPI POP PUSH2 0xB24 JUMP JUMPDEST PUSH1 0x0 PUSH2 0x3357 PUSH4 0xFFFFFFFF DUP1 DUP7 AND SWAP1 PUSH1 0x1 SWAP1 PUSH2 0x3FED AND JUMP JUMPDEST PUSH4 0xFFFFFFFF DUP2 AND PUSH1 0x0 SWAP1 DUP2 MSTORE PUSH1 0x9 PUSH1 0x20 MSTORE SWAP1 SWAP2 POP PUSH1 0x40 DUP2 KECCAK256 PUSH1 0x1 ADD PUSH1 0x10 SWAP1 PUSH2 0x337D PUSH2 0x5014 JUMP JUMPDEST PUSH4 0xFFFFFFFF DUP5 DUP2 AND PUSH1 0x0 SWAP1 DUP2 MSTORE PUSH1 0x9 PUSH1 0x20 MSTORE PUSH2 0x100 SWAP4 SWAP1 SWAP4 EXP SWAP1 SWAP2 DIV AND SWAP2 POP PUSH1 0x40 DUP2 KECCAK256 PUSH2 0x33A8 PUSH2 0x5014 JUMP JUMPDEST SWAP1 POP DUP4 PUSH1 0x1 PUSH1 0x1 PUSH1 0xA0 SHL SUB AND PUSH4 0xBEED9B51 PUSH3 0x493E0 DUP5 DUP5 DUP11 DUP11 PUSH1 0x40 MLOAD PUSH1 0x1 PUSH1 0x1 PUSH1 0xE0 SHL SUB NOT PUSH1 0xE0 DUP9 SWAP1 SHL AND DUP2 MSTORE PUSH4 0xFFFFFFFF SWAP5 DUP6 AND PUSH1 0x4 DUP3 ADD MSTORE PUSH1 0x24 DUP2 ADD SWAP4 SWAP1 SWAP4 MSTORE SWAP3 AND PUSH1 0x44 DUP3 ADD MSTORE PUSH1 0x64 DUP2 ADD SWAP2 SWAP1 SWAP2 MSTORE PUSH1 0x84 ADD PUSH1 0x20 PUSH1 0x40 MLOAD DUP1 DUP4 SUB DUP2 PUSH1 0x0 DUP9 DUP1 PUSH2 0x3411 PUSH2 0x5103 JUMP JUMPDEST ISZERO DUP1 ISZERO PUSH2 0x3426 JUMPI PUSH1 0x0 DUP1 PUSH2 0x3423 PUSH2 0x4FA9 JUMP JUMPDEST POP POP JUMPDEST POP DUP8 PUSH2 0x3430 PUSH2 0x514F JUMP JUMPDEST POP POP POP POP POP POP SWAP4 POP POP POP POP DUP1 ISZERO PUSH2 0x346B JUMPI POP PUSH1 0x40 MLOAD RETURNDATASIZE PUSH1 0x20 DUP2 LT ISZERO PUSH2 0x345D JUMPI PUSH1 0x0 DUP1 PUSH2 0x345A PUSH2 0x4FA9 JUMP JUMPDEST POP POP JUMPDEST DUP2 ADD SWAP1 DUP1 DUP1 MLOAD SWAP3 POP PUSH1 0x1 SWAP2 POP POP JUMPDEST PUSH2 0x3474 JUMPI PUSH2 0x3476 JUMP JUMPDEST POP JUMPDEST POP POP POP POP POP POP JUMP JUMPDEST PUSH1 0x0 PUSH2 0x2817 PUSH1 0x2 PUSH2 0x349A PUSH2 0x3490 PUSH2 0x199B JUMP JUMPDEST DUP6 SWAP1 PUSH1 0xFF AND PUSH2 0x281D JUMP JUMPDEST SWAP1 PUSH2 0x281D JUMP JUMPDEST PUSH2 0x34A9 DUP2 PUSH2 0x44F8 JUMP JUMPDEST PUSH2 0x34BB JUMPI PUSH1 0x0 DUP1 PUSH2 0x34B8 PUSH2 0x4FA9 JUMP JUMPDEST POP POP JUMPDEST PUSH2 0x34E4 PUSH1 0x1 PUSH1 0x0 PUSH1 0x7 PUSH2 0x34CC PUSH2 0x5014 JUMP JUMPDEST PUSH4 0xFFFFFFFF PUSH2 0x100 SWAP3 SWAP1 SWAP3 EXP SWAP1 DIV DUP2 AND SWAP2 SWAP1 PUSH2 0x3E09 AND JUMP JUMPDEST PUSH1 0x1 PUSH1 0x1 PUSH1 0xA0 SHL SUB DUP3 AND PUSH1 0x0 SWAP1 DUP2 MSTORE PUSH1 0x8 PUSH1 0x20 MSTORE PUSH1 0x40 SWAP1 KECCAK256 PUSH1 0x1 PUSH1 0xA0 SHL DUP2 PUSH2 0x350A PUSH2 0x5014 JUMP JUMPDEST DUP2 PUSH4 0xFFFFFFFF MUL NOT AND SWAP1 DUP4 PUSH4 0xFFFFFFFF AND MUL OR SWAP1 PUSH2 0x3526 PUSH2 0x50B5 JUMP JUMPDEST POP POP POP PUSH1 0x0 PUSH1 0xC PUSH2 0x3543 PUSH1 0x1 PUSH2 0x353A PUSH2 0x199B JUMP JUMPDEST PUSH1 0xFF AND SWAP1 PUSH2 0x27C5 JUMP JUMPDEST DUP2 PUSH2 0x354C PUSH2 0x5014 JUMP JUMPDEST DUP2 LT PUSH2 0x3554 JUMPI INVALID JUMPDEST SWAP1 PUSH1 0x0 MSTORE PUSH1 0x20 PUSH1 0x0 KECCAK256 ADD PUSH1 0x0 SWAP1 PUSH2 0x3569 PUSH2 0x5014 JUMP JUMPDEST PUSH1 0x1 PUSH1 0x1 PUSH1 0xA0 SHL SUB DUP5 DUP2 AND PUSH1 0x0 SWAP1 DUP2 MSTORE PUSH1 0x8 PUSH1 0x20 MSTORE PUSH2 0x100 SWAP4 SWAP1 SWAP4 EXP SWAP1 SWAP2 DIV AND SWAP2 POP PUSH1 0x40 DUP2 KECCAK256 PUSH1 0x2 ADD PUSH1 0x0 SWAP1 PUSH2 0x359D PUSH2 0x5014 JUMP JUMPDEST SWAP1 PUSH2 0x100 EXP SWAP1 DIV PUSH2 0xFFFF AND SWAP1 POP DUP1 PUSH1 0x8 PUSH1 0x0 DUP5 PUSH1 0x1 PUSH1 0x1 PUSH1 0xA0 SHL SUB AND PUSH1 0x1 PUSH1 0x1 PUSH1 0xA0 SHL SUB AND DUP2 MSTORE PUSH1 0x20 ADD SWAP1 DUP2 MSTORE PUSH1 0x20 ADD PUSH1 0x0 KECCAK256 PUSH1 0x2 ADD PUSH1 0x1 DUP2 PUSH2 0x35DE PUSH2 0x5014 JUMP JUMPDEST DUP2 PUSH2 0xFFFF MUL NOT AND SWAP1 DUP4 PUSH2 0xFFFF AND MUL OR SWAP1 PUSH2 0x35F6 PUSH2 0x50B5 JUMP JUMPDEST POP POP POP PUSH1 0x1 PUSH1 0x1 PUSH1 0xA0 SHL SUB DUP4 AND PUSH1 0x0 SWAP1 DUP2 MSTORE PUSH1 0x8 PUSH1 0x20 MSTORE PUSH1 0x40 SWAP1 KECCAK256 PUSH1 0x2 ADD PUSH1 0x1 DUP2 PUSH2 0x361F PUSH2 0x5014 JUMP JUMPDEST SWAP1 PUSH2 0xFFFF MUL NOT AND SWAP1 PUSH2 0x362F PUSH2 0x50B5 JUMP JUMPDEST POP POP DUP2 PUSH1 0xC DUP3 PUSH2 0xFFFF AND DUP2 PUSH2 0x3642 PUSH2 0x5014 JUMP JUMPDEST DUP2 LT PUSH2 0x364A JUMPI INVALID JUMPDEST SWAP1 PUSH1 0x0 MSTORE PUSH1 0x20 PUSH1 0x0 KECCAK256 ADD PUSH1 0x1 DUP2 PUSH2 0x365F PUSH2 0x5014 JUMP JUMPDEST DUP2 PUSH1 0x1 PUSH1 0x1 PUSH1 0xA0 SHL SUB MUL NOT AND SWAP1 DUP4 PUSH1 0x1 PUSH1 0x1 PUSH1 0xA0 SHL SUB AND MUL OR SWAP1 PUSH2 0x3681 PUSH2 0x50B5 JUMP JUMPDEST POP POP POP PUSH1 0xC DUP1 PUSH2 0x368F PUSH2 0x5014 JUMP JUMPDEST DUP1 PUSH2 0x3696 JUMPI INVALID JUMPDEST PUSH1 0x1 SWAP1 SUB DUP2 DUP2 SWAP1 PUSH1 0x0 MSTORE PUSH1 0x20 PUSH1 0x0 KECCAK256 ADD PUSH1 0x1 DUP2 PUSH2 0x36B1 PUSH2 0x5014 JUMP JUMPDEST SWAP1 PUSH1 0x1 PUSH1 0x1 PUSH1 0xA0 SHL SUB MUL NOT AND SWAP1 PUSH2 0x36C6 PUSH2 0x50B5 JUMP JUMPDEST POP POP SWAP1 PUSH2 0x36D1 PUSH2 0x50B5 JUMP JUMPDEST POP PUSH1 0x0 SWAP1 POP PUSH1 0x1 PUSH1 0x1 PUSH1 0xA0 SHL SUB DUP5 AND PUSH1 0x0 DUP1 MLOAD PUSH1 0x20 PUSH2 0x54A1 DUP4 CODECOPY DUP2 MLOAD SWAP2 MSTORE PUSH1 0x40 MLOAD PUSH1 0x40 MLOAD DUP1 SWAP2 SUB SWAP1 LOG3 POP POP POP JUMP JUMPDEST PUSH1 0x0 DUP3 DUP3 ADD DUP4 DUP2 LT ISZERO PUSH2 0x287F JUMPI PUSH1 0x40 MLOAD PUSH3 0x461BCD PUSH1 0xE5 SHL DUP2 MSTORE PUSH1 0x20 PUSH1 0x4 DUP3 ADD MSTORE PUSH1 0x1B PUSH1 0x24 DUP3 ADD MSTORE PUSH1 0x0 DUP1 MLOAD PUSH1 0x20 PUSH2 0x54C1 DUP4 CODECOPY DUP2 MLOAD SWAP2 MSTORE PUSH1 0x44 DUP3 ADD MSTORE PUSH1 0x64 ADD PUSH1 0x40 MLOAD DUP1 SWAP2 SUB SWAP1 PUSH2 0x287C PUSH2 0x4FA9 JUMP JUMPDEST PUSH2 0x3755 DUP3 PUSH2 0x44F8 JUMP JUMPDEST ISZERO PUSH2 0x3768 JUMPI PUSH1 0x0 DUP1 PUSH2 0x3765 PUSH2 0x4FA9 JUMP JUMPDEST POP POP JUMPDEST PUSH1 0x1 PUSH1 0x1 PUSH1 0xA0 SHL SUB DUP2 AND PUSH2 0x3784 JUMPI PUSH1 0x0 DUP1 PUSH2 0x3781 PUSH2 0x4FA9 JUMP JUMPDEST POP POP JUMPDEST PUSH1 0x1 PUSH1 0x1 PUSH1 0xA0 SHL SUB DUP3 AND PUSH1 0x0 SWAP1 DUP2 MSTORE PUSH1 0x8 PUSH1 0x20 MSTORE PUSH1 0x40 DUP2 KECCAK256 PUSH1 0x2 ADD PUSH1 0x2 SWAP1 PUSH2 0x37AA PUSH2 0x5014 JUMP JUMPDEST SWAP1 PUSH2 0x100 EXP SWAP1 DIV PUSH1 0x1 PUSH1 0x1 PUSH1 0xA0 SHL SUB AND PUSH1 0x1 PUSH1 0x1 PUSH1 0xA0 SHL SUB AND EQ DUP1 PUSH2 0x3810 JUMPI POP PUSH1 0x1 PUSH1 0x1 PUSH1 0xA0 SHL SUB DUP3 DUP2 AND PUSH1 0x0 SWAP1 DUP2 MSTORE PUSH1 0x8 PUSH1 0x20 MSTORE SWAP1 DUP3 AND SWAP1 PUSH1 0x40 SWAP1 KECCAK256 PUSH1 0x2 ADD PUSH1 0x2 SWAP1 PUSH2 0x37F5 PUSH2 0x5014 JUMP JUMPDEST SWAP1 PUSH2 0x100 EXP SWAP1 DIV PUSH1 0x1 PUSH1 0x1 PUSH1 0xA0 SHL SUB AND PUSH1 0x1 PUSH1 0x1 PUSH1 0xA0 SHL SUB AND EQ JUMPDEST PUSH2 0x3822 JUMPI PUSH1 0x0 DUP1 PUSH2 0x381F PUSH2 0x4FA9 JUMP JUMPDEST POP POP JUMPDEST PUSH2 0x382B DUP3 PUSH2 0x4536 JUMP JUMPDEST PUSH1 0x1 PUSH1 0x1 PUSH1 0xA0 SHL SUB DUP4 AND PUSH1 0x0 SWAP1 DUP2 MSTORE PUSH1 0x8 PUSH1 0x20 MSTORE PUSH1 0x40 SWAP1 KECCAK256 PUSH1 0x1 PUSH1 0x80 SHL DUP2 PUSH2 0x3851 PUSH2 0x5014 JUMP JUMPDEST DUP2 PUSH4 0xFFFFFFFF MUL NOT AND SWAP1 DUP4 PUSH4 0xFFFFFFFF AND MUL OR SWAP1 PUSH2 0x386D PUSH2 0x50B5 JUMP JUMPDEST POP POP POP PUSH1 0x1 PUSH1 0x1 PUSH1 0xA0 SHL SUB DUP3 AND PUSH1 0x0 SWAP1 DUP2 MSTORE PUSH1 0x8 PUSH1 0x20 MSTORE PUSH4 0xFFFFFFFF SWAP1 PUSH1 0x40 SWAP1 KECCAK256 PUSH1 0x1 PUSH1 0xA0 SHL DUP2 PUSH2 0x389C PUSH2 0x5014 JUMP JUMPDEST DUP2 PUSH4 0xFFFFFFFF MUL NOT AND SWAP1 DUP4 PUSH4 0xFFFFFFFF AND MUL OR SWAP1 PUSH2 0x38B8 PUSH2 0x50B5 JUMP JUMPDEST POP POP POP PUSH1 0xC DUP1 PUSH2 0x38C6 PUSH2 0x5014 JUMP JUMPDEST PUSH1 0x1 PUSH1 0x1 PUSH1 0xA0 SHL SUB DUP5 AND PUSH1 0x0 SWAP1 DUP2 MSTORE PUSH1 0x8 PUSH1 0x20 MSTORE SWAP1 SWAP2 POP PUSH1 0x40 SWAP1 KECCAK256 PUSH1 0x2 ADD PUSH1 0x1 DUP2 PUSH2 0x38EF PUSH2 0x5014 JUMP JUMPDEST DUP2 PUSH2 0xFFFF MUL NOT AND SWAP1 DUP4 PUSH2 0xFFFF AND MUL OR SWAP1 PUSH2 0x3907 PUSH2 0x50B5 JUMP JUMPDEST POP POP POP PUSH1 0xC DUP3 SWAP1 DUP1 PUSH1 0x1 DUP2 PUSH2 0x391A PUSH2 0x5014 JUMP JUMPDEST ADD DUP1 DUP3 PUSH2 0x3925 PUSH2 0x50B5 JUMP JUMPDEST POP POP PUSH1 0x0 SWAP3 DUP4 MSTORE PUSH1 0x0 NOT ADD SWAP2 PUSH1 0x20 SWAP2 POP KECCAK256 ADD PUSH1 0x1 DUP2 PUSH2 0x3942 PUSH2 0x5014 JUMP JUMPDEST DUP2 PUSH1 0x1 PUSH1 0x1 PUSH1 0xA0 SHL SUB MUL NOT AND SWAP1 DUP4 PUSH1 0x1 PUSH1 0x1 PUSH1 0xA0 SHL SUB AND MUL OR SWAP1 PUSH2 0x3964 PUSH2 0x50B5 JUMP JUMPDEST POP POP POP PUSH1 0x1 PUSH1 0x1 PUSH1 0xA0 SHL SUB DUP3 AND PUSH1 0x0 SWAP1 DUP2 MSTORE PUSH1 0x8 PUSH1 0x20 MSTORE DUP2 SWAP1 PUSH1 0x40 SWAP1 KECCAK256 PUSH1 0x2 ADD PUSH3 0x10000 DUP2 PUSH2 0x3991 PUSH2 0x5014 JUMP JUMPDEST DUP2 PUSH1 0x1 PUSH1 0x1 PUSH1 0xA0 SHL SUB MUL NOT AND SWAP1 DUP4 PUSH1 0x1 PUSH1 0x1 PUSH1 0xA0 SHL SUB AND MUL OR SWAP1 PUSH2 0x39B3 PUSH2 0x50B5 JUMP JUMPDEST POP PUSH1 0x1 SWAP2 POP POP PUSH1 0x1 PUSH1 0x1 PUSH1 0xA0 SHL SUB DUP4 AND PUSH1 0x0 DUP1 MLOAD PUSH1 0x20 PUSH2 0x54A1 DUP4 CODECOPY DUP2 MLOAD SWAP2 MSTORE PUSH1 0x40 MLOAD PUSH1 0x40 MLOAD DUP1 SWAP2 SUB SWAP1 LOG3 DUP1 PUSH1 0x1 PUSH1 0x1 PUSH1 0xA0 SHL SUB AND DUP3 PUSH1 0x1 PUSH1 0x1 PUSH1 0xA0 SHL SUB AND PUSH1 0x0 DUP1 MLOAD PUSH1 0x20 PUSH2 0x5460 DUP4 CODECOPY DUP2 MLOAD SWAP2 MSTORE PUSH1 0x40 MLOAD PUSH1 0x40 MLOAD DUP1 SWAP2 SUB SWAP1 LOG3 POP POP JUMP JUMPDEST PUSH1 0x0 DUP3 PUSH1 0x1 PUSH1 0x1 PUSH1 0x80 SHL SUB AND DUP3 PUSH1 0x1 PUSH1 0x1 PUSH1 0x80 SHL SUB AND GT ISZERO PUSH2 0x2812 JUMPI PUSH1 0x40 MLOAD PUSH3 0x461BCD PUSH1 0xE5 SHL DUP2 MSTORE PUSH1 0x20 PUSH1 0x4 DUP3 ADD MSTORE PUSH1 0x1E PUSH1 0x24 DUP3 ADD MSTORE PUSH1 0x0 DUP1 MLOAD PUSH1 0x20 PUSH2 0x5522 DUP4 CODECOPY DUP2 MLOAD SWAP2 MSTORE PUSH1 0x44 DUP3 ADD MSTORE PUSH1 0x64 ADD PUSH1 0x40 MLOAD DUP1 SWAP2 SUB SWAP1 PUSH2 0x280F PUSH2 0x4FA9 JUMP JUMPDEST PUSH4 0xFFFFFFFF DUP2 AND PUSH1 0x0 SWAP1 DUP2 MSTORE PUSH1 0x9 PUSH1 0x20 MSTORE DUP1 PUSH1 0x40 DUP2 KECCAK256 PUSH1 0x1 ADD PUSH1 0x0 SWAP1 PUSH2 0x3A8F PUSH2 0x5014 JUMP JUMPDEST SWAP1 PUSH2 0x100 EXP SWAP1 DIV PUSH1 0x1 PUSH1 0x1 PUSH1 0x40 SHL SUB AND PUSH1 0x1 PUSH1 0x1 PUSH1 0x40 SHL SUB AND GT ISZERO PUSH2 0x3AD2 JUMPI PUSH2 0x3AB7 DUP3 PUSH2 0x43B0 JUMP JUMPDEST DUP1 ISZERO PUSH2 0x3ACB JUMPI POP PUSH2 0x3AC8 DUP4 DUP4 PUSH2 0x2886 JUMP JUMPDEST MLOAD ISZERO JUMPDEST SWAP1 POP PUSH2 0x2817 JUMP JUMPDEST PUSH2 0x3AB7 DUP4 DUP4 PUSH2 0x45BF JUMP JUMPDEST PUSH1 0x0 DUP1 DUP1 MSTORE PUSH1 0x9 PUSH1 0x20 MSTORE DUP1 DUP1 DUP1 DUP1 DUP1 DUP1 DUP1 DUP1 PUSH1 0x40 DUP2 KECCAK256 PUSH1 0x1 PUSH1 0x1 PUSH1 0xA0 SHL SUB DUP12 AND PUSH1 0x0 SWAP1 DUP2 MSTORE PUSH1 0x8 PUSH1 0x20 MSTORE SWAP1 SWAP2 POP PUSH1 0x40 DUP2 KECCAK256 SWAP1 POP PUSH1 0x0 DUP1 PUSH1 0x7 PUSH2 0x3B1C PUSH2 0x5014 JUMP JUMPDEST PUSH4 0xFFFFFFFF PUSH2 0x100 SWAP3 SWAP1 SWAP3 EXP SWAP1 DIV AND PUSH1 0x18 DUP4 PUSH2 0x3B36 PUSH2 0x5014 JUMP JUMPDEST SWAP1 PUSH2 0x100 EXP SWAP1 DIV PUSH4 0xFFFFFFFF AND PUSH4 0xFFFFFFFF AND EQ DUP1 PUSH2 0x3B73 JUMPI POP PUSH2 0x3B71 PUSH1 0x0 PUSH1 0x7 PUSH2 0x3B5F PUSH2 0x5014 JUMP JUMPDEST SWAP1 PUSH2 0x100 EXP SWAP1 DIV PUSH4 0xFFFFFFFF AND PUSH2 0x43B0 JUMP JUMPDEST ISZERO JUMPDEST SWAP1 POP PUSH2 0x3B96 PUSH1 0x0 PUSH1 0x7 PUSH2 0x3B84 PUSH2 0x5014 JUMP JUMPDEST SWAP1 PUSH2 0x100 EXP SWAP1 DIV PUSH4 0xFFFFFFFF AND PUSH2 0x4043 JUMP JUMPDEST DUP1 ISZERO PUSH2 0x3B9F JUMPI POP DUP1 JUMPDEST ISZERO PUSH2 0x3BFE JUMPI PUSH2 0x3BB5 PUSH1 0x1 PUSH1 0x0 PUSH1 0x7 PUSH2 0x34CC PUSH2 0x5014 JUMP JUMPDEST PUSH4 0xFFFFFFFF DUP2 AND PUSH1 0x0 SWAP1 DUP2 MSTORE PUSH1 0x9 PUSH1 0x20 MSTORE SWAP1 SWAP11 POP PUSH1 0x40 SWAP1 KECCAK256 SWAP3 POP PUSH1 0x0 PUSH1 0x4 PUSH2 0x3BDB PUSH2 0x5014 JUMP JUMPDEST SWAP1 PUSH2 0x100 EXP SWAP1 DIV PUSH1 0x1 PUSH1 0x1 PUSH1 0x80 SHL SUB AND SWAP4 POP PUSH2 0x3BF7 DUP13 DUP12 PUSH2 0x45BF JUMP JUMPDEST SWAP11 POP PUSH2 0x3C6E JUMP JUMPDEST PUSH1 0x0 PUSH1 0x7 PUSH2 0x3C0A PUSH2 0x5014 JUMP JUMPDEST PUSH4 0xFFFFFFFF PUSH2 0x100 SWAP3 SWAP1 SWAP3 EXP SWAP1 DIV AND PUSH1 0x0 DUP2 DUP2 MSTORE PUSH1 0x9 PUSH1 0x20 MSTORE SWAP1 SWAP11 POP PUSH1 0x40 SWAP1 KECCAK256 PUSH4 0xFFFFFFFF DUP12 AND PUSH1 0x0 SWAP1 DUP2 MSTORE PUSH1 0xA PUSH1 0x20 MSTORE SWAP1 SWAP4 POP PUSH1 0x40 SWAP1 KECCAK256 PUSH1 0x1 ADD PUSH1 0xC SWAP1 PUSH2 0x3C50 PUSH2 0x5014 JUMP JUMPDEST SWAP1 PUSH2 0x100 EXP SWAP1 DIV PUSH1 0x1 PUSH1 0x1 PUSH1 0x80 SHL SUB AND SWAP4 POP PUSH2 0x3C6B DUP11 PUSH2 0x43B0 JUMP JUMPDEST SWAP11 POP JUMPDEST PUSH2 0x3C78 DUP13 DUP12 PUSH2 0x2886 JUMP JUMPDEST MLOAD ISZERO PUSH2 0x3C83 JUMPI PUSH1 0x0 SWAP11 POP JUMPDEST DUP11 DUP11 DUP4 PUSH1 0x1 ADD PUSH2 0x3C91 PUSH2 0x5014 JUMP JUMPDEST PUSH1 0x0 PUSH1 0x1 DUP8 ADD PUSH2 0x3C9F PUSH2 0x5014 JUMP JUMPDEST SWAP1 PUSH2 0x100 EXP SWAP1 DIV PUSH1 0x1 PUSH1 0x1 PUSH1 0x40 SHL SUB AND PUSH1 0xA PUSH1 0x0 DUP16 PUSH4 0xFFFFFFFF AND PUSH4 0xFFFFFFFF AND DUP2 MSTORE PUSH1 0x20 ADD SWAP1 DUP2 MSTORE PUSH1 0x20 ADD PUSH1 0x0 KECCAK256 PUSH1 0x1 ADD PUSH1 0x8 SWAP1 PUSH2 0x3CDC PUSH2 0x5014 JUMP JUMPDEST PUSH4 0xFFFFFFFF PUSH2 0x100 SWAP3 SWAP1 SWAP3 EXP SWAP1 DIV AND PUSH1 0x0 PUSH1 0xD PUSH2 0x3CF7 PUSH2 0x5014 JUMP JUMPDEST SWAP1 PUSH2 0x100 EXP SWAP1 DIV PUSH1 0x1 PUSH1 0x1 PUSH1 0x80 SHL SUB AND PUSH2 0x3D0F PUSH2 0x199B JUMP JUMPDEST DUP11 DUP4 PUSH4 0xFFFFFFFF AND SWAP4 POP SWAP11 POP SWAP11 POP SWAP11 POP SWAP11 POP SWAP11 POP SWAP11 POP SWAP11 POP SWAP11 POP POP POP POP SWAP2 SWAP4 SWAP6 SWAP8 POP SWAP2 SWAP4 SWAP6 SWAP8 JUMP JUMPDEST PUSH4 0xFFFFFFFF DUP2 AND PUSH1 0x0 SWAP1 DUP2 MSTORE PUSH1 0x9 PUSH1 0x20 MSTORE DUP1 PUSH1 0x40 DUP2 KECCAK256 PUSH1 0x1 ADD PUSH1 0x0 SWAP1 PUSH2 0x3D5B PUSH2 0x5014 JUMP JUMPDEST SWAP1 PUSH2 0x100 EXP SWAP1 DIV PUSH1 0x1 PUSH1 0x1 PUSH1 0x40 SHL SUB AND SWAP1 POP PUSH1 0x0 PUSH1 0xA PUSH1 0x0 DUP6 PUSH4 0xFFFFFFFF AND PUSH4 0xFFFFFFFF AND DUP2 MSTORE PUSH1 0x20 ADD SWAP1 DUP2 MSTORE PUSH1 0x20 ADD PUSH1 0x0 KECCAK256 PUSH1 0x1 ADD PUSH1 0x8 SWAP1 PUSH2 0x3D9C PUSH2 0x5014 JUMP JUMPDEST SWAP1 PUSH2 0x100 EXP SWAP1 DIV PUSH4 0xFFFFFFFF AND SWAP1 POP PUSH1 0x0 DUP3 PUSH1 0x1 PUSH1 0x1 PUSH1 0x40 SHL SUB AND GT DUP1 ISZERO PUSH2 0x3DCA JUMPI POP PUSH1 0x0 DUP2 PUSH4 0xFFFFFFFF AND GT JUMPDEST DUP1 ISZERO PUSH2 0x3E01 JUMPI POP GAS PUSH2 0x3DDA PUSH2 0x533D JUMP JUMPDEST PUSH2 0x3DF6 PUSH1 0x1 PUSH1 0x1 PUSH1 0x40 SHL SUB DUP5 AND PUSH4 0xFFFFFFFF DUP1 DUP6 AND SWAP1 PUSH2 0x462B AND JUMP JUMPDEST PUSH1 0x1 PUSH1 0x1 PUSH1 0x40 SHL SUB AND LT JUMPDEST SWAP5 SWAP4 POP POP POP POP JUMP JUMPDEST PUSH1 0x0 DUP3 DUP3 ADD PUSH4 0xFFFFFFFF DUP1 DUP6 AND SWAP1 DUP3 AND LT ISZERO PUSH2 0x287F JUMPI PUSH1 0x40 MLOAD PUSH3 0x461BCD PUSH1 0xE5 SHL DUP2 MSTORE PUSH1 0x20 PUSH1 0x4 DUP3 ADD MSTORE PUSH1 0x1B PUSH1 0x24 DUP3 ADD MSTORE PUSH1 0x0 DUP1 MLOAD PUSH1 0x20 PUSH2 0x54C1 DUP4 CODECOPY DUP2 MLOAD SWAP2 MSTORE PUSH1 0x44 DUP3 ADD MSTORE PUSH1 0x64 ADD PUSH1 0x40 MLOAD DUP1 SWAP2 SUB SWAP1 PUSH2 0x287C PUSH2 0x4FA9 JUMP JUMPDEST PUSH2 0x3E68 DUP2 PUSH2 0x4090 JUMP JUMPDEST PUSH2 0x3E71 JUMPI PUSH2 0x2C70 JUMP JUMPDEST PUSH1 0x0 PUSH1 0xB PUSH1 0x0 GAS PUSH2 0x3E80 PUSH2 0x506F JUMP JUMPDEST PUSH1 0x1 PUSH1 0x1 PUSH1 0xA0 SHL SUB AND PUSH1 0x1 PUSH1 0x1 PUSH1 0xA0 SHL SUB AND DUP2 MSTORE PUSH1 0x20 ADD SWAP1 DUP2 MSTORE PUSH1 0x20 ADD PUSH1 0x0 KECCAK256 PUSH1 0x5 SWAP1 PUSH2 0x3EAB PUSH2 0x5014 JUMP JUMPDEST SWAP1 PUSH2 0x100 EXP SWAP1 DIV PUSH4 0xFFFFFFFF AND PUSH4 0xFFFFFFFF AND SWAP1 POP PUSH1 0xB PUSH1 0x0 GAS PUSH2 0x3ECD PUSH2 0x506F JUMP JUMPDEST PUSH1 0x1 PUSH1 0x1 PUSH1 0xA0 SHL SUB AND PUSH1 0x1 PUSH1 0x1 PUSH1 0xA0 SHL SUB AND DUP2 MSTORE PUSH1 0x20 ADD SWAP1 DUP2 MSTORE PUSH1 0x20 ADD PUSH1 0x0 KECCAK256 PUSH1 0x1 SWAP1 PUSH2 0x3EF8 PUSH2 0x5014 JUMP JUMPDEST SWAP1 PUSH2 0x100 EXP SWAP1 DIV PUSH4 0xFFFFFFFF AND PUSH4 0xFFFFFFFF AND DUP2 ADD DUP3 PUSH4 0xFFFFFFFF AND GT DUP1 PUSH2 0x3F1E JUMPI POP DUP1 ISZERO JUMPDEST PUSH2 0x3F30 JUMPI PUSH1 0x0 DUP1 PUSH2 0x3F2D PUSH2 0x4FA9 JUMP JUMPDEST POP POP JUMPDEST PUSH2 0x3F39 DUP3 PUSH2 0x40B7 JUMP JUMPDEST DUP2 PUSH1 0xB PUSH1 0x0 GAS PUSH2 0x3F47 PUSH2 0x506F JUMP JUMPDEST PUSH1 0x1 PUSH1 0x1 PUSH1 0xA0 SHL SUB AND PUSH1 0x1 PUSH1 0x1 PUSH1 0xA0 SHL SUB AND DUP2 MSTORE PUSH1 0x20 ADD SWAP1 DUP2 MSTORE PUSH1 0x20 ADD PUSH1 0x0 KECCAK256 PUSH1 0x1 PUSH1 0x28 SHL DUP2 PUSH2 0x2C54 PUSH2 0x5014 JUMP JUMPDEST PUSH4 0xFFFFFFFF LT ISZERO SWAP1 JUMP JUMPDEST PUSH1 0x0 DUP2 PUSH4 0xFFFFFFFF AND PUSH2 0x3FA2 PUSH1 0x1 DUP6 PUSH4 0xFFFFFFFF AND PUSH2 0x3E09 SWAP1 SWAP2 SWAP1 PUSH4 0xFFFFFFFF AND JUMP JUMPDEST PUSH4 0xFFFFFFFF AND EQ DUP1 ISZERO PUSH2 0x287F JUMPI POP PUSH4 0xFFFFFFFF DUP3 AND PUSH1 0x0 SWAP1 DUP2 MSTORE PUSH1 0x9 PUSH1 0x20 MSTORE PUSH1 0x40 SWAP1 KECCAK256 PUSH1 0x1 ADD PUSH1 0x8 SWAP1 PUSH2 0x3FD3 PUSH2 0x5014 JUMP JUMPDEST PUSH1 0x1 PUSH1 0x1 PUSH1 0x40 SHL SUB PUSH2 0x100 SWAP3 SWAP1 SWAP3 EXP SWAP1 DIV AND ISZERO SWAP4 SWAP3 POP POP POP JUMP JUMPDEST PUSH1 0x0 DUP3 PUSH4 0xFFFFFFFF AND DUP3 PUSH4 0xFFFFFFFF AND GT ISZERO PUSH2 0x2812 JUMPI PUSH1 0x40 MLOAD PUSH3 0x461BCD PUSH1 0xE5 SHL DUP2 MSTORE PUSH1 0x20 PUSH1 0x4 DUP3 ADD MSTORE PUSH1 0x1E PUSH1 0x24 DUP3 ADD MSTORE PUSH1 0x0 DUP1 MLOAD PUSH1 0x20 PUSH2 0x5522 DUP4 CODECOPY DUP2 MLOAD SWAP2 MSTORE PUSH1 0x44 DUP3 ADD MSTORE PUSH1 0x64 ADD PUSH1 0x40 MLOAD DUP1 SWAP2 SUB SWAP1 PUSH2 0x280F PUSH2 0x4FA9 JUMP JUMPDEST PUSH4 0xFFFFFFFF DUP2 AND PUSH1 0x0 SWAP1 DUP2 MSTORE PUSH1 0x9 PUSH1 0x20 MSTORE DUP1 PUSH1 0x40 DUP2 KECCAK256 PUSH1 0x1 ADD PUSH1 0x8 SWAP1 PUSH2 0x4067 PUSH2 0x5014 JUMP JUMPDEST SWAP1 PUSH2 0x100 EXP SWAP1 DIV PUSH1 0x1 PUSH1 0x1 PUSH1 0x40 SHL SUB AND PUSH1 0x1 PUSH1 0x1 PUSH1 0x40 SHL SUB AND GT DUP1 PUSH2 0x2817 JUMPI POP PUSH2 0x2817 DUP3 PUSH2 0x3D37 JUMP JUMPDEST PUSH1 0x0 PUSH2 0x40A2 PUSH1 0x1 DUP3 PUSH1 0x7 PUSH2 0x34CC PUSH2 0x5014 JUMP JUMPDEST PUSH4 0xFFFFFFFF AND DUP3 PUSH4 0xFFFFFFFF AND EQ SWAP1 POP SWAP2 SWAP1 POP JUMP JUMPDEST PUSH2 0x40D4 PUSH2 0x40CF PUSH4 0xFFFFFFFF DUP1 DUP5 AND SWAP1 PUSH1 0x1 SWAP1 PUSH2 0x3FED AND JUMP JUMPDEST PUSH2 0x4684 JUMP JUMPDEST DUP1 PUSH1 0x7 PUSH1 0x1 DUP2 PUSH2 0x40E2 PUSH2 0x5014 JUMP JUMPDEST DUP2 PUSH4 0xFFFFFFFF MUL NOT AND SWAP1 DUP4 PUSH4 0xFFFFFFFF AND MUL OR SWAP1 PUSH2 0x40FE PUSH2 0x50B5 JUMP JUMPDEST POP POP POP PUSH2 0x4109 PUSH2 0x53AF JUMP JUMPDEST PUSH1 0x40 MLOAD PUSH1 0xA0 DUP2 ADD PUSH1 0x40 MSTORE DUP1 PUSH1 0x0 PUSH1 0x40 MLOAD SWAP1 DUP1 DUP3 MSTORE DUP1 PUSH1 0x20 MUL PUSH1 0x20 ADD DUP3 ADD PUSH1 0x40 MSTORE DUP1 ISZERO PUSH2 0x413F JUMPI DUP2 PUSH1 0x20 ADD PUSH1 0x20 DUP3 MUL DUP1 CALLDATASIZE DUP4 CALLDATACOPY ADD SWAP1 POP JUMPDEST POP DUP2 MSTORE PUSH1 0x20 ADD PUSH1 0x10 PUSH1 0x4 PUSH2 0x4151 PUSH2 0x5014 JUMP JUMPDEST PUSH4 0xFFFFFFFF PUSH2 0x100 SWAP3 SWAP1 SWAP3 EXP SWAP1 DIV AND DUP2 MSTORE PUSH1 0x20 ADD PUSH1 0x14 PUSH1 0x4 PUSH2 0x4171 PUSH2 0x5014 JUMP JUMPDEST PUSH4 0xFFFFFFFF PUSH2 0x100 SWAP3 SWAP1 SWAP3 EXP SWAP1 DIV AND DUP2 MSTORE PUSH1 0x20 ADD PUSH1 0x1C PUSH1 0x4 PUSH2 0x4191 PUSH2 0x5014 JUMP JUMPDEST PUSH4 0xFFFFFFFF PUSH2 0x100 SWAP3 SWAP1 SWAP3 EXP SWAP1 DIV AND DUP2 MSTORE PUSH1 0x20 ADD PUSH1 0x0 PUSH1 0x4 PUSH2 0x41B1 PUSH2 0x5014 JUMP JUMPDEST PUSH1 0x1 PUSH1 0x1 PUSH1 0x80 SHL SUB PUSH2 0x100 SWAP3 SWAP1 SWAP3 EXP SWAP1 DIV AND SWAP1 MSTORE PUSH4 0xFFFFFFFF DUP4 AND PUSH1 0x0 SWAP1 DUP2 MSTORE PUSH1 0xA PUSH1 0x20 MSTORE SWAP1 SWAP2 POP DUP2 SWAP1 PUSH1 0x40 SWAP1 KECCAK256 DUP2 MLOAD DUP2 SWAP1 DUP1 MLOAD PUSH2 0x41F3 SWAP3 SWAP2 PUSH1 0x20 ADD SWAP1 PUSH2 0x53DC JUMP JUMPDEST POP PUSH1 0x20 DUP3 ADD MLOAD PUSH1 0x1 DUP1 DUP4 ADD SWAP1 DUP2 PUSH2 0x4208 PUSH2 0x5014 JUMP JUMPDEST DUP2 PUSH4 0xFFFFFFFF MUL NOT AND SWAP1 DUP4 PUSH4 0xFFFFFFFF AND MUL OR SWAP1 PUSH2 0x4224 PUSH2 0x50B5 JUMP JUMPDEST POP POP POP PUSH1 0x40 DUP3 ADD MLOAD PUSH1 0x1 DUP3 ADD PUSH1 0x1 PUSH1 0x20 SHL DUP2 PUSH2 0x423E PUSH2 0x5014 JUMP JUMPDEST DUP2 PUSH4 0xFFFFFFFF MUL NOT AND SWAP1 DUP4 PUSH4 0xFFFFFFFF AND MUL OR SWAP1 PUSH2 0x425A PUSH2 0x50B5 JUMP JUMPDEST POP POP POP PUSH1 0x60 DUP3 ADD MLOAD PUSH1 0x1 DUP3 ADD PUSH1 0x1 PUSH1 0x40 SHL DUP2 PUSH2 0x4274 PUSH2 0x5014 JUMP JUMPDEST DUP2 PUSH4 0xFFFFFFFF MUL NOT AND SWAP1 DUP4 PUSH4 0xFFFFFFFF AND MUL OR SWAP1 PUSH2 0x4290 PUSH2 0x50B5 JUMP JUMPDEST POP POP POP PUSH1 0x80 DUP3 ADD MLOAD PUSH1 0x1 DUP3 ADD PUSH1 0x1 PUSH1 0x60 SHL DUP2 PUSH2 0x42AA PUSH2 0x5014 JUMP JUMPDEST DUP2 PUSH1 0x1 PUSH1 0x1 PUSH1 0x80 SHL SUB MUL NOT AND SWAP1 DUP4 PUSH1 0x1 PUSH1 0x1 PUSH1 0x80 SHL SUB AND MUL OR SWAP1 PUSH2 0x42CC PUSH2 0x50B5 JUMP JUMPDEST POP POP POP POP POP GAS PUSH2 0x42DA PUSH2 0x533D JUMP JUMPDEST PUSH4 0xFFFFFFFF DUP4 AND PUSH1 0x0 SWAP1 DUP2 MSTORE PUSH1 0x9 PUSH1 0x20 MSTORE PUSH1 0x40 SWAP1 KECCAK256 PUSH1 0x1 ADD PUSH1 0x0 PUSH2 0x100 EXP DUP2 PUSH2 0x4301 PUSH2 0x5014 JUMP JUMPDEST DUP2 PUSH1 0x1 PUSH1 0x1 PUSH1 0x40 SHL SUB MUL NOT AND SWAP1 DUP4 PUSH1 0x1 PUSH1 0x1 PUSH1 0x40 SHL SUB AND MUL OR SWAP1 PUSH2 0x4323 PUSH2 0x50B5 JUMP JUMPDEST POP POP POP GAS PUSH2 0x432F PUSH2 0x506F JUMP JUMPDEST PUSH4 0xFFFFFFFF DUP4 AND PUSH1 0x0 DUP2 DUP2 MSTORE PUSH1 0x9 PUSH1 0x20 MSTORE PUSH1 0x1 PUSH1 0x1 PUSH1 0xA0 SHL SUB SWAP3 SWAP1 SWAP3 AND SWAP2 PUSH32 0x109FC6F55CF40689F02FBAAD7AF7FE7BBAC8A3D2186600AFC7D3E10CAC60271 SWAP1 PUSH1 0x40 SWAP1 KECCAK256 PUSH1 0x1 ADD PUSH1 0x0 SWAP1 PUSH2 0x4381 PUSH2 0x5014 JUMP JUMPDEST SWAP1 PUSH2 0x100 EXP SWAP1 DIV PUSH1 0x1 PUSH1 0x1 PUSH1 0x40 SHL SUB AND PUSH1 0x40 MLOAD PUSH1 0x1 PUSH1 0x1 PUSH1 0x40 SHL SUB SWAP1 SWAP2 AND DUP2 MSTORE PUSH1 0x20 ADD PUSH1 0x40 MLOAD DUP1 SWAP2 SUB SWAP1 LOG3 POP POP JUMP JUMPDEST PUSH4 0xFFFFFFFF DUP2 AND PUSH1 0x0 SWAP1 DUP2 MSTORE PUSH1 0xA PUSH1 0x20 MSTORE PUSH1 0x40 DUP2 KECCAK256 PUSH1 0x1 ADD PUSH1 0x0 SWAP1 PUSH2 0x43D3 PUSH2 0x5014 JUMP JUMPDEST PUSH2 0x100 SWAP2 SWAP1 SWAP2 EXP SWAP1 DIV PUSH4 0xFFFFFFFF AND ISZERO ISZERO SWAP3 SWAP2 POP POP JUMP JUMPDEST PUSH1 0x0 DUP2 MLOAD PUSH1 0x0 LT PUSH2 0x4443 JUMPI PUSH1 0x40 MLOAD PUSH3 0x461BCD PUSH1 0xE5 SHL DUP2 MSTORE PUSH1 0x20 PUSH1 0x4 DUP3 ADD MSTORE PUSH1 0x16 PUSH1 0x24 DUP3 ADD MSTORE PUSH22 0x6C697374206D757374206E6F7420626520656D707479 PUSH1 0x50 SHL PUSH1 0x44 DUP3 ADD MSTORE PUSH1 0x64 ADD PUSH1 0x40 MLOAD DUP1 SWAP2 SUB SWAP1 PUSH2 0x4440 PUSH2 0x4FA9 JUMP JUMPDEST POP POP JUMPDEST PUSH1 0x0 DUP3 MLOAD SWAP1 POP PUSH1 0x2 DUP2 DIV PUSH1 0x1 DUP3 AND PUSH2 0x4486 JUMPI PUSH1 0x0 DUP1 PUSH2 0x446C DUP7 PUSH1 0x0 PUSH1 0x1 DUP8 SUB PUSH1 0x1 DUP8 SUB DUP8 PUSH2 0x486F JUMP JUMPDEST SWAP1 SWAP3 POP SWAP1 POP PUSH2 0x447B DUP3 DUP3 PUSH2 0x4967 JUMP JUMPDEST SWAP5 POP POP POP POP POP PUSH2 0x1B20 JUMP JUMPDEST PUSH2 0x4496 DUP5 PUSH1 0x0 PUSH1 0x1 DUP6 SUB DUP5 PUSH2 0x49D5 JUMP JUMPDEST SWAP3 POP POP POP PUSH2 0x1B20 JUMP JUMPDEST PUSH1 0x0 DUP3 DUP3 ADD PUSH1 0x1 PUSH1 0x1 PUSH1 0x80 SHL SUB DUP1 DUP6 AND SWAP1 DUP3 AND LT ISZERO PUSH2 0x287F JUMPI PUSH1 0x40 MLOAD PUSH3 0x461BCD PUSH1 0xE5 SHL DUP2 MSTORE PUSH1 0x20 PUSH1 0x4 DUP3 ADD MSTORE PUSH1 0x1B PUSH1 0x24 DUP3 ADD MSTORE PUSH1 0x0 DUP1 MLOAD PUSH1 0x20 PUSH2 0x54C1 DUP4 CODECOPY DUP2 MLOAD SWAP2 MSTORE PUSH1 0x44 DUP3 ADD MSTORE PUSH1 0x64 ADD PUSH1 0x40 MLOAD DUP1 SWAP2 SUB SWAP1 PUSH2 0x287C PUSH2 0x4FA9 JUMP JUMPDEST PUSH1 0x1 PUSH1 0x1 PUSH1 0xA0 SHL SUB DUP2 AND PUSH1 0x0 SWAP1 DUP2 MSTORE PUSH1 0x8 PUSH1 0x20 MSTORE PUSH4 0xFFFFFFFF PUSH1 0x40 DUP3 KECCAK256 PUSH1 0x14 SWAP1 PUSH2 0x4520 PUSH2 0x5014 JUMP JUMPDEST PUSH4 0xFFFFFFFF PUSH2 0x100 SWAP3 SWAP1 SWAP3 EXP SWAP1 DIV AND EQ SWAP3 SWAP2 POP POP JUMP JUMPDEST PUSH1 0x0 DUP1 DUP1 PUSH1 0x7 PUSH2 0x4544 PUSH2 0x5014 JUMP JUMPDEST PUSH4 0xFFFFFFFF PUSH2 0x100 SWAP3 SWAP1 SWAP3 EXP SWAP1 DIV AND SWAP1 POP DUP1 ISZERO DUP1 ISZERO SWAP1 PUSH2 0x459E JUMPI POP PUSH1 0x1 PUSH1 0x1 PUSH1 0xA0 SHL SUB DUP4 AND PUSH1 0x0 SWAP1 DUP2 MSTORE PUSH1 0x8 PUSH1 0x20 MSTORE PUSH1 0x40 SWAP1 KECCAK256 PUSH1 0x14 SWAP1 PUSH2 0x4582 PUSH2 0x5014 JUMP JUMPDEST SWAP1 PUSH2 0x100 EXP SWAP1 DIV PUSH4 0xFFFFFFFF AND PUSH4 0xFFFFFFFF AND DUP2 PUSH4 0xFFFFFFFF AND EQ JUMPDEST ISZERO PUSH2 0x45AA JUMPI SWAP1 POP PUSH2 0x1B20 JUMP JUMPDEST PUSH2 0x287F PUSH4 0xFFFFFFFF DUP1 DUP4 AND SWAP1 PUSH1 0x1 SWAP1 PUSH2 0x3E09 AND JUMP JUMPDEST PUSH1 0x1 PUSH1 0x1 PUSH1 0xA0 SHL SUB DUP3 AND PUSH1 0x0 SWAP1 DUP2 MSTORE PUSH1 0x8 PUSH1 0x20 MSTORE DUP1 PUSH1 0x40 DUP2 KECCAK256 PUSH1 0x1C SWAP1 PUSH2 0x45E3 PUSH2 0x5014 JUMP JUMPDEST PUSH4 0xFFFFFFFF PUSH2 0x100 SWAP3 SWAP1 SWAP3 EXP SWAP1 DIV AND SWAP1 POP PUSH1 0x18 PUSH1 0x4 PUSH2 0x4600 PUSH2 0x5014 JUMP JUMPDEST SWAP1 PUSH2 0x100 EXP SWAP1 DIV PUSH4 0xFFFFFFFF AND PUSH4 0xFFFFFFFF AND DUP2 ADD DUP4 PUSH4 0xFFFFFFFF AND GT DUP1 PUSH2 0x3E01 JUMPI POP ISZERO SWAP4 SWAP3 POP POP POP JUMP JUMPDEST PUSH1 0x0 DUP3 DUP3 ADD PUSH1 0x1 PUSH1 0x1 PUSH1 0x40 SHL SUB DUP1 DUP6 AND SWAP1 DUP3 AND LT ISZERO PUSH2 0x287F JUMPI PUSH1 0x40 MLOAD PUSH3 0x461BCD PUSH1 0xE5 SHL DUP2 MSTORE PUSH1 0x20 PUSH1 0x4 DUP3 ADD MSTORE PUSH1 0x1B PUSH1 0x24 DUP3 ADD MSTORE PUSH1 0x0 DUP1 MLOAD PUSH1 0x20 PUSH2 0x54C1 DUP4 CODECOPY DUP2 MLOAD SWAP2 MSTORE PUSH1 0x44 DUP3 ADD MSTORE PUSH1 0x64 ADD PUSH1 0x40 MLOAD DUP1 SWAP2 SUB SWAP1 PUSH2 0x287C PUSH2 0x4FA9 JUMP JUMPDEST PUSH2 0x468D DUP2 PUSH2 0x3D37 JUMP JUMPDEST PUSH2 0x4696 JUMPI PUSH2 0x2C70 JUMP JUMPDEST PUSH1 0x0 PUSH2 0x46AD PUSH4 0xFFFFFFFF DUP1 DUP5 AND SWAP1 PUSH1 0x1 SWAP1 PUSH2 0x3FED AND JUMP JUMPDEST PUSH4 0xFFFFFFFF DUP2 AND PUSH1 0x0 SWAP1 DUP2 MSTORE PUSH1 0x9 PUSH1 0x20 MSTORE SWAP1 SWAP2 POP PUSH1 0x40 SWAP1 KECCAK256 PUSH2 0x46CD PUSH2 0x5014 JUMP JUMPDEST PUSH4 0xFFFFFFFF DUP4 AND PUSH1 0x0 SWAP1 DUP2 MSTORE PUSH1 0x9 PUSH1 0x20 MSTORE PUSH1 0x40 SWAP1 KECCAK256 DUP2 SWAP1 PUSH2 0x46EC PUSH2 0x50B5 JUMP JUMPDEST POP POP POP PUSH4 0xFFFFFFFF DUP2 AND PUSH1 0x0 SWAP1 DUP2 MSTORE PUSH1 0x9 PUSH1 0x20 MSTORE PUSH1 0x40 SWAP1 KECCAK256 PUSH1 0x1 ADD PUSH1 0x10 SWAP1 PUSH2 0x4712 PUSH2 0x5014 JUMP JUMPDEST PUSH4 0xFFFFFFFF DUP5 DUP2 AND PUSH1 0x0 SWAP1 DUP2 MSTORE PUSH1 0x9 PUSH1 0x20 MSTORE PUSH2 0x100 SWAP4 SWAP1 SWAP4 EXP SWAP1 SWAP2 DIV AND SWAP1 PUSH1 0x40 SWAP1 KECCAK256 PUSH1 0x1 ADD PUSH1 0x1 PUSH1 0x80 SHL DUP2 PUSH2 0x4745 PUSH2 0x5014 JUMP JUMPDEST DUP2 PUSH4 0xFFFFFFFF MUL NOT AND SWAP1 DUP4 PUSH4 0xFFFFFFFF AND MUL OR SWAP1 PUSH2 0x4761 PUSH2 0x50B5 JUMP JUMPDEST POP POP POP GAS PUSH2 0x476D PUSH2 0x533D JUMP JUMPDEST PUSH4 0xFFFFFFFF DUP4 AND PUSH1 0x0 SWAP1 DUP2 MSTORE PUSH1 0x9 PUSH1 0x20 MSTORE PUSH1 0x40 SWAP1 KECCAK256 PUSH1 0x1 ADD PUSH1 0x1 PUSH1 0x40 SHL DUP2 PUSH2 0x4793 PUSH2 0x5014 JUMP JUMPDEST DUP2 PUSH1 0x1 PUSH1 0x1 PUSH1 0x40 SHL SUB MUL NOT AND SWAP1 DUP4 PUSH1 0x1 PUSH1 0x1 PUSH1 0x40 SHL SUB AND MUL OR SWAP1 PUSH2 0x47B5 PUSH2 0x50B5 JUMP JUMPDEST POP POP POP PUSH4 0xFFFFFFFF DUP3 AND PUSH1 0x0 SWAP1 DUP2 MSTORE PUSH1 0xA PUSH1 0x20 MSTORE PUSH1 0x40 SWAP1 KECCAK256 PUSH1 0x0 PUSH2 0x47D9 DUP3 DUP3 PUSH2 0x5383 JUMP JUMPDEST PUSH1 0x1 DUP3 DUP2 ADD SWAP1 DUP2 PUSH2 0x47E8 PUSH2 0x5014 JUMP JUMPDEST SWAP1 PUSH4 0xFFFFFFFF MUL NOT AND SWAP1 PUSH2 0x47FA PUSH2 0x50B5 JUMP JUMPDEST POP POP PUSH1 0x1 DUP3 ADD PUSH1 0x1 PUSH1 0x20 SHL DUP2 PUSH2 0x480E PUSH2 0x5014 JUMP JUMPDEST SWAP1 PUSH4 0xFFFFFFFF MUL NOT AND SWAP1 PUSH2 0x4820 PUSH2 0x50B5 JUMP JUMPDEST POP POP PUSH1 0x1 DUP3 ADD PUSH1 0x1 PUSH1 0x40 SHL DUP2 PUSH2 0x4834 PUSH2 0x5014 JUMP JUMPDEST SWAP1 PUSH4 0xFFFFFFFF MUL NOT AND SWAP1 PUSH2 0x4846 PUSH2 0x50B5 JUMP JUMPDEST POP POP PUSH1 0x1 DUP3 ADD PUSH1 0x1 PUSH1 0x60 SHL DUP2 PUSH2 0x485A PUSH2 0x5014 JUMP JUMPDEST SWAP1 PUSH1 0x1 PUSH1 0x1 PUSH1 0x80 SHL SUB MUL NOT AND SWAP1 PUSH2 0x3476 PUSH2 0x50B5 JUMP JUMPDEST PUSH1 0x0 DUP1 DUP3 DUP5 LT PUSH2 0x4887 JUMPI PUSH1 0x0 DUP1 PUSH2 0x4884 PUSH2 0x4FA9 JUMP JUMPDEST POP POP JUMPDEST DUP4 DUP7 GT ISZERO DUP1 ISZERO PUSH2 0x4897 JUMPI POP DUP5 DUP5 GT ISZERO JUMPDEST PUSH2 0x48A9 JUMPI PUSH1 0x0 DUP1 PUSH2 0x48A6 PUSH2 0x4FA9 JUMP JUMPDEST POP POP JUMPDEST DUP3 DUP7 GT ISZERO DUP1 ISZERO PUSH2 0x48B9 JUMPI POP DUP5 DUP4 GT ISZERO JUMPDEST PUSH2 0x48CB JUMPI PUSH1 0x0 DUP1 PUSH2 0x48C8 PUSH2 0x4FA9 JUMP JUMPDEST POP POP JUMPDEST PUSH1 0x7 DUP7 DUP7 SUB LT ISZERO PUSH2 0x48EC JUMPI PUSH2 0x48E3 DUP8 DUP8 DUP8 DUP8 DUP8 PUSH2 0x4A77 JUMP JUMPDEST SWAP2 POP SWAP2 POP PUSH2 0x495D JUMP JUMPDEST PUSH1 0x0 PUSH2 0x48F9 DUP9 DUP9 DUP9 PUSH2 0x4E65 JUMP JUMPDEST SWAP1 POP DUP1 DUP5 GT PUSH2 0x490A JUMPI DUP1 SWAP6 POP PUSH2 0x4957 JUMP JUMPDEST DUP5 DUP2 LT ISZERO PUSH2 0x491D JUMPI DUP1 PUSH1 0x1 ADD SWAP7 POP PUSH2 0x4957 JUMP JUMPDEST DUP1 DUP6 GT ISZERO DUP1 ISZERO PUSH2 0x492C JUMPI POP DUP4 DUP2 LT JUMPDEST PUSH2 0x4932 JUMPI INVALID JUMPDEST PUSH2 0x493E DUP9 DUP9 DUP4 DUP9 PUSH2 0x49D5 JUMP JUMPDEST SWAP3 POP PUSH2 0x494F DUP9 DUP3 PUSH1 0x1 ADD DUP9 DUP8 PUSH2 0x49D5 JUMP JUMPDEST SWAP2 POP POP PUSH2 0x495D JUMP JUMPDEST POP PUSH2 0x48CB JUMP JUMPDEST SWAP6 POP SWAP6 SWAP4 POP POP POP POP JUMP JUMPDEST PUSH1 0x0 DUP1 DUP4 SLT DUP1 ISZERO PUSH2 0x4978 JUMPI POP PUSH1 0x0 DUP3 SGT JUMPDEST DUP1 PUSH2 0x498E JUMPI POP PUSH1 0x0 DUP4 SGT DUP1 ISZERO PUSH2 0x498E JUMPI POP PUSH1 0x0 DUP3 SLT JUMPDEST ISZERO PUSH2 0x49AE JUMPI PUSH1 0x2 PUSH2 0x499F DUP5 DUP5 PUSH2 0x4F42 JUMP JUMPDEST DUP2 PUSH2 0x49A6 JUMPI INVALID JUMPDEST SDIV SWAP1 POP PUSH2 0x2817 JUMP JUMPDEST PUSH1 0x0 PUSH1 0x2 DUP1 DUP6 SMOD DUP2 DUP6 SMOD ADD SDIV SWAP1 POP PUSH2 0x3E01 PUSH2 0x49CF PUSH1 0x2 DUP7 SDIV PUSH1 0x2 DUP7 SDIV PUSH2 0x4F42 JUMP JUMPDEST DUP3 PUSH2 0x4F42 JUMP JUMPDEST PUSH1 0x0 DUP2 DUP5 GT ISZERO PUSH2 0x49ED JUMPI PUSH1 0x0 DUP1 PUSH2 0x49EA PUSH2 0x4FA9 JUMP JUMPDEST POP POP JUMPDEST DUP3 DUP3 GT ISZERO PUSH2 0x4A03 JUMPI PUSH1 0x0 DUP1 PUSH2 0x4A00 PUSH2 0x4FA9 JUMP JUMPDEST POP POP JUMPDEST DUP3 DUP5 LT ISZERO PUSH2 0x4A5A JUMPI PUSH1 0x7 DUP5 DUP5 SUB LT ISZERO PUSH2 0x4A2F JUMPI PUSH1 0x0 PUSH2 0x4A25 DUP7 DUP7 DUP7 DUP7 DUP8 PUSH2 0x4A77 JUMP JUMPDEST POP SWAP2 POP PUSH2 0x3E01 SWAP1 POP JUMP JUMPDEST PUSH1 0x0 PUSH2 0x4A3C DUP7 DUP7 DUP7 PUSH2 0x4E65 JUMP JUMPDEST SWAP1 POP DUP1 DUP4 GT PUSH2 0x4A4D JUMPI DUP1 SWAP4 POP PUSH2 0x4A54 JUMP JUMPDEST DUP1 PUSH1 0x1 ADD SWAP5 POP JUMPDEST POP PUSH2 0x4A03 JUMP JUMPDEST DUP5 DUP5 DUP2 MLOAD DUP2 LT PUSH2 0x4A66 JUMPI INVALID JUMPDEST PUSH1 0x20 MUL PUSH1 0x20 ADD ADD MLOAD SWAP6 SWAP5 POP POP POP POP POP JUMP JUMPDEST PUSH1 0x0 DUP1 DUP6 DUP6 SUB PUSH1 0x1 ADD DUP2 DUP9 DUP9 DUP2 MLOAD DUP2 LT PUSH2 0x4A8D JUMPI INVALID JUMPDEST PUSH1 0x20 MUL PUSH1 0x20 ADD ADD MLOAD SWAP1 POP PUSH1 0x0 DUP3 PUSH1 0x1 LT PUSH2 0x4AAE JUMPI PUSH1 0x1 PUSH1 0x1 PUSH1 0xFF SHL SUB PUSH2 0x4AC6 JUMP JUMPDEST DUP10 DUP10 PUSH1 0x1 ADD DUP2 MLOAD DUP2 LT PUSH2 0x4ABD JUMPI INVALID JUMPDEST PUSH1 0x20 MUL PUSH1 0x20 ADD ADD MLOAD JUMPDEST SWAP1 POP PUSH1 0x0 DUP4 PUSH1 0x2 LT PUSH2 0x4ADF JUMPI PUSH1 0x1 PUSH1 0x1 PUSH1 0xFF SHL SUB PUSH2 0x4AF7 JUMP JUMPDEST DUP11 DUP11 PUSH1 0x2 ADD DUP2 MLOAD DUP2 LT PUSH2 0x4AEE JUMPI INVALID JUMPDEST PUSH1 0x20 MUL PUSH1 0x20 ADD ADD MLOAD JUMPDEST SWAP1 POP PUSH1 0x0 DUP5 PUSH1 0x3 LT PUSH2 0x4B10 JUMPI PUSH1 0x1 PUSH1 0x1 PUSH1 0xFF SHL SUB PUSH2 0x4B28 JUMP JUMPDEST DUP12 DUP12 PUSH1 0x3 ADD DUP2 MLOAD DUP2 LT PUSH2 0x4B1F JUMPI INVALID JUMPDEST PUSH1 0x20 MUL PUSH1 0x20 ADD ADD MLOAD JUMPDEST SWAP1 POP PUSH1 0x0 DUP6 PUSH1 0x4 LT PUSH2 0x4B41 JUMPI PUSH1 0x1 PUSH1 0x1 PUSH1 0xFF SHL SUB PUSH2 0x4B59 JUMP JUMPDEST DUP13 DUP13 PUSH1 0x4 ADD DUP2 MLOAD DUP2 LT PUSH2 0x4B50 JUMPI INVALID JUMPDEST PUSH1 0x20 MUL PUSH1 0x20 ADD ADD MLOAD JUMPDEST SWAP1 POP PUSH1 0x0 DUP7 PUSH1 0x5 LT PUSH2 0x4B72 JUMPI PUSH1 0x1 PUSH1 0x1 PUSH1 0xFF SHL SUB PUSH2 0x4B8A JUMP JUMPDEST DUP14 DUP14 PUSH1 0x5 ADD DUP2 MLOAD DUP2 LT PUSH2 0x4B81 JUMPI INVALID JUMPDEST PUSH1 0x20 MUL PUSH1 0x20 ADD ADD MLOAD JUMPDEST SWAP1 POP PUSH1 0x0 DUP8 PUSH1 0x6 LT PUSH2 0x4BA3 JUMPI PUSH1 0x1 PUSH1 0x1 PUSH1 0xFF SHL SUB PUSH2 0x4BBB JUMP JUMPDEST DUP15 DUP15 PUSH1 0x6 ADD DUP2 MLOAD DUP2 LT PUSH2 0x4BB2 JUMPI INVALID JUMPDEST PUSH1 0x20 MUL PUSH1 0x20 ADD ADD MLOAD JUMPDEST SWAP1 POP DUP6 DUP8 SGT ISZERO PUSH2 0x4BC9 JUMPI SWAP5 SWAP6 SWAP5 JUMPDEST DUP4 DUP6 SGT ISZERO PUSH2 0x4BD5 JUMPI SWAP3 SWAP4 SWAP3 JUMPDEST DUP2 DUP4 SGT ISZERO PUSH2 0x4BE1 JUMPI SWAP1 SWAP2 SWAP1 JUMPDEST DUP5 DUP8 SGT ISZERO PUSH2 0x4BED JUMPI SWAP4 SWAP6 SWAP4 JUMPDEST DUP4 DUP7 SGT ISZERO PUSH2 0x4BF9 JUMPI SWAP3 SWAP5 SWAP3 JUMPDEST DUP1 DUP4 SGT ISZERO PUSH2 0x4C03 JUMPI SWAP2 JUMPDEST DUP5 DUP7 SGT ISZERO PUSH2 0x4C0F JUMPI SWAP4 SWAP5 SWAP4 JUMPDEST DUP1 DUP3 SGT ISZERO PUSH2 0x4C19 JUMPI SWAP1 JUMPDEST DUP3 DUP8 SGT ISZERO PUSH2 0x4C25 JUMPI SWAP2 SWAP6 SWAP2 JUMPDEST DUP2 DUP7 SGT ISZERO PUSH2 0x4C31 JUMPI SWAP1 SWAP5 SWAP1 JUMPDEST DUP1 DUP6 SGT ISZERO PUSH2 0x4C3B JUMPI SWAP4 JUMPDEST DUP3 DUP7 SGT ISZERO PUSH2 0x4C47 JUMPI SWAP2 SWAP5 SWAP2 JUMPDEST DUP1 DUP5 SGT ISZERO PUSH2 0x4C51 JUMPI SWAP3 JUMPDEST DUP3 DUP6 SGT ISZERO PUSH2 0x4C5D JUMPI SWAP2 SWAP4 SWAP2 JUMPDEST DUP2 DUP5 SGT ISZERO PUSH2 0x4C69 JUMPI SWAP1 SWAP3 SWAP1 JUMPDEST DUP3 DUP5 SGT ISZERO PUSH2 0x4C75 JUMPI SWAP2 SWAP3 SWAP2 JUMPDEST DUP14 DUP13 SUB DUP1 PUSH2 0x4C85 JUMPI DUP8 SWAP11 POP PUSH2 0x4D33 JUMP JUMPDEST DUP1 PUSH1 0x1 EQ ISZERO PUSH2 0x4C96 JUMPI DUP7 SWAP11 POP PUSH2 0x4D33 JUMP JUMPDEST DUP1 PUSH1 0x2 EQ ISZERO PUSH2 0x4CA7 JUMPI DUP6 SWAP11 POP PUSH2 0x4D33 JUMP JUMPDEST DUP1 PUSH1 0x3 EQ ISZERO PUSH2 0x4CB8 JUMPI DUP5 SWAP11 POP PUSH2 0x4D33 JUMP JUMPDEST DUP1 PUSH1 0x4 EQ ISZERO PUSH2 0x4CC9 JUMPI DUP4 SWAP11 POP PUSH2 0x4D33 JUMP JUMPDEST DUP1 PUSH1 0x5 EQ ISZERO PUSH2 0x4CDA JUMPI DUP3 SWAP11 POP PUSH2 0x4D33 JUMP JUMPDEST DUP1 PUSH1 0x6 EQ ISZERO PUSH2 0x4CEB JUMPI DUP2 SWAP11 POP PUSH2 0x4D33 JUMP JUMPDEST PUSH1 0x40 MLOAD PUSH3 0x461BCD PUSH1 0xE5 SHL DUP2 MSTORE PUSH1 0x20 PUSH1 0x4 DUP3 ADD MSTORE PUSH1 0x10 PUSH1 0x24 DUP3 ADD MSTORE PUSH16 0x6B31206F7574206F6620626F756E6473 PUSH1 0x80 SHL PUSH1 0x44 DUP3 ADD MSTORE PUSH1 0x64 ADD PUSH1 0x40 MLOAD DUP1 SWAP2 SUB SWAP1 PUSH2 0x4D30 PUSH2 0x4FA9 JUMP JUMPDEST POP POP JUMPDEST DUP15 DUP13 SUB DUP14 DUP14 EQ ISZERO PUSH2 0x4D51 JUMPI POP DUP11 SWAP10 POP PUSH2 0x495D SWAP9 POP POP POP POP POP POP POP POP POP JUMP JUMPDEST DUP1 PUSH2 0x4D68 JUMPI POP SWAP7 SWAP9 POP PUSH2 0x495D SWAP8 POP POP POP POP POP POP POP POP JUMP JUMPDEST DUP1 PUSH1 0x1 EQ ISZERO PUSH2 0x4D83 JUMPI POP SWAP6 SWAP9 POP PUSH2 0x495D SWAP8 POP POP POP POP POP POP POP POP JUMP JUMPDEST DUP1 PUSH1 0x2 EQ ISZERO PUSH2 0x4D9E JUMPI POP SWAP5 SWAP9 POP PUSH2 0x495D SWAP8 POP POP POP POP POP POP POP POP JUMP JUMPDEST DUP1 PUSH1 0x3 EQ ISZERO PUSH2 0x4DB9 JUMPI POP SWAP4 SWAP9 POP PUSH2 0x495D SWAP8 POP POP POP POP POP POP POP POP JUMP JUMPDEST DUP1 PUSH1 0x4 EQ ISZERO PUSH2 0x4DD4 JUMPI POP SWAP3 SWAP9 POP PUSH2 0x495D SWAP8 POP POP POP POP POP POP POP POP JUMP JUMPDEST DUP1 PUSH1 0x5 EQ ISZERO PUSH2 0x4DEF JUMPI POP SWAP2 SWAP9 POP PUSH2 0x495D SWAP8 POP POP POP POP POP POP POP POP JUMP JUMPDEST DUP1 PUSH1 0x6 EQ ISZERO PUSH2 0x4E0A JUMPI POP SWAP1 SWAP9 POP PUSH2 0x495D SWAP8 POP POP POP POP POP POP POP POP JUMP JUMPDEST PUSH1 0x40 MLOAD PUSH3 0x461BCD PUSH1 0xE5 SHL DUP2 MSTORE PUSH1 0x20 PUSH1 0x4 DUP3 ADD MSTORE PUSH1 0x10 PUSH1 0x24 DUP3 ADD MSTORE PUSH16 0x6B32206F7574206F6620626F756E6473 PUSH1 0x80 SHL PUSH1 0x44 DUP3 ADD MSTORE PUSH1 0x64 ADD PUSH1 0x40 MLOAD DUP1 SWAP2 SUB SWAP1 PUSH2 0x4E4F PUSH2 0x4FA9 JUMP JUMPDEST POP POP POP POP POP POP POP POP POP POP POP POP SWAP6 POP SWAP6 SWAP4 POP POP POP POP JUMP JUMPDEST PUSH1 0x0 DUP1 DUP5 PUSH1 0x2 DUP6 DUP6 ADD DIV DUP2 MLOAD DUP2 LT PUSH2 0x4E79 JUMPI INVALID JUMPDEST PUSH1 0x20 MUL PUSH1 0x20 ADD ADD MLOAD SWAP1 POP PUSH1 0x1 DUP5 SUB SWAP4 POP PUSH1 0x1 DUP4 ADD SWAP3 POP JUMPDEST PUSH1 0x1 DUP5 ADD SWAP4 POP DUP1 DUP6 DUP6 DUP2 MLOAD DUP2 LT PUSH2 0x4EA3 JUMPI INVALID JUMPDEST PUSH1 0x20 MUL PUSH1 0x20 ADD ADD MLOAD SLT PUSH2 0x4E90 JUMPI JUMPDEST PUSH1 0x1 DUP4 SUB SWAP3 POP DUP1 DUP6 DUP5 DUP2 MLOAD DUP2 LT PUSH2 0x4EC4 JUMPI INVALID JUMPDEST PUSH1 0x20 MUL PUSH1 0x20 ADD ADD MLOAD SGT PUSH2 0x4EB1 JUMPI DUP3 DUP5 LT ISZERO PUSH2 0x4F34 JUMPI DUP5 DUP4 DUP2 MLOAD DUP2 LT PUSH2 0x4EE5 JUMPI INVALID JUMPDEST PUSH1 0x20 MUL PUSH1 0x20 ADD ADD MLOAD DUP6 DUP6 DUP2 MLOAD DUP2 LT PUSH2 0x4EF9 JUMPI INVALID JUMPDEST PUSH1 0x20 MUL PUSH1 0x20 ADD ADD MLOAD DUP7 DUP7 DUP2 MLOAD DUP2 LT PUSH2 0x4F0D JUMPI INVALID JUMPDEST PUSH1 0x20 MUL PUSH1 0x20 ADD ADD DUP8 DUP7 DUP2 MLOAD DUP2 LT PUSH2 0x4F20 JUMPI INVALID JUMPDEST PUSH1 0x20 SWAP1 DUP2 MUL SWAP2 SWAP1 SWAP2 ADD ADD SWAP2 SWAP1 SWAP2 MSTORE MSTORE PUSH2 0x4F3D JUMP JUMPDEST DUP3 SWAP2 POP POP PUSH2 0x287F JUMP JUMPDEST PUSH2 0x4E90 JUMP JUMPDEST PUSH1 0x0 DUP3 DUP3 ADD DUP2 DUP4 SLT DUP1 ISZERO SWAP1 PUSH2 0x4F57 JUMPI POP DUP4 DUP2 SLT ISZERO JUMPDEST DUP1 PUSH2 0x4F6C JUMPI POP PUSH1 0x0 DUP4 SLT DUP1 ISZERO PUSH2 0x4F6C JUMPI POP DUP4 DUP2 SLT JUMPDEST PUSH2 0x287F JUMPI PUSH1 0x40 MLOAD PUSH3 0x461BCD PUSH1 0xE5 SHL DUP2 MSTORE PUSH1 0x4 ADD DUP1 DUP1 PUSH1 0x20 ADD DUP3 DUP2 SUB DUP3 MSTORE PUSH1 0x21 DUP2 MSTORE PUSH1 0x20 ADD DUP1 PUSH2 0x5480 PUSH1 0x21 SWAP2 CODECOPY PUSH1 0x40 ADD SWAP2 POP POP PUSH1 0x40 MLOAD DUP1 SWAP2 SUB SWAP1 PUSH2 0x287C JUMPDEST PUSH4 0x2A2A7ADB MSIZE DUP2 PUSH1 0xE0 SHL DUP2 MSTORE PUSH1 0x4 DUP2 ADD PUSH1 0x20 DUP2 MSTORE DUP6 PUSH1 0x20 DUP3 ADD MSTORE PUSH1 0x0 JUMPDEST DUP7 DUP2 LT ISZERO PUSH2 0x4FE1 JUMPI DUP1 DUP7 ADD MLOAD DUP3 DUP3 ADD PUSH1 0x40 ADD MSTORE PUSH1 0x20 ADD PUSH2 0x4FC6 JUMP JUMPDEST POP PUSH1 0x20 DUP3 DUP8 PUSH1 0x64 ADD DUP5 CALLER PUSH1 0x0 SWAP1 GAS CALL PC PUSH1 0xE ADD JUMPI RETURNDATASIZE PUSH1 0x0 DUP1 RETURNDATACOPY RETURNDATASIZE PUSH1 0x0 REVERT JUMPDEST RETURNDATASIZE PUSH1 0x1 EQ ISZERO PC PUSH1 0xA ADD JUMPI PUSH1 0x1 PUSH1 0x0 RETURN JUMPDEST POP POP POP JUMP JUMPDEST PUSH4 0x3DAA959 MSIZE DUP2 PUSH1 0xE0 SHL DUP2 MSTORE DUP4 PUSH1 0x4 DUP3 ADD MSTORE PUSH1 0x20 DUP2 PUSH1 0x24 DUP4 CALLER PUSH1 0x0 SWAP1 GAS CALL PC PUSH1 0xE ADD JUMPI RETURNDATASIZE PUSH1 0x0 DUP1 RETURNDATACOPY RETURNDATASIZE PUSH1 0x0 REVERT JUMPDEST RETURNDATASIZE PUSH1 0x1 EQ ISZERO PC PUSH1 0xA ADD JUMPI PUSH1 0x1 PUSH1 0x0 RETURN JUMPDEST DUP1 MLOAD SWAP4 POP PUSH1 0x0 JUMPDEST PUSH1 0x40 DUP2 LT ISZERO PUSH2 0xF31 JUMPI PUSH1 0x0 DUP3 DUP3 ADD MSTORE PUSH1 0x20 ADD PUSH2 0x5058 JUMP JUMPDEST PUSH4 0x73509064 MSIZE DUP2 PUSH1 0xE0 SHL DUP2 MSTORE PUSH1 0x20 DUP2 PUSH1 0x4 DUP4 CALLER PUSH1 0x0 SWAP1 GAS CALL PC PUSH1 0xE ADD JUMPI RETURNDATASIZE PUSH1 0x0 DUP1 RETURNDATACOPY RETURNDATASIZE PUSH1 0x0 REVERT JUMPDEST RETURNDATASIZE PUSH1 0x1 EQ ISZERO PC PUSH1 0xA ADD JUMPI PUSH1 0x1 PUSH1 0x0 RETURN JUMPDEST DUP1 MLOAD PUSH1 0x0 DUP3 MSTORE SWAP4 POP PUSH1 0x20 PUSH2 0x5058 JUMP JUMPDEST PUSH4 0x22BD64C0 MSIZE DUP2 PUSH1 0xE0 SHL DUP2 MSTORE DUP4 PUSH1 0x4 DUP3 ADD MSTORE DUP5 PUSH1 0x24 DUP3 ADD MSTORE PUSH1 0x0 DUP2 PUSH1 0x44 DUP4 CALLER PUSH1 0x0 SWAP1 GAS CALL PC PUSH1 0xE ADD JUMPI RETURNDATASIZE PUSH1 0x0 DUP1 RETURNDATACOPY RETURNDATASIZE PUSH1 0x0 REVERT JUMPDEST RETURNDATASIZE PUSH1 0x1 EQ ISZERO PC PUSH1 0xA ADD JUMPI PUSH1 0x1 PUSH1 0x0 RETURN JUMPDEST PUSH1 0x0 DUP2 MSTORE PUSH1 0x20 PUSH2 0x5058 JUMP JUMPDEST PUSH4 0x8435035B MSIZE DUP2 PUSH1 0xE0 SHL DUP2 MSTORE DUP4 PUSH1 0x4 DUP3 ADD MSTORE PUSH1 0x20 DUP2 PUSH1 0x24 DUP4 CALLER PUSH1 0x0 SWAP1 GAS CALL PC PUSH1 0xE ADD JUMPI RETURNDATASIZE PUSH1 0x0 DUP1 RETURNDATACOPY RETURNDATASIZE PUSH1 0x0 REVERT JUMPDEST RETURNDATASIZE PUSH1 0x1 EQ ISZERO PC PUSH1 0xA ADD JUMPI PUSH1 0x1 PUSH1 0x0 RETURN JUMPDEST DUP1 MLOAD PUSH1 0x0 DUP3 MSTORE SWAP4 POP PUSH1 0x20 PUSH2 0x5058 JUMP JUMPDEST PUSH4 0x85979F76 MSIZE DUP2 PUSH1 0xE0 SHL DUP2 MSTORE PUSH2 0x5180 JUMP JUMPDEST DUP1 DUP1 DUP4 GT ISZERO PUSH2 0x2817 JUMPI POP SWAP1 SWAP2 SWAP1 POP JUMP JUMPDEST DUP1 DUP1 DUP4 LT ISZERO PUSH2 0x2817 JUMPI POP SWAP1 SWAP2 SWAP1 POP JUMP JUMPDEST DUP4 PUSH1 0x4 DUP3 ADD MSTORE DUP5 PUSH1 0x24 DUP3 ADD MSTORE PUSH1 0x60 PUSH1 0x44 DUP3 ADD MSTORE DUP8 PUSH1 0x64 DUP3 ADD MSTORE PUSH1 0x84 DUP2 ADD PUSH1 0x0 JUMPDEST DUP10 DUP2 LT ISZERO PUSH2 0x51B8 JUMPI DUP1 DUP10 ADD MLOAD DUP3 DUP3 ADD MSTORE PUSH1 0x20 ADD PUSH2 0x51A0 JUMP JUMPDEST POP PUSH1 0x60 DUP3 DUP11 PUSH1 0xA4 ADD DUP5 CALLER PUSH1 0x0 SWAP1 GAS CALL PC PUSH1 0xE ADD JUMPI RETURNDATASIZE PUSH1 0x0 DUP1 RETURNDATACOPY RETURNDATASIZE PUSH1 0x0 REVERT JUMPDEST RETURNDATASIZE PUSH1 0x1 EQ ISZERO PC PUSH1 0xA ADD JUMPI PUSH1 0x1 PUSH1 0x0 RETURN JUMPDEST DUP2 MLOAD PUSH1 0x40 DUP4 ADD MLOAD RETURNDATASIZE PUSH1 0x0 DUP6 RETURNDATACOPY DUP13 DUP13 DUP3 PUSH1 0x60 DUP8 ADD CALLER POP PUSH1 0x0 PUSH1 0x4 GAS CALL POP MSIZE PUSH2 0x520D DUP15 RETURNDATASIZE PUSH2 0x5170 JUMP JUMPDEST DUP14 ADD PUSH2 0x5219 DUP2 DUP8 PUSH2 0x5160 JUMP JUMPDEST JUMPDEST DUP3 DUP2 LT ISZERO PUSH2 0x522E JUMPI PUSH1 0x0 DUP2 MSTORE PUSH1 0x20 ADD PUSH2 0x521A JUMP JUMPDEST POP SWAP3 SWAP14 POP POP POP POP POP POP POP JUMP JUMPDEST PUSH1 0x40 MLOAD PUSH1 0x40 DUP1 DUP3 ADD SWAP1 MSTORE PUSH1 0x0 DUP1 DUP3 MSTORE PUSH1 0x20 DUP3 ADD MSTORE SWAP1 JUMP JUMPDEST PUSH4 0x8540661F MSIZE DUP2 PUSH1 0xE0 SHL DUP2 MSTORE DUP4 PUSH1 0x4 DUP3 ADD MSTORE DUP5 PUSH1 0x24 DUP3 ADD MSTORE PUSH1 0x60 PUSH1 0x44 DUP3 ADD MSTORE DUP7 PUSH1 0x64 DUP3 ADD MSTORE PUSH1 0x84 DUP2 ADD PUSH1 0x0 JUMPDEST DUP9 DUP2 LT ISZERO PUSH2 0x5295 JUMPI DUP1 DUP9 ADD MLOAD DUP3 DUP3 ADD MSTORE PUSH1 0x20 ADD PUSH2 0x527D JUMP JUMPDEST POP PUSH1 0x60 DUP3 DUP10 PUSH1 0xA4 ADD DUP5 CALLER PUSH1 0x0 SWAP1 GAS CALL PC PUSH1 0xE ADD JUMPI RETURNDATASIZE PUSH1 0x0 DUP1 RETURNDATACOPY RETURNDATASIZE PUSH1 0x0 REVERT JUMPDEST RETURNDATASIZE PUSH1 0x1 EQ ISZERO PC PUSH1 0xA ADD JUMPI PUSH1 0x1 PUSH1 0x0 RETURN JUMPDEST DUP2 MLOAD PUSH1 0x40 DUP4 ADD MLOAD RETURNDATASIZE PUSH1 0x0 DUP6 RETURNDATACOPY DUP12 DUP12 DUP3 PUSH1 0x60 DUP8 ADD CALLER POP PUSH1 0x0 PUSH1 0x4 GAS CALL POP MSIZE PUSH2 0x52EA DUP14 RETURNDATASIZE PUSH2 0x5170 JUMP JUMPDEST DUP13 ADD PUSH2 0x52F6 DUP2 DUP8 PUSH2 0x5160 JUMP JUMPDEST JUMPDEST DUP3 DUP2 LT ISZERO PUSH2 0x530B JUMPI PUSH1 0x0 DUP2 MSTORE PUSH1 0x20 ADD PUSH2 0x52F7 JUMP JUMPDEST POP SWAP3 SWAP13 POP POP POP POP POP POP POP JUMP JUMPDEST PUSH1 0x40 MLOAD PUSH1 0x80 DUP2 ADD PUSH1 0x40 SWAP1 DUP2 MSTORE PUSH1 0x0 DUP1 DUP4 MSTORE PUSH1 0x20 DUP4 ADD DUP2 SWAP1 MSTORE SWAP1 DUP3 ADD DUP2 SWAP1 MSTORE PUSH1 0x60 DUP3 ADD MSTORE SWAP1 JUMP JUMPDEST PUSH4 0xBDBF8C36 MSIZE DUP2 PUSH1 0xE0 SHL DUP2 MSTORE PUSH1 0x20 DUP2 PUSH1 0x4 DUP4 CALLER PUSH1 0x0 SWAP1 GAS CALL PC PUSH1 0xE ADD JUMPI RETURNDATASIZE PUSH1 0x0 DUP1 RETURNDATACOPY RETURNDATASIZE PUSH1 0x0 REVERT JUMPDEST RETURNDATASIZE PUSH1 0x1 EQ ISZERO PC PUSH1 0xA ADD JUMPI PUSH1 0x1 PUSH1 0x0 RETURN JUMPDEST DUP1 MLOAD PUSH1 0x0 DUP3 MSTORE SWAP4 POP PUSH1 0x20 PUSH2 0x5058 JUMP JUMPDEST POP DUP1 PUSH2 0x538D PUSH2 0x5014 JUMP JUMPDEST PUSH1 0x0 DUP3 PUSH2 0x5398 PUSH2 0x50B5 JUMP JUMPDEST POP POP SWAP1 PUSH1 0x0 MSTORE PUSH1 0x20 PUSH1 0x0 KECCAK256 PUSH2 0x2C70 SWAP2 DUP2 ADD SWAP1 PUSH2 0x5440 JUMP JUMPDEST PUSH1 0x40 MLOAD PUSH1 0xA0 DUP2 ADD PUSH1 0x40 SWAP1 DUP2 MSTORE PUSH1 0x60 DUP1 DUP4 MSTORE PUSH1 0x0 PUSH1 0x20 DUP5 ADD DUP2 SWAP1 MSTORE SWAP2 DUP4 ADD DUP3 SWAP1 MSTORE DUP3 ADD DUP2 SWAP1 MSTORE PUSH1 0x80 DUP3 ADD MSTORE SWAP1 JUMP JUMPDEST DUP3 DUP1 PUSH2 0x53E6 PUSH2 0x5014 JUMP JUMPDEST DUP3 DUP3 PUSH2 0x53F0 PUSH2 0x50B5 JUMP JUMPDEST POP POP SWAP1 PUSH1 0x0 MSTORE PUSH1 0x20 PUSH1 0x0 KECCAK256 SWAP1 DUP2 ADD SWAP3 DUP3 ISZERO PUSH2 0x5430 JUMPI SWAP2 PUSH1 0x20 MUL DUP3 ADD JUMPDEST DUP3 DUP2 GT ISZERO PUSH2 0x5430 JUMPI DUP3 MLOAD DUP3 PUSH2 0x541F PUSH2 0x50B5 JUMP JUMPDEST POP POP SWAP2 PUSH1 0x20 ADD SWAP2 SWAP1 PUSH1 0x1 ADD SWAP1 PUSH2 0x540C JUMP JUMPDEST POP PUSH2 0x543C SWAP3 SWAP2 POP PUSH2 0x5440 JUMP JUMPDEST POP SWAP1 JUMP JUMPDEST DUP1 DUP3 GT ISZERO PUSH2 0x543C JUMPI PUSH1 0x0 DUP1 DUP3 PUSH2 0x5454 PUSH2 0x50B5 JUMP JUMPDEST POP POP POP PUSH1 0x1 ADD PUSH2 0x5440 JUMP INVALID 0xC POP SSTORE CODECOPY MOD GASLIMIT 0xC1 GAS 0x4B 0xE9 LOG2 SHL EXTCODEHASH DUP14 ADD SWAP2 MSTORE8 0xDC 0xB4 LOG0 0xC1 0x25 PUSH9 0x5DA6EB84048E2FE904 MSTORE8 PUSH10 0x676E6564536166654D61 PUSH21 0x683A206164646974696F6E206F766572666C6F7718 0xDD MULMOD PUSH10 0x5E4FBDAE8D1A5EDB1122 0x1E 0xB0 GASLIMIT PUSH5 0x269C29A089 0xB9 PUSH22 0x3A6535C54BA92E536166654D6174683A206164646974 PUSH10 0x6F6E206F766572666C6F PUSH24 0x536166654D6174683A206D756C7469706C6963 PUSH2 0x7469 PUSH16 0x6E206F766572666C6F774F6E6C792063 PUSH2 0x6C6C PUSH2 0x626C PUSH6 0x206279206F77 PUSH15 0x657200000000000000000000536166 PUSH6 0x4D6174683A20 PUSH20 0x75627472616374696F6E206F766572666C6F7700 STOP INVALID 0x25 0xC7 RETURNDATACOPY EXTCODESIZE SWAP1 DUP10 STATICCALL 0xC3 PUSH30 0x55C4C7EFCBA6F04AF04CEBD2FC4D6D7DBB07E1E5234F536166654D617468 GASPRICE KECCAK256 PUSH14 0x756C7469706C69636174696F6E20 PUSH16 0x766572666C6F77000000000000000000 "
			},
			"deployedBytecode": {
				"immutableReferences": {
					"2761": [
						{
							"length": 32,
							"start": 2858
						},
						{
							"length": 32,
							"start": 7544
						}
					],
					"2763": [
						{
							"length": 32,
							"start": 2983
						},
						{
							"length": 32,
							"start": 3896
						}
					]
				},
				"linkReferences": {},
				"object": "0x608060405234801561001957600080610016614fa9565b50505b50600436106101ec5760003560e01c80631327d3d8146101fa578063202ee0ed1461022b57806320ed02751461025757806323ca29031461029a578063313ce567146102b4578063357ebb02146102d257806338aa4c72146102f35780633969c20f146103465780633a5381b5146104c65780633d3d7714146104ea57806340884c521461052957806346fcff4c146105845780634f8fc3b5146105a857806350d25bcd146105b057806354fd4d50146105b857806357970e93146105c057806358609e44146105c8578063613d8fcc146105d0578063628806ef146105d857806364efb22b14610607578063668a0f021461063657806370dea79a1461063e5780637284e4161461064657806379ba5097146106c55780637c2b0b21146106cd5780638205bf6a146106d557806388aa80e7146106dd5780638da5cb5b1461077e57806398e5b12a146107865780639a6fc8f5146107aa578063a4c0ed361461081d578063b5ab58dc146108c4578063b633620c146108ea578063c107532914610910578063c35905c614610945578063c93745001461094d578063d4cc54e414610955578063e2e403171461095d578063e9ee6eeb1461098c578063f2fde38b146109c3578063feaf968c146109f2575b6000806101f7614fa9565b50505b6102296004803603602081101561021957600080610216614fa9565b50505b50356001600160a01b03166109fa565b005b6102296004803603604081101561024a57600080610247614fa9565b50505b5080359060200135610b28565b6102296004803603606081101561027657600080610273614fa9565b50505b5080356001600160a01b03169060208101351515906040013563ffffffff16610d1b565b6102a2610f36565b60405190815260200160405180910390f35b6102bc610f5a565b60405160ff909116815260200160405180910390f35b6102da610f73565b60405163ffffffff909116815260200160405180910390f35b610229600480360360a08110156103125760008061030f614fa9565b50505b506001600160801b038135169063ffffffff6020820135811691604081013582169160608201358116916080013516610f8f565b610229600480360360c081101561036557600080610362614fa9565b50505b810190602081018135600160201b81111561038857600080610385614fa9565b50505b8201836020820111156103a3576000806103a0614fa9565b50505b803590602001918460208302840111600160201b831117156103cd576000806103ca614fa9565b50505b919390929091602081019035600160201b8111156103f3576000806103f0614fa9565b50505b82018360208201111561040e5760008061040b614fa9565b50505b803590602001918460208302840111600160201b8311171561043857600080610435614fa9565b50505b919390929091602081019035600160201b81111561045e5760008061045b614fa9565b50505b82018360208201111561047957600080610476614fa9565b50505b803590602001918460208302840111600160201b831117156104a3576000806104a0614fa9565b50505b919350915063ffffffff8135811691602081013582169160409091013516611280565b6104ce611416565b6040516001600160a01b03909116815260200160405180910390f35b6102296004803603606081101561050957600080610506614fa9565b50505b506001600160a01b03813581169160208101359091169060400135611435565b610531611693565b60405160208082528190810183818151815260200191508051906020019060200280838360005b83811015610570578082015183820152602001610558565b505050509050019250505060405180910390f35b61058c61171a565b6040516001600160801b03909116815260200160405180910390f35b61022961173c565b6102a2611939565b6102a261197e565b6104ce611983565b6102da61198f565b6102bc61199b565b610229600480360360208110156105f7576000806105f4614fa9565b50505b50356001600160a01b03166119ae565b6104ce6004803603602081101561062657600080610623614fa9565b50505b50356001600160a01b0316611ae7565b6102a2611b25565b6102da611b4b565b61064e611b57565b60405160208082528190810183818151815260200191508051906020019080838360005b8381101561068a578082015183820152602001610672565b50505050905090810190601f1680156106b75780820380516001836020036101000a031916815260200191505b509250505060405180910390f35b610229611c10565b6102a2611d76565b6102a2611d9a565b610718600480360360408110156106fc576000806106f9614fa9565b50505b5080356001600160a01b0316906020013563ffffffff16611dfe565b604051971515885263ffffffff90961660208801526040808801959095526001600160401b0393841660608801529190921660808601526001600160801b0391821660a086015260ff1660c08501529190911660e0830152610100909101905180910390f35b6104ce611fab565b61078e611fb6565b6040516001600160501b03909116815260200160405180910390f35b6107d9600480360360208110156107c9576000806107c6614fa9565b50505b50356001600160501b03166120b0565b60405180866001600160501b03168152602001858152602001848152602001838152602001826001600160501b031681526020019550505050505060405180910390f35b6102296004803603606081101561083c57600080610839614fa9565b50505b6001600160a01b0382351691602081013591810190606081016040820135600160201b81111561087457600080610871614fa9565b50505b82018360208201111561088f5760008061088c614fa9565b50505b803590602001918460018302840111600160201b831117156108b9576000806108b6614fa9565b50505b509092509050612272565b6102a2600480360360208110156108e3576000806108e0614fa9565b50505b5035612294565b6102a26004803603602081101561090957600080610906614fa9565b50505b50356122d0565b6102296004803603604081101561092f5760008061092c614fa9565b50505b506001600160a01b038135169060200135612323565b61058c6124fe565b6102da61251d565b61058c612529565b6102a26004803603602081101561097c57600080610979614fa9565b50505b50356001600160a01b0316612537565b610229600480360360408110156109ab576000806109a8614fa9565b50505b506001600160a01b0381358116916020013516612572565b610229600480360360208110156109e2576000806109df614fa9565b50505b50356001600160a01b031661267a565b6107d9612787565b600080610a05615014565b906101000a90046001600160a01b03166001600160a01b03165a610a2761506f565b6001600160a01b031614610a785760405162461bcd60e51b81526020600482015260166024820152600080516020615502833981519152604482015260640160405180910390610a75614fa9565b50505b6000806003610a85615014565b906101000a90046001600160a01b03169050816001600160a01b0316816001600160a01b031614610b2457816003600181610abe615014565b816001600160a01b0302191690836001600160a01b0316021790610ae06150b5565b505050816001600160a01b0316816001600160a01b03167fcfac5dc75b8d9a7e074162f59d9adcd33da59f0fe8dfb21580db298fc0fdad0d60405160405180910390a35b5050565b7f0000000000000000000000000000000000000000000000000000000000000000811215610ba55760405162461bcd60e51b815260206004820152601e60248201527f76616c75652062656c6f77206d696e5375626d697373696f6e56616c75650000604482015260640160405180910390610ba2614fa9565b50505b7f0000000000000000000000000000000000000000000000000000000000000000811315610c225760405162461bcd60e51b815260206004820152601e60248201527f76616c75652061626f7665206d61785375626d697373696f6e56616c75650000604482015260640160405180910390610c1f614fa9565b50505b6060610c365a610c3061506f565b84612886565b90508051819015610cce5760405162461bcd60e51b81526004018080602001828103825283818151815260200191508051906020019080838360005b83811015610c8a578082015183820152602001610c72565b50505050905090810190601f168015610cb75780820380516001836020036101000a031916815260200191505b509250505060405180910390610ccb614fa9565b50505b50610cd883612b72565b610ce28284612c73565b600080610cee85612dbb565b91509150610cfb85612fdf565b610d0485613202565b8115610d1457610d148582613314565b5050505050565b600080610d26615014565b906101000a90046001600160a01b03166001600160a01b03165a610d4861506f565b6001600160a01b031614610d995760405162461bcd60e51b81526020600482015260166024820152600080516020615502833981519152604482015260640160405180910390610d96614fa9565b50505b6001600160a01b0383166000908152600b6020528215159060409020600090610dc0615014565b906101000a900460ff1615151415610dd757610f31565b8115610e64576001600160a01b0383166000908152600b602052829060409020600181610e02615014565b8160ff02191690831515021790610e176150b5565b5050506001600160a01b0383166000908152600b60205281906040902061010081610e40615014565b8163ffffffff021916908363ffffffff16021790610e5c6150b5565b505050610ee4565b6001600160a01b0383166000908152600b60205260409020600081600181610e8a615014565b9060ff02191690610e996150b5565b5082905061010081610ea9615014565b9063ffffffff02191690610ebb6150b5565b50829050600160281b81610ecd615014565b9063ffffffff02191690610edf6150b5565b505050505b826001600160a01b03167fc3df5a754e002718f2e10804b99e6605e7c701d95cec9552c7680ca2b6f2820a8383604051911515825263ffffffff1660208201526040908101905180910390a25b505050565b7f000000000000000000000000000000000000000000000000000000000000000081565b60006005610f66615014565b906101000a900460ff1681565b60186004610f7f615014565b906101000a900463ffffffff1681565b600080610f9a615014565b906101000a90046001600160a01b03166001600160a01b03165a610fbc61506f565b6001600160a01b03161461100d5760405162461bcd60e51b8152602060048201526016602482015260008051602061550283398151915260448201526064016040518091039061100a614fa9565b50505b600061101761199b565b60ff1690508463ffffffff168463ffffffff16101561103e5760008061103b614fa9565b50505b8363ffffffff168163ffffffff1610156110605760008061105d614fa9565b50505b63ffffffff8116158061107e57508263ffffffff168163ffffffff16115b6110905760008061108d614fa9565b50505b6110a2866001600160801b031661347e565b6000600d6110ae615014565b906101000a90046001600160801b03166001600160801b031610156110db576000806110d8614fa9565b50505b60006110e561199b565b60ff16111561110a5760008563ffffffff161161110a57600080611107614fa9565b50505b856004600181611118615014565b816001600160801b0302191690836001600160801b031602179061113a6150b5565b50505084600460146101000a8161114f615014565b8163ffffffff021916908363ffffffff1602179061116b6150b5565b50505083600460106101000a81611180615014565b8163ffffffff021916908363ffffffff1602179061119c6150b5565b50505082600460186101000a816111b1615014565b8163ffffffff021916908363ffffffff160217906111cd6150b5565b505050816004601c6101000a816111e2615014565b8163ffffffff021916908363ffffffff160217906111fe6150b5565b5050508363ffffffff168563ffffffff16600460009061121c615014565b906101000a90046001600160801b03166001600160801b03167f56800c9d1ed723511246614d15e58cfcde15b6a33c245b5c961b689c1890fd8f868660405163ffffffff9283168152911660208201526040908101905180910390a4505050505050565b60008061128b615014565b906101000a90046001600160a01b03166001600160a01b03165a6112ad61506f565b6001600160a01b0316146112fe5760405162461bcd60e51b815260206004820152601660248201526000805160206155028339815191526044820152606401604051809103906112fb614fa9565b50505b60005b888110156113355761132d8a8a8381811061131857fe5b905060200201356001600160a01b03166134a0565b600101611301565b5085841461134b57600080611348614fa9565b50505b604d6113628761135961199b565b60ff16906136ff565b111561137657600080611373614fa9565b50505b60005b868110156113c9576113c188888381811061139057fe5b905060200201356001600160a01b03168787848181106113ac57fe5b905060200201356001600160a01b031661374c565b600101611379565b5061140b600060046113d9615014565b906101000a90046001600160801b03168484846004601c906113f9615014565b906101000a900463ffffffff16610f8f565b505050505050505050565b60006003611422615014565b906101000a90046001600160a01b031681565b5a61143e61506f565b6001600160a01b038481166000908152600860205291169060409020600201600290611468615014565b906101000a90046001600160a01b03166001600160a01b03161461149457600080611491614fa9565b50505b6001600160a01b038316600090815260086020528190604081206000906114b9615014565b906101000a90046001600160801b03169050816001600160801b0316816001600160801b031610156114f3576000806114f0614fa9565b50505b6115066001600160801b03821683613a0f565b6001600160a01b0386166000908152600860205260409020600181611529615014565b816001600160801b0302191690836001600160801b031602179061154b6150b5565b5061157891508390506010600d611560615014565b6001600160801b036101009290920a90041690613a0f565b600d600160801b81611588615014565b816001600160801b0302191690836001600160801b03160217906115aa6150b5565b50505060026000906115ba615014565b906101000a90046001600160a01b03166001600160a01b031663a9059cbb85846001600160801b03166040516001600160e01b031960e085901b1681526001600160a01b039092166004830152602482015260440160206040518083038160008780611624615103565b15801561163957600080611636614fa9565b50505b505a61164361514f565b505050505050158015611663573d6000803e3d6000611660614fa9565b50505b505050506040513d60208110156116825760008061167f614fa9565b50505b8101908080519250610d1491505057fe5b6060600c806116a0615014565b8060200260200160405190810160405281815291906020830182806116c3615014565b801561171057602002820191906000526020600020905b6000826116e5615014565b906101000a90046001600160a01b03166001600160a01b0316815260200190600101908083116116da575b5050505050905090565b600080600d611727615014565b906101000a90046001600160801b0316905090565b61174461523a565b600d60405160408082019052908160008261175d615014565b6001600160801b036101009290920a900416815260200160108261177f615014565b6001600160801b036101009290920a900416905250905060006118d460208301516001600160801b0316600060026117b5615014565b906101000a90046001600160a01b03166001600160a01b03166370a082315a63996d79a5598160e01b8152602081600483336000905af158601d01573d60011458600c01573d6000803e3d621234565260ea61109c528051925060005b604081101561182957600082820152602001611812565b5050506040516001600160e01b031960e084901b1681526001600160a01b0390911660048201526024016020604051808303818680611866615103565b15801561187b57600080611878614fa9565b50505b505a611885615251565b50505050501580156118a4573d6000803e3d60006118a1614fa9565b50505b505050506040513d60208110156118c3576000806118c0614fa9565b50505b810190808051939250506127c59050565b90508082516001600160801b031614610b245780600d6001816118f5615014565b816001600160801b0302191690836001600160801b03160217906119176150b5565b5050508060008051602061554283398151915260405160405180910390a25050565b60006009816004600761194a615014565b906101000a900463ffffffff1663ffffffff1663ffffffff168152602001908152602001600020611979615014565b905090565b600381565b60006002611422615014565b60106004610f7f615014565b6000600c806119a8615014565b91505090565b5a6119b761506f565b6001600160a01b0382811660009081526008602052911690604090206003016000906119e1615014565b906101000a90046001600160a01b03166001600160a01b031614611a0d57600080611a0a614fa9565b50505b6001600160a01b0381166000908152600860205260408120600301600181611a33615014565b816001600160a01b0302191690836001600160a01b0316021790611a556150b5565b5050505a611a6161506f565b6001600160a01b03821660009081526008602052604090206002016201000081611a89615014565b816001600160a01b0302191690836001600160a01b0316021790611aab6150b5565b5050505a611ab761506f565b6001600160a01b0316816001600160a01b031660008051602061546083398151915260405160405180910390a350565b6001600160a01b0381166000908152600860205260408120600201600290611b0d615014565b906101000a90046001600160a01b031690505b919050565b600060046007611b33615014565b906101000a900463ffffffff1663ffffffff16905090565b601c6004610f7f615014565b600680611b62615014565b600181600116156101000203166002900480601f016020809104026020016040519081016040528181529190602083018280611b9c615014565b60018160011615610100020316600290048015611c085780601f10611bd6576101008083611bc8615014565b040283529160200191611c08565b820191906000526020600020905b81611bed615014565b81529060010190602001808311611be457829003601f168201915b505050505081565b60006001611c1c615014565b906101000a90046001600160a01b03166001600160a01b03165a611c3e61506f565b6001600160a01b031614611c9a5760405162461bcd60e51b815260206004820152601660248201527526bab9ba10313290383937b837b9b2b21037bbb732b960511b604482015260640160405180910390611c97614fa9565b50505b60008080611ca6615014565b906101000a90046001600160a01b031690505a611cc161506f565b6000600181611cce615014565b816001600160a01b0302191690836001600160a01b0316021790611cf06150b5565b5050506000600160006101000a81611d06615014565b816001600160a01b0302191690836001600160a01b0316021790611d286150b5565b5050505a611d3461506f565b6001600160a01b0316816001600160a01b03167f8be0079c531659141344cd1fd0a4f28419497f9722a3daafe3b4186f6b6457e060405160405180910390a350565b7f000000000000000000000000000000000000000000000000000000000000000081565b600060098160046007611dab615014565b906101000a900463ffffffff1663ffffffff1663ffffffff168152602001908152602001600020600101600890611de0615014565b906101000a90046001600160401b03166001600160401b0316905090565b600080808080808080805a611e1161506f565b6001600160a01b031614611e2d57600080611e2a614fa9565b50505b63ffffffff891615611f845763ffffffff8916600090815260096020526040812063ffffffff8b166000908152600a602052909150604081209050611e728c8c613a6b565b6001600160a01b038d16600090815260086020528c9060409020600101611e97615014565b600060018601611ea5615014565b906101000a90046001600160401b031684600101600890611ec4615014565b63ffffffff6101009290920a9004166000600d611edf615014565b906101000a90046001600160801b0316611ef761199b565b60008060018b01611f06615014565b906101000a90046001600160401b03166001600160401b031611611f455760006004611f30615014565b906101000a90046001600160801b0316611f64565b600c60018901611f53615014565b906101000a90046001600160801b03165b8363ffffffff169350995099509950995099509950995099505050611f9e565b611f8d8a613adc565b975097509750975097509750975097505b9295985092959890939650565b600080611422615014565b6000600b60005a611fc561506f565b6001600160a01b03166001600160a01b03168152602001908152602001600020600090611ff0615014565b906101000a900460ff1661200c57600080612009614fa9565b50505b6000806007612019615014565b63ffffffff6101009290920a9004166000818152600960205290915060408120600101600890612047615014565b906101000a90046001600160401b03166001600160401b03161180612070575061207081613d37565b6120825760008061207f614fa9565b50505b600061209963ffffffff80841690600190613e0916565b90506120a481613e5f565b63ffffffff1691505090565b60008060008060006120c0615317565b63ffffffff87166000908152600960205260409020604051608081016040529081816120ea615014565b81526020016000600183016120fd615014565b6001600160401b036101009290920a9004168152602001600860018301612122615014565b6001600160401b036101009290920a9004168152602001601060018301612147615014565b63ffffffff6101009290920a90041690525090506000606082015163ffffffff161180156121825750612182876001600160501b0316613f75565b60405160408082019052600f81526e139bc819185d18481c1c995cd95b9d608a1b60208201529061223a5760405162461bcd60e51b81526004018080602001828103825283818151815260200191508051906020019080838360005b838110156121f65780820151838201526020016121de565b50505050905090810190601f1680156122235780820380516001836020036101000a031916815260200191505b509250505060405180910390612237614fa9565b50505b50868151826020015183604001518460600151939b929a506001600160401b03918216995016965063ffffffff909116945092505050565b801561228657600080612283614fa9565b50505b61228e61173c565b50505050565b600061229f82613f75565b156122c85763ffffffff821660009081526009602052604090206122c1615014565b9050611b20565b506000919050565b60006122db82613f75565b156122c85763ffffffff82166000908152600960205260409020600101600890612303615014565b906101000a90046001600160401b03166001600160401b03169050611b20565b60008061232e615014565b906101000a90046001600160a01b03166001600160a01b03165a61235061506f565b6001600160a01b0316146123a15760405162461bcd60e51b8152602060048201526016602482015260008051602061550283398151915260448201526064016040518091039061239e614fa9565b50505b600080600d6123ae615014565b6001600160801b036101009290920a9004169050816123fa6123f3600060046123d5615014565b906101000a90046001600160801b03166001600160801b031661347e565b83906127c5565b101561240e5760008061240b614fa9565b50505b6000600261241a615014565b906101000a90046001600160a01b03166001600160a01b031663a9059cbb84846040516001600160e01b031960e085901b1681526001600160a01b03909216600483015260248201526044016020604051808303816000878061247b615103565b1580156124905760008061248d614fa9565b50505b505a61249a61514f565b5050505050501580156124ba573d6000803e3d60006124b7614fa9565b50505b505050506040513d60208110156124d9576000806124d6614fa9565b50505b81019080805192506124f6915050576000806124f3614fa9565b50505b610f3161173c565b6000600461250a615014565b906101000a90046001600160801b031681565b60146004610f7f615014565b60006010600d611727615014565b6001600160a01b038116600090815260086020526040812060009061255a615014565b6001600160801b036101009290920a90041692915050565b5a61257b61506f565b6001600160a01b0383811660009081526008602052911690604090206002016002906125a5615014565b906101000a90046001600160a01b03166001600160a01b0316146125d1576000806125ce614fa9565b50505b6001600160a01b038216600090815260086020528190604090206003016001816125f9615014565b816001600160a01b0302191690836001600160a01b031602179061261b6150b5565b505050816001600160a01b03167fb79bf2e89c2d70dde91d2991fb1ea69b7e478061ad7c04ed5b02b96bc52b81045a61265261506f565b836040516001600160a01b039283168152911660208201526040908101905180910390a25050565b600080612685615014565b906101000a90046001600160a01b03166001600160a01b03165a6126a761506f565b6001600160a01b0316146126f85760405162461bcd60e51b815260206004820152601660248201526000805160206155028339815191526044820152606401604051809103906126f5614fa9565b50505b8060018080612705615014565b816001600160a01b0302191690836001600160a01b03160217906127276150b5565b505050806001600160a01b031660008061273f615014565b906101000a90046001600160a01b03166001600160a01b03167fed8889f560326eb138920d842192f0eb3dd22b4f139c87a2c57538e05bae127860405160405180910390a350565b6000808080806127b46004600761279c615014565b906101000a900463ffffffff1663ffffffff166120b0565b945094509450945094509091929394565b6000828211156128125760405162461bcd60e51b815260206004820152601e602482015260008051602061552283398151915260448201526064016040518091039061280f614fa9565b50505b508082035b92915050565b60008261282c57506000612817565b8282028284828161283957fe5b041461287f5760405162461bcd60e51b81526004018080602001828103825260218152602001806154e1602191396040019150506040518091039061287c614fa9565b50505b9392505050565b6001600160a01b03821660009081526008602052606090604081206010906128ac615014565b906101000a900463ffffffff169050600060076000906128ca615014565b906101000a900463ffffffff1690508163ffffffff166000141561291c57604051806040016040528060128152602001716e6f7420656e61626c6564206f7261636c6560701b81525092505050612817565b8363ffffffff168263ffffffff16111561296857604051806040016040528060168152602001756e6f742079657420656e61626c6564206f7261636c6560501b81525092505050612817565b6001600160a01b0385166000908152600860205263ffffffff85169060409020601490612993615014565b906101000a900463ffffffff1663ffffffff1610156129e657604051806040016040528060188152602001776e6f206c6f6e67657220616c6c6f776564206f7261636c6560401b81525092505050612817565b6001600160a01b0385166000908152600860205263ffffffff85169060409020601890612a11615014565b906101000a900463ffffffff1663ffffffff1610612a68576040518060400160405280602081526020017f63616e6e6f74207265706f7274206f6e2070726576696f757320726f756e647381525092505050612817565b8063ffffffff168463ffffffff1614158015612aa45750612a9463ffffffff80831690600190613e0916565b63ffffffff168463ffffffff1614155b8015612ab75750612ab58482613f7f565b155b15612af557604051806040016040528060178152602001761a5b9d985b1a59081c9bdd5b99081d1bc81c995c1bdc9d604a1b81525092505050612817565b8363ffffffff16600114158015612b265750612b24612b1f63ffffffff80871690600190613fed16565b614043565b155b15612b6a576040518060400160405280601f81526020017f70726576696f757320726f756e64206e6f7420737570657273656461626c650081525092505050612817565b505092915050565b612b7b81614090565b612b8457612c70565b6000600860005a612b9361506f565b6001600160a01b03166001600160a01b03168152602001908152602001600020601c90612bbe615014565b63ffffffff6101009290920a900416905060186004612bdb615014565b906101000a900463ffffffff1663ffffffff1681018263ffffffff1611158015612c0457508015155b15612c0f5750612c70565b612c18826140b7565b81600860005a612c2661506f565b6001600160a01b03166001600160a01b03168152602001908152602001600020600160e01b81612c54615014565b8163ffffffff021916908363ffffffff16021790610d146150b5565b50565b612c7c816143b0565b612c8e57600080612c8b614fa9565b50505b63ffffffff81166000908152600a60205260409020829080600181612cb1615014565b018082612cbc6150b5565b505060009283526000190191602091502001612cd66150b5565b505080600860005a612ce661506f565b6001600160a01b03166001600160a01b03168152602001908152602001600020600160c01b81612d14615014565b8163ffffffff021916908363ffffffff16021790612d306150b5565b50505081600860005a612d4161506f565b6001600160a01b03166001600160a01b031681526020019081526020016000206001018190612d6e6150b5565b5050505a612d7a61506f565b6001600160a01b03168163ffffffff16837f92e98423f8adac6e64d0608e519fd1cefb861498385c6dee70d58fc926ddc68c60405160405180910390a45050565b63ffffffff81166000908152600a6020528060408120600101600490612ddf615014565b63ffffffff8581166000908152600a6020526101009390930a90910416906040902080612e0a615014565b90501015612e1d57506000905080612fda565b63ffffffff83166000908152600a602052612e9d6040822080612e3e615014565b806020026020016040519081016040528181529190602083018280612e61615014565b8015612e9357602002820191906000526020600020905b81612e81615014565b81526020019060010190808311612e78575b50505050506143ea565b63ffffffff8516600090815260096020529091508190604090208190612ec16150b5565b5050505a612ecd61533d565b63ffffffff85166000908152600960205260409020600101600160401b81612ef3615014565b816001600160401b0302191690836001600160401b0316021790612f156150b5565b50505063ffffffff841660009081526009602052849060409020600101600160801b81612f40615014565b8163ffffffff021916908363ffffffff16021790612f5c6150b5565b50505083600760046101000a81612f71615014565b8163ffffffff021916908363ffffffff16021790612f8d6150b5565b5050508363ffffffff16817f0559884fd3a460db3073b7fc896cc77986f16e378210ded43186175bf646fc5f5a612fc261533d565b60405190815260200160405180910390a36001925090505b915091565b63ffffffff81166000908152600a60205260408120600101600c90613002615014565b906101000a90046001600160801b0316905061301c61523a565b600d604051604080820190529081600082613035615014565b6001600160801b036101009290920a9004168152602001601082613057615014565b6001600160801b036101009290920a90041690525090506130838282516001600160801b031690613a0f565b6001600160801b031681526130a68260208301516001600160801b03169061449f565b6001600160801b0316602082015280600d8151816001816130c5615014565b816001600160801b0302191690836001600160801b03160217906130e76150b5565b505050602082015181600160801b816130fe615014565b816001600160801b0302191690836001600160801b03160217906131206150b5565b50505090505061317a82600860005a61313761506f565b6001600160a01b03166001600160a01b03168152602001908152602001600020600090613162615014565b6001600160801b036101009290920a9004169061449f565b600860005a61318761506f565b6001600160a01b03166001600160a01b031681526020019081526020016000206001816131b2615014565b816001600160801b0302191690836001600160801b03160217906131d46150b5565b5082915050516001600160801b031660008051602061554283398151915260405160405180910390a2505050565b63ffffffff81166000908152600a60205260409020600101600090613225615014565b63ffffffff8381166000908152600a6020526101009390930a90910416906040902080613250615014565b9050101561325d57612c70565b63ffffffff81166000908152600a60205260409020600061327e8282615383565b6001828101908161328d615014565b9063ffffffff0219169061329f6150b5565b505060018201600160201b816132b3615014565b9063ffffffff021916906132c56150b5565b505060018201600160401b816132d9615014565b9063ffffffff021916906132eb6150b5565b505060018201600160601b816132ff615014565b906001600160801b0302191690610d146150b5565b6000806003613321615014565b6001600160a01b036101009290920a9004169050806133405750610b24565b600061335763ffffffff80861690600190613fed16565b63ffffffff8116600090815260096020529091506040812060010160109061337d615014565b63ffffffff848116600090815260096020526101009390930a909104169150604081206133a8615014565b9050836001600160a01b031663beed9b51620493e084848a8a6040516001600160e01b031960e088901b16815263ffffffff9485166004820152602481019390935292166044820152606481019190915260840160206040518083038160008880613411615103565b15801561342657600080613423614fa9565b50505b508761343061514f565b5050505050509350505050801561346b57506040513d602081101561345d5760008061345a614fa9565b50505b810190808051925060019150505b61347457613476565b505b505050505050565b6000612817600261349a61349061199b565b859060ff1661281d565b9061281d565b6134a9816144f8565b6134bb576000806134b8614fa9565b50505b6134e46001600060076134cc615014565b63ffffffff6101009290920a900481169190613e0916565b6001600160a01b0382166000908152600860205260409020600160a01b8161350a615014565b8163ffffffff021916908363ffffffff160217906135266150b5565b5050506000600c613543600161353a61199b565b60ff16906127c5565b8161354c615014565b811061355457fe5b90600052602060002001600090613569615014565b6001600160a01b03848116600090815260086020526101009390930a9091041691506040812060020160009061359d615014565b906101000a900461ffff1690508060086000846001600160a01b03166001600160a01b031681526020019081526020016000206002016001816135de615014565b8161ffff021916908361ffff160217906135f66150b5565b5050506001600160a01b038316600090815260086020526040902060020160018161361f615014565b9061ffff0219169061362f6150b5565b505081600c8261ffff1681613642615014565b811061364a57fe5b9060005260206000200160018161365f615014565b816001600160a01b0302191690836001600160a01b03160217906136816150b5565b505050600c8061368f615014565b8061369657fe5b600190038181906000526020600020016001816136b1615014565b906001600160a01b03021916906136c66150b5565b5050906136d16150b5565b50600090506001600160a01b0384166000805160206154a183398151915260405160405180910390a3505050565b60008282018381101561287f5760405162461bcd60e51b815260206004820152601b60248201526000805160206154c183398151915260448201526064016040518091039061287c614fa9565b613755826144f8565b1561376857600080613765614fa9565b50505b6001600160a01b03811661378457600080613781614fa9565b50505b6001600160a01b03821660009081526008602052604081206002016002906137aa615014565b906101000a90046001600160a01b03166001600160a01b0316148061381057506001600160a01b038281166000908152600860205290821690604090206002016002906137f5615014565b906101000a90046001600160a01b03166001600160a01b0316145b6138225760008061381f614fa9565b50505b61382b82614536565b6001600160a01b0383166000908152600860205260409020600160801b81613851615014565b8163ffffffff021916908363ffffffff1602179061386d6150b5565b5050506001600160a01b0382166000908152600860205263ffffffff9060409020600160a01b8161389c615014565b8163ffffffff021916908363ffffffff160217906138b86150b5565b505050600c806138c6615014565b6001600160a01b03841660009081526008602052909150604090206002016001816138ef615014565b8161ffff021916908361ffff160217906139076150b5565b505050600c82908060018161391a615014565b0180826139256150b5565b505060009283526000190191602091502001600181613942615014565b816001600160a01b0302191690836001600160a01b03160217906139646150b5565b5050506001600160a01b038216600090815260086020528190604090206002016201000081613991615014565b816001600160a01b0302191690836001600160a01b03160217906139b36150b5565b5060019150506001600160a01b0383166000805160206154a183398151915260405160405180910390a3806001600160a01b0316826001600160a01b031660008051602061546083398151915260405160405180910390a35050565b6000826001600160801b0316826001600160801b031611156128125760405162461bcd60e51b815260206004820152601e602482015260008051602061552283398151915260448201526064016040518091039061280f614fa9565b63ffffffff8116600090815260096020528060408120600101600090613a8f615014565b906101000a90046001600160401b03166001600160401b03161115613ad257613ab7826143b0565b8015613acb5750613ac88383612886565b51155b9050612817565b613ab783836145bf565b600080805260096020528080808080808080604081206001600160a01b038b16600090815260086020529091506040812090506000806007613b1c615014565b63ffffffff6101009290920a900416601883613b36615014565b906101000a900463ffffffff1663ffffffff161480613b735750613b7160006007613b5f615014565b906101000a900463ffffffff166143b0565b155b9050613b9660006007613b84615014565b906101000a900463ffffffff16614043565b8015613b9f5750805b15613bfe57613bb56001600060076134cc615014565b63ffffffff811660009081526009602052909a5060409020925060006004613bdb615014565b906101000a90046001600160801b03169350613bf78c8b6145bf565b9a50613c6e565b60006007613c0a615014565b63ffffffff6101009290920a90041660008181526009602052909a506040902063ffffffff8b166000908152600a60205290935060409020600101600c90613c50615014565b906101000a90046001600160801b03169350613c6b8a6143b0565b9a505b613c788c8b612886565b5115613c835760009a505b8a8a83600101613c91615014565b600060018701613c9f615014565b906101000a90046001600160401b0316600a60008f63ffffffff1663ffffffff168152602001908152602001600020600101600890613cdc615014565b63ffffffff6101009290920a9004166000600d613cf7615014565b906101000a90046001600160801b0316613d0f61199b565b8a8363ffffffff1693509a509a509a509a509a509a509a509a50505050919395975091939597565b63ffffffff8116600090815260096020528060408120600101600090613d5b615014565b906101000a90046001600160401b031690506000600a60008563ffffffff1663ffffffff168152602001908152602001600020600101600890613d9c615014565b906101000a900463ffffffff1690506000826001600160401b0316118015613dca575060008163ffffffff16115b8015613e0157505a613dda61533d565b613df66001600160401b03841663ffffffff8085169061462b16565b6001600160401b0316105b949350505050565b600082820163ffffffff808516908216101561287f5760405162461bcd60e51b815260206004820152601b60248201526000805160206154c183398151915260448201526064016040518091039061287c614fa9565b613e6881614090565b613e7157612c70565b6000600b60005a613e8061506f565b6001600160a01b03166001600160a01b03168152602001908152602001600020600590613eab615014565b906101000a900463ffffffff1663ffffffff169050600b60005a613ecd61506f565b6001600160a01b03166001600160a01b03168152602001908152602001600020600190613ef8615014565b906101000a900463ffffffff1663ffffffff1681018263ffffffff161180613f1e575080155b613f3057600080613f2d614fa9565b50505b613f39826140b7565b81600b60005a613f4761506f565b6001600160a01b03166001600160a01b03168152602001908152602001600020600160281b81612c54615014565b63ffffffff101590565b60008163ffffffff16613fa260018563ffffffff16613e0990919063ffffffff16565b63ffffffff1614801561287f575063ffffffff82166000908152600960205260409020600101600890613fd3615014565b6001600160401b036101009290920a900416159392505050565b60008263ffffffff168263ffffffff1611156128125760405162461bcd60e51b815260206004820152601e602482015260008051602061552283398151915260448201526064016040518091039061280f614fa9565b63ffffffff8116600090815260096020528060408120600101600890614067615014565b906101000a90046001600160401b03166001600160401b03161180612817575061281782613d37565b60006140a260018260076134cc615014565b63ffffffff168263ffffffff16149050919050565b6140d46140cf63ffffffff80841690600190613fed16565b614684565b8060076001816140e2615014565b8163ffffffff021916908363ffffffff160217906140fe6150b5565b5050506141096153af565b60405160a0810160405280600060405190808252806020026020018201604052801561413f578160200160208202803683370190505b50815260200160106004614151615014565b63ffffffff6101009290920a900416815260200160146004614171615014565b63ffffffff6101009290920a9004168152602001601c6004614191615014565b63ffffffff6101009290920a9004168152602001600060046141b1615014565b6001600160801b036101009290920a900416905263ffffffff83166000908152600a6020529091508190604090208151819080516141f39291602001906153dc565b50602082015160018083019081614208615014565b8163ffffffff021916908363ffffffff160217906142246150b5565b505050604082015160018201600160201b8161423e615014565b8163ffffffff021916908363ffffffff1602179061425a6150b5565b505050606082015160018201600160401b81614274615014565b8163ffffffff021916908363ffffffff160217906142906150b5565b505050608082015160018201600160601b816142aa615014565b816001600160801b0302191690836001600160801b03160217906142cc6150b5565b50505050505a6142da61533d565b63ffffffff8316600090815260096020526040902060010160006101000a81614301615014565b816001600160401b0302191690836001600160401b03160217906143236150b5565b5050505a61432f61506f565b63ffffffff8316600081815260096020526001600160a01b0392909216917f0109fc6f55cf40689f02fbaad7af7fe7bbac8a3d2186600afc7d3e10cac602719060409020600101600090614381615014565b906101000a90046001600160401b03166040516001600160401b03909116815260200160405180910390a35050565b63ffffffff81166000908152600a602052604081206001016000906143d3615014565b6101009190910a900463ffffffff16151592915050565b600081516000106144435760405162461bcd60e51b81526020600482015260166024820152756c697374206d757374206e6f7420626520656d70747960501b604482015260640160405180910390614440614fa9565b50505b60008251905060028104600182166144865760008061446c86600060018703600187038761486f565b909250905061447b8282614967565b945050505050611b20565b61449684600060018503846149d5565b92505050611b20565b60008282016001600160801b03808516908216101561287f5760405162461bcd60e51b815260206004820152601b60248201526000805160206154c183398151915260448201526064016040518091039061287c614fa9565b6001600160a01b0381166000908152600860205263ffffffff60408220601490614520615014565b63ffffffff6101009290920a9004161492915050565b600080806007614544615014565b63ffffffff6101009290920a9004169050801580159061459e57506001600160a01b0383166000908152600860205260409020601490614582615014565b906101000a900463ffffffff1663ffffffff168163ffffffff16145b156145aa579050611b20565b61287f63ffffffff80831690600190613e0916565b6001600160a01b038216600090815260086020528060408120601c906145e3615014565b63ffffffff6101009290920a900416905060186004614600615014565b906101000a900463ffffffff1663ffffffff1681018363ffffffff161180613e015750159392505050565b60008282016001600160401b03808516908216101561287f5760405162461bcd60e51b815260206004820152601b60248201526000805160206154c183398151915260448201526064016040518091039061287c614fa9565b61468d81613d37565b61469657612c70565b60006146ad63ffffffff80841690600190613fed16565b63ffffffff811660009081526009602052909150604090206146cd615014565b63ffffffff8316600090815260096020526040902081906146ec6150b5565b50505063ffffffff81166000908152600960205260409020600101601090614712615014565b63ffffffff848116600090815260096020526101009390930a909104169060409020600101600160801b81614745615014565b8163ffffffff021916908363ffffffff160217906147616150b5565b5050505a61476d61533d565b63ffffffff83166000908152600960205260409020600101600160401b81614793615014565b816001600160401b0302191690836001600160401b03160217906147b56150b5565b50505063ffffffff82166000908152600a6020526040902060006147d98282615383565b600182810190816147e8615014565b9063ffffffff021916906147fa6150b5565b505060018201600160201b8161480e615014565b9063ffffffff021916906148206150b5565b505060018201600160401b81614834615014565b9063ffffffff021916906148466150b5565b505060018201600160601b8161485a615014565b906001600160801b03021916906134766150b5565b60008082841061488757600080614884614fa9565b50505b8386111580156148975750848411155b6148a9576000806148a6614fa9565b50505b8286111580156148b95750848311155b6148cb576000806148c8614fa9565b50505b600786860310156148ec576148e38787878787614a77565b9150915061495d565b60006148f9888888614e65565b905080841161490a57809550614957565b8481101561491d57806001019650614957565b80851115801561492c57508381105b61493257fe5b61493e888883886149d5565b925061494f888260010188876149d5565b91505061495d565b506148cb565b9550959350505050565b600080831280156149785750600082135b8061498e575060008313801561498e5750600082125b156149ae57600261499f8484614f42565b816149a657fe5b059050612817565b6000600280850781850701059050613e016149cf6002860560028605614f42565b82614f42565b6000818411156149ed576000806149ea614fa9565b50505b82821115614a0357600080614a00614fa9565b50505b82841015614a5a5760078484031015614a2f576000614a258686868687614a77565b509150613e019050565b6000614a3c868686614e65565b9050808311614a4d57809350614a54565b8060010194505b50614a03565b848481518110614a6657fe5b602002602001015195945050505050565b60008085850360010181888881518110614a8d57fe5b60200260200101519050600082600110614aae576001600160ff1b03614ac6565b898960010181518110614abd57fe5b60200260200101515b9050600083600210614adf576001600160ff1b03614af7565b8a8a60020181518110614aee57fe5b60200260200101515b9050600084600310614b10576001600160ff1b03614b28565b8b8b60030181518110614b1f57fe5b60200260200101515b9050600085600410614b41576001600160ff1b03614b59565b8c8c60040181518110614b5057fe5b60200260200101515b9050600086600510614b72576001600160ff1b03614b8a565b8d8d60050181518110614b8157fe5b60200260200101515b9050600087600610614ba3576001600160ff1b03614bbb565b8e8e60060181518110614bb257fe5b60200260200101515b905085871315614bc9579495945b83851315614bd5579293925b81831315614be1579091905b84871315614bed579395935b83861315614bf9579294925b80831315614c0357915b84861315614c0f579394935b80821315614c1957905b82871315614c25579195915b81861315614c31579094905b80851315614c3b57935b82861315614c47579194915b80841315614c5157925b82851315614c5d579193915b81841315614c69579092905b82841315614c75579192915b8d8c0380614c8557879a50614d33565b8060011415614c9657869a50614d33565b8060021415614ca757859a50614d33565b8060031415614cb857849a50614d33565b8060041415614cc957839a50614d33565b8060051415614cda57829a50614d33565b8060061415614ceb57819a50614d33565b60405162461bcd60e51b815260206004820152601060248201526f6b31206f7574206f6620626f756e647360801b604482015260640160405180910390614d30614fa9565b50505b8e8c038d8d1415614d5157508a995061495d98505050505050505050565b80614d68575096985061495d975050505050505050565b8060011415614d83575095985061495d975050505050505050565b8060021415614d9e575094985061495d975050505050505050565b8060031415614db9575093985061495d975050505050505050565b8060041415614dd4575092985061495d975050505050505050565b8060051415614def575091985061495d975050505050505050565b8060061415614e0a575090985061495d975050505050505050565b60405162461bcd60e51b815260206004820152601060248201526f6b32206f7574206f6620626f756e647360801b604482015260640160405180910390614e4f614fa9565b5050505050505050505050509550959350505050565b6000808460028585010481518110614e7957fe5b602002602001015190506001840393506001830192505b60018401935080858581518110614ea357fe5b602002602001015112614e90575b60018303925080858481518110614ec457fe5b602002602001015113614eb15782841015614f3457848381518110614ee557fe5b6020026020010151858581518110614ef957fe5b6020026020010151868681518110614f0d57fe5b60200260200101878681518110614f2057fe5b602090810291909101019190915252614f3d565b8291505061287f565b614e90565b6000828201818312801590614f575750838112155b80614f6c5750600083128015614f6c57508381125b61287f5760405162461bcd60e51b8152600401808060200182810382526021815260200180615480602191396040019150506040518091039061287c5b632a2a7adb598160e01b8152600481016020815285602082015260005b86811015614fe1578086015182820160400152602001614fc6565b506020828760640184336000905af158601d01573d60011458600c01573d6000803e3d621234565260ea61109c52505050565b6303daa959598160e01b8152836004820152602081602483336000905af158601d01573d60011458600c01573d6000803e3d621234565260ea61109c528051935060005b6040811015610f3157600082820152602001615058565b6373509064598160e01b8152602081600483336000905af158601d01573d60011458600c01573d6000803e3d621234565260ea61109c5280516000825293506020615058565b6322bd64c0598160e01b8152836004820152846024820152600081604483336000905af158601d01573d60011458600c01573d6000803e3d621234565260ea61109c52600081526020615058565b638435035b598160e01b8152836004820152602081602483336000905af158601d01573d60011458600c01573d6000803e3d621234565260ea61109c5280516000825293506020615058565b6385979f76598160e01b8152615180565b8080831115612817575090919050565b8080831015612817575090919050565b836004820152846024820152606060448201528760648201526084810160005b898110156151b85780890151828201526020016151a0565b506060828a60a40184336000905af158601d01573d60011458600c01573d6000803e3d621234565260ea61109c52815160408301513d6000853e8c8c82606087013350600060045af1505961520d8e3d615170565b8d016152198187615160565b5b8281101561522e576000815260200161521a565b50929d50505050505050565b604051604080820190526000808252602082015290565b638540661f598160e01b8152836004820152846024820152606060448201528660648201526084810160005b8881101561529557808801518282015260200161527d565b506060828960a40184336000905af158601d01573d60011458600c01573d6000803e3d621234565260ea61109c52815160408301513d6000853e8b8b82606087013350600060045af150596152ea8d3d615170565b8c016152f68187615160565b5b8281101561530b57600081526020016152f7565b50929c50505050505050565b604051608081016040908152600080835260208301819052908201819052606082015290565b63bdbf8c36598160e01b8152602081600483336000905af158601d01573d60011458600c01573d6000803e3d621234565260ea61109c5280516000825293506020615058565b508061538d615014565b6000826153986150b5565b5050906000526020600020612c7091810190615440565b60405160a08101604090815260608083526000602084018190529183018290528201819052608082015290565b82806153e6615014565b82826153f06150b5565b5050906000526020600020908101928215615430579160200282015b828111156154305782518261541f6150b5565b50509160200191906001019061540c565b5061543c929150615440565b5090565b8082111561543c57600080826154546150b5565b50505060010161544056fe0c5055390645c15a4be9a21b3f8d019153dcb4a0c125685da6eb84048e2fe9045369676e6564536166654d6174683a206164646974696f6e206f766572666c6f7718dd09695e4fbdae8d1a5edb11221eb04564269c29a089b9753a6535c54ba92e536166654d6174683a206164646974696f6e206f766572666c6f770000000000536166654d6174683a206d756c7469706c69636174696f6e206f766572666c6f774f6e6c792063616c6c61626c65206279206f776e657200000000000000000000536166654d6174683a207375627472616374696f6e206f766572666c6f770000fe25c73e3b9089fac37d55c4c7efcba6f04af04cebd2fc4d6d7dbb07e1e5234f",
				"opcodes": "PUSH1 0x80 PUSH1 0x40 MSTORE CALLVALUE DUP1 ISZERO PUSH2 0x19 JUMPI PUSH1 0x0 DUP1 PUSH2 0x16 PUSH2 0x4FA9 JUMP JUMPDEST POP POP JUMPDEST POP PUSH1 0x4 CALLDATASIZE LT PUSH2 0x1EC JUMPI PUSH1 0x0 CALLDATALOAD PUSH1 0xE0 SHR DUP1 PUSH4 0x1327D3D8 EQ PUSH2 0x1FA JUMPI DUP1 PUSH4 0x202EE0ED EQ PUSH2 0x22B JUMPI DUP1 PUSH4 0x20ED0275 EQ PUSH2 0x257 JUMPI DUP1 PUSH4 0x23CA2903 EQ PUSH2 0x29A JUMPI DUP1 PUSH4 0x313CE567 EQ PUSH2 0x2B4 JUMPI DUP1 PUSH4 0x357EBB02 EQ PUSH2 0x2D2 JUMPI DUP1 PUSH4 0x38AA4C72 EQ PUSH2 0x2F3 JUMPI DUP1 PUSH4 0x3969C20F EQ PUSH2 0x346 JUMPI DUP1 PUSH4 0x3A5381B5 EQ PUSH2 0x4C6 JUMPI DUP1 PUSH4 0x3D3D7714 EQ PUSH2 0x4EA JUMPI DUP1 PUSH4 0x40884C52 EQ PUSH2 0x529 JUMPI DUP1 PUSH4 0x46FCFF4C EQ PUSH2 0x584 JUMPI DUP1 PUSH4 0x4F8FC3B5 EQ PUSH2 0x5A8 JUMPI DUP1 PUSH4 0x50D25BCD EQ PUSH2 0x5B0 JUMPI DUP1 PUSH4 0x54FD4D50 EQ PUSH2 0x5B8 JUMPI DUP1 PUSH4 0x57970E93 EQ PUSH2 0x5C0 JUMPI DUP1 PUSH4 0x58609E44 EQ PUSH2 0x5C8 JUMPI DUP1 PUSH4 0x613D8FCC EQ PUSH2 0x5D0 JUMPI DUP1 PUSH4 0x628806EF EQ PUSH2 0x5D8 JUMPI DUP1 PUSH4 0x64EFB22B EQ PUSH2 0x607 JUMPI DUP1 PUSH4 0x668A0F02 EQ PUSH2 0x636 JUMPI DUP1 PUSH4 0x70DEA79A EQ PUSH2 0x63E JUMPI DUP1 PUSH4 0x7284E416 EQ PUSH2 0x646 JUMPI DUP1 PUSH4 0x79BA5097 EQ PUSH2 0x6C5 JUMPI DUP1 PUSH4 0x7C2B0B21 EQ PUSH2 0x6CD JUMPI DUP1 PUSH4 0x8205BF6A EQ PUSH2 0x6D5 JUMPI DUP1 PUSH4 0x88AA80E7 EQ PUSH2 0x6DD JUMPI DUP1 PUSH4 0x8DA5CB5B EQ PUSH2 0x77E JUMPI DUP1 PUSH4 0x98E5B12A EQ PUSH2 0x786 JUMPI DUP1 PUSH4 0x9A6FC8F5 EQ PUSH2 0x7AA JUMPI DUP1 PUSH4 0xA4C0ED36 EQ PUSH2 0x81D JUMPI DUP1 PUSH4 0xB5AB58DC EQ PUSH2 0x8C4 JUMPI DUP1 PUSH4 0xB633620C EQ PUSH2 0x8EA JUMPI DUP1 PUSH4 0xC1075329 EQ PUSH2 0x910 JUMPI DUP1 PUSH4 0xC35905C6 EQ PUSH2 0x945 JUMPI DUP1 PUSH4 0xC9374500 EQ PUSH2 0x94D JUMPI DUP1 PUSH4 0xD4CC54E4 EQ PUSH2 0x955 JUMPI DUP1 PUSH4 0xE2E40317 EQ PUSH2 0x95D JUMPI DUP1 PUSH4 0xE9EE6EEB EQ PUSH2 0x98C JUMPI DUP1 PUSH4 0xF2FDE38B EQ PUSH2 0x9C3 JUMPI DUP1 PUSH4 0xFEAF968C EQ PUSH2 0x9F2 JUMPI JUMPDEST PUSH1 0x0 DUP1 PUSH2 0x1F7 PUSH2 0x4FA9 JUMP JUMPDEST POP POP JUMPDEST PUSH2 0x229 PUSH1 0x4 DUP1 CALLDATASIZE SUB PUSH1 0x20 DUP2 LT ISZERO PUSH2 0x219 JUMPI PUSH1 0x0 DUP1 PUSH2 0x216 PUSH2 0x4FA9 JUMP JUMPDEST POP POP JUMPDEST POP CALLDATALOAD PUSH1 0x1 PUSH1 0x1 PUSH1 0xA0 SHL SUB AND PUSH2 0x9FA JUMP JUMPDEST STOP JUMPDEST PUSH2 0x229 PUSH1 0x4 DUP1 CALLDATASIZE SUB PUSH1 0x40 DUP2 LT ISZERO PUSH2 0x24A JUMPI PUSH1 0x0 DUP1 PUSH2 0x247 PUSH2 0x4FA9 JUMP JUMPDEST POP POP JUMPDEST POP DUP1 CALLDATALOAD SWAP1 PUSH1 0x20 ADD CALLDATALOAD PUSH2 0xB28 JUMP JUMPDEST PUSH2 0x229 PUSH1 0x4 DUP1 CALLDATASIZE SUB PUSH1 0x60 DUP2 LT ISZERO PUSH2 0x276 JUMPI PUSH1 0x0 DUP1 PUSH2 0x273 PUSH2 0x4FA9 JUMP JUMPDEST POP POP JUMPDEST POP DUP1 CALLDATALOAD PUSH1 0x1 PUSH1 0x1 PUSH1 0xA0 SHL SUB AND SWAP1 PUSH1 0x20 DUP2 ADD CALLDATALOAD ISZERO ISZERO SWAP1 PUSH1 0x40 ADD CALLDATALOAD PUSH4 0xFFFFFFFF AND PUSH2 0xD1B JUMP JUMPDEST PUSH2 0x2A2 PUSH2 0xF36 JUMP JUMPDEST PUSH1 0x40 MLOAD SWAP1 DUP2 MSTORE PUSH1 0x20 ADD PUSH1 0x40 MLOAD DUP1 SWAP2 SUB SWAP1 RETURN JUMPDEST PUSH2 0x2BC PUSH2 0xF5A JUMP JUMPDEST PUSH1 0x40 MLOAD PUSH1 0xFF SWAP1 SWAP2 AND DUP2 MSTORE PUSH1 0x20 ADD PUSH1 0x40 MLOAD DUP1 SWAP2 SUB SWAP1 RETURN JUMPDEST PUSH2 0x2DA PUSH2 0xF73 JUMP JUMPDEST PUSH1 0x40 MLOAD PUSH4 0xFFFFFFFF SWAP1 SWAP2 AND DUP2 MSTORE PUSH1 0x20 ADD PUSH1 0x40 MLOAD DUP1 SWAP2 SUB SWAP1 RETURN JUMPDEST PUSH2 0x229 PUSH1 0x4 DUP1 CALLDATASIZE SUB PUSH1 0xA0 DUP2 LT ISZERO PUSH2 0x312 JUMPI PUSH1 0x0 DUP1 PUSH2 0x30F PUSH2 0x4FA9 JUMP JUMPDEST POP POP JUMPDEST POP PUSH1 0x1 PUSH1 0x1 PUSH1 0x80 SHL SUB DUP2 CALLDATALOAD AND SWAP1 PUSH4 0xFFFFFFFF PUSH1 0x20 DUP3 ADD CALLDATALOAD DUP2 AND SWAP2 PUSH1 0x40 DUP2 ADD CALLDATALOAD DUP3 AND SWAP2 PUSH1 0x60 DUP3 ADD CALLDATALOAD DUP2 AND SWAP2 PUSH1 0x80 ADD CALLDATALOAD AND PUSH2 0xF8F JUMP JUMPDEST PUSH2 0x229 PUSH1 0x4 DUP1 CALLDATASIZE SUB PUSH1 0xC0 DUP2 LT ISZERO PUSH2 0x365 JUMPI PUSH1 0x0 DUP1 PUSH2 0x362 PUSH2 0x4FA9 JUMP JUMPDEST POP POP JUMPDEST DUP2 ADD SWAP1 PUSH1 0x20 DUP2 ADD DUP2 CALLDATALOAD PUSH1 0x1 PUSH1 0x20 SHL DUP2 GT ISZERO PUSH2 0x388 JUMPI PUSH1 0x0 DUP1 PUSH2 0x385 PUSH2 0x4FA9 JUMP JUMPDEST POP POP JUMPDEST DUP3 ADD DUP4 PUSH1 0x20 DUP3 ADD GT ISZERO PUSH2 0x3A3 JUMPI PUSH1 0x0 DUP1 PUSH2 0x3A0 PUSH2 0x4FA9 JUMP JUMPDEST POP POP JUMPDEST DUP1 CALLDATALOAD SWAP1 PUSH1 0x20 ADD SWAP2 DUP5 PUSH1 0x20 DUP4 MUL DUP5 ADD GT PUSH1 0x1 PUSH1 0x20 SHL DUP4 GT OR ISZERO PUSH2 0x3CD JUMPI PUSH1 0x0 DUP1 PUSH2 0x3CA PUSH2 0x4FA9 JUMP JUMPDEST POP POP JUMPDEST SWAP2 SWAP4 SWAP1 SWAP3 SWAP1 SWAP2 PUSH1 0x20 DUP2 ADD SWAP1 CALLDATALOAD PUSH1 0x1 PUSH1 0x20 SHL DUP2 GT ISZERO PUSH2 0x3F3 JUMPI PUSH1 0x0 DUP1 PUSH2 0x3F0 PUSH2 0x4FA9 JUMP JUMPDEST POP POP JUMPDEST DUP3 ADD DUP4 PUSH1 0x20 DUP3 ADD GT ISZERO PUSH2 0x40E JUMPI PUSH1 0x0 DUP1 PUSH2 0x40B PUSH2 0x4FA9 JUMP JUMPDEST POP POP JUMPDEST DUP1 CALLDATALOAD SWAP1 PUSH1 0x20 ADD SWAP2 DUP5 PUSH1 0x20 DUP4 MUL DUP5 ADD GT PUSH1 0x1 PUSH1 0x20 SHL DUP4 GT OR ISZERO PUSH2 0x438 JUMPI PUSH1 0x0 DUP1 PUSH2 0x435 PUSH2 0x4FA9 JUMP JUMPDEST POP POP JUMPDEST SWAP2 SWAP4 SWAP1 SWAP3 SWAP1 SWAP2 PUSH1 0x20 DUP2 ADD SWAP1 CALLDATALOAD PUSH1 0x1 PUSH1 0x20 SHL DUP2 GT ISZERO PUSH2 0x45E JUMPI PUSH1 0x0 DUP1 PUSH2 0x45B PUSH2 0x4FA9 JUMP JUMPDEST POP POP JUMPDEST DUP3 ADD DUP4 PUSH1 0x20 DUP3 ADD GT ISZERO PUSH2 0x479 JUMPI PUSH1 0x0 DUP1 PUSH2 0x476 PUSH2 0x4FA9 JUMP JUMPDEST POP POP JUMPDEST DUP1 CALLDATALOAD SWAP1 PUSH1 0x20 ADD SWAP2 DUP5 PUSH1 0x20 DUP4 MUL DUP5 ADD GT PUSH1 0x1 PUSH1 0x20 SHL DUP4 GT OR ISZERO PUSH2 0x4A3 JUMPI PUSH1 0x0 DUP1 PUSH2 0x4A0 PUSH2 0x4FA9 JUMP JUMPDEST POP POP JUMPDEST SWAP2 SWAP4 POP SWAP2 POP PUSH4 0xFFFFFFFF DUP2 CALLDATALOAD DUP2 AND SWAP2 PUSH1 0x20 DUP2 ADD CALLDATALOAD DUP3 AND SWAP2 PUSH1 0x40 SWAP1 SWAP2 ADD CALLDATALOAD AND PUSH2 0x1280 JUMP JUMPDEST PUSH2 0x4CE PUSH2 0x1416 JUMP JUMPDEST PUSH1 0x40 MLOAD PUSH1 0x1 PUSH1 0x1 PUSH1 0xA0 SHL SUB SWAP1 SWAP2 AND DUP2 MSTORE PUSH1 0x20 ADD PUSH1 0x40 MLOAD DUP1 SWAP2 SUB SWAP1 RETURN JUMPDEST PUSH2 0x229 PUSH1 0x4 DUP1 CALLDATASIZE SUB PUSH1 0x60 DUP2 LT ISZERO PUSH2 0x509 JUMPI PUSH1 0x0 DUP1 PUSH2 0x506 PUSH2 0x4FA9 JUMP JUMPDEST POP POP JUMPDEST POP PUSH1 0x1 PUSH1 0x1 PUSH1 0xA0 SHL SUB DUP2 CALLDATALOAD DUP2 AND SWAP2 PUSH1 0x20 DUP2 ADD CALLDATALOAD SWAP1 SWAP2 AND SWAP1 PUSH1 0x40 ADD CALLDATALOAD PUSH2 0x1435 JUMP JUMPDEST PUSH2 0x531 PUSH2 0x1693 JUMP JUMPDEST PUSH1 0x40 MLOAD PUSH1 0x20 DUP1 DUP3 MSTORE DUP2 SWAP1 DUP2 ADD DUP4 DUP2 DUP2 MLOAD DUP2 MSTORE PUSH1 0x20 ADD SWAP2 POP DUP1 MLOAD SWAP1 PUSH1 0x20 ADD SWAP1 PUSH1 0x20 MUL DUP1 DUP4 DUP4 PUSH1 0x0 JUMPDEST DUP4 DUP2 LT ISZERO PUSH2 0x570 JUMPI DUP1 DUP3 ADD MLOAD DUP4 DUP3 ADD MSTORE PUSH1 0x20 ADD PUSH2 0x558 JUMP JUMPDEST POP POP POP POP SWAP1 POP ADD SWAP3 POP POP POP PUSH1 0x40 MLOAD DUP1 SWAP2 SUB SWAP1 RETURN JUMPDEST PUSH2 0x58C PUSH2 0x171A JUMP JUMPDEST PUSH1 0x40 MLOAD PUSH1 0x1 PUSH1 0x1 PUSH1 0x80 SHL SUB SWAP1 SWAP2 AND DUP2 MSTORE PUSH1 0x20 ADD PUSH1 0x40 MLOAD DUP1 SWAP2 SUB SWAP1 RETURN JUMPDEST PUSH2 0x229 PUSH2 0x173C JUMP JUMPDEST PUSH2 0x2A2 PUSH2 0x1939 JUMP JUMPDEST PUSH2 0x2A2 PUSH2 0x197E JUMP JUMPDEST PUSH2 0x4CE PUSH2 0x1983 JUMP JUMPDEST PUSH2 0x2DA PUSH2 0x198F JUMP JUMPDEST PUSH2 0x2BC PUSH2 0x199B JUMP JUMPDEST PUSH2 0x229 PUSH1 0x4 DUP1 CALLDATASIZE SUB PUSH1 0x20 DUP2 LT ISZERO PUSH2 0x5F7 JUMPI PUSH1 0x0 DUP1 PUSH2 0x5F4 PUSH2 0x4FA9 JUMP JUMPDEST POP POP JUMPDEST POP CALLDATALOAD PUSH1 0x1 PUSH1 0x1 PUSH1 0xA0 SHL SUB AND PUSH2 0x19AE JUMP JUMPDEST PUSH2 0x4CE PUSH1 0x4 DUP1 CALLDATASIZE SUB PUSH1 0x20 DUP2 LT ISZERO PUSH2 0x626 JUMPI PUSH1 0x0 DUP1 PUSH2 0x623 PUSH2 0x4FA9 JUMP JUMPDEST POP POP JUMPDEST POP CALLDATALOAD PUSH1 0x1 PUSH1 0x1 PUSH1 0xA0 SHL SUB AND PUSH2 0x1AE7 JUMP JUMPDEST PUSH2 0x2A2 PUSH2 0x1B25 JUMP JUMPDEST PUSH2 0x2DA PUSH2 0x1B4B JUMP JUMPDEST PUSH2 0x64E PUSH2 0x1B57 JUMP JUMPDEST PUSH1 0x40 MLOAD PUSH1 0x20 DUP1 DUP3 MSTORE DUP2 SWAP1 DUP2 ADD DUP4 DUP2 DUP2 MLOAD DUP2 MSTORE PUSH1 0x20 ADD SWAP2 POP DUP1 MLOAD SWAP1 PUSH1 0x20 ADD SWAP1 DUP1 DUP4 DUP4 PUSH1 0x0 JUMPDEST DUP4 DUP2 LT ISZERO PUSH2 0x68A JUMPI DUP1 DUP3 ADD MLOAD DUP4 DUP3 ADD MSTORE PUSH1 0x20 ADD PUSH2 0x672 JUMP JUMPDEST POP POP POP POP SWAP1 POP SWAP1 DUP2 ADD SWAP1 PUSH1 0x1F AND DUP1 ISZERO PUSH2 0x6B7 JUMPI DUP1 DUP3 SUB DUP1 MLOAD PUSH1 0x1 DUP4 PUSH1 0x20 SUB PUSH2 0x100 EXP SUB NOT AND DUP2 MSTORE PUSH1 0x20 ADD SWAP2 POP JUMPDEST POP SWAP3 POP POP POP PUSH1 0x40 MLOAD DUP1 SWAP2 SUB SWAP1 RETURN JUMPDEST PUSH2 0x229 PUSH2 0x1C10 JUMP JUMPDEST PUSH2 0x2A2 PUSH2 0x1D76 JUMP JUMPDEST PUSH2 0x2A2 PUSH2 0x1D9A JUMP JUMPDEST PUSH2 0x718 PUSH1 0x4 DUP1 CALLDATASIZE SUB PUSH1 0x40 DUP2 LT ISZERO PUSH2 0x6FC JUMPI PUSH1 0x0 DUP1 PUSH2 0x6F9 PUSH2 0x4FA9 JUMP JUMPDEST POP POP JUMPDEST POP DUP1 CALLDATALOAD PUSH1 0x1 PUSH1 0x1 PUSH1 0xA0 SHL SUB AND SWAP1 PUSH1 0x20 ADD CALLDATALOAD PUSH4 0xFFFFFFFF AND PUSH2 0x1DFE JUMP JUMPDEST PUSH1 0x40 MLOAD SWAP8 ISZERO ISZERO DUP9 MSTORE PUSH4 0xFFFFFFFF SWAP1 SWAP7 AND PUSH1 0x20 DUP9 ADD MSTORE PUSH1 0x40 DUP1 DUP9 ADD SWAP6 SWAP1 SWAP6 MSTORE PUSH1 0x1 PUSH1 0x1 PUSH1 0x40 SHL SUB SWAP4 DUP5 AND PUSH1 0x60 DUP9 ADD MSTORE SWAP2 SWAP1 SWAP3 AND PUSH1 0x80 DUP7 ADD MSTORE PUSH1 0x1 PUSH1 0x1 PUSH1 0x80 SHL SUB SWAP2 DUP3 AND PUSH1 0xA0 DUP7 ADD MSTORE PUSH1 0xFF AND PUSH1 0xC0 DUP6 ADD MSTORE SWAP2 SWAP1 SWAP2 AND PUSH1 0xE0 DUP4 ADD MSTORE PUSH2 0x100 SWAP1 SWAP2 ADD SWAP1 MLOAD DUP1 SWAP2 SUB SWAP1 RETURN JUMPDEST PUSH2 0x4CE PUSH2 0x1FAB JUMP JUMPDEST PUSH2 0x78E PUSH2 0x1FB6 JUMP JUMPDEST PUSH1 0x40 MLOAD PUSH1 0x1 PUSH1 0x1 PUSH1 0x50 SHL SUB SWAP1 SWAP2 AND DUP2 MSTORE PUSH1 0x20 ADD PUSH1 0x40 MLOAD DUP1 SWAP2 SUB SWAP1 RETURN JUMPDEST PUSH2 0x7D9 PUSH1 0x4 DUP1 CALLDATASIZE SUB PUSH1 0x20 DUP2 LT ISZERO PUSH2 0x7C9 JUMPI PUSH1 0x0 DUP1 PUSH2 0x7C6 PUSH2 0x4FA9 JUMP JUMPDEST POP POP JUMPDEST POP CALLDATALOAD PUSH1 0x1 PUSH1 0x1 PUSH1 0x50 SHL SUB AND PUSH2 0x20B0 JUMP JUMPDEST PUSH1 0x40 MLOAD DUP1 DUP7 PUSH1 0x1 PUSH1 0x1 PUSH1 0x50 SHL SUB AND DUP2 MSTORE PUSH1 0x20 ADD DUP6 DUP2 MSTORE PUSH1 0x20 ADD DUP5 DUP2 MSTORE PUSH1 0x20 ADD DUP4 DUP2 MSTORE PUSH1 0x20 ADD DUP3 PUSH1 0x1 PUSH1 0x1 PUSH1 0x50 SHL SUB AND DUP2 MSTORE PUSH1 0x20 ADD SWAP6 POP POP POP POP POP POP PUSH1 0x40 MLOAD DUP1 SWAP2 SUB SWAP1 RETURN JUMPDEST PUSH2 0x229 PUSH1 0x4 DUP1 CALLDATASIZE SUB PUSH1 0x60 DUP2 LT ISZERO PUSH2 0x83C JUMPI PUSH1 0x0 DUP1 PUSH2 0x839 PUSH2 0x4FA9 JUMP JUMPDEST POP POP JUMPDEST PUSH1 0x1 PUSH1 0x1 PUSH1 0xA0 SHL SUB DUP3 CALLDATALOAD AND SWAP2 PUSH1 0x20 DUP2 ADD CALLDATALOAD SWAP2 DUP2 ADD SWAP1 PUSH1 0x60 DUP2 ADD PUSH1 0x40 DUP3 ADD CALLDATALOAD PUSH1 0x1 PUSH1 0x20 SHL DUP2 GT ISZERO PUSH2 0x874 JUMPI PUSH1 0x0 DUP1 PUSH2 0x871 PUSH2 0x4FA9 JUMP JUMPDEST POP POP JUMPDEST DUP3 ADD DUP4 PUSH1 0x20 DUP3 ADD GT ISZERO PUSH2 0x88F JUMPI PUSH1 0x0 DUP1 PUSH2 0x88C PUSH2 0x4FA9 JUMP JUMPDEST POP POP JUMPDEST DUP1 CALLDATALOAD SWAP1 PUSH1 0x20 ADD SWAP2 DUP5 PUSH1 0x1 DUP4 MUL DUP5 ADD GT PUSH1 0x1 PUSH1 0x20 SHL DUP4 GT OR ISZERO PUSH2 0x8B9 JUMPI PUSH1 0x0 DUP1 PUSH2 0x8B6 PUSH2 0x4FA9 JUMP JUMPDEST POP POP JUMPDEST POP SWAP1 SWAP3 POP SWAP1 POP PUSH2 0x2272 JUMP JUMPDEST PUSH2 0x2A2 PUSH1 0x4 DUP1 CALLDATASIZE SUB PUSH1 0x20 DUP2 LT ISZERO PUSH2 0x8E3 JUMPI PUSH1 0x0 DUP1 PUSH2 0x8E0 PUSH2 0x4FA9 JUMP JUMPDEST POP POP JUMPDEST POP CALLDATALOAD PUSH2 0x2294 JUMP JUMPDEST PUSH2 0x2A2 PUSH1 0x4 DUP1 CALLDATASIZE SUB PUSH1 0x20 DUP2 LT ISZERO PUSH2 0x909 JUMPI PUSH1 0x0 DUP1 PUSH2 0x906 PUSH2 0x4FA9 JUMP JUMPDEST POP POP JUMPDEST POP CALLDATALOAD PUSH2 0x22D0 JUMP JUMPDEST PUSH2 0x229 PUSH1 0x4 DUP1 CALLDATASIZE SUB PUSH1 0x40 DUP2 LT ISZERO PUSH2 0x92F JUMPI PUSH1 0x0 DUP1 PUSH2 0x92C PUSH2 0x4FA9 JUMP JUMPDEST POP POP JUMPDEST POP PUSH1 0x1 PUSH1 0x1 PUSH1 0xA0 SHL SUB DUP2 CALLDATALOAD AND SWAP1 PUSH1 0x20 ADD CALLDATALOAD PUSH2 0x2323 JUMP JUMPDEST PUSH2 0x58C PUSH2 0x24FE JUMP JUMPDEST PUSH2 0x2DA PUSH2 0x251D JUMP JUMPDEST PUSH2 0x58C PUSH2 0x2529 JUMP JUMPDEST PUSH2 0x2A2 PUSH1 0x4 DUP1 CALLDATASIZE SUB PUSH1 0x20 DUP2 LT ISZERO PUSH2 0x97C JUMPI PUSH1 0x0 DUP1 PUSH2 0x979 PUSH2 0x4FA9 JUMP JUMPDEST POP POP JUMPDEST POP CALLDATALOAD PUSH1 0x1 PUSH1 0x1 PUSH1 0xA0 SHL SUB AND PUSH2 0x2537 JUMP JUMPDEST PUSH2 0x229 PUSH1 0x4 DUP1 CALLDATASIZE SUB PUSH1 0x40 DUP2 LT ISZERO PUSH2 0x9AB JUMPI PUSH1 0x0 DUP1 PUSH2 0x9A8 PUSH2 0x4FA9 JUMP JUMPDEST POP POP JUMPDEST POP PUSH1 0x1 PUSH1 0x1 PUSH1 0xA0 SHL SUB DUP2 CALLDATALOAD DUP2 AND SWAP2 PUSH1 0x20 ADD CALLDATALOAD AND PUSH2 0x2572 JUMP JUMPDEST PUSH2 0x229 PUSH1 0x4 DUP1 CALLDATASIZE SUB PUSH1 0x20 DUP2 LT ISZERO PUSH2 0x9E2 JUMPI PUSH1 0x0 DUP1 PUSH2 0x9DF PUSH2 0x4FA9 JUMP JUMPDEST POP POP JUMPDEST POP CALLDATALOAD PUSH1 0x1 PUSH1 0x1 PUSH1 0xA0 SHL SUB AND PUSH2 0x267A JUMP JUMPDEST PUSH2 0x7D9 PUSH2 0x2787 JUMP JUMPDEST PUSH1 0x0 DUP1 PUSH2 0xA05 PUSH2 0x5014 JUMP JUMPDEST SWAP1 PUSH2 0x100 EXP SWAP1 DIV PUSH1 0x1 PUSH1 0x1 PUSH1 0xA0 SHL SUB AND PUSH1 0x1 PUSH1 0x1 PUSH1 0xA0 SHL SUB AND GAS PUSH2 0xA27 PUSH2 0x506F JUMP JUMPDEST PUSH1 0x1 PUSH1 0x1 PUSH1 0xA0 SHL SUB AND EQ PUSH2 0xA78 JUMPI PUSH1 0x40 MLOAD PUSH3 0x461BCD PUSH1 0xE5 SHL DUP2 MSTORE PUSH1 0x20 PUSH1 0x4 DUP3 ADD MSTORE PUSH1 0x16 PUSH1 0x24 DUP3 ADD MSTORE PUSH1 0x0 DUP1 MLOAD PUSH1 0x20 PUSH2 0x5502 DUP4 CODECOPY DUP2 MLOAD SWAP2 MSTORE PUSH1 0x44 DUP3 ADD MSTORE PUSH1 0x64 ADD PUSH1 0x40 MLOAD DUP1 SWAP2 SUB SWAP1 PUSH2 0xA75 PUSH2 0x4FA9 JUMP JUMPDEST POP POP JUMPDEST PUSH1 0x0 DUP1 PUSH1 0x3 PUSH2 0xA85 PUSH2 0x5014 JUMP JUMPDEST SWAP1 PUSH2 0x100 EXP SWAP1 DIV PUSH1 0x1 PUSH1 0x1 PUSH1 0xA0 SHL SUB AND SWAP1 POP DUP2 PUSH1 0x1 PUSH1 0x1 PUSH1 0xA0 SHL SUB AND DUP2 PUSH1 0x1 PUSH1 0x1 PUSH1 0xA0 SHL SUB AND EQ PUSH2 0xB24 JUMPI DUP2 PUSH1 0x3 PUSH1 0x1 DUP2 PUSH2 0xABE PUSH2 0x5014 JUMP JUMPDEST DUP2 PUSH1 0x1 PUSH1 0x1 PUSH1 0xA0 SHL SUB MUL NOT AND SWAP1 DUP4 PUSH1 0x1 PUSH1 0x1 PUSH1 0xA0 SHL SUB AND MUL OR SWAP1 PUSH2 0xAE0 PUSH2 0x50B5 JUMP JUMPDEST POP POP POP DUP2 PUSH1 0x1 PUSH1 0x1 PUSH1 0xA0 SHL SUB AND DUP2 PUSH1 0x1 PUSH1 0x1 PUSH1 0xA0 SHL SUB AND PUSH32 0xCFAC5DC75B8D9A7E074162F59D9ADCD33DA59F0FE8DFB21580DB298FC0FDAD0D PUSH1 0x40 MLOAD PUSH1 0x40 MLOAD DUP1 SWAP2 SUB SWAP1 LOG3 JUMPDEST POP POP JUMP JUMPDEST PUSH32 0x0 DUP2 SLT ISZERO PUSH2 0xBA5 JUMPI PUSH1 0x40 MLOAD PUSH3 0x461BCD PUSH1 0xE5 SHL DUP2 MSTORE PUSH1 0x20 PUSH1 0x4 DUP3 ADD MSTORE PUSH1 0x1E PUSH1 0x24 DUP3 ADD MSTORE PUSH32 0x76616C75652062656C6F77206D696E5375626D697373696F6E56616C75650000 PUSH1 0x44 DUP3 ADD MSTORE PUSH1 0x64 ADD PUSH1 0x40 MLOAD DUP1 SWAP2 SUB SWAP1 PUSH2 0xBA2 PUSH2 0x4FA9 JUMP JUMPDEST POP POP JUMPDEST PUSH32 0x0 DUP2 SGT ISZERO PUSH2 0xC22 JUMPI PUSH1 0x40 MLOAD PUSH3 0x461BCD PUSH1 0xE5 SHL DUP2 MSTORE PUSH1 0x20 PUSH1 0x4 DUP3 ADD MSTORE PUSH1 0x1E PUSH1 0x24 DUP3 ADD MSTORE PUSH32 0x76616C75652061626F7665206D61785375626D697373696F6E56616C75650000 PUSH1 0x44 DUP3 ADD MSTORE PUSH1 0x64 ADD PUSH1 0x40 MLOAD DUP1 SWAP2 SUB SWAP1 PUSH2 0xC1F PUSH2 0x4FA9 JUMP JUMPDEST POP POP JUMPDEST PUSH1 0x60 PUSH2 0xC36 GAS PUSH2 0xC30 PUSH2 0x506F JUMP JUMPDEST DUP5 PUSH2 0x2886 JUMP JUMPDEST SWAP1 POP DUP1 MLOAD DUP2 SWAP1 ISZERO PUSH2 0xCCE JUMPI PUSH1 0x40 MLOAD PUSH3 0x461BCD PUSH1 0xE5 SHL DUP2 MSTORE PUSH1 0x4 ADD DUP1 DUP1 PUSH1 0x20 ADD DUP3 DUP2 SUB DUP3 MSTORE DUP4 DUP2 DUP2 MLOAD DUP2 MSTORE PUSH1 0x20 ADD SWAP2 POP DUP1 MLOAD SWAP1 PUSH1 0x20 ADD SWAP1 DUP1 DUP4 DUP4 PUSH1 0x0 JUMPDEST DUP4 DUP2 LT ISZERO PUSH2 0xC8A JUMPI DUP1 DUP3 ADD MLOAD DUP4 DUP3 ADD MSTORE PUSH1 0x20 ADD PUSH2 0xC72 JUMP JUMPDEST POP POP POP POP SWAP1 POP SWAP1 DUP2 ADD SWAP1 PUSH1 0x1F AND DUP1 ISZERO PUSH2 0xCB7 JUMPI DUP1 DUP3 SUB DUP1 MLOAD PUSH1 0x1 DUP4 PUSH1 0x20 SUB PUSH2 0x100 EXP SUB NOT AND DUP2 MSTORE PUSH1 0x20 ADD SWAP2 POP JUMPDEST POP SWAP3 POP POP POP PUSH1 0x40 MLOAD DUP1 SWAP2 SUB SWAP1 PUSH2 0xCCB PUSH2 0x4FA9 JUMP JUMPDEST POP POP JUMPDEST POP PUSH2 0xCD8 DUP4 PUSH2 0x2B72 JUMP JUMPDEST PUSH2 0xCE2 DUP3 DUP5 PUSH2 0x2C73 JUMP JUMPDEST PUSH1 0x0 DUP1 PUSH2 0xCEE DUP6 PUSH2 0x2DBB JUMP JUMPDEST SWAP2 POP SWAP2 POP PUSH2 0xCFB DUP6 PUSH2 0x2FDF JUMP JUMPDEST PUSH2 0xD04 DUP6 PUSH2 0x3202 JUMP JUMPDEST DUP2 ISZERO PUSH2 0xD14 JUMPI PUSH2 0xD14 DUP6 DUP3 PUSH2 0x3314 JUMP JUMPDEST POP POP POP POP POP JUMP JUMPDEST PUSH1 0x0 DUP1 PUSH2 0xD26 PUSH2 0x5014 JUMP JUMPDEST SWAP1 PUSH2 0x100 EXP SWAP1 DIV PUSH1 0x1 PUSH1 0x1 PUSH1 0xA0 SHL SUB AND PUSH1 0x1 PUSH1 0x1 PUSH1 0xA0 SHL SUB AND GAS PUSH2 0xD48 PUSH2 0x506F JUMP JUMPDEST PUSH1 0x1 PUSH1 0x1 PUSH1 0xA0 SHL SUB AND EQ PUSH2 0xD99 JUMPI PUSH1 0x40 MLOAD PUSH3 0x461BCD PUSH1 0xE5 SHL DUP2 MSTORE PUSH1 0x20 PUSH1 0x4 DUP3 ADD MSTORE PUSH1 0x16 PUSH1 0x24 DUP3 ADD MSTORE PUSH1 0x0 DUP1 MLOAD PUSH1 0x20 PUSH2 0x5502 DUP4 CODECOPY DUP2 MLOAD SWAP2 MSTORE PUSH1 0x44 DUP3 ADD MSTORE PUSH1 0x64 ADD PUSH1 0x40 MLOAD DUP1 SWAP2 SUB SWAP1 PUSH2 0xD96 PUSH2 0x4FA9 JUMP JUMPDEST POP POP JUMPDEST PUSH1 0x1 PUSH1 0x1 PUSH1 0xA0 SHL SUB DUP4 AND PUSH1 0x0 SWAP1 DUP2 MSTORE PUSH1 0xB PUSH1 0x20 MSTORE DUP3 ISZERO ISZERO SWAP1 PUSH1 0x40 SWAP1 KECCAK256 PUSH1 0x0 SWAP1 PUSH2 0xDC0 PUSH2 0x5014 JUMP JUMPDEST SWAP1 PUSH2 0x100 EXP SWAP1 DIV PUSH1 0xFF AND ISZERO ISZERO EQ ISZERO PUSH2 0xDD7 JUMPI PUSH2 0xF31 JUMP JUMPDEST DUP2 ISZERO PUSH2 0xE64 JUMPI PUSH1 0x1 PUSH1 0x1 PUSH1 0xA0 SHL SUB DUP4 AND PUSH1 0x0 SWAP1 DUP2 MSTORE PUSH1 0xB PUSH1 0x20 MSTORE DUP3 SWAP1 PUSH1 0x40 SWAP1 KECCAK256 PUSH1 0x1 DUP2 PUSH2 0xE02 PUSH2 0x5014 JUMP JUMPDEST DUP2 PUSH1 0xFF MUL NOT AND SWAP1 DUP4 ISZERO ISZERO MUL OR SWAP1 PUSH2 0xE17 PUSH2 0x50B5 JUMP JUMPDEST POP POP POP PUSH1 0x1 PUSH1 0x1 PUSH1 0xA0 SHL SUB DUP4 AND PUSH1 0x0 SWAP1 DUP2 MSTORE PUSH1 0xB PUSH1 0x20 MSTORE DUP2 SWAP1 PUSH1 0x40 SWAP1 KECCAK256 PUSH2 0x100 DUP2 PUSH2 0xE40 PUSH2 0x5014 JUMP JUMPDEST DUP2 PUSH4 0xFFFFFFFF MUL NOT AND SWAP1 DUP4 PUSH4 0xFFFFFFFF AND MUL OR SWAP1 PUSH2 0xE5C PUSH2 0x50B5 JUMP JUMPDEST POP POP POP PUSH2 0xEE4 JUMP JUMPDEST PUSH1 0x1 PUSH1 0x1 PUSH1 0xA0 SHL SUB DUP4 AND PUSH1 0x0 SWAP1 DUP2 MSTORE PUSH1 0xB PUSH1 0x20 MSTORE PUSH1 0x40 SWAP1 KECCAK256 PUSH1 0x0 DUP2 PUSH1 0x1 DUP2 PUSH2 0xE8A PUSH2 0x5014 JUMP JUMPDEST SWAP1 PUSH1 0xFF MUL NOT AND SWAP1 PUSH2 0xE99 PUSH2 0x50B5 JUMP JUMPDEST POP DUP3 SWAP1 POP PUSH2 0x100 DUP2 PUSH2 0xEA9 PUSH2 0x5014 JUMP JUMPDEST SWAP1 PUSH4 0xFFFFFFFF MUL NOT AND SWAP1 PUSH2 0xEBB PUSH2 0x50B5 JUMP JUMPDEST POP DUP3 SWAP1 POP PUSH1 0x1 PUSH1 0x28 SHL DUP2 PUSH2 0xECD PUSH2 0x5014 JUMP JUMPDEST SWAP1 PUSH4 0xFFFFFFFF MUL NOT AND SWAP1 PUSH2 0xEDF PUSH2 0x50B5 JUMP JUMPDEST POP POP POP POP JUMPDEST DUP3 PUSH1 0x1 PUSH1 0x1 PUSH1 0xA0 SHL SUB AND PUSH32 0xC3DF5A754E002718F2E10804B99E6605E7C701D95CEC9552C7680CA2B6F2820A DUP4 DUP4 PUSH1 0x40 MLOAD SWAP2 ISZERO ISZERO DUP3 MSTORE PUSH4 0xFFFFFFFF AND PUSH1 0x20 DUP3 ADD MSTORE PUSH1 0x40 SWAP1 DUP2 ADD SWAP1 MLOAD DUP1 SWAP2 SUB SWAP1 LOG2 JUMPDEST POP POP POP JUMP JUMPDEST PUSH32 0x0 DUP2 JUMP JUMPDEST PUSH1 0x0 PUSH1 0x5 PUSH2 0xF66 PUSH2 0x5014 JUMP JUMPDEST SWAP1 PUSH2 0x100 EXP SWAP1 DIV PUSH1 0xFF AND DUP2 JUMP JUMPDEST PUSH1 0x18 PUSH1 0x4 PUSH2 0xF7F PUSH2 0x5014 JUMP JUMPDEST SWAP1 PUSH2 0x100 EXP SWAP1 DIV PUSH4 0xFFFFFFFF AND DUP2 JUMP JUMPDEST PUSH1 0x0 DUP1 PUSH2 0xF9A PUSH2 0x5014 JUMP JUMPDEST SWAP1 PUSH2 0x100 EXP SWAP1 DIV PUSH1 0x1 PUSH1 0x1 PUSH1 0xA0 SHL SUB AND PUSH1 0x1 PUSH1 0x1 PUSH1 0xA0 SHL SUB AND GAS PUSH2 0xFBC PUSH2 0x506F JUMP JUMPDEST PUSH1 0x1 PUSH1 0x1 PUSH1 0xA0 SHL SUB AND EQ PUSH2 0x100D JUMPI PUSH1 0x40 MLOAD PUSH3 0x461BCD PUSH1 0xE5 SHL DUP2 MSTORE PUSH1 0x20 PUSH1 0x4 DUP3 ADD MSTORE PUSH1 0x16 PUSH1 0x24 DUP3 ADD MSTORE PUSH1 0x0 DUP1 MLOAD PUSH1 0x20 PUSH2 0x5502 DUP4 CODECOPY DUP2 MLOAD SWAP2 MSTORE PUSH1 0x44 DUP3 ADD MSTORE PUSH1 0x64 ADD PUSH1 0x40 MLOAD DUP1 SWAP2 SUB SWAP1 PUSH2 0x100A PUSH2 0x4FA9 JUMP JUMPDEST POP POP JUMPDEST PUSH1 0x0 PUSH2 0x1017 PUSH2 0x199B JUMP JUMPDEST PUSH1 0xFF AND SWAP1 POP DUP5 PUSH4 0xFFFFFFFF AND DUP5 PUSH4 0xFFFFFFFF AND LT ISZERO PUSH2 0x103E JUMPI PUSH1 0x0 DUP1 PUSH2 0x103B PUSH2 0x4FA9 JUMP JUMPDEST POP POP JUMPDEST DUP4 PUSH4 0xFFFFFFFF AND DUP2 PUSH4 0xFFFFFFFF AND LT ISZERO PUSH2 0x1060 JUMPI PUSH1 0x0 DUP1 PUSH2 0x105D PUSH2 0x4FA9 JUMP JUMPDEST POP POP JUMPDEST PUSH4 0xFFFFFFFF DUP2 AND ISZERO DUP1 PUSH2 0x107E JUMPI POP DUP3 PUSH4 0xFFFFFFFF AND DUP2 PUSH4 0xFFFFFFFF AND GT JUMPDEST PUSH2 0x1090 JUMPI PUSH1 0x0 DUP1 PUSH2 0x108D PUSH2 0x4FA9 JUMP JUMPDEST POP POP JUMPDEST PUSH2 0x10A2 DUP7 PUSH1 0x1 PUSH1 0x1 PUSH1 0x80 SHL SUB AND PUSH2 0x347E JUMP JUMPDEST PUSH1 0x0 PUSH1 0xD PUSH2 0x10AE PUSH2 0x5014 JUMP JUMPDEST SWAP1 PUSH2 0x100 EXP SWAP1 DIV PUSH1 0x1 PUSH1 0x1 PUSH1 0x80 SHL SUB AND PUSH1 0x1 PUSH1 0x1 PUSH1 0x80 SHL SUB AND LT ISZERO PUSH2 0x10DB JUMPI PUSH1 0x0 DUP1 PUSH2 0x10D8 PUSH2 0x4FA9 JUMP JUMPDEST POP POP JUMPDEST PUSH1 0x0 PUSH2 0x10E5 PUSH2 0x199B JUMP JUMPDEST PUSH1 0xFF AND GT ISZERO PUSH2 0x110A JUMPI PUSH1 0x0 DUP6 PUSH4 0xFFFFFFFF AND GT PUSH2 0x110A JUMPI PUSH1 0x0 DUP1 PUSH2 0x1107 PUSH2 0x4FA9 JUMP JUMPDEST POP POP JUMPDEST DUP6 PUSH1 0x4 PUSH1 0x1 DUP2 PUSH2 0x1118 PUSH2 0x5014 JUMP JUMPDEST DUP2 PUSH1 0x1 PUSH1 0x1 PUSH1 0x80 SHL SUB MUL NOT AND SWAP1 DUP4 PUSH1 0x1 PUSH1 0x1 PUSH1 0x80 SHL SUB AND MUL OR SWAP1 PUSH2 0x113A PUSH2 0x50B5 JUMP JUMPDEST POP POP POP DUP5 PUSH1 0x4 PUSH1 0x14 PUSH2 0x100 EXP DUP2 PUSH2 0x114F PUSH2 0x5014 JUMP JUMPDEST DUP2 PUSH4 0xFFFFFFFF MUL NOT AND SWAP1 DUP4 PUSH4 0xFFFFFFFF AND MUL OR SWAP1 PUSH2 0x116B PUSH2 0x50B5 JUMP JUMPDEST POP POP POP DUP4 PUSH1 0x4 PUSH1 0x10 PUSH2 0x100 EXP DUP2 PUSH2 0x1180 PUSH2 0x5014 JUMP JUMPDEST DUP2 PUSH4 0xFFFFFFFF MUL NOT AND SWAP1 DUP4 PUSH4 0xFFFFFFFF AND MUL OR SWAP1 PUSH2 0x119C PUSH2 0x50B5 JUMP JUMPDEST POP POP POP DUP3 PUSH1 0x4 PUSH1 0x18 PUSH2 0x100 EXP DUP2 PUSH2 0x11B1 PUSH2 0x5014 JUMP JUMPDEST DUP2 PUSH4 0xFFFFFFFF MUL NOT AND SWAP1 DUP4 PUSH4 0xFFFFFFFF AND MUL OR SWAP1 PUSH2 0x11CD PUSH2 0x50B5 JUMP JUMPDEST POP POP POP DUP2 PUSH1 0x4 PUSH1 0x1C PUSH2 0x100 EXP DUP2 PUSH2 0x11E2 PUSH2 0x5014 JUMP JUMPDEST DUP2 PUSH4 0xFFFFFFFF MUL NOT AND SWAP1 DUP4 PUSH4 0xFFFFFFFF AND MUL OR SWAP1 PUSH2 0x11FE PUSH2 0x50B5 JUMP JUMPDEST POP POP POP DUP4 PUSH4 0xFFFFFFFF AND DUP6 PUSH4 0xFFFFFFFF AND PUSH1 0x4 PUSH1 0x0 SWAP1 PUSH2 0x121C PUSH2 0x5014 JUMP JUMPDEST SWAP1 PUSH2 0x100 EXP SWAP1 DIV PUSH1 0x1 PUSH1 0x1 PUSH1 0x80 SHL SUB AND PUSH1 0x1 PUSH1 0x1 PUSH1 0x80 SHL SUB AND PUSH32 0x56800C9D1ED723511246614D15E58CFCDE15B6A33C245B5C961B689C1890FD8F DUP7 DUP7 PUSH1 0x40 MLOAD PUSH4 0xFFFFFFFF SWAP3 DUP4 AND DUP2 MSTORE SWAP2 AND PUSH1 0x20 DUP3 ADD MSTORE PUSH1 0x40 SWAP1 DUP2 ADD SWAP1 MLOAD DUP1 SWAP2 SUB SWAP1 LOG4 POP POP POP POP POP POP JUMP JUMPDEST PUSH1 0x0 DUP1 PUSH2 0x128B PUSH2 0x5014 JUMP JUMPDEST SWAP1 PUSH2 0x100 EXP SWAP1 DIV PUSH1 0x1 PUSH1 0x1 PUSH1 0xA0 SHL SUB AND PUSH1 0x1 PUSH1 0x1 PUSH1 0xA0 SHL SUB AND GAS PUSH2 0x12AD PUSH2 0x506F JUMP JUMPDEST PUSH1 0x1 PUSH1 0x1 PUSH1 0xA0 SHL SUB AND EQ PUSH2 0x12FE JUMPI PUSH1 0x40 MLOAD PUSH3 0x461BCD PUSH1 0xE5 SHL DUP2 MSTORE PUSH1 0x20 PUSH1 0x4 DUP3 ADD MSTORE PUSH1 0x16 PUSH1 0x24 DUP3 ADD MSTORE PUSH1 0x0 DUP1 MLOAD PUSH1 0x20 PUSH2 0x5502 DUP4 CODECOPY DUP2 MLOAD SWAP2 MSTORE PUSH1 0x44 DUP3 ADD MSTORE PUSH1 0x64 ADD PUSH1 0x40 MLOAD DUP1 SWAP2 SUB SWAP1 PUSH2 0x12FB PUSH2 0x4FA9 JUMP JUMPDEST POP POP JUMPDEST PUSH1 0x0 JUMPDEST DUP9 DUP2 LT ISZERO PUSH2 0x1335 JUMPI PUSH2 0x132D DUP11 DUP11 DUP4 DUP2 DUP2 LT PUSH2 0x1318 JUMPI INVALID JUMPDEST SWAP1 POP PUSH1 0x20 MUL ADD CALLDATALOAD PUSH1 0x1 PUSH1 0x1 PUSH1 0xA0 SHL SUB AND PUSH2 0x34A0 JUMP JUMPDEST PUSH1 0x1 ADD PUSH2 0x1301 JUMP JUMPDEST POP DUP6 DUP5 EQ PUSH2 0x134B JUMPI PUSH1 0x0 DUP1 PUSH2 0x1348 PUSH2 0x4FA9 JUMP JUMPDEST POP POP JUMPDEST PUSH1 0x4D PUSH2 0x1362 DUP8 PUSH2 0x1359 PUSH2 0x199B JUMP JUMPDEST PUSH1 0xFF AND SWAP1 PUSH2 0x36FF JUMP JUMPDEST GT ISZERO PUSH2 0x1376 JUMPI PUSH1 0x0 DUP1 PUSH2 0x1373 PUSH2 0x4FA9 JUMP JUMPDEST POP POP JUMPDEST PUSH1 0x0 JUMPDEST DUP7 DUP2 LT ISZERO PUSH2 0x13C9 JUMPI PUSH2 0x13C1 DUP9 DUP9 DUP4 DUP2 DUP2 LT PUSH2 0x1390 JUMPI INVALID JUMPDEST SWAP1 POP PUSH1 0x20 MUL ADD CALLDATALOAD PUSH1 0x1 PUSH1 0x1 PUSH1 0xA0 SHL SUB AND DUP8 DUP8 DUP5 DUP2 DUP2 LT PUSH2 0x13AC JUMPI INVALID JUMPDEST SWAP1 POP PUSH1 0x20 MUL ADD CALLDATALOAD PUSH1 0x1 PUSH1 0x1 PUSH1 0xA0 SHL SUB AND PUSH2 0x374C JUMP JUMPDEST PUSH1 0x1 ADD PUSH2 0x1379 JUMP JUMPDEST POP PUSH2 0x140B PUSH1 0x0 PUSH1 0x4 PUSH2 0x13D9 PUSH2 0x5014 JUMP JUMPDEST SWAP1 PUSH2 0x100 EXP SWAP1 DIV PUSH1 0x1 PUSH1 0x1 PUSH1 0x80 SHL SUB AND DUP5 DUP5 DUP5 PUSH1 0x4 PUSH1 0x1C SWAP1 PUSH2 0x13F9 PUSH2 0x5014 JUMP JUMPDEST SWAP1 PUSH2 0x100 EXP SWAP1 DIV PUSH4 0xFFFFFFFF AND PUSH2 0xF8F JUMP JUMPDEST POP POP POP POP POP POP POP POP POP JUMP JUMPDEST PUSH1 0x0 PUSH1 0x3 PUSH2 0x1422 PUSH2 0x5014 JUMP JUMPDEST SWAP1 PUSH2 0x100 EXP SWAP1 DIV PUSH1 0x1 PUSH1 0x1 PUSH1 0xA0 SHL SUB AND DUP2 JUMP JUMPDEST GAS PUSH2 0x143E PUSH2 0x506F JUMP JUMPDEST PUSH1 0x1 PUSH1 0x1 PUSH1 0xA0 SHL SUB DUP5 DUP2 AND PUSH1 0x0 SWAP1 DUP2 MSTORE PUSH1 0x8 PUSH1 0x20 MSTORE SWAP2 AND SWAP1 PUSH1 0x40 SWAP1 KECCAK256 PUSH1 0x2 ADD PUSH1 0x2 SWAP1 PUSH2 0x1468 PUSH2 0x5014 JUMP JUMPDEST SWAP1 PUSH2 0x100 EXP SWAP1 DIV PUSH1 0x1 PUSH1 0x1 PUSH1 0xA0 SHL SUB AND PUSH1 0x1 PUSH1 0x1 PUSH1 0xA0 SHL SUB AND EQ PUSH2 0x1494 JUMPI PUSH1 0x0 DUP1 PUSH2 0x1491 PUSH2 0x4FA9 JUMP JUMPDEST POP POP JUMPDEST PUSH1 0x1 PUSH1 0x1 PUSH1 0xA0 SHL SUB DUP4 AND PUSH1 0x0 SWAP1 DUP2 MSTORE PUSH1 0x8 PUSH1 0x20 MSTORE DUP2 SWAP1 PUSH1 0x40 DUP2 KECCAK256 PUSH1 0x0 SWAP1 PUSH2 0x14B9 PUSH2 0x5014 JUMP JUMPDEST SWAP1 PUSH2 0x100 EXP SWAP1 DIV PUSH1 0x1 PUSH1 0x1 PUSH1 0x80 SHL SUB AND SWAP1 POP DUP2 PUSH1 0x1 PUSH1 0x1 PUSH1 0x80 SHL SUB AND DUP2 PUSH1 0x1 PUSH1 0x1 PUSH1 0x80 SHL SUB AND LT ISZERO PUSH2 0x14F3 JUMPI PUSH1 0x0 DUP1 PUSH2 0x14F0 PUSH2 0x4FA9 JUMP JUMPDEST POP POP JUMPDEST PUSH2 0x1506 PUSH1 0x1 PUSH1 0x1 PUSH1 0x80 SHL SUB DUP3 AND DUP4 PUSH2 0x3A0F JUMP JUMPDEST PUSH1 0x1 PUSH1 0x1 PUSH1 0xA0 SHL SUB DUP7 AND PUSH1 0x0 SWAP1 DUP2 MSTORE PUSH1 0x8 PUSH1 0x20 MSTORE PUSH1 0x40 SWAP1 KECCAK256 PUSH1 0x1 DUP2 PUSH2 0x1529 PUSH2 0x5014 JUMP JUMPDEST DUP2 PUSH1 0x1 PUSH1 0x1 PUSH1 0x80 SHL SUB MUL NOT AND SWAP1 DUP4 PUSH1 0x1 PUSH1 0x1 PUSH1 0x80 SHL SUB AND MUL OR SWAP1 PUSH2 0x154B PUSH2 0x50B5 JUMP JUMPDEST POP PUSH2 0x1578 SWAP2 POP DUP4 SWAP1 POP PUSH1 0x10 PUSH1 0xD PUSH2 0x1560 PUSH2 0x5014 JUMP JUMPDEST PUSH1 0x1 PUSH1 0x1 PUSH1 0x80 SHL SUB PUSH2 0x100 SWAP3 SWAP1 SWAP3 EXP SWAP1 DIV AND SWAP1 PUSH2 0x3A0F JUMP JUMPDEST PUSH1 0xD PUSH1 0x1 PUSH1 0x80 SHL DUP2 PUSH2 0x1588 PUSH2 0x5014 JUMP JUMPDEST DUP2 PUSH1 0x1 PUSH1 0x1 PUSH1 0x80 SHL SUB MUL NOT AND SWAP1 DUP4 PUSH1 0x1 PUSH1 0x1 PUSH1 0x80 SHL SUB AND MUL OR SWAP1 PUSH2 0x15AA PUSH2 0x50B5 JUMP JUMPDEST POP POP POP PUSH1 0x2 PUSH1 0x0 SWAP1 PUSH2 0x15BA PUSH2 0x5014 JUMP JUMPDEST SWAP1 PUSH2 0x100 EXP SWAP1 DIV PUSH1 0x1 PUSH1 0x1 PUSH1 0xA0 SHL SUB AND PUSH1 0x1 PUSH1 0x1 PUSH1 0xA0 SHL SUB AND PUSH4 0xA9059CBB DUP6 DUP5 PUSH1 0x1 PUSH1 0x1 PUSH1 0x80 SHL SUB AND PUSH1 0x40 MLOAD PUSH1 0x1 PUSH1 0x1 PUSH1 0xE0 SHL SUB NOT PUSH1 0xE0 DUP6 SWAP1 SHL AND DUP2 MSTORE PUSH1 0x1 PUSH1 0x1 PUSH1 0xA0 SHL SUB SWAP1 SWAP3 AND PUSH1 0x4 DUP4 ADD MSTORE PUSH1 0x24 DUP3 ADD MSTORE PUSH1 0x44 ADD PUSH1 0x20 PUSH1 0x40 MLOAD DUP1 DUP4 SUB DUP2 PUSH1 0x0 DUP8 DUP1 PUSH2 0x1624 PUSH2 0x5103 JUMP JUMPDEST ISZERO DUP1 ISZERO PUSH2 0x1639 JUMPI PUSH1 0x0 DUP1 PUSH2 0x1636 PUSH2 0x4FA9 JUMP JUMPDEST POP POP JUMPDEST POP GAS PUSH2 0x1643 PUSH2 0x514F JUMP JUMPDEST POP POP POP POP POP POP ISZERO DUP1 ISZERO PUSH2 0x1663 JUMPI RETURNDATASIZE PUSH1 0x0 DUP1 RETURNDATACOPY RETURNDATASIZE PUSH1 0x0 PUSH2 0x1660 PUSH2 0x4FA9 JUMP JUMPDEST POP POP JUMPDEST POP POP POP POP PUSH1 0x40 MLOAD RETURNDATASIZE PUSH1 0x20 DUP2 LT ISZERO PUSH2 0x1682 JUMPI PUSH1 0x0 DUP1 PUSH2 0x167F PUSH2 0x4FA9 JUMP JUMPDEST POP POP JUMPDEST DUP2 ADD SWAP1 DUP1 DUP1 MLOAD SWAP3 POP PUSH2 0xD14 SWAP2 POP POP JUMPI INVALID JUMPDEST PUSH1 0x60 PUSH1 0xC DUP1 PUSH2 0x16A0 PUSH2 0x5014 JUMP JUMPDEST DUP1 PUSH1 0x20 MUL PUSH1 0x20 ADD PUSH1 0x40 MLOAD SWAP1 DUP2 ADD PUSH1 0x40 MSTORE DUP2 DUP2 MSTORE SWAP2 SWAP1 PUSH1 0x20 DUP4 ADD DUP3 DUP1 PUSH2 0x16C3 PUSH2 0x5014 JUMP JUMPDEST DUP1 ISZERO PUSH2 0x1710 JUMPI PUSH1 0x20 MUL DUP3 ADD SWAP2 SWAP1 PUSH1 0x0 MSTORE PUSH1 0x20 PUSH1 0x0 KECCAK256 SWAP1 JUMPDEST PUSH1 0x0 DUP3 PUSH2 0x16E5 PUSH2 0x5014 JUMP JUMPDEST SWAP1 PUSH2 0x100 EXP SWAP1 DIV PUSH1 0x1 PUSH1 0x1 PUSH1 0xA0 SHL SUB AND PUSH1 0x1 PUSH1 0x1 PUSH1 0xA0 SHL SUB AND DUP2 MSTORE PUSH1 0x20 ADD SWAP1 PUSH1 0x1 ADD SWAP1 DUP1 DUP4 GT PUSH2 0x16DA JUMPI JUMPDEST POP POP POP POP POP SWAP1 POP SWAP1 JUMP JUMPDEST PUSH1 0x0 DUP1 PUSH1 0xD PUSH2 0x1727 PUSH2 0x5014 JUMP JUMPDEST SWAP1 PUSH2 0x100 EXP SWAP1 DIV PUSH1 0x1 PUSH1 0x1 PUSH1 0x80 SHL SUB AND SWAP1 POP SWAP1 JUMP JUMPDEST PUSH2 0x1744 PUSH2 0x523A JUMP JUMPDEST PUSH1 0xD PUSH1 0x40 MLOAD PUSH1 0x40 DUP1 DUP3 ADD SWAP1 MSTORE SWAP1 DUP2 PUSH1 0x0 DUP3 PUSH2 0x175D PUSH2 0x5014 JUMP JUMPDEST PUSH1 0x1 PUSH1 0x1 PUSH1 0x80 SHL SUB PUSH2 0x100 SWAP3 SWAP1 SWAP3 EXP SWAP1 DIV AND DUP2 MSTORE PUSH1 0x20 ADD PUSH1 0x10 DUP3 PUSH2 0x177F PUSH2 0x5014 JUMP JUMPDEST PUSH1 0x1 PUSH1 0x1 PUSH1 0x80 SHL SUB PUSH2 0x100 SWAP3 SWAP1 SWAP3 EXP SWAP1 DIV AND SWAP1 MSTORE POP SWAP1 POP PUSH1 0x0 PUSH2 0x18D4 PUSH1 0x20 DUP4 ADD MLOAD PUSH1 0x1 PUSH1 0x1 PUSH1 0x80 SHL SUB AND PUSH1 0x0 PUSH1 0x2 PUSH2 0x17B5 PUSH2 0x5014 JUMP JUMPDEST SWAP1 PUSH2 0x100 EXP SWAP1 DIV PUSH1 0x1 PUSH1 0x1 PUSH1 0xA0 SHL SUB AND PUSH1 0x1 PUSH1 0x1 PUSH1 0xA0 SHL SUB AND PUSH4 0x70A08231 GAS PUSH4 0x996D79A5 MSIZE DUP2 PUSH1 0xE0 SHL DUP2 MSTORE PUSH1 0x20 DUP2 PUSH1 0x4 DUP4 CALLER PUSH1 0x0 SWAP1 GAS CALL PC PUSH1 0x1D ADD JUMPI RETURNDATASIZE PUSH1 0x1 EQ PC PUSH1 0xC ADD JUMPI RETURNDATASIZE PUSH1 0x0 DUP1 RETURNDATACOPY RETURNDATASIZE PUSH3 0x123456 MSTORE PUSH1 0xEA PUSH2 0x109C MSTORE DUP1 MLOAD SWAP3 POP PUSH1 0x0 JUMPDEST PUSH1 0x40 DUP2 LT ISZERO PUSH2 0x1829 JUMPI PUSH1 0x0 DUP3 DUP3 ADD MSTORE PUSH1 0x20 ADD PUSH2 0x1812 JUMP JUMPDEST POP POP POP PUSH1 0x40 MLOAD PUSH1 0x1 PUSH1 0x1 PUSH1 0xE0 SHL SUB NOT PUSH1 0xE0 DUP5 SWAP1 SHL AND DUP2 MSTORE PUSH1 0x1 PUSH1 0x1 PUSH1 0xA0 SHL SUB SWAP1 SWAP2 AND PUSH1 0x4 DUP3 ADD MSTORE PUSH1 0x24 ADD PUSH1 0x20 PUSH1 0x40 MLOAD DUP1 DUP4 SUB DUP2 DUP7 DUP1 PUSH2 0x1866 PUSH2 0x5103 JUMP JUMPDEST ISZERO DUP1 ISZERO PUSH2 0x187B JUMPI PUSH1 0x0 DUP1 PUSH2 0x1878 PUSH2 0x4FA9 JUMP JUMPDEST POP POP JUMPDEST POP GAS PUSH2 0x1885 PUSH2 0x5251 JUMP JUMPDEST POP POP POP POP POP ISZERO DUP1 ISZERO PUSH2 0x18A4 JUMPI RETURNDATASIZE PUSH1 0x0 DUP1 RETURNDATACOPY RETURNDATASIZE PUSH1 0x0 PUSH2 0x18A1 PUSH2 0x4FA9 JUMP JUMPDEST POP POP JUMPDEST POP POP POP POP PUSH1 0x40 MLOAD RETURNDATASIZE PUSH1 0x20 DUP2 LT ISZERO PUSH2 0x18C3 JUMPI PUSH1 0x0 DUP1 PUSH2 0x18C0 PUSH2 0x4FA9 JUMP JUMPDEST POP POP JUMPDEST DUP2 ADD SWAP1 DUP1 DUP1 MLOAD SWAP4 SWAP3 POP POP PUSH2 0x27C5 SWAP1 POP JUMP JUMPDEST SWAP1 POP DUP1 DUP3 MLOAD PUSH1 0x1 PUSH1 0x1 PUSH1 0x80 SHL SUB AND EQ PUSH2 0xB24 JUMPI DUP1 PUSH1 0xD PUSH1 0x1 DUP2 PUSH2 0x18F5 PUSH2 0x5014 JUMP JUMPDEST DUP2 PUSH1 0x1 PUSH1 0x1 PUSH1 0x80 SHL SUB MUL NOT AND SWAP1 DUP4 PUSH1 0x1 PUSH1 0x1 PUSH1 0x80 SHL SUB AND MUL OR SWAP1 PUSH2 0x1917 PUSH2 0x50B5 JUMP JUMPDEST POP POP POP DUP1 PUSH1 0x0 DUP1 MLOAD PUSH1 0x20 PUSH2 0x5542 DUP4 CODECOPY DUP2 MLOAD SWAP2 MSTORE PUSH1 0x40 MLOAD PUSH1 0x40 MLOAD DUP1 SWAP2 SUB SWAP1 LOG2 POP POP JUMP JUMPDEST PUSH1 0x0 PUSH1 0x9 DUP2 PUSH1 0x4 PUSH1 0x7 PUSH2 0x194A PUSH2 0x5014 JUMP JUMPDEST SWAP1 PUSH2 0x100 EXP SWAP1 DIV PUSH4 0xFFFFFFFF AND PUSH4 0xFFFFFFFF AND PUSH4 0xFFFFFFFF AND DUP2 MSTORE PUSH1 0x20 ADD SWAP1 DUP2 MSTORE PUSH1 0x20 ADD PUSH1 0x0 KECCAK256 PUSH2 0x1979 PUSH2 0x5014 JUMP JUMPDEST SWAP1 POP SWAP1 JUMP JUMPDEST PUSH1 0x3 DUP2 JUMP JUMPDEST PUSH1 0x0 PUSH1 0x2 PUSH2 0x1422 PUSH2 0x5014 JUMP JUMPDEST PUSH1 0x10 PUSH1 0x4 PUSH2 0xF7F PUSH2 0x5014 JUMP JUMPDEST PUSH1 0x0 PUSH1 0xC DUP1 PUSH2 0x19A8 PUSH2 0x5014 JUMP JUMPDEST SWAP2 POP POP SWAP1 JUMP JUMPDEST GAS PUSH2 0x19B7 PUSH2 0x506F JUMP JUMPDEST PUSH1 0x1 PUSH1 0x1 PUSH1 0xA0 SHL SUB DUP3 DUP2 AND PUSH1 0x0 SWAP1 DUP2 MSTORE PUSH1 0x8 PUSH1 0x20 MSTORE SWAP2 AND SWAP1 PUSH1 0x40 SWAP1 KECCAK256 PUSH1 0x3 ADD PUSH1 0x0 SWAP1 PUSH2 0x19E1 PUSH2 0x5014 JUMP JUMPDEST SWAP1 PUSH2 0x100 EXP SWAP1 DIV PUSH1 0x1 PUSH1 0x1 PUSH1 0xA0 SHL SUB AND PUSH1 0x1 PUSH1 0x1 PUSH1 0xA0 SHL SUB AND EQ PUSH2 0x1A0D JUMPI PUSH1 0x0 DUP1 PUSH2 0x1A0A PUSH2 0x4FA9 JUMP JUMPDEST POP POP JUMPDEST PUSH1 0x1 PUSH1 0x1 PUSH1 0xA0 SHL SUB DUP2 AND PUSH1 0x0 SWAP1 DUP2 MSTORE PUSH1 0x8 PUSH1 0x20 MSTORE PUSH1 0x40 DUP2 KECCAK256 PUSH1 0x3 ADD PUSH1 0x1 DUP2 PUSH2 0x1A33 PUSH2 0x5014 JUMP JUMPDEST DUP2 PUSH1 0x1 PUSH1 0x1 PUSH1 0xA0 SHL SUB MUL NOT AND SWAP1 DUP4 PUSH1 0x1 PUSH1 0x1 PUSH1 0xA0 SHL SUB AND MUL OR SWAP1 PUSH2 0x1A55 PUSH2 0x50B5 JUMP JUMPDEST POP POP POP GAS PUSH2 0x1A61 PUSH2 0x506F JUMP JUMPDEST PUSH1 0x1 PUSH1 0x1 PUSH1 0xA0 SHL SUB DUP3 AND PUSH1 0x0 SWAP1 DUP2 MSTORE PUSH1 0x8 PUSH1 0x20 MSTORE PUSH1 0x40 SWAP1 KECCAK256 PUSH1 0x2 ADD PUSH3 0x10000 DUP2 PUSH2 0x1A89 PUSH2 0x5014 JUMP JUMPDEST DUP2 PUSH1 0x1 PUSH1 0x1 PUSH1 0xA0 SHL SUB MUL NOT AND SWAP1 DUP4 PUSH1 0x1 PUSH1 0x1 PUSH1 0xA0 SHL SUB AND MUL OR SWAP1 PUSH2 0x1AAB PUSH2 0x50B5 JUMP JUMPDEST POP POP POP GAS PUSH2 0x1AB7 PUSH2 0x506F JUMP JUMPDEST PUSH1 0x1 PUSH1 0x1 PUSH1 0xA0 SHL SUB AND DUP2 PUSH1 0x1 PUSH1 0x1 PUSH1 0xA0 SHL SUB AND PUSH1 0x0 DUP1 MLOAD PUSH1 0x20 PUSH2 0x5460 DUP4 CODECOPY DUP2 MLOAD SWAP2 MSTORE PUSH1 0x40 MLOAD PUSH1 0x40 MLOAD DUP1 SWAP2 SUB SWAP1 LOG3 POP JUMP JUMPDEST PUSH1 0x1 PUSH1 0x1 PUSH1 0xA0 SHL SUB DUP2 AND PUSH1 0x0 SWAP1 DUP2 MSTORE PUSH1 0x8 PUSH1 0x20 MSTORE PUSH1 0x40 DUP2 KECCAK256 PUSH1 0x2 ADD PUSH1 0x2 SWAP1 PUSH2 0x1B0D PUSH2 0x5014 JUMP JUMPDEST SWAP1 PUSH2 0x100 EXP SWAP1 DIV PUSH1 0x1 PUSH1 0x1 PUSH1 0xA0 SHL SUB AND SWAP1 POP JUMPDEST SWAP2 SWAP1 POP JUMP JUMPDEST PUSH1 0x0 PUSH1 0x4 PUSH1 0x7 PUSH2 0x1B33 PUSH2 0x5014 JUMP JUMPDEST SWAP1 PUSH2 0x100 EXP SWAP1 DIV PUSH4 0xFFFFFFFF AND PUSH4 0xFFFFFFFF AND SWAP1 POP SWAP1 JUMP JUMPDEST PUSH1 0x1C PUSH1 0x4 PUSH2 0xF7F PUSH2 0x5014 JUMP JUMPDEST PUSH1 0x6 DUP1 PUSH2 0x1B62 PUSH2 0x5014 JUMP JUMPDEST PUSH1 0x1 DUP2 PUSH1 0x1 AND ISZERO PUSH2 0x100 MUL SUB AND PUSH1 0x2 SWAP1 DIV DUP1 PUSH1 0x1F ADD PUSH1 0x20 DUP1 SWAP2 DIV MUL PUSH1 0x20 ADD PUSH1 0x40 MLOAD SWAP1 DUP2 ADD PUSH1 0x40 MSTORE DUP2 DUP2 MSTORE SWAP2 SWAP1 PUSH1 0x20 DUP4 ADD DUP3 DUP1 PUSH2 0x1B9C PUSH2 0x5014 JUMP JUMPDEST PUSH1 0x1 DUP2 PUSH1 0x1 AND ISZERO PUSH2 0x100 MUL SUB AND PUSH1 0x2 SWAP1 DIV DUP1 ISZERO PUSH2 0x1C08 JUMPI DUP1 PUSH1 0x1F LT PUSH2 0x1BD6 JUMPI PUSH2 0x100 DUP1 DUP4 PUSH2 0x1BC8 PUSH2 0x5014 JUMP JUMPDEST DIV MUL DUP4 MSTORE SWAP2 PUSH1 0x20 ADD SWAP2 PUSH2 0x1C08 JUMP JUMPDEST DUP3 ADD SWAP2 SWAP1 PUSH1 0x0 MSTORE PUSH1 0x20 PUSH1 0x0 KECCAK256 SWAP1 JUMPDEST DUP2 PUSH2 0x1BED PUSH2 0x5014 JUMP JUMPDEST DUP2 MSTORE SWAP1 PUSH1 0x1 ADD SWAP1 PUSH1 0x20 ADD DUP1 DUP4 GT PUSH2 0x1BE4 JUMPI DUP3 SWAP1 SUB PUSH1 0x1F AND DUP3 ADD SWAP2 JUMPDEST POP POP POP POP POP DUP2 JUMP JUMPDEST PUSH1 0x0 PUSH1 0x1 PUSH2 0x1C1C PUSH2 0x5014 JUMP JUMPDEST SWAP1 PUSH2 0x100 EXP SWAP1 DIV PUSH1 0x1 PUSH1 0x1 PUSH1 0xA0 SHL SUB AND PUSH1 0x1 PUSH1 0x1 PUSH1 0xA0 SHL SUB AND GAS PUSH2 0x1C3E PUSH2 0x506F JUMP JUMPDEST PUSH1 0x1 PUSH1 0x1 PUSH1 0xA0 SHL SUB AND EQ PUSH2 0x1C9A JUMPI PUSH1 0x40 MLOAD PUSH3 0x461BCD PUSH1 0xE5 SHL DUP2 MSTORE PUSH1 0x20 PUSH1 0x4 DUP3 ADD MSTORE PUSH1 0x16 PUSH1 0x24 DUP3 ADD MSTORE PUSH22 0x26BAB9BA10313290383937B837B9B2B21037BBB732B9 PUSH1 0x51 SHL PUSH1 0x44 DUP3 ADD MSTORE PUSH1 0x64 ADD PUSH1 0x40 MLOAD DUP1 SWAP2 SUB SWAP1 PUSH2 0x1C97 PUSH2 0x4FA9 JUMP JUMPDEST POP POP JUMPDEST PUSH1 0x0 DUP1 DUP1 PUSH2 0x1CA6 PUSH2 0x5014 JUMP JUMPDEST SWAP1 PUSH2 0x100 EXP SWAP1 DIV PUSH1 0x1 PUSH1 0x1 PUSH1 0xA0 SHL SUB AND SWAP1 POP GAS PUSH2 0x1CC1 PUSH2 0x506F JUMP JUMPDEST PUSH1 0x0 PUSH1 0x1 DUP2 PUSH2 0x1CCE PUSH2 0x5014 JUMP JUMPDEST DUP2 PUSH1 0x1 PUSH1 0x1 PUSH1 0xA0 SHL SUB MUL NOT AND SWAP1 DUP4 PUSH1 0x1 PUSH1 0x1 PUSH1 0xA0 SHL SUB AND MUL OR SWAP1 PUSH2 0x1CF0 PUSH2 0x50B5 JUMP JUMPDEST POP POP POP PUSH1 0x0 PUSH1 0x1 PUSH1 0x0 PUSH2 0x100 EXP DUP2 PUSH2 0x1D06 PUSH2 0x5014 JUMP JUMPDEST DUP2 PUSH1 0x1 PUSH1 0x1 PUSH1 0xA0 SHL SUB MUL NOT AND SWAP1 DUP4 PUSH1 0x1 PUSH1 0x1 PUSH1 0xA0 SHL SUB AND MUL OR SWAP1 PUSH2 0x1D28 PUSH2 0x50B5 JUMP JUMPDEST POP POP POP GAS PUSH2 0x1D34 PUSH2 0x506F JUMP JUMPDEST PUSH1 0x1 PUSH1 0x1 PUSH1 0xA0 SHL SUB AND DUP2 PUSH1 0x1 PUSH1 0x1 PUSH1 0xA0 SHL SUB AND PUSH32 0x8BE0079C531659141344CD1FD0A4F28419497F9722A3DAAFE3B4186F6B6457E0 PUSH1 0x40 MLOAD PUSH1 0x40 MLOAD DUP1 SWAP2 SUB SWAP1 LOG3 POP JUMP JUMPDEST PUSH32 0x0 DUP2 JUMP JUMPDEST PUSH1 0x0 PUSH1 0x9 DUP2 PUSH1 0x4 PUSH1 0x7 PUSH2 0x1DAB PUSH2 0x5014 JUMP JUMPDEST SWAP1 PUSH2 0x100 EXP SWAP1 DIV PUSH4 0xFFFFFFFF AND PUSH4 0xFFFFFFFF AND PUSH4 0xFFFFFFFF AND DUP2 MSTORE PUSH1 0x20 ADD SWAP1 DUP2 MSTORE PUSH1 0x20 ADD PUSH1 0x0 KECCAK256 PUSH1 0x1 ADD PUSH1 0x8 SWAP1 PUSH2 0x1DE0 PUSH2 0x5014 JUMP JUMPDEST SWAP1 PUSH2 0x100 EXP SWAP1 DIV PUSH1 0x1 PUSH1 0x1 PUSH1 0x40 SHL SUB AND PUSH1 0x1 PUSH1 0x1 PUSH1 0x40 SHL SUB AND SWAP1 POP SWAP1 JUMP JUMPDEST PUSH1 0x0 DUP1 DUP1 DUP1 DUP1 DUP1 DUP1 DUP1 DUP1 GAS PUSH2 0x1E11 PUSH2 0x506F JUMP JUMPDEST PUSH1 0x1 PUSH1 0x1 PUSH1 0xA0 SHL SUB AND EQ PUSH2 0x1E2D JUMPI PUSH1 0x0 DUP1 PUSH2 0x1E2A PUSH2 0x4FA9 JUMP JUMPDEST POP POP JUMPDEST PUSH4 0xFFFFFFFF DUP10 AND ISZERO PUSH2 0x1F84 JUMPI PUSH4 0xFFFFFFFF DUP10 AND PUSH1 0x0 SWAP1 DUP2 MSTORE PUSH1 0x9 PUSH1 0x20 MSTORE PUSH1 0x40 DUP2 KECCAK256 PUSH4 0xFFFFFFFF DUP12 AND PUSH1 0x0 SWAP1 DUP2 MSTORE PUSH1 0xA PUSH1 0x20 MSTORE SWAP1 SWAP2 POP PUSH1 0x40 DUP2 KECCAK256 SWAP1 POP PUSH2 0x1E72 DUP13 DUP13 PUSH2 0x3A6B JUMP JUMPDEST PUSH1 0x1 PUSH1 0x1 PUSH1 0xA0 SHL SUB DUP14 AND PUSH1 0x0 SWAP1 DUP2 MSTORE PUSH1 0x8 PUSH1 0x20 MSTORE DUP13 SWAP1 PUSH1 0x40 SWAP1 KECCAK256 PUSH1 0x1 ADD PUSH2 0x1E97 PUSH2 0x5014 JUMP JUMPDEST PUSH1 0x0 PUSH1 0x1 DUP7 ADD PUSH2 0x1EA5 PUSH2 0x5014 JUMP JUMPDEST SWAP1 PUSH2 0x100 EXP SWAP1 DIV PUSH1 0x1 PUSH1 0x1 PUSH1 0x40 SHL SUB AND DUP5 PUSH1 0x1 ADD PUSH1 0x8 SWAP1 PUSH2 0x1EC4 PUSH2 0x5014 JUMP JUMPDEST PUSH4 0xFFFFFFFF PUSH2 0x100 SWAP3 SWAP1 SWAP3 EXP SWAP1 DIV AND PUSH1 0x0 PUSH1 0xD PUSH2 0x1EDF PUSH2 0x5014 JUMP JUMPDEST SWAP1 PUSH2 0x100 EXP SWAP1 DIV PUSH1 0x1 PUSH1 0x1 PUSH1 0x80 SHL SUB AND PUSH2 0x1EF7 PUSH2 0x199B JUMP JUMPDEST PUSH1 0x0 DUP1 PUSH1 0x1 DUP12 ADD PUSH2 0x1F06 PUSH2 0x5014 JUMP JUMPDEST SWAP1 PUSH2 0x100 EXP SWAP1 DIV PUSH1 0x1 PUSH1 0x1 PUSH1 0x40 SHL SUB AND PUSH1 0x1 PUSH1 0x1 PUSH1 0x40 SHL SUB AND GT PUSH2 0x1F45 JUMPI PUSH1 0x0 PUSH1 0x4 PUSH2 0x1F30 PUSH2 0x5014 JUMP JUMPDEST SWAP1 PUSH2 0x100 EXP SWAP1 DIV PUSH1 0x1 PUSH1 0x1 PUSH1 0x80 SHL SUB AND PUSH2 0x1F64 JUMP JUMPDEST PUSH1 0xC PUSH1 0x1 DUP10 ADD PUSH2 0x1F53 PUSH2 0x5014 JUMP JUMPDEST SWAP1 PUSH2 0x100 EXP SWAP1 DIV PUSH1 0x1 PUSH1 0x1 PUSH1 0x80 SHL SUB AND JUMPDEST DUP4 PUSH4 0xFFFFFFFF AND SWAP4 POP SWAP10 POP SWAP10 POP SWAP10 POP SWAP10 POP SWAP10 POP SWAP10 POP SWAP10 POP SWAP10 POP POP POP PUSH2 0x1F9E JUMP JUMPDEST PUSH2 0x1F8D DUP11 PUSH2 0x3ADC JUMP JUMPDEST SWAP8 POP SWAP8 POP SWAP8 POP SWAP8 POP SWAP8 POP SWAP8 POP SWAP8 POP SWAP8 POP JUMPDEST SWAP3 SWAP6 SWAP9 POP SWAP3 SWAP6 SWAP9 SWAP1 SWAP4 SWAP7 POP JUMP JUMPDEST PUSH1 0x0 DUP1 PUSH2 0x1422 PUSH2 0x5014 JUMP JUMPDEST PUSH1 0x0 PUSH1 0xB PUSH1 0x0 GAS PUSH2 0x1FC5 PUSH2 0x506F JUMP JUMPDEST PUSH1 0x1 PUSH1 0x1 PUSH1 0xA0 SHL SUB AND PUSH1 0x1 PUSH1 0x1 PUSH1 0xA0 SHL SUB AND DUP2 MSTORE PUSH1 0x20 ADD SWAP1 DUP2 MSTORE PUSH1 0x20 ADD PUSH1 0x0 KECCAK256 PUSH1 0x0 SWAP1 PUSH2 0x1FF0 PUSH2 0x5014 JUMP JUMPDEST SWAP1 PUSH2 0x100 EXP SWAP1 DIV PUSH1 0xFF AND PUSH2 0x200C JUMPI PUSH1 0x0 DUP1 PUSH2 0x2009 PUSH2 0x4FA9 JUMP JUMPDEST POP POP JUMPDEST PUSH1 0x0 DUP1 PUSH1 0x7 PUSH2 0x2019 PUSH2 0x5014 JUMP JUMPDEST PUSH4 0xFFFFFFFF PUSH2 0x100 SWAP3 SWAP1 SWAP3 EXP SWAP1 DIV AND PUSH1 0x0 DUP2 DUP2 MSTORE PUSH1 0x9 PUSH1 0x20 MSTORE SWAP1 SWAP2 POP PUSH1 0x40 DUP2 KECCAK256 PUSH1 0x1 ADD PUSH1 0x8 SWAP1 PUSH2 0x2047 PUSH2 0x5014 JUMP JUMPDEST SWAP1 PUSH2 0x100 EXP SWAP1 DIV PUSH1 0x1 PUSH1 0x1 PUSH1 0x40 SHL SUB AND PUSH1 0x1 PUSH1 0x1 PUSH1 0x40 SHL SUB AND GT DUP1 PUSH2 0x2070 JUMPI POP PUSH2 0x2070 DUP2 PUSH2 0x3D37 JUMP JUMPDEST PUSH2 0x2082 JUMPI PUSH1 0x0 DUP1 PUSH2 0x207F PUSH2 0x4FA9 JUMP JUMPDEST POP POP JUMPDEST PUSH1 0x0 PUSH2 0x2099 PUSH4 0xFFFFFFFF DUP1 DUP5 AND SWAP1 PUSH1 0x1 SWAP1 PUSH2 0x3E09 AND JUMP JUMPDEST SWAP1 POP PUSH2 0x20A4 DUP2 PUSH2 0x3E5F JUMP JUMPDEST PUSH4 0xFFFFFFFF AND SWAP2 POP POP SWAP1 JUMP JUMPDEST PUSH1 0x0 DUP1 PUSH1 0x0 DUP1 PUSH1 0x0 PUSH2 0x20C0 PUSH2 0x5317 JUMP JUMPDEST PUSH4 0xFFFFFFFF DUP8 AND PUSH1 0x0 SWAP1 DUP2 MSTORE PUSH1 0x9 PUSH1 0x20 MSTORE PUSH1 0x40 SWAP1 KECCAK256 PUSH1 0x40 MLOAD PUSH1 0x80 DUP2 ADD PUSH1 0x40 MSTORE SWAP1 DUP2 DUP2 PUSH2 0x20EA PUSH2 0x5014 JUMP JUMPDEST DUP2 MSTORE PUSH1 0x20 ADD PUSH1 0x0 PUSH1 0x1 DUP4 ADD PUSH2 0x20FD PUSH2 0x5014 JUMP JUMPDEST PUSH1 0x1 PUSH1 0x1 PUSH1 0x40 SHL SUB PUSH2 0x100 SWAP3 SWAP1 SWAP3 EXP SWAP1 DIV AND DUP2 MSTORE PUSH1 0x20 ADD PUSH1 0x8 PUSH1 0x1 DUP4 ADD PUSH2 0x2122 PUSH2 0x5014 JUMP JUMPDEST PUSH1 0x1 PUSH1 0x1 PUSH1 0x40 SHL SUB PUSH2 0x100 SWAP3 SWAP1 SWAP3 EXP SWAP1 DIV AND DUP2 MSTORE PUSH1 0x20 ADD PUSH1 0x10 PUSH1 0x1 DUP4 ADD PUSH2 0x2147 PUSH2 0x5014 JUMP JUMPDEST PUSH4 0xFFFFFFFF PUSH2 0x100 SWAP3 SWAP1 SWAP3 EXP SWAP1 DIV AND SWAP1 MSTORE POP SWAP1 POP PUSH1 0x0 PUSH1 0x60 DUP3 ADD MLOAD PUSH4 0xFFFFFFFF AND GT DUP1 ISZERO PUSH2 0x2182 JUMPI POP PUSH2 0x2182 DUP8 PUSH1 0x1 PUSH1 0x1 PUSH1 0x50 SHL SUB AND PUSH2 0x3F75 JUMP JUMPDEST PUSH1 0x40 MLOAD PUSH1 0x40 DUP1 DUP3 ADD SWAP1 MSTORE PUSH1 0xF DUP2 MSTORE PUSH15 0x139BC819185D18481C1C995CD95B9D PUSH1 0x8A SHL PUSH1 0x20 DUP3 ADD MSTORE SWAP1 PUSH2 0x223A JUMPI PUSH1 0x40 MLOAD PUSH3 0x461BCD PUSH1 0xE5 SHL DUP2 MSTORE PUSH1 0x4 ADD DUP1 DUP1 PUSH1 0x20 ADD DUP3 DUP2 SUB DUP3 MSTORE DUP4 DUP2 DUP2 MLOAD DUP2 MSTORE PUSH1 0x20 ADD SWAP2 POP DUP1 MLOAD SWAP1 PUSH1 0x20 ADD SWAP1 DUP1 DUP4 DUP4 PUSH1 0x0 JUMPDEST DUP4 DUP2 LT ISZERO PUSH2 0x21F6 JUMPI DUP1 DUP3 ADD MLOAD DUP4 DUP3 ADD MSTORE PUSH1 0x20 ADD PUSH2 0x21DE JUMP JUMPDEST POP POP POP POP SWAP1 POP SWAP1 DUP2 ADD SWAP1 PUSH1 0x1F AND DUP1 ISZERO PUSH2 0x2223 JUMPI DUP1 DUP3 SUB DUP1 MLOAD PUSH1 0x1 DUP4 PUSH1 0x20 SUB PUSH2 0x100 EXP SUB NOT AND DUP2 MSTORE PUSH1 0x20 ADD SWAP2 POP JUMPDEST POP SWAP3 POP POP POP PUSH1 0x40 MLOAD DUP1 SWAP2 SUB SWAP1 PUSH2 0x2237 PUSH2 0x4FA9 JUMP JUMPDEST POP POP JUMPDEST POP DUP7 DUP2 MLOAD DUP3 PUSH1 0x20 ADD MLOAD DUP4 PUSH1 0x40 ADD MLOAD DUP5 PUSH1 0x60 ADD MLOAD SWAP4 SWAP12 SWAP3 SWAP11 POP PUSH1 0x1 PUSH1 0x1 PUSH1 0x40 SHL SUB SWAP2 DUP3 AND SWAP10 POP AND SWAP7 POP PUSH4 0xFFFFFFFF SWAP1 SWAP2 AND SWAP5 POP SWAP3 POP POP POP JUMP JUMPDEST DUP1 ISZERO PUSH2 0x2286 JUMPI PUSH1 0x0 DUP1 PUSH2 0x2283 PUSH2 0x4FA9 JUMP JUMPDEST POP POP JUMPDEST PUSH2 0x228E PUSH2 0x173C JUMP JUMPDEST POP POP POP POP JUMP JUMPDEST PUSH1 0x0 PUSH2 0x229F DUP3 PUSH2 0x3F75 JUMP JUMPDEST ISZERO PUSH2 0x22C8 JUMPI PUSH4 0xFFFFFFFF DUP3 AND PUSH1 0x0 SWAP1 DUP2 MSTORE PUSH1 0x9 PUSH1 0x20 MSTORE PUSH1 0x40 SWAP1 KECCAK256 PUSH2 0x22C1 PUSH2 0x5014 JUMP JUMPDEST SWAP1 POP PUSH2 0x1B20 JUMP JUMPDEST POP PUSH1 0x0 SWAP2 SWAP1 POP JUMP JUMPDEST PUSH1 0x0 PUSH2 0x22DB DUP3 PUSH2 0x3F75 JUMP JUMPDEST ISZERO PUSH2 0x22C8 JUMPI PUSH4 0xFFFFFFFF DUP3 AND PUSH1 0x0 SWAP1 DUP2 MSTORE PUSH1 0x9 PUSH1 0x20 MSTORE PUSH1 0x40 SWAP1 KECCAK256 PUSH1 0x1 ADD PUSH1 0x8 SWAP1 PUSH2 0x2303 PUSH2 0x5014 JUMP JUMPDEST SWAP1 PUSH2 0x100 EXP SWAP1 DIV PUSH1 0x1 PUSH1 0x1 PUSH1 0x40 SHL SUB AND PUSH1 0x1 PUSH1 0x1 PUSH1 0x40 SHL SUB AND SWAP1 POP PUSH2 0x1B20 JUMP JUMPDEST PUSH1 0x0 DUP1 PUSH2 0x232E PUSH2 0x5014 JUMP JUMPDEST SWAP1 PUSH2 0x100 EXP SWAP1 DIV PUSH1 0x1 PUSH1 0x1 PUSH1 0xA0 SHL SUB AND PUSH1 0x1 PUSH1 0x1 PUSH1 0xA0 SHL SUB AND GAS PUSH2 0x2350 PUSH2 0x506F JUMP JUMPDEST PUSH1 0x1 PUSH1 0x1 PUSH1 0xA0 SHL SUB AND EQ PUSH2 0x23A1 JUMPI PUSH1 0x40 MLOAD PUSH3 0x461BCD PUSH1 0xE5 SHL DUP2 MSTORE PUSH1 0x20 PUSH1 0x4 DUP3 ADD MSTORE PUSH1 0x16 PUSH1 0x24 DUP3 ADD MSTORE PUSH1 0x0 DUP1 MLOAD PUSH1 0x20 PUSH2 0x5502 DUP4 CODECOPY DUP2 MLOAD SWAP2 MSTORE PUSH1 0x44 DUP3 ADD MSTORE PUSH1 0x64 ADD PUSH1 0x40 MLOAD DUP1 SWAP2 SUB SWAP1 PUSH2 0x239E PUSH2 0x4FA9 JUMP JUMPDEST POP POP JUMPDEST PUSH1 0x0 DUP1 PUSH1 0xD PUSH2 0x23AE PUSH2 0x5014 JUMP JUMPDEST PUSH1 0x1 PUSH1 0x1 PUSH1 0x80 SHL SUB PUSH2 0x100 SWAP3 SWAP1 SWAP3 EXP SWAP1 DIV AND SWAP1 POP DUP2 PUSH2 0x23FA PUSH2 0x23F3 PUSH1 0x0 PUSH1 0x4 PUSH2 0x23D5 PUSH2 0x5014 JUMP JUMPDEST SWAP1 PUSH2 0x100 EXP SWAP1 DIV PUSH1 0x1 PUSH1 0x1 PUSH1 0x80 SHL SUB AND PUSH1 0x1 PUSH1 0x1 PUSH1 0x80 SHL SUB AND PUSH2 0x347E JUMP JUMPDEST DUP4 SWAP1 PUSH2 0x27C5 JUMP JUMPDEST LT ISZERO PUSH2 0x240E JUMPI PUSH1 0x0 DUP1 PUSH2 0x240B PUSH2 0x4FA9 JUMP JUMPDEST POP POP JUMPDEST PUSH1 0x0 PUSH1 0x2 PUSH2 0x241A PUSH2 0x5014 JUMP JUMPDEST SWAP1 PUSH2 0x100 EXP SWAP1 DIV PUSH1 0x1 PUSH1 0x1 PUSH1 0xA0 SHL SUB AND PUSH1 0x1 PUSH1 0x1 PUSH1 0xA0 SHL SUB AND PUSH4 0xA9059CBB DUP5 DUP5 PUSH1 0x40 MLOAD PUSH1 0x1 PUSH1 0x1 PUSH1 0xE0 SHL SUB NOT PUSH1 0xE0 DUP6 SWAP1 SHL AND DUP2 MSTORE PUSH1 0x1 PUSH1 0x1 PUSH1 0xA0 SHL SUB SWAP1 SWAP3 AND PUSH1 0x4 DUP4 ADD MSTORE PUSH1 0x24 DUP3 ADD MSTORE PUSH1 0x44 ADD PUSH1 0x20 PUSH1 0x40 MLOAD DUP1 DUP4 SUB DUP2 PUSH1 0x0 DUP8 DUP1 PUSH2 0x247B PUSH2 0x5103 JUMP JUMPDEST ISZERO DUP1 ISZERO PUSH2 0x2490 JUMPI PUSH1 0x0 DUP1 PUSH2 0x248D PUSH2 0x4FA9 JUMP JUMPDEST POP POP JUMPDEST POP GAS PUSH2 0x249A PUSH2 0x514F JUMP JUMPDEST POP POP POP POP POP POP ISZERO DUP1 ISZERO PUSH2 0x24BA JUMPI RETURNDATASIZE PUSH1 0x0 DUP1 RETURNDATACOPY RETURNDATASIZE PUSH1 0x0 PUSH2 0x24B7 PUSH2 0x4FA9 JUMP JUMPDEST POP POP JUMPDEST POP POP POP POP PUSH1 0x40 MLOAD RETURNDATASIZE PUSH1 0x20 DUP2 LT ISZERO PUSH2 0x24D9 JUMPI PUSH1 0x0 DUP1 PUSH2 0x24D6 PUSH2 0x4FA9 JUMP JUMPDEST POP POP JUMPDEST DUP2 ADD SWAP1 DUP1 DUP1 MLOAD SWAP3 POP PUSH2 0x24F6 SWAP2 POP POP JUMPI PUSH1 0x0 DUP1 PUSH2 0x24F3 PUSH2 0x4FA9 JUMP JUMPDEST POP POP JUMPDEST PUSH2 0xF31 PUSH2 0x173C JUMP JUMPDEST PUSH1 0x0 PUSH1 0x4 PUSH2 0x250A PUSH2 0x5014 JUMP JUMPDEST SWAP1 PUSH2 0x100 EXP SWAP1 DIV PUSH1 0x1 PUSH1 0x1 PUSH1 0x80 SHL SUB AND DUP2 JUMP JUMPDEST PUSH1 0x14 PUSH1 0x4 PUSH2 0xF7F PUSH2 0x5014 JUMP JUMPDEST PUSH1 0x0 PUSH1 0x10 PUSH1 0xD PUSH2 0x1727 PUSH2 0x5014 JUMP JUMPDEST PUSH1 0x1 PUSH1 0x1 PUSH1 0xA0 SHL SUB DUP2 AND PUSH1 0x0 SWAP1 DUP2 MSTORE PUSH1 0x8 PUSH1 0x20 MSTORE PUSH1 0x40 DUP2 KECCAK256 PUSH1 0x0 SWAP1 PUSH2 0x255A PUSH2 0x5014 JUMP JUMPDEST PUSH1 0x1 PUSH1 0x1 PUSH1 0x80 SHL SUB PUSH2 0x100 SWAP3 SWAP1 SWAP3 EXP SWAP1 DIV AND SWAP3 SWAP2 POP POP JUMP JUMPDEST GAS PUSH2 0x257B PUSH2 0x506F JUMP JUMPDEST PUSH1 0x1 PUSH1 0x1 PUSH1 0xA0 SHL SUB DUP4 DUP2 AND PUSH1 0x0 SWAP1 DUP2 MSTORE PUSH1 0x8 PUSH1 0x20 MSTORE SWAP2 AND SWAP1 PUSH1 0x40 SWAP1 KECCAK256 PUSH1 0x2 ADD PUSH1 0x2 SWAP1 PUSH2 0x25A5 PUSH2 0x5014 JUMP JUMPDEST SWAP1 PUSH2 0x100 EXP SWAP1 DIV PUSH1 0x1 PUSH1 0x1 PUSH1 0xA0 SHL SUB AND PUSH1 0x1 PUSH1 0x1 PUSH1 0xA0 SHL SUB AND EQ PUSH2 0x25D1 JUMPI PUSH1 0x0 DUP1 PUSH2 0x25CE PUSH2 0x4FA9 JUMP JUMPDEST POP POP JUMPDEST PUSH1 0x1 PUSH1 0x1 PUSH1 0xA0 SHL SUB DUP3 AND PUSH1 0x0 SWAP1 DUP2 MSTORE PUSH1 0x8 PUSH1 0x20 MSTORE DUP2 SWAP1 PUSH1 0x40 SWAP1 KECCAK256 PUSH1 0x3 ADD PUSH1 0x1 DUP2 PUSH2 0x25F9 PUSH2 0x5014 JUMP JUMPDEST DUP2 PUSH1 0x1 PUSH1 0x1 PUSH1 0xA0 SHL SUB MUL NOT AND SWAP1 DUP4 PUSH1 0x1 PUSH1 0x1 PUSH1 0xA0 SHL SUB AND MUL OR SWAP1 PUSH2 0x261B PUSH2 0x50B5 JUMP JUMPDEST POP POP POP DUP2 PUSH1 0x1 PUSH1 0x1 PUSH1 0xA0 SHL SUB AND PUSH32 0xB79BF2E89C2D70DDE91D2991FB1EA69B7E478061AD7C04ED5B02B96BC52B8104 GAS PUSH2 0x2652 PUSH2 0x506F JUMP JUMPDEST DUP4 PUSH1 0x40 MLOAD PUSH1 0x1 PUSH1 0x1 PUSH1 0xA0 SHL SUB SWAP3 DUP4 AND DUP2 MSTORE SWAP2 AND PUSH1 0x20 DUP3 ADD MSTORE PUSH1 0x40 SWAP1 DUP2 ADD SWAP1 MLOAD DUP1 SWAP2 SUB SWAP1 LOG2 POP POP JUMP JUMPDEST PUSH1 0x0 DUP1 PUSH2 0x2685 PUSH2 0x5014 JUMP JUMPDEST SWAP1 PUSH2 0x100 EXP SWAP1 DIV PUSH1 0x1 PUSH1 0x1 PUSH1 0xA0 SHL SUB AND PUSH1 0x1 PUSH1 0x1 PUSH1 0xA0 SHL SUB AND GAS PUSH2 0x26A7 PUSH2 0x506F JUMP JUMPDEST PUSH1 0x1 PUSH1 0x1 PUSH1 0xA0 SHL SUB AND EQ PUSH2 0x26F8 JUMPI PUSH1 0x40 MLOAD PUSH3 0x461BCD PUSH1 0xE5 SHL DUP2 MSTORE PUSH1 0x20 PUSH1 0x4 DUP3 ADD MSTORE PUSH1 0x16 PUSH1 0x24 DUP3 ADD MSTORE PUSH1 0x0 DUP1 MLOAD PUSH1 0x20 PUSH2 0x5502 DUP4 CODECOPY DUP2 MLOAD SWAP2 MSTORE PUSH1 0x44 DUP3 ADD MSTORE PUSH1 0x64 ADD PUSH1 0x40 MLOAD DUP1 SWAP2 SUB SWAP1 PUSH2 0x26F5 PUSH2 0x4FA9 JUMP JUMPDEST POP POP JUMPDEST DUP1 PUSH1 0x1 DUP1 DUP1 PUSH2 0x2705 PUSH2 0x5014 JUMP JUMPDEST DUP2 PUSH1 0x1 PUSH1 0x1 PUSH1 0xA0 SHL SUB MUL NOT AND SWAP1 DUP4 PUSH1 0x1 PUSH1 0x1 PUSH1 0xA0 SHL SUB AND MUL OR SWAP1 PUSH2 0x2727 PUSH2 0x50B5 JUMP JUMPDEST POP POP POP DUP1 PUSH1 0x1 PUSH1 0x1 PUSH1 0xA0 SHL SUB AND PUSH1 0x0 DUP1 PUSH2 0x273F PUSH2 0x5014 JUMP JUMPDEST SWAP1 PUSH2 0x100 EXP SWAP1 DIV PUSH1 0x1 PUSH1 0x1 PUSH1 0xA0 SHL SUB AND PUSH1 0x1 PUSH1 0x1 PUSH1 0xA0 SHL SUB AND PUSH32 0xED8889F560326EB138920D842192F0EB3DD22B4F139C87A2C57538E05BAE1278 PUSH1 0x40 MLOAD PUSH1 0x40 MLOAD DUP1 SWAP2 SUB SWAP1 LOG3 POP JUMP JUMPDEST PUSH1 0x0 DUP1 DUP1 DUP1 DUP1 PUSH2 0x27B4 PUSH1 0x4 PUSH1 0x7 PUSH2 0x279C PUSH2 0x5014 JUMP JUMPDEST SWAP1 PUSH2 0x100 EXP SWAP1 DIV PUSH4 0xFFFFFFFF AND PUSH4 0xFFFFFFFF AND PUSH2 0x20B0 JUMP JUMPDEST SWAP5 POP SWAP5 POP SWAP5 POP SWAP5 POP SWAP5 POP SWAP1 SWAP2 SWAP3 SWAP4 SWAP5 JUMP JUMPDEST PUSH1 0x0 DUP3 DUP3 GT ISZERO PUSH2 0x2812 JUMPI PUSH1 0x40 MLOAD PUSH3 0x461BCD PUSH1 0xE5 SHL DUP2 MSTORE PUSH1 0x20 PUSH1 0x4 DUP3 ADD MSTORE PUSH1 0x1E PUSH1 0x24 DUP3 ADD MSTORE PUSH1 0x0 DUP1 MLOAD PUSH1 0x20 PUSH2 0x5522 DUP4 CODECOPY DUP2 MLOAD SWAP2 MSTORE PUSH1 0x44 DUP3 ADD MSTORE PUSH1 0x64 ADD PUSH1 0x40 MLOAD DUP1 SWAP2 SUB SWAP1 PUSH2 0x280F PUSH2 0x4FA9 JUMP JUMPDEST POP POP JUMPDEST POP DUP1 DUP3 SUB JUMPDEST SWAP3 SWAP2 POP POP JUMP JUMPDEST PUSH1 0x0 DUP3 PUSH2 0x282C JUMPI POP PUSH1 0x0 PUSH2 0x2817 JUMP JUMPDEST DUP3 DUP3 MUL DUP3 DUP5 DUP3 DUP2 PUSH2 0x2839 JUMPI INVALID JUMPDEST DIV EQ PUSH2 0x287F JUMPI PUSH1 0x40 MLOAD PUSH3 0x461BCD PUSH1 0xE5 SHL DUP2 MSTORE PUSH1 0x4 ADD DUP1 DUP1 PUSH1 0x20 ADD DUP3 DUP2 SUB DUP3 MSTORE PUSH1 0x21 DUP2 MSTORE PUSH1 0x20 ADD DUP1 PUSH2 0x54E1 PUSH1 0x21 SWAP2 CODECOPY PUSH1 0x40 ADD SWAP2 POP POP PUSH1 0x40 MLOAD DUP1 SWAP2 SUB SWAP1 PUSH2 0x287C PUSH2 0x4FA9 JUMP JUMPDEST POP POP JUMPDEST SWAP4 SWAP3 POP POP POP JUMP JUMPDEST PUSH1 0x1 PUSH1 0x1 PUSH1 0xA0 SHL SUB DUP3 AND PUSH1 0x0 SWAP1 DUP2 MSTORE PUSH1 0x8 PUSH1 0x20 MSTORE PUSH1 0x60 SWAP1 PUSH1 0x40 DUP2 KECCAK256 PUSH1 0x10 SWAP1 PUSH2 0x28AC PUSH2 0x5014 JUMP JUMPDEST SWAP1 PUSH2 0x100 EXP SWAP1 DIV PUSH4 0xFFFFFFFF AND SWAP1 POP PUSH1 0x0 PUSH1 0x7 PUSH1 0x0 SWAP1 PUSH2 0x28CA PUSH2 0x5014 JUMP JUMPDEST SWAP1 PUSH2 0x100 EXP SWAP1 DIV PUSH4 0xFFFFFFFF AND SWAP1 POP DUP2 PUSH4 0xFFFFFFFF AND PUSH1 0x0 EQ ISZERO PUSH2 0x291C JUMPI PUSH1 0x40 MLOAD DUP1 PUSH1 0x40 ADD PUSH1 0x40 MSTORE DUP1 PUSH1 0x12 DUP2 MSTORE PUSH1 0x20 ADD PUSH18 0x6E6F7420656E61626C6564206F7261636C65 PUSH1 0x70 SHL DUP2 MSTORE POP SWAP3 POP POP POP PUSH2 0x2817 JUMP JUMPDEST DUP4 PUSH4 0xFFFFFFFF AND DUP3 PUSH4 0xFFFFFFFF AND GT ISZERO PUSH2 0x2968 JUMPI PUSH1 0x40 MLOAD DUP1 PUSH1 0x40 ADD PUSH1 0x40 MSTORE DUP1 PUSH1 0x16 DUP2 MSTORE PUSH1 0x20 ADD PUSH22 0x6E6F742079657420656E61626C6564206F7261636C65 PUSH1 0x50 SHL DUP2 MSTORE POP SWAP3 POP POP POP PUSH2 0x2817 JUMP JUMPDEST PUSH1 0x1 PUSH1 0x1 PUSH1 0xA0 SHL SUB DUP6 AND PUSH1 0x0 SWAP1 DUP2 MSTORE PUSH1 0x8 PUSH1 0x20 MSTORE PUSH4 0xFFFFFFFF DUP6 AND SWAP1 PUSH1 0x40 SWAP1 KECCAK256 PUSH1 0x14 SWAP1 PUSH2 0x2993 PUSH2 0x5014 JUMP JUMPDEST SWAP1 PUSH2 0x100 EXP SWAP1 DIV PUSH4 0xFFFFFFFF AND PUSH4 0xFFFFFFFF AND LT ISZERO PUSH2 0x29E6 JUMPI PUSH1 0x40 MLOAD DUP1 PUSH1 0x40 ADD PUSH1 0x40 MSTORE DUP1 PUSH1 0x18 DUP2 MSTORE PUSH1 0x20 ADD PUSH24 0x6E6F206C6F6E67657220616C6C6F776564206F7261636C65 PUSH1 0x40 SHL DUP2 MSTORE POP SWAP3 POP POP POP PUSH2 0x2817 JUMP JUMPDEST PUSH1 0x1 PUSH1 0x1 PUSH1 0xA0 SHL SUB DUP6 AND PUSH1 0x0 SWAP1 DUP2 MSTORE PUSH1 0x8 PUSH1 0x20 MSTORE PUSH4 0xFFFFFFFF DUP6 AND SWAP1 PUSH1 0x40 SWAP1 KECCAK256 PUSH1 0x18 SWAP1 PUSH2 0x2A11 PUSH2 0x5014 JUMP JUMPDEST SWAP1 PUSH2 0x100 EXP SWAP1 DIV PUSH4 0xFFFFFFFF AND PUSH4 0xFFFFFFFF AND LT PUSH2 0x2A68 JUMPI PUSH1 0x40 MLOAD DUP1 PUSH1 0x40 ADD PUSH1 0x40 MSTORE DUP1 PUSH1 0x20 DUP2 MSTORE PUSH1 0x20 ADD PUSH32 0x63616E6E6F74207265706F7274206F6E2070726576696F757320726F756E6473 DUP2 MSTORE POP SWAP3 POP POP POP PUSH2 0x2817 JUMP JUMPDEST DUP1 PUSH4 0xFFFFFFFF AND DUP5 PUSH4 0xFFFFFFFF AND EQ ISZERO DUP1 ISZERO PUSH2 0x2AA4 JUMPI POP PUSH2 0x2A94 PUSH4 0xFFFFFFFF DUP1 DUP4 AND SWAP1 PUSH1 0x1 SWAP1 PUSH2 0x3E09 AND JUMP JUMPDEST PUSH4 0xFFFFFFFF AND DUP5 PUSH4 0xFFFFFFFF AND EQ ISZERO JUMPDEST DUP1 ISZERO PUSH2 0x2AB7 JUMPI POP PUSH2 0x2AB5 DUP5 DUP3 PUSH2 0x3F7F JUMP JUMPDEST ISZERO JUMPDEST ISZERO PUSH2 0x2AF5 JUMPI PUSH1 0x40 MLOAD DUP1 PUSH1 0x40 ADD PUSH1 0x40 MSTORE DUP1 PUSH1 0x17 DUP2 MSTORE PUSH1 0x20 ADD PUSH23 0x1A5B9D985B1A59081C9BDD5B99081D1BC81C995C1BDC9D PUSH1 0x4A SHL DUP2 MSTORE POP SWAP3 POP POP POP PUSH2 0x2817 JUMP JUMPDEST DUP4 PUSH4 0xFFFFFFFF AND PUSH1 0x1 EQ ISZERO DUP1 ISZERO PUSH2 0x2B26 JUMPI POP PUSH2 0x2B24 PUSH2 0x2B1F PUSH4 0xFFFFFFFF DUP1 DUP8 AND SWAP1 PUSH1 0x1 SWAP1 PUSH2 0x3FED AND JUMP JUMPDEST PUSH2 0x4043 JUMP JUMPDEST ISZERO JUMPDEST ISZERO PUSH2 0x2B6A JUMPI PUSH1 0x40 MLOAD DUP1 PUSH1 0x40 ADD PUSH1 0x40 MSTORE DUP1 PUSH1 0x1F DUP2 MSTORE PUSH1 0x20 ADD PUSH32 0x70726576696F757320726F756E64206E6F7420737570657273656461626C6500 DUP2 MSTORE POP SWAP3 POP POP POP PUSH2 0x2817 JUMP JUMPDEST POP POP SWAP3 SWAP2 POP POP JUMP JUMPDEST PUSH2 0x2B7B DUP2 PUSH2 0x4090 JUMP JUMPDEST PUSH2 0x2B84 JUMPI PUSH2 0x2C70 JUMP JUMPDEST PUSH1 0x0 PUSH1 0x8 PUSH1 0x0 GAS PUSH2 0x2B93 PUSH2 0x506F JUMP JUMPDEST PUSH1 0x1 PUSH1 0x1 PUSH1 0xA0 SHL SUB AND PUSH1 0x1 PUSH1 0x1 PUSH1 0xA0 SHL SUB AND DUP2 MSTORE PUSH1 0x20 ADD SWAP1 DUP2 MSTORE PUSH1 0x20 ADD PUSH1 0x0 KECCAK256 PUSH1 0x1C SWAP1 PUSH2 0x2BBE PUSH2 0x5014 JUMP JUMPDEST PUSH4 0xFFFFFFFF PUSH2 0x100 SWAP3 SWAP1 SWAP3 EXP SWAP1 DIV AND SWAP1 POP PUSH1 0x18 PUSH1 0x4 PUSH2 0x2BDB PUSH2 0x5014 JUMP JUMPDEST SWAP1 PUSH2 0x100 EXP SWAP1 DIV PUSH4 0xFFFFFFFF AND PUSH4 0xFFFFFFFF AND DUP2 ADD DUP3 PUSH4 0xFFFFFFFF AND GT ISZERO DUP1 ISZERO PUSH2 0x2C04 JUMPI POP DUP1 ISZERO ISZERO JUMPDEST ISZERO PUSH2 0x2C0F JUMPI POP PUSH2 0x2C70 JUMP JUMPDEST PUSH2 0x2C18 DUP3 PUSH2 0x40B7 JUMP JUMPDEST DUP2 PUSH1 0x8 PUSH1 0x0 GAS PUSH2 0x2C26 PUSH2 0x506F JUMP JUMPDEST PUSH1 0x1 PUSH1 0x1 PUSH1 0xA0 SHL SUB AND PUSH1 0x1 PUSH1 0x1 PUSH1 0xA0 SHL SUB AND DUP2 MSTORE PUSH1 0x20 ADD SWAP1 DUP2 MSTORE PUSH1 0x20 ADD PUSH1 0x0 KECCAK256 PUSH1 0x1 PUSH1 0xE0 SHL DUP2 PUSH2 0x2C54 PUSH2 0x5014 JUMP JUMPDEST DUP2 PUSH4 0xFFFFFFFF MUL NOT AND SWAP1 DUP4 PUSH4 0xFFFFFFFF AND MUL OR SWAP1 PUSH2 0xD14 PUSH2 0x50B5 JUMP JUMPDEST POP JUMP JUMPDEST PUSH2 0x2C7C DUP2 PUSH2 0x43B0 JUMP JUMPDEST PUSH2 0x2C8E JUMPI PUSH1 0x0 DUP1 PUSH2 0x2C8B PUSH2 0x4FA9 JUMP JUMPDEST POP POP JUMPDEST PUSH4 0xFFFFFFFF DUP2 AND PUSH1 0x0 SWAP1 DUP2 MSTORE PUSH1 0xA PUSH1 0x20 MSTORE PUSH1 0x40 SWAP1 KECCAK256 DUP3 SWAP1 DUP1 PUSH1 0x1 DUP2 PUSH2 0x2CB1 PUSH2 0x5014 JUMP JUMPDEST ADD DUP1 DUP3 PUSH2 0x2CBC PUSH2 0x50B5 JUMP JUMPDEST POP POP PUSH1 0x0 SWAP3 DUP4 MSTORE PUSH1 0x0 NOT ADD SWAP2 PUSH1 0x20 SWAP2 POP KECCAK256 ADD PUSH2 0x2CD6 PUSH2 0x50B5 JUMP JUMPDEST POP POP DUP1 PUSH1 0x8 PUSH1 0x0 GAS PUSH2 0x2CE6 PUSH2 0x506F JUMP JUMPDEST PUSH1 0x1 PUSH1 0x1 PUSH1 0xA0 SHL SUB AND PUSH1 0x1 PUSH1 0x1 PUSH1 0xA0 SHL SUB AND DUP2 MSTORE PUSH1 0x20 ADD SWAP1 DUP2 MSTORE PUSH1 0x20 ADD PUSH1 0x0 KECCAK256 PUSH1 0x1 PUSH1 0xC0 SHL DUP2 PUSH2 0x2D14 PUSH2 0x5014 JUMP JUMPDEST DUP2 PUSH4 0xFFFFFFFF MUL NOT AND SWAP1 DUP4 PUSH4 0xFFFFFFFF AND MUL OR SWAP1 PUSH2 0x2D30 PUSH2 0x50B5 JUMP JUMPDEST POP POP POP DUP2 PUSH1 0x8 PUSH1 0x0 GAS PUSH2 0x2D41 PUSH2 0x506F JUMP JUMPDEST PUSH1 0x1 PUSH1 0x1 PUSH1 0xA0 SHL SUB AND PUSH1 0x1 PUSH1 0x1 PUSH1 0xA0 SHL SUB AND DUP2 MSTORE PUSH1 0x20 ADD SWAP1 DUP2 MSTORE PUSH1 0x20 ADD PUSH1 0x0 KECCAK256 PUSH1 0x1 ADD DUP2 SWAP1 PUSH2 0x2D6E PUSH2 0x50B5 JUMP JUMPDEST POP POP POP GAS PUSH2 0x2D7A PUSH2 0x506F JUMP JUMPDEST PUSH1 0x1 PUSH1 0x1 PUSH1 0xA0 SHL SUB AND DUP2 PUSH4 0xFFFFFFFF AND DUP4 PUSH32 0x92E98423F8ADAC6E64D0608E519FD1CEFB861498385C6DEE70D58FC926DDC68C PUSH1 0x40 MLOAD PUSH1 0x40 MLOAD DUP1 SWAP2 SUB SWAP1 LOG4 POP POP JUMP JUMPDEST PUSH4 0xFFFFFFFF DUP2 AND PUSH1 0x0 SWAP1 DUP2 MSTORE PUSH1 0xA PUSH1 0x20 MSTORE DUP1 PUSH1 0x40 DUP2 KECCAK256 PUSH1 0x1 ADD PUSH1 0x4 SWAP1 PUSH2 0x2DDF PUSH2 0x5014 JUMP JUMPDEST PUSH4 0xFFFFFFFF DUP6 DUP2 AND PUSH1 0x0 SWAP1 DUP2 MSTORE PUSH1 0xA PUSH1 0x20 MSTORE PUSH2 0x100 SWAP4 SWAP1 SWAP4 EXP SWAP1 SWAP2 DIV AND SWAP1 PUSH1 0x40 SWAP1 KECCAK256 DUP1 PUSH2 0x2E0A PUSH2 0x5014 JUMP JUMPDEST SWAP1 POP LT ISZERO PUSH2 0x2E1D JUMPI POP PUSH1 0x0 SWAP1 POP DUP1 PUSH2 0x2FDA JUMP JUMPDEST PUSH4 0xFFFFFFFF DUP4 AND PUSH1 0x0 SWAP1 DUP2 MSTORE PUSH1 0xA PUSH1 0x20 MSTORE PUSH2 0x2E9D PUSH1 0x40 DUP3 KECCAK256 DUP1 PUSH2 0x2E3E PUSH2 0x5014 JUMP JUMPDEST DUP1 PUSH1 0x20 MUL PUSH1 0x20 ADD PUSH1 0x40 MLOAD SWAP1 DUP2 ADD PUSH1 0x40 MSTORE DUP2 DUP2 MSTORE SWAP2 SWAP1 PUSH1 0x20 DUP4 ADD DUP3 DUP1 PUSH2 0x2E61 PUSH2 0x5014 JUMP JUMPDEST DUP1 ISZERO PUSH2 0x2E93 JUMPI PUSH1 0x20 MUL DUP3 ADD SWAP2 SWAP1 PUSH1 0x0 MSTORE PUSH1 0x20 PUSH1 0x0 KECCAK256 SWAP1 JUMPDEST DUP2 PUSH2 0x2E81 PUSH2 0x5014 JUMP JUMPDEST DUP2 MSTORE PUSH1 0x20 ADD SWAP1 PUSH1 0x1 ADD SWAP1 DUP1 DUP4 GT PUSH2 0x2E78 JUMPI JUMPDEST POP POP POP POP POP PUSH2 0x43EA JUMP JUMPDEST PUSH4 0xFFFFFFFF DUP6 AND PUSH1 0x0 SWAP1 DUP2 MSTORE PUSH1 0x9 PUSH1 0x20 MSTORE SWAP1 SWAP2 POP DUP2 SWAP1 PUSH1 0x40 SWAP1 KECCAK256 DUP2 SWAP1 PUSH2 0x2EC1 PUSH2 0x50B5 JUMP JUMPDEST POP POP POP GAS PUSH2 0x2ECD PUSH2 0x533D JUMP JUMPDEST PUSH4 0xFFFFFFFF DUP6 AND PUSH1 0x0 SWAP1 DUP2 MSTORE PUSH1 0x9 PUSH1 0x20 MSTORE PUSH1 0x40 SWAP1 KECCAK256 PUSH1 0x1 ADD PUSH1 0x1 PUSH1 0x40 SHL DUP2 PUSH2 0x2EF3 PUSH2 0x5014 JUMP JUMPDEST DUP2 PUSH1 0x1 PUSH1 0x1 PUSH1 0x40 SHL SUB MUL NOT AND SWAP1 DUP4 PUSH1 0x1 PUSH1 0x1 PUSH1 0x40 SHL SUB AND MUL OR SWAP1 PUSH2 0x2F15 PUSH2 0x50B5 JUMP JUMPDEST POP POP POP PUSH4 0xFFFFFFFF DUP5 AND PUSH1 0x0 SWAP1 DUP2 MSTORE PUSH1 0x9 PUSH1 0x20 MSTORE DUP5 SWAP1 PUSH1 0x40 SWAP1 KECCAK256 PUSH1 0x1 ADD PUSH1 0x1 PUSH1 0x80 SHL DUP2 PUSH2 0x2F40 PUSH2 0x5014 JUMP JUMPDEST DUP2 PUSH4 0xFFFFFFFF MUL NOT AND SWAP1 DUP4 PUSH4 0xFFFFFFFF AND MUL OR SWAP1 PUSH2 0x2F5C PUSH2 0x50B5 JUMP JUMPDEST POP POP POP DUP4 PUSH1 0x7 PUSH1 0x4 PUSH2 0x100 EXP DUP2 PUSH2 0x2F71 PUSH2 0x5014 JUMP JUMPDEST DUP2 PUSH4 0xFFFFFFFF MUL NOT AND SWAP1 DUP4 PUSH4 0xFFFFFFFF AND MUL OR SWAP1 PUSH2 0x2F8D PUSH2 0x50B5 JUMP JUMPDEST POP POP POP DUP4 PUSH4 0xFFFFFFFF AND DUP2 PUSH32 0x559884FD3A460DB3073B7FC896CC77986F16E378210DED43186175BF646FC5F GAS PUSH2 0x2FC2 PUSH2 0x533D JUMP JUMPDEST PUSH1 0x40 MLOAD SWAP1 DUP2 MSTORE PUSH1 0x20 ADD PUSH1 0x40 MLOAD DUP1 SWAP2 SUB SWAP1 LOG3 PUSH1 0x1 SWAP3 POP SWAP1 POP JUMPDEST SWAP2 POP SWAP2 JUMP JUMPDEST PUSH4 0xFFFFFFFF DUP2 AND PUSH1 0x0 SWAP1 DUP2 MSTORE PUSH1 0xA PUSH1 0x20 MSTORE PUSH1 0x40 DUP2 KECCAK256 PUSH1 0x1 ADD PUSH1 0xC SWAP1 PUSH2 0x3002 PUSH2 0x5014 JUMP JUMPDEST SWAP1 PUSH2 0x100 EXP SWAP1 DIV PUSH1 0x1 PUSH1 0x1 PUSH1 0x80 SHL SUB AND SWAP1 POP PUSH2 0x301C PUSH2 0x523A JUMP JUMPDEST PUSH1 0xD PUSH1 0x40 MLOAD PUSH1 0x40 DUP1 DUP3 ADD SWAP1 MSTORE SWAP1 DUP2 PUSH1 0x0 DUP3 PUSH2 0x3035 PUSH2 0x5014 JUMP JUMPDEST PUSH1 0x1 PUSH1 0x1 PUSH1 0x80 SHL SUB PUSH2 0x100 SWAP3 SWAP1 SWAP3 EXP SWAP1 DIV AND DUP2 MSTORE PUSH1 0x20 ADD PUSH1 0x10 DUP3 PUSH2 0x3057 PUSH2 0x5014 JUMP JUMPDEST PUSH1 0x1 PUSH1 0x1 PUSH1 0x80 SHL SUB PUSH2 0x100 SWAP3 SWAP1 SWAP3 EXP SWAP1 DIV AND SWAP1 MSTORE POP SWAP1 POP PUSH2 0x3083 DUP3 DUP3 MLOAD PUSH1 0x1 PUSH1 0x1 PUSH1 0x80 SHL SUB AND SWAP1 PUSH2 0x3A0F JUMP JUMPDEST PUSH1 0x1 PUSH1 0x1 PUSH1 0x80 SHL SUB AND DUP2 MSTORE PUSH2 0x30A6 DUP3 PUSH1 0x20 DUP4 ADD MLOAD PUSH1 0x1 PUSH1 0x1 PUSH1 0x80 SHL SUB AND SWAP1 PUSH2 0x449F JUMP JUMPDEST PUSH1 0x1 PUSH1 0x1 PUSH1 0x80 SHL SUB AND PUSH1 0x20 DUP3 ADD MSTORE DUP1 PUSH1 0xD DUP2 MLOAD DUP2 PUSH1 0x1 DUP2 PUSH2 0x30C5 PUSH2 0x5014 JUMP JUMPDEST DUP2 PUSH1 0x1 PUSH1 0x1 PUSH1 0x80 SHL SUB MUL NOT AND SWAP1 DUP4 PUSH1 0x1 PUSH1 0x1 PUSH1 0x80 SHL SUB AND MUL OR SWAP1 PUSH2 0x30E7 PUSH2 0x50B5 JUMP JUMPDEST POP POP POP PUSH1 0x20 DUP3 ADD MLOAD DUP2 PUSH1 0x1 PUSH1 0x80 SHL DUP2 PUSH2 0x30FE PUSH2 0x5014 JUMP JUMPDEST DUP2 PUSH1 0x1 PUSH1 0x1 PUSH1 0x80 SHL SUB MUL NOT AND SWAP1 DUP4 PUSH1 0x1 PUSH1 0x1 PUSH1 0x80 SHL SUB AND MUL OR SWAP1 PUSH2 0x3120 PUSH2 0x50B5 JUMP JUMPDEST POP POP POP SWAP1 POP POP PUSH2 0x317A DUP3 PUSH1 0x8 PUSH1 0x0 GAS PUSH2 0x3137 PUSH2 0x506F JUMP JUMPDEST PUSH1 0x1 PUSH1 0x1 PUSH1 0xA0 SHL SUB AND PUSH1 0x1 PUSH1 0x1 PUSH1 0xA0 SHL SUB AND DUP2 MSTORE PUSH1 0x20 ADD SWAP1 DUP2 MSTORE PUSH1 0x20 ADD PUSH1 0x0 KECCAK256 PUSH1 0x0 SWAP1 PUSH2 0x3162 PUSH2 0x5014 JUMP JUMPDEST PUSH1 0x1 PUSH1 0x1 PUSH1 0x80 SHL SUB PUSH2 0x100 SWAP3 SWAP1 SWAP3 EXP SWAP1 DIV AND SWAP1 PUSH2 0x449F JUMP JUMPDEST PUSH1 0x8 PUSH1 0x0 GAS PUSH2 0x3187 PUSH2 0x506F JUMP JUMPDEST PUSH1 0x1 PUSH1 0x1 PUSH1 0xA0 SHL SUB AND PUSH1 0x1 PUSH1 0x1 PUSH1 0xA0 SHL SUB AND DUP2 MSTORE PUSH1 0x20 ADD SWAP1 DUP2 MSTORE PUSH1 0x20 ADD PUSH1 0x0 KECCAK256 PUSH1 0x1 DUP2 PUSH2 0x31B2 PUSH2 0x5014 JUMP JUMPDEST DUP2 PUSH1 0x1 PUSH1 0x1 PUSH1 0x80 SHL SUB MUL NOT AND SWAP1 DUP4 PUSH1 0x1 PUSH1 0x1 PUSH1 0x80 SHL SUB AND MUL OR SWAP1 PUSH2 0x31D4 PUSH2 0x50B5 JUMP JUMPDEST POP DUP3 SWAP2 POP POP MLOAD PUSH1 0x1 PUSH1 0x1 PUSH1 0x80 SHL SUB AND PUSH1 0x0 DUP1 MLOAD PUSH1 0x20 PUSH2 0x5542 DUP4 CODECOPY DUP2 MLOAD SWAP2 MSTORE PUSH1 0x40 MLOAD PUSH1 0x40 MLOAD DUP1 SWAP2 SUB SWAP1 LOG2 POP POP POP JUMP JUMPDEST PUSH4 0xFFFFFFFF DUP2 AND PUSH1 0x0 SWAP1 DUP2 MSTORE PUSH1 0xA PUSH1 0x20 MSTORE PUSH1 0x40 SWAP1 KECCAK256 PUSH1 0x1 ADD PUSH1 0x0 SWAP1 PUSH2 0x3225 PUSH2 0x5014 JUMP JUMPDEST PUSH4 0xFFFFFFFF DUP4 DUP2 AND PUSH1 0x0 SWAP1 DUP2 MSTORE PUSH1 0xA PUSH1 0x20 MSTORE PUSH2 0x100 SWAP4 SWAP1 SWAP4 EXP SWAP1 SWAP2 DIV AND SWAP1 PUSH1 0x40 SWAP1 KECCAK256 DUP1 PUSH2 0x3250 PUSH2 0x5014 JUMP JUMPDEST SWAP1 POP LT ISZERO PUSH2 0x325D JUMPI PUSH2 0x2C70 JUMP JUMPDEST PUSH4 0xFFFFFFFF DUP2 AND PUSH1 0x0 SWAP1 DUP2 MSTORE PUSH1 0xA PUSH1 0x20 MSTORE PUSH1 0x40 SWAP1 KECCAK256 PUSH1 0x0 PUSH2 0x327E DUP3 DUP3 PUSH2 0x5383 JUMP JUMPDEST PUSH1 0x1 DUP3 DUP2 ADD SWAP1 DUP2 PUSH2 0x328D PUSH2 0x5014 JUMP JUMPDEST SWAP1 PUSH4 0xFFFFFFFF MUL NOT AND SWAP1 PUSH2 0x329F PUSH2 0x50B5 JUMP JUMPDEST POP POP PUSH1 0x1 DUP3 ADD PUSH1 0x1 PUSH1 0x20 SHL DUP2 PUSH2 0x32B3 PUSH2 0x5014 JUMP JUMPDEST SWAP1 PUSH4 0xFFFFFFFF MUL NOT AND SWAP1 PUSH2 0x32C5 PUSH2 0x50B5 JUMP JUMPDEST POP POP PUSH1 0x1 DUP3 ADD PUSH1 0x1 PUSH1 0x40 SHL DUP2 PUSH2 0x32D9 PUSH2 0x5014 JUMP JUMPDEST SWAP1 PUSH4 0xFFFFFFFF MUL NOT AND SWAP1 PUSH2 0x32EB PUSH2 0x50B5 JUMP JUMPDEST POP POP PUSH1 0x1 DUP3 ADD PUSH1 0x1 PUSH1 0x60 SHL DUP2 PUSH2 0x32FF PUSH2 0x5014 JUMP JUMPDEST SWAP1 PUSH1 0x1 PUSH1 0x1 PUSH1 0x80 SHL SUB MUL NOT AND SWAP1 PUSH2 0xD14 PUSH2 0x50B5 JUMP JUMPDEST PUSH1 0x0 DUP1 PUSH1 0x3 PUSH2 0x3321 PUSH2 0x5014 JUMP JUMPDEST PUSH1 0x1 PUSH1 0x1 PUSH1 0xA0 SHL SUB PUSH2 0x100 SWAP3 SWAP1 SWAP3 EXP SWAP1 DIV AND SWAP1 POP DUP1 PUSH2 0x3340 JUMPI POP PUSH2 0xB24 JUMP JUMPDEST PUSH1 0x0 PUSH2 0x3357 PUSH4 0xFFFFFFFF DUP1 DUP7 AND SWAP1 PUSH1 0x1 SWAP1 PUSH2 0x3FED AND JUMP JUMPDEST PUSH4 0xFFFFFFFF DUP2 AND PUSH1 0x0 SWAP1 DUP2 MSTORE PUSH1 0x9 PUSH1 0x20 MSTORE SWAP1 SWAP2 POP PUSH1 0x40 DUP2 KECCAK256 PUSH1 0x1 ADD PUSH1 0x10 SWAP1 PUSH2 0x337D PUSH2 0x5014 JUMP JUMPDEST PUSH4 0xFFFFFFFF DUP5 DUP2 AND PUSH1 0x0 SWAP1 DUP2 MSTORE PUSH1 0x9 PUSH1 0x20 MSTORE PUSH2 0x100 SWAP4 SWAP1 SWAP4 EXP SWAP1 SWAP2 DIV AND SWAP2 POP PUSH1 0x40 DUP2 KECCAK256 PUSH2 0x33A8 PUSH2 0x5014 JUMP JUMPDEST SWAP1 POP DUP4 PUSH1 0x1 PUSH1 0x1 PUSH1 0xA0 SHL SUB AND PUSH4 0xBEED9B51 PUSH3 0x493E0 DUP5 DUP5 DUP11 DUP11 PUSH1 0x40 MLOAD PUSH1 0x1 PUSH1 0x1 PUSH1 0xE0 SHL SUB NOT PUSH1 0xE0 DUP9 SWAP1 SHL AND DUP2 MSTORE PUSH4 0xFFFFFFFF SWAP5 DUP6 AND PUSH1 0x4 DUP3 ADD MSTORE PUSH1 0x24 DUP2 ADD SWAP4 SWAP1 SWAP4 MSTORE SWAP3 AND PUSH1 0x44 DUP3 ADD MSTORE PUSH1 0x64 DUP2 ADD SWAP2 SWAP1 SWAP2 MSTORE PUSH1 0x84 ADD PUSH1 0x20 PUSH1 0x40 MLOAD DUP1 DUP4 SUB DUP2 PUSH1 0x0 DUP9 DUP1 PUSH2 0x3411 PUSH2 0x5103 JUMP JUMPDEST ISZERO DUP1 ISZERO PUSH2 0x3426 JUMPI PUSH1 0x0 DUP1 PUSH2 0x3423 PUSH2 0x4FA9 JUMP JUMPDEST POP POP JUMPDEST POP DUP8 PUSH2 0x3430 PUSH2 0x514F JUMP JUMPDEST POP POP POP POP POP POP SWAP4 POP POP POP POP DUP1 ISZERO PUSH2 0x346B JUMPI POP PUSH1 0x40 MLOAD RETURNDATASIZE PUSH1 0x20 DUP2 LT ISZERO PUSH2 0x345D JUMPI PUSH1 0x0 DUP1 PUSH2 0x345A PUSH2 0x4FA9 JUMP JUMPDEST POP POP JUMPDEST DUP2 ADD SWAP1 DUP1 DUP1 MLOAD SWAP3 POP PUSH1 0x1 SWAP2 POP POP JUMPDEST PUSH2 0x3474 JUMPI PUSH2 0x3476 JUMP JUMPDEST POP JUMPDEST POP POP POP POP POP POP JUMP JUMPDEST PUSH1 0x0 PUSH2 0x2817 PUSH1 0x2 PUSH2 0x349A PUSH2 0x3490 PUSH2 0x199B JUMP JUMPDEST DUP6 SWAP1 PUSH1 0xFF AND PUSH2 0x281D JUMP JUMPDEST SWAP1 PUSH2 0x281D JUMP JUMPDEST PUSH2 0x34A9 DUP2 PUSH2 0x44F8 JUMP JUMPDEST PUSH2 0x34BB JUMPI PUSH1 0x0 DUP1 PUSH2 0x34B8 PUSH2 0x4FA9 JUMP JUMPDEST POP POP JUMPDEST PUSH2 0x34E4 PUSH1 0x1 PUSH1 0x0 PUSH1 0x7 PUSH2 0x34CC PUSH2 0x5014 JUMP JUMPDEST PUSH4 0xFFFFFFFF PUSH2 0x100 SWAP3 SWAP1 SWAP3 EXP SWAP1 DIV DUP2 AND SWAP2 SWAP1 PUSH2 0x3E09 AND JUMP JUMPDEST PUSH1 0x1 PUSH1 0x1 PUSH1 0xA0 SHL SUB DUP3 AND PUSH1 0x0 SWAP1 DUP2 MSTORE PUSH1 0x8 PUSH1 0x20 MSTORE PUSH1 0x40 SWAP1 KECCAK256 PUSH1 0x1 PUSH1 0xA0 SHL DUP2 PUSH2 0x350A PUSH2 0x5014 JUMP JUMPDEST DUP2 PUSH4 0xFFFFFFFF MUL NOT AND SWAP1 DUP4 PUSH4 0xFFFFFFFF AND MUL OR SWAP1 PUSH2 0x3526 PUSH2 0x50B5 JUMP JUMPDEST POP POP POP PUSH1 0x0 PUSH1 0xC PUSH2 0x3543 PUSH1 0x1 PUSH2 0x353A PUSH2 0x199B JUMP JUMPDEST PUSH1 0xFF AND SWAP1 PUSH2 0x27C5 JUMP JUMPDEST DUP2 PUSH2 0x354C PUSH2 0x5014 JUMP JUMPDEST DUP2 LT PUSH2 0x3554 JUMPI INVALID JUMPDEST SWAP1 PUSH1 0x0 MSTORE PUSH1 0x20 PUSH1 0x0 KECCAK256 ADD PUSH1 0x0 SWAP1 PUSH2 0x3569 PUSH2 0x5014 JUMP JUMPDEST PUSH1 0x1 PUSH1 0x1 PUSH1 0xA0 SHL SUB DUP5 DUP2 AND PUSH1 0x0 SWAP1 DUP2 MSTORE PUSH1 0x8 PUSH1 0x20 MSTORE PUSH2 0x100 SWAP4 SWAP1 SWAP4 EXP SWAP1 SWAP2 DIV AND SWAP2 POP PUSH1 0x40 DUP2 KECCAK256 PUSH1 0x2 ADD PUSH1 0x0 SWAP1 PUSH2 0x359D PUSH2 0x5014 JUMP JUMPDEST SWAP1 PUSH2 0x100 EXP SWAP1 DIV PUSH2 0xFFFF AND SWAP1 POP DUP1 PUSH1 0x8 PUSH1 0x0 DUP5 PUSH1 0x1 PUSH1 0x1 PUSH1 0xA0 SHL SUB AND PUSH1 0x1 PUSH1 0x1 PUSH1 0xA0 SHL SUB AND DUP2 MSTORE PUSH1 0x20 ADD SWAP1 DUP2 MSTORE PUSH1 0x20 ADD PUSH1 0x0 KECCAK256 PUSH1 0x2 ADD PUSH1 0x1 DUP2 PUSH2 0x35DE PUSH2 0x5014 JUMP JUMPDEST DUP2 PUSH2 0xFFFF MUL NOT AND SWAP1 DUP4 PUSH2 0xFFFF AND MUL OR SWAP1 PUSH2 0x35F6 PUSH2 0x50B5 JUMP JUMPDEST POP POP POP PUSH1 0x1 PUSH1 0x1 PUSH1 0xA0 SHL SUB DUP4 AND PUSH1 0x0 SWAP1 DUP2 MSTORE PUSH1 0x8 PUSH1 0x20 MSTORE PUSH1 0x40 SWAP1 KECCAK256 PUSH1 0x2 ADD PUSH1 0x1 DUP2 PUSH2 0x361F PUSH2 0x5014 JUMP JUMPDEST SWAP1 PUSH2 0xFFFF MUL NOT AND SWAP1 PUSH2 0x362F PUSH2 0x50B5 JUMP JUMPDEST POP POP DUP2 PUSH1 0xC DUP3 PUSH2 0xFFFF AND DUP2 PUSH2 0x3642 PUSH2 0x5014 JUMP JUMPDEST DUP2 LT PUSH2 0x364A JUMPI INVALID JUMPDEST SWAP1 PUSH1 0x0 MSTORE PUSH1 0x20 PUSH1 0x0 KECCAK256 ADD PUSH1 0x1 DUP2 PUSH2 0x365F PUSH2 0x5014 JUMP JUMPDEST DUP2 PUSH1 0x1 PUSH1 0x1 PUSH1 0xA0 SHL SUB MUL NOT AND SWAP1 DUP4 PUSH1 0x1 PUSH1 0x1 PUSH1 0xA0 SHL SUB AND MUL OR SWAP1 PUSH2 0x3681 PUSH2 0x50B5 JUMP JUMPDEST POP POP POP PUSH1 0xC DUP1 PUSH2 0x368F PUSH2 0x5014 JUMP JUMPDEST DUP1 PUSH2 0x3696 JUMPI INVALID JUMPDEST PUSH1 0x1 SWAP1 SUB DUP2 DUP2 SWAP1 PUSH1 0x0 MSTORE PUSH1 0x20 PUSH1 0x0 KECCAK256 ADD PUSH1 0x1 DUP2 PUSH2 0x36B1 PUSH2 0x5014 JUMP JUMPDEST SWAP1 PUSH1 0x1 PUSH1 0x1 PUSH1 0xA0 SHL SUB MUL NOT AND SWAP1 PUSH2 0x36C6 PUSH2 0x50B5 JUMP JUMPDEST POP POP SWAP1 PUSH2 0x36D1 PUSH2 0x50B5 JUMP JUMPDEST POP PUSH1 0x0 SWAP1 POP PUSH1 0x1 PUSH1 0x1 PUSH1 0xA0 SHL SUB DUP5 AND PUSH1 0x0 DUP1 MLOAD PUSH1 0x20 PUSH2 0x54A1 DUP4 CODECOPY DUP2 MLOAD SWAP2 MSTORE PUSH1 0x40 MLOAD PUSH1 0x40 MLOAD DUP1 SWAP2 SUB SWAP1 LOG3 POP POP POP JUMP JUMPDEST PUSH1 0x0 DUP3 DUP3 ADD DUP4 DUP2 LT ISZERO PUSH2 0x287F JUMPI PUSH1 0x40 MLOAD PUSH3 0x461BCD PUSH1 0xE5 SHL DUP2 MSTORE PUSH1 0x20 PUSH1 0x4 DUP3 ADD MSTORE PUSH1 0x1B PUSH1 0x24 DUP3 ADD MSTORE PUSH1 0x0 DUP1 MLOAD PUSH1 0x20 PUSH2 0x54C1 DUP4 CODECOPY DUP2 MLOAD SWAP2 MSTORE PUSH1 0x44 DUP3 ADD MSTORE PUSH1 0x64 ADD PUSH1 0x40 MLOAD DUP1 SWAP2 SUB SWAP1 PUSH2 0x287C PUSH2 0x4FA9 JUMP JUMPDEST PUSH2 0x3755 DUP3 PUSH2 0x44F8 JUMP JUMPDEST ISZERO PUSH2 0x3768 JUMPI PUSH1 0x0 DUP1 PUSH2 0x3765 PUSH2 0x4FA9 JUMP JUMPDEST POP POP JUMPDEST PUSH1 0x1 PUSH1 0x1 PUSH1 0xA0 SHL SUB DUP2 AND PUSH2 0x3784 JUMPI PUSH1 0x0 DUP1 PUSH2 0x3781 PUSH2 0x4FA9 JUMP JUMPDEST POP POP JUMPDEST PUSH1 0x1 PUSH1 0x1 PUSH1 0xA0 SHL SUB DUP3 AND PUSH1 0x0 SWAP1 DUP2 MSTORE PUSH1 0x8 PUSH1 0x20 MSTORE PUSH1 0x40 DUP2 KECCAK256 PUSH1 0x2 ADD PUSH1 0x2 SWAP1 PUSH2 0x37AA PUSH2 0x5014 JUMP JUMPDEST SWAP1 PUSH2 0x100 EXP SWAP1 DIV PUSH1 0x1 PUSH1 0x1 PUSH1 0xA0 SHL SUB AND PUSH1 0x1 PUSH1 0x1 PUSH1 0xA0 SHL SUB AND EQ DUP1 PUSH2 0x3810 JUMPI POP PUSH1 0x1 PUSH1 0x1 PUSH1 0xA0 SHL SUB DUP3 DUP2 AND PUSH1 0x0 SWAP1 DUP2 MSTORE PUSH1 0x8 PUSH1 0x20 MSTORE SWAP1 DUP3 AND SWAP1 PUSH1 0x40 SWAP1 KECCAK256 PUSH1 0x2 ADD PUSH1 0x2 SWAP1 PUSH2 0x37F5 PUSH2 0x5014 JUMP JUMPDEST SWAP1 PUSH2 0x100 EXP SWAP1 DIV PUSH1 0x1 PUSH1 0x1 PUSH1 0xA0 SHL SUB AND PUSH1 0x1 PUSH1 0x1 PUSH1 0xA0 SHL SUB AND EQ JUMPDEST PUSH2 0x3822 JUMPI PUSH1 0x0 DUP1 PUSH2 0x381F PUSH2 0x4FA9 JUMP JUMPDEST POP POP JUMPDEST PUSH2 0x382B DUP3 PUSH2 0x4536 JUMP JUMPDEST PUSH1 0x1 PUSH1 0x1 PUSH1 0xA0 SHL SUB DUP4 AND PUSH1 0x0 SWAP1 DUP2 MSTORE PUSH1 0x8 PUSH1 0x20 MSTORE PUSH1 0x40 SWAP1 KECCAK256 PUSH1 0x1 PUSH1 0x80 SHL DUP2 PUSH2 0x3851 PUSH2 0x5014 JUMP JUMPDEST DUP2 PUSH4 0xFFFFFFFF MUL NOT AND SWAP1 DUP4 PUSH4 0xFFFFFFFF AND MUL OR SWAP1 PUSH2 0x386D PUSH2 0x50B5 JUMP JUMPDEST POP POP POP PUSH1 0x1 PUSH1 0x1 PUSH1 0xA0 SHL SUB DUP3 AND PUSH1 0x0 SWAP1 DUP2 MSTORE PUSH1 0x8 PUSH1 0x20 MSTORE PUSH4 0xFFFFFFFF SWAP1 PUSH1 0x40 SWAP1 KECCAK256 PUSH1 0x1 PUSH1 0xA0 SHL DUP2 PUSH2 0x389C PUSH2 0x5014 JUMP JUMPDEST DUP2 PUSH4 0xFFFFFFFF MUL NOT AND SWAP1 DUP4 PUSH4 0xFFFFFFFF AND MUL OR SWAP1 PUSH2 0x38B8 PUSH2 0x50B5 JUMP JUMPDEST POP POP POP PUSH1 0xC DUP1 PUSH2 0x38C6 PUSH2 0x5014 JUMP JUMPDEST PUSH1 0x1 PUSH1 0x1 PUSH1 0xA0 SHL SUB DUP5 AND PUSH1 0x0 SWAP1 DUP2 MSTORE PUSH1 0x8 PUSH1 0x20 MSTORE SWAP1 SWAP2 POP PUSH1 0x40 SWAP1 KECCAK256 PUSH1 0x2 ADD PUSH1 0x1 DUP2 PUSH2 0x38EF PUSH2 0x5014 JUMP JUMPDEST DUP2 PUSH2 0xFFFF MUL NOT AND SWAP1 DUP4 PUSH2 0xFFFF AND MUL OR SWAP1 PUSH2 0x3907 PUSH2 0x50B5 JUMP JUMPDEST POP POP POP PUSH1 0xC DUP3 SWAP1 DUP1 PUSH1 0x1 DUP2 PUSH2 0x391A PUSH2 0x5014 JUMP JUMPDEST ADD DUP1 DUP3 PUSH2 0x3925 PUSH2 0x50B5 JUMP JUMPDEST POP POP PUSH1 0x0 SWAP3 DUP4 MSTORE PUSH1 0x0 NOT ADD SWAP2 PUSH1 0x20 SWAP2 POP KECCAK256 ADD PUSH1 0x1 DUP2 PUSH2 0x3942 PUSH2 0x5014 JUMP JUMPDEST DUP2 PUSH1 0x1 PUSH1 0x1 PUSH1 0xA0 SHL SUB MUL NOT AND SWAP1 DUP4 PUSH1 0x1 PUSH1 0x1 PUSH1 0xA0 SHL SUB AND MUL OR SWAP1 PUSH2 0x3964 PUSH2 0x50B5 JUMP JUMPDEST POP POP POP PUSH1 0x1 PUSH1 0x1 PUSH1 0xA0 SHL SUB DUP3 AND PUSH1 0x0 SWAP1 DUP2 MSTORE PUSH1 0x8 PUSH1 0x20 MSTORE DUP2 SWAP1 PUSH1 0x40 SWAP1 KECCAK256 PUSH1 0x2 ADD PUSH3 0x10000 DUP2 PUSH2 0x3991 PUSH2 0x5014 JUMP JUMPDEST DUP2 PUSH1 0x1 PUSH1 0x1 PUSH1 0xA0 SHL SUB MUL NOT AND SWAP1 DUP4 PUSH1 0x1 PUSH1 0x1 PUSH1 0xA0 SHL SUB AND MUL OR SWAP1 PUSH2 0x39B3 PUSH2 0x50B5 JUMP JUMPDEST POP PUSH1 0x1 SWAP2 POP POP PUSH1 0x1 PUSH1 0x1 PUSH1 0xA0 SHL SUB DUP4 AND PUSH1 0x0 DUP1 MLOAD PUSH1 0x20 PUSH2 0x54A1 DUP4 CODECOPY DUP2 MLOAD SWAP2 MSTORE PUSH1 0x40 MLOAD PUSH1 0x40 MLOAD DUP1 SWAP2 SUB SWAP1 LOG3 DUP1 PUSH1 0x1 PUSH1 0x1 PUSH1 0xA0 SHL SUB AND DUP3 PUSH1 0x1 PUSH1 0x1 PUSH1 0xA0 SHL SUB AND PUSH1 0x0 DUP1 MLOAD PUSH1 0x20 PUSH2 0x5460 DUP4 CODECOPY DUP2 MLOAD SWAP2 MSTORE PUSH1 0x40 MLOAD PUSH1 0x40 MLOAD DUP1 SWAP2 SUB SWAP1 LOG3 POP POP JUMP JUMPDEST PUSH1 0x0 DUP3 PUSH1 0x1 PUSH1 0x1 PUSH1 0x80 SHL SUB AND DUP3 PUSH1 0x1 PUSH1 0x1 PUSH1 0x80 SHL SUB AND GT ISZERO PUSH2 0x2812 JUMPI PUSH1 0x40 MLOAD PUSH3 0x461BCD PUSH1 0xE5 SHL DUP2 MSTORE PUSH1 0x20 PUSH1 0x4 DUP3 ADD MSTORE PUSH1 0x1E PUSH1 0x24 DUP3 ADD MSTORE PUSH1 0x0 DUP1 MLOAD PUSH1 0x20 PUSH2 0x5522 DUP4 CODECOPY DUP2 MLOAD SWAP2 MSTORE PUSH1 0x44 DUP3 ADD MSTORE PUSH1 0x64 ADD PUSH1 0x40 MLOAD DUP1 SWAP2 SUB SWAP1 PUSH2 0x280F PUSH2 0x4FA9 JUMP JUMPDEST PUSH4 0xFFFFFFFF DUP2 AND PUSH1 0x0 SWAP1 DUP2 MSTORE PUSH1 0x9 PUSH1 0x20 MSTORE DUP1 PUSH1 0x40 DUP2 KECCAK256 PUSH1 0x1 ADD PUSH1 0x0 SWAP1 PUSH2 0x3A8F PUSH2 0x5014 JUMP JUMPDEST SWAP1 PUSH2 0x100 EXP SWAP1 DIV PUSH1 0x1 PUSH1 0x1 PUSH1 0x40 SHL SUB AND PUSH1 0x1 PUSH1 0x1 PUSH1 0x40 SHL SUB AND GT ISZERO PUSH2 0x3AD2 JUMPI PUSH2 0x3AB7 DUP3 PUSH2 0x43B0 JUMP JUMPDEST DUP1 ISZERO PUSH2 0x3ACB JUMPI POP PUSH2 0x3AC8 DUP4 DUP4 PUSH2 0x2886 JUMP JUMPDEST MLOAD ISZERO JUMPDEST SWAP1 POP PUSH2 0x2817 JUMP JUMPDEST PUSH2 0x3AB7 DUP4 DUP4 PUSH2 0x45BF JUMP JUMPDEST PUSH1 0x0 DUP1 DUP1 MSTORE PUSH1 0x9 PUSH1 0x20 MSTORE DUP1 DUP1 DUP1 DUP1 DUP1 DUP1 DUP1 DUP1 PUSH1 0x40 DUP2 KECCAK256 PUSH1 0x1 PUSH1 0x1 PUSH1 0xA0 SHL SUB DUP12 AND PUSH1 0x0 SWAP1 DUP2 MSTORE PUSH1 0x8 PUSH1 0x20 MSTORE SWAP1 SWAP2 POP PUSH1 0x40 DUP2 KECCAK256 SWAP1 POP PUSH1 0x0 DUP1 PUSH1 0x7 PUSH2 0x3B1C PUSH2 0x5014 JUMP JUMPDEST PUSH4 0xFFFFFFFF PUSH2 0x100 SWAP3 SWAP1 SWAP3 EXP SWAP1 DIV AND PUSH1 0x18 DUP4 PUSH2 0x3B36 PUSH2 0x5014 JUMP JUMPDEST SWAP1 PUSH2 0x100 EXP SWAP1 DIV PUSH4 0xFFFFFFFF AND PUSH4 0xFFFFFFFF AND EQ DUP1 PUSH2 0x3B73 JUMPI POP PUSH2 0x3B71 PUSH1 0x0 PUSH1 0x7 PUSH2 0x3B5F PUSH2 0x5014 JUMP JUMPDEST SWAP1 PUSH2 0x100 EXP SWAP1 DIV PUSH4 0xFFFFFFFF AND PUSH2 0x43B0 JUMP JUMPDEST ISZERO JUMPDEST SWAP1 POP PUSH2 0x3B96 PUSH1 0x0 PUSH1 0x7 PUSH2 0x3B84 PUSH2 0x5014 JUMP JUMPDEST SWAP1 PUSH2 0x100 EXP SWAP1 DIV PUSH4 0xFFFFFFFF AND PUSH2 0x4043 JUMP JUMPDEST DUP1 ISZERO PUSH2 0x3B9F JUMPI POP DUP1 JUMPDEST ISZERO PUSH2 0x3BFE JUMPI PUSH2 0x3BB5 PUSH1 0x1 PUSH1 0x0 PUSH1 0x7 PUSH2 0x34CC PUSH2 0x5014 JUMP JUMPDEST PUSH4 0xFFFFFFFF DUP2 AND PUSH1 0x0 SWAP1 DUP2 MSTORE PUSH1 0x9 PUSH1 0x20 MSTORE SWAP1 SWAP11 POP PUSH1 0x40 SWAP1 KECCAK256 SWAP3 POP PUSH1 0x0 PUSH1 0x4 PUSH2 0x3BDB PUSH2 0x5014 JUMP JUMPDEST SWAP1 PUSH2 0x100 EXP SWAP1 DIV PUSH1 0x1 PUSH1 0x1 PUSH1 0x80 SHL SUB AND SWAP4 POP PUSH2 0x3BF7 DUP13 DUP12 PUSH2 0x45BF JUMP JUMPDEST SWAP11 POP PUSH2 0x3C6E JUMP JUMPDEST PUSH1 0x0 PUSH1 0x7 PUSH2 0x3C0A PUSH2 0x5014 JUMP JUMPDEST PUSH4 0xFFFFFFFF PUSH2 0x100 SWAP3 SWAP1 SWAP3 EXP SWAP1 DIV AND PUSH1 0x0 DUP2 DUP2 MSTORE PUSH1 0x9 PUSH1 0x20 MSTORE SWAP1 SWAP11 POP PUSH1 0x40 SWAP1 KECCAK256 PUSH4 0xFFFFFFFF DUP12 AND PUSH1 0x0 SWAP1 DUP2 MSTORE PUSH1 0xA PUSH1 0x20 MSTORE SWAP1 SWAP4 POP PUSH1 0x40 SWAP1 KECCAK256 PUSH1 0x1 ADD PUSH1 0xC SWAP1 PUSH2 0x3C50 PUSH2 0x5014 JUMP JUMPDEST SWAP1 PUSH2 0x100 EXP SWAP1 DIV PUSH1 0x1 PUSH1 0x1 PUSH1 0x80 SHL SUB AND SWAP4 POP PUSH2 0x3C6B DUP11 PUSH2 0x43B0 JUMP JUMPDEST SWAP11 POP JUMPDEST PUSH2 0x3C78 DUP13 DUP12 PUSH2 0x2886 JUMP JUMPDEST MLOAD ISZERO PUSH2 0x3C83 JUMPI PUSH1 0x0 SWAP11 POP JUMPDEST DUP11 DUP11 DUP4 PUSH1 0x1 ADD PUSH2 0x3C91 PUSH2 0x5014 JUMP JUMPDEST PUSH1 0x0 PUSH1 0x1 DUP8 ADD PUSH2 0x3C9F PUSH2 0x5014 JUMP JUMPDEST SWAP1 PUSH2 0x100 EXP SWAP1 DIV PUSH1 0x1 PUSH1 0x1 PUSH1 0x40 SHL SUB AND PUSH1 0xA PUSH1 0x0 DUP16 PUSH4 0xFFFFFFFF AND PUSH4 0xFFFFFFFF AND DUP2 MSTORE PUSH1 0x20 ADD SWAP1 DUP2 MSTORE PUSH1 0x20 ADD PUSH1 0x0 KECCAK256 PUSH1 0x1 ADD PUSH1 0x8 SWAP1 PUSH2 0x3CDC PUSH2 0x5014 JUMP JUMPDEST PUSH4 0xFFFFFFFF PUSH2 0x100 SWAP3 SWAP1 SWAP3 EXP SWAP1 DIV AND PUSH1 0x0 PUSH1 0xD PUSH2 0x3CF7 PUSH2 0x5014 JUMP JUMPDEST SWAP1 PUSH2 0x100 EXP SWAP1 DIV PUSH1 0x1 PUSH1 0x1 PUSH1 0x80 SHL SUB AND PUSH2 0x3D0F PUSH2 0x199B JUMP JUMPDEST DUP11 DUP4 PUSH4 0xFFFFFFFF AND SWAP4 POP SWAP11 POP SWAP11 POP SWAP11 POP SWAP11 POP SWAP11 POP SWAP11 POP SWAP11 POP SWAP11 POP POP POP POP SWAP2 SWAP4 SWAP6 SWAP8 POP SWAP2 SWAP4 SWAP6 SWAP8 JUMP JUMPDEST PUSH4 0xFFFFFFFF DUP2 AND PUSH1 0x0 SWAP1 DUP2 MSTORE PUSH1 0x9 PUSH1 0x20 MSTORE DUP1 PUSH1 0x40 DUP2 KECCAK256 PUSH1 0x1 ADD PUSH1 0x0 SWAP1 PUSH2 0x3D5B PUSH2 0x5014 JUMP JUMPDEST SWAP1 PUSH2 0x100 EXP SWAP1 DIV PUSH1 0x1 PUSH1 0x1 PUSH1 0x40 SHL SUB AND SWAP1 POP PUSH1 0x0 PUSH1 0xA PUSH1 0x0 DUP6 PUSH4 0xFFFFFFFF AND PUSH4 0xFFFFFFFF AND DUP2 MSTORE PUSH1 0x20 ADD SWAP1 DUP2 MSTORE PUSH1 0x20 ADD PUSH1 0x0 KECCAK256 PUSH1 0x1 ADD PUSH1 0x8 SWAP1 PUSH2 0x3D9C PUSH2 0x5014 JUMP JUMPDEST SWAP1 PUSH2 0x100 EXP SWAP1 DIV PUSH4 0xFFFFFFFF AND SWAP1 POP PUSH1 0x0 DUP3 PUSH1 0x1 PUSH1 0x1 PUSH1 0x40 SHL SUB AND GT DUP1 ISZERO PUSH2 0x3DCA JUMPI POP PUSH1 0x0 DUP2 PUSH4 0xFFFFFFFF AND GT JUMPDEST DUP1 ISZERO PUSH2 0x3E01 JUMPI POP GAS PUSH2 0x3DDA PUSH2 0x533D JUMP JUMPDEST PUSH2 0x3DF6 PUSH1 0x1 PUSH1 0x1 PUSH1 0x40 SHL SUB DUP5 AND PUSH4 0xFFFFFFFF DUP1 DUP6 AND SWAP1 PUSH2 0x462B AND JUMP JUMPDEST PUSH1 0x1 PUSH1 0x1 PUSH1 0x40 SHL SUB AND LT JUMPDEST SWAP5 SWAP4 POP POP POP POP JUMP JUMPDEST PUSH1 0x0 DUP3 DUP3 ADD PUSH4 0xFFFFFFFF DUP1 DUP6 AND SWAP1 DUP3 AND LT ISZERO PUSH2 0x287F JUMPI PUSH1 0x40 MLOAD PUSH3 0x461BCD PUSH1 0xE5 SHL DUP2 MSTORE PUSH1 0x20 PUSH1 0x4 DUP3 ADD MSTORE PUSH1 0x1B PUSH1 0x24 DUP3 ADD MSTORE PUSH1 0x0 DUP1 MLOAD PUSH1 0x20 PUSH2 0x54C1 DUP4 CODECOPY DUP2 MLOAD SWAP2 MSTORE PUSH1 0x44 DUP3 ADD MSTORE PUSH1 0x64 ADD PUSH1 0x40 MLOAD DUP1 SWAP2 SUB SWAP1 PUSH2 0x287C PUSH2 0x4FA9 JUMP JUMPDEST PUSH2 0x3E68 DUP2 PUSH2 0x4090 JUMP JUMPDEST PUSH2 0x3E71 JUMPI PUSH2 0x2C70 JUMP JUMPDEST PUSH1 0x0 PUSH1 0xB PUSH1 0x0 GAS PUSH2 0x3E80 PUSH2 0x506F JUMP JUMPDEST PUSH1 0x1 PUSH1 0x1 PUSH1 0xA0 SHL SUB AND PUSH1 0x1 PUSH1 0x1 PUSH1 0xA0 SHL SUB AND DUP2 MSTORE PUSH1 0x20 ADD SWAP1 DUP2 MSTORE PUSH1 0x20 ADD PUSH1 0x0 KECCAK256 PUSH1 0x5 SWAP1 PUSH2 0x3EAB PUSH2 0x5014 JUMP JUMPDEST SWAP1 PUSH2 0x100 EXP SWAP1 DIV PUSH4 0xFFFFFFFF AND PUSH4 0xFFFFFFFF AND SWAP1 POP PUSH1 0xB PUSH1 0x0 GAS PUSH2 0x3ECD PUSH2 0x506F JUMP JUMPDEST PUSH1 0x1 PUSH1 0x1 PUSH1 0xA0 SHL SUB AND PUSH1 0x1 PUSH1 0x1 PUSH1 0xA0 SHL SUB AND DUP2 MSTORE PUSH1 0x20 ADD SWAP1 DUP2 MSTORE PUSH1 0x20 ADD PUSH1 0x0 KECCAK256 PUSH1 0x1 SWAP1 PUSH2 0x3EF8 PUSH2 0x5014 JUMP JUMPDEST SWAP1 PUSH2 0x100 EXP SWAP1 DIV PUSH4 0xFFFFFFFF AND PUSH4 0xFFFFFFFF AND DUP2 ADD DUP3 PUSH4 0xFFFFFFFF AND GT DUP1 PUSH2 0x3F1E JUMPI POP DUP1 ISZERO JUMPDEST PUSH2 0x3F30 JUMPI PUSH1 0x0 DUP1 PUSH2 0x3F2D PUSH2 0x4FA9 JUMP JUMPDEST POP POP JUMPDEST PUSH2 0x3F39 DUP3 PUSH2 0x40B7 JUMP JUMPDEST DUP2 PUSH1 0xB PUSH1 0x0 GAS PUSH2 0x3F47 PUSH2 0x506F JUMP JUMPDEST PUSH1 0x1 PUSH1 0x1 PUSH1 0xA0 SHL SUB AND PUSH1 0x1 PUSH1 0x1 PUSH1 0xA0 SHL SUB AND DUP2 MSTORE PUSH1 0x20 ADD SWAP1 DUP2 MSTORE PUSH1 0x20 ADD PUSH1 0x0 KECCAK256 PUSH1 0x1 PUSH1 0x28 SHL DUP2 PUSH2 0x2C54 PUSH2 0x5014 JUMP JUMPDEST PUSH4 0xFFFFFFFF LT ISZERO SWAP1 JUMP JUMPDEST PUSH1 0x0 DUP2 PUSH4 0xFFFFFFFF AND PUSH2 0x3FA2 PUSH1 0x1 DUP6 PUSH4 0xFFFFFFFF AND PUSH2 0x3E09 SWAP1 SWAP2 SWAP1 PUSH4 0xFFFFFFFF AND JUMP JUMPDEST PUSH4 0xFFFFFFFF AND EQ DUP1 ISZERO PUSH2 0x287F JUMPI POP PUSH4 0xFFFFFFFF DUP3 AND PUSH1 0x0 SWAP1 DUP2 MSTORE PUSH1 0x9 PUSH1 0x20 MSTORE PUSH1 0x40 SWAP1 KECCAK256 PUSH1 0x1 ADD PUSH1 0x8 SWAP1 PUSH2 0x3FD3 PUSH2 0x5014 JUMP JUMPDEST PUSH1 0x1 PUSH1 0x1 PUSH1 0x40 SHL SUB PUSH2 0x100 SWAP3 SWAP1 SWAP3 EXP SWAP1 DIV AND ISZERO SWAP4 SWAP3 POP POP POP JUMP JUMPDEST PUSH1 0x0 DUP3 PUSH4 0xFFFFFFFF AND DUP3 PUSH4 0xFFFFFFFF AND GT ISZERO PUSH2 0x2812 JUMPI PUSH1 0x40 MLOAD PUSH3 0x461BCD PUSH1 0xE5 SHL DUP2 MSTORE PUSH1 0x20 PUSH1 0x4 DUP3 ADD MSTORE PUSH1 0x1E PUSH1 0x24 DUP3 ADD MSTORE PUSH1 0x0 DUP1 MLOAD PUSH1 0x20 PUSH2 0x5522 DUP4 CODECOPY DUP2 MLOAD SWAP2 MSTORE PUSH1 0x44 DUP3 ADD MSTORE PUSH1 0x64 ADD PUSH1 0x40 MLOAD DUP1 SWAP2 SUB SWAP1 PUSH2 0x280F PUSH2 0x4FA9 JUMP JUMPDEST PUSH4 0xFFFFFFFF DUP2 AND PUSH1 0x0 SWAP1 DUP2 MSTORE PUSH1 0x9 PUSH1 0x20 MSTORE DUP1 PUSH1 0x40 DUP2 KECCAK256 PUSH1 0x1 ADD PUSH1 0x8 SWAP1 PUSH2 0x4067 PUSH2 0x5014 JUMP JUMPDEST SWAP1 PUSH2 0x100 EXP SWAP1 DIV PUSH1 0x1 PUSH1 0x1 PUSH1 0x40 SHL SUB AND PUSH1 0x1 PUSH1 0x1 PUSH1 0x40 SHL SUB AND GT DUP1 PUSH2 0x2817 JUMPI POP PUSH2 0x2817 DUP3 PUSH2 0x3D37 JUMP JUMPDEST PUSH1 0x0 PUSH2 0x40A2 PUSH1 0x1 DUP3 PUSH1 0x7 PUSH2 0x34CC PUSH2 0x5014 JUMP JUMPDEST PUSH4 0xFFFFFFFF AND DUP3 PUSH4 0xFFFFFFFF AND EQ SWAP1 POP SWAP2 SWAP1 POP JUMP JUMPDEST PUSH2 0x40D4 PUSH2 0x40CF PUSH4 0xFFFFFFFF DUP1 DUP5 AND SWAP1 PUSH1 0x1 SWAP1 PUSH2 0x3FED AND JUMP JUMPDEST PUSH2 0x4684 JUMP JUMPDEST DUP1 PUSH1 0x7 PUSH1 0x1 DUP2 PUSH2 0x40E2 PUSH2 0x5014 JUMP JUMPDEST DUP2 PUSH4 0xFFFFFFFF MUL NOT AND SWAP1 DUP4 PUSH4 0xFFFFFFFF AND MUL OR SWAP1 PUSH2 0x40FE PUSH2 0x50B5 JUMP JUMPDEST POP POP POP PUSH2 0x4109 PUSH2 0x53AF JUMP JUMPDEST PUSH1 0x40 MLOAD PUSH1 0xA0 DUP2 ADD PUSH1 0x40 MSTORE DUP1 PUSH1 0x0 PUSH1 0x40 MLOAD SWAP1 DUP1 DUP3 MSTORE DUP1 PUSH1 0x20 MUL PUSH1 0x20 ADD DUP3 ADD PUSH1 0x40 MSTORE DUP1 ISZERO PUSH2 0x413F JUMPI DUP2 PUSH1 0x20 ADD PUSH1 0x20 DUP3 MUL DUP1 CALLDATASIZE DUP4 CALLDATACOPY ADD SWAP1 POP JUMPDEST POP DUP2 MSTORE PUSH1 0x20 ADD PUSH1 0x10 PUSH1 0x4 PUSH2 0x4151 PUSH2 0x5014 JUMP JUMPDEST PUSH4 0xFFFFFFFF PUSH2 0x100 SWAP3 SWAP1 SWAP3 EXP SWAP1 DIV AND DUP2 MSTORE PUSH1 0x20 ADD PUSH1 0x14 PUSH1 0x4 PUSH2 0x4171 PUSH2 0x5014 JUMP JUMPDEST PUSH4 0xFFFFFFFF PUSH2 0x100 SWAP3 SWAP1 SWAP3 EXP SWAP1 DIV AND DUP2 MSTORE PUSH1 0x20 ADD PUSH1 0x1C PUSH1 0x4 PUSH2 0x4191 PUSH2 0x5014 JUMP JUMPDEST PUSH4 0xFFFFFFFF PUSH2 0x100 SWAP3 SWAP1 SWAP3 EXP SWAP1 DIV AND DUP2 MSTORE PUSH1 0x20 ADD PUSH1 0x0 PUSH1 0x4 PUSH2 0x41B1 PUSH2 0x5014 JUMP JUMPDEST PUSH1 0x1 PUSH1 0x1 PUSH1 0x80 SHL SUB PUSH2 0x100 SWAP3 SWAP1 SWAP3 EXP SWAP1 DIV AND SWAP1 MSTORE PUSH4 0xFFFFFFFF DUP4 AND PUSH1 0x0 SWAP1 DUP2 MSTORE PUSH1 0xA PUSH1 0x20 MSTORE SWAP1 SWAP2 POP DUP2 SWAP1 PUSH1 0x40 SWAP1 KECCAK256 DUP2 MLOAD DUP2 SWAP1 DUP1 MLOAD PUSH2 0x41F3 SWAP3 SWAP2 PUSH1 0x20 ADD SWAP1 PUSH2 0x53DC JUMP JUMPDEST POP PUSH1 0x20 DUP3 ADD MLOAD PUSH1 0x1 DUP1 DUP4 ADD SWAP1 DUP2 PUSH2 0x4208 PUSH2 0x5014 JUMP JUMPDEST DUP2 PUSH4 0xFFFFFFFF MUL NOT AND SWAP1 DUP4 PUSH4 0xFFFFFFFF AND MUL OR SWAP1 PUSH2 0x4224 PUSH2 0x50B5 JUMP JUMPDEST POP POP POP PUSH1 0x40 DUP3 ADD MLOAD PUSH1 0x1 DUP3 ADD PUSH1 0x1 PUSH1 0x20 SHL DUP2 PUSH2 0x423E PUSH2 0x5014 JUMP JUMPDEST DUP2 PUSH4 0xFFFFFFFF MUL NOT AND SWAP1 DUP4 PUSH4 0xFFFFFFFF AND MUL OR SWAP1 PUSH2 0x425A PUSH2 0x50B5 JUMP JUMPDEST POP POP POP PUSH1 0x60 DUP3 ADD MLOAD PUSH1 0x1 DUP3 ADD PUSH1 0x1 PUSH1 0x40 SHL DUP2 PUSH2 0x4274 PUSH2 0x5014 JUMP JUMPDEST DUP2 PUSH4 0xFFFFFFFF MUL NOT AND SWAP1 DUP4 PUSH4 0xFFFFFFFF AND MUL OR SWAP1 PUSH2 0x4290 PUSH2 0x50B5 JUMP JUMPDEST POP POP POP PUSH1 0x80 DUP3 ADD MLOAD PUSH1 0x1 DUP3 ADD PUSH1 0x1 PUSH1 0x60 SHL DUP2 PUSH2 0x42AA PUSH2 0x5014 JUMP JUMPDEST DUP2 PUSH1 0x1 PUSH1 0x1 PUSH1 0x80 SHL SUB MUL NOT AND SWAP1 DUP4 PUSH1 0x1 PUSH1 0x1 PUSH1 0x80 SHL SUB AND MUL OR SWAP1 PUSH2 0x42CC PUSH2 0x50B5 JUMP JUMPDEST POP POP POP POP POP GAS PUSH2 0x42DA PUSH2 0x533D JUMP JUMPDEST PUSH4 0xFFFFFFFF DUP4 AND PUSH1 0x0 SWAP1 DUP2 MSTORE PUSH1 0x9 PUSH1 0x20 MSTORE PUSH1 0x40 SWAP1 KECCAK256 PUSH1 0x1 ADD PUSH1 0x0 PUSH2 0x100 EXP DUP2 PUSH2 0x4301 PUSH2 0x5014 JUMP JUMPDEST DUP2 PUSH1 0x1 PUSH1 0x1 PUSH1 0x40 SHL SUB MUL NOT AND SWAP1 DUP4 PUSH1 0x1 PUSH1 0x1 PUSH1 0x40 SHL SUB AND MUL OR SWAP1 PUSH2 0x4323 PUSH2 0x50B5 JUMP JUMPDEST POP POP POP GAS PUSH2 0x432F PUSH2 0x506F JUMP JUMPDEST PUSH4 0xFFFFFFFF DUP4 AND PUSH1 0x0 DUP2 DUP2 MSTORE PUSH1 0x9 PUSH1 0x20 MSTORE PUSH1 0x1 PUSH1 0x1 PUSH1 0xA0 SHL SUB SWAP3 SWAP1 SWAP3 AND SWAP2 PUSH32 0x109FC6F55CF40689F02FBAAD7AF7FE7BBAC8A3D2186600AFC7D3E10CAC60271 SWAP1 PUSH1 0x40 SWAP1 KECCAK256 PUSH1 0x1 ADD PUSH1 0x0 SWAP1 PUSH2 0x4381 PUSH2 0x5014 JUMP JUMPDEST SWAP1 PUSH2 0x100 EXP SWAP1 DIV PUSH1 0x1 PUSH1 0x1 PUSH1 0x40 SHL SUB AND PUSH1 0x40 MLOAD PUSH1 0x1 PUSH1 0x1 PUSH1 0x40 SHL SUB SWAP1 SWAP2 AND DUP2 MSTORE PUSH1 0x20 ADD PUSH1 0x40 MLOAD DUP1 SWAP2 SUB SWAP1 LOG3 POP POP JUMP JUMPDEST PUSH4 0xFFFFFFFF DUP2 AND PUSH1 0x0 SWAP1 DUP2 MSTORE PUSH1 0xA PUSH1 0x20 MSTORE PUSH1 0x40 DUP2 KECCAK256 PUSH1 0x1 ADD PUSH1 0x0 SWAP1 PUSH2 0x43D3 PUSH2 0x5014 JUMP JUMPDEST PUSH2 0x100 SWAP2 SWAP1 SWAP2 EXP SWAP1 DIV PUSH4 0xFFFFFFFF AND ISZERO ISZERO SWAP3 SWAP2 POP POP JUMP JUMPDEST PUSH1 0x0 DUP2 MLOAD PUSH1 0x0 LT PUSH2 0x4443 JUMPI PUSH1 0x40 MLOAD PUSH3 0x461BCD PUSH1 0xE5 SHL DUP2 MSTORE PUSH1 0x20 PUSH1 0x4 DUP3 ADD MSTORE PUSH1 0x16 PUSH1 0x24 DUP3 ADD MSTORE PUSH22 0x6C697374206D757374206E6F7420626520656D707479 PUSH1 0x50 SHL PUSH1 0x44 DUP3 ADD MSTORE PUSH1 0x64 ADD PUSH1 0x40 MLOAD DUP1 SWAP2 SUB SWAP1 PUSH2 0x4440 PUSH2 0x4FA9 JUMP JUMPDEST POP POP JUMPDEST PUSH1 0x0 DUP3 MLOAD SWAP1 POP PUSH1 0x2 DUP2 DIV PUSH1 0x1 DUP3 AND PUSH2 0x4486 JUMPI PUSH1 0x0 DUP1 PUSH2 0x446C DUP7 PUSH1 0x0 PUSH1 0x1 DUP8 SUB PUSH1 0x1 DUP8 SUB DUP8 PUSH2 0x486F JUMP JUMPDEST SWAP1 SWAP3 POP SWAP1 POP PUSH2 0x447B DUP3 DUP3 PUSH2 0x4967 JUMP JUMPDEST SWAP5 POP POP POP POP POP PUSH2 0x1B20 JUMP JUMPDEST PUSH2 0x4496 DUP5 PUSH1 0x0 PUSH1 0x1 DUP6 SUB DUP5 PUSH2 0x49D5 JUMP JUMPDEST SWAP3 POP POP POP PUSH2 0x1B20 JUMP JUMPDEST PUSH1 0x0 DUP3 DUP3 ADD PUSH1 0x1 PUSH1 0x1 PUSH1 0x80 SHL SUB DUP1 DUP6 AND SWAP1 DUP3 AND LT ISZERO PUSH2 0x287F JUMPI PUSH1 0x40 MLOAD PUSH3 0x461BCD PUSH1 0xE5 SHL DUP2 MSTORE PUSH1 0x20 PUSH1 0x4 DUP3 ADD MSTORE PUSH1 0x1B PUSH1 0x24 DUP3 ADD MSTORE PUSH1 0x0 DUP1 MLOAD PUSH1 0x20 PUSH2 0x54C1 DUP4 CODECOPY DUP2 MLOAD SWAP2 MSTORE PUSH1 0x44 DUP3 ADD MSTORE PUSH1 0x64 ADD PUSH1 0x40 MLOAD DUP1 SWAP2 SUB SWAP1 PUSH2 0x287C PUSH2 0x4FA9 JUMP JUMPDEST PUSH1 0x1 PUSH1 0x1 PUSH1 0xA0 SHL SUB DUP2 AND PUSH1 0x0 SWAP1 DUP2 MSTORE PUSH1 0x8 PUSH1 0x20 MSTORE PUSH4 0xFFFFFFFF PUSH1 0x40 DUP3 KECCAK256 PUSH1 0x14 SWAP1 PUSH2 0x4520 PUSH2 0x5014 JUMP JUMPDEST PUSH4 0xFFFFFFFF PUSH2 0x100 SWAP3 SWAP1 SWAP3 EXP SWAP1 DIV AND EQ SWAP3 SWAP2 POP POP JUMP JUMPDEST PUSH1 0x0 DUP1 DUP1 PUSH1 0x7 PUSH2 0x4544 PUSH2 0x5014 JUMP JUMPDEST PUSH4 0xFFFFFFFF PUSH2 0x100 SWAP3 SWAP1 SWAP3 EXP SWAP1 DIV AND SWAP1 POP DUP1 ISZERO DUP1 ISZERO SWAP1 PUSH2 0x459E JUMPI POP PUSH1 0x1 PUSH1 0x1 PUSH1 0xA0 SHL SUB DUP4 AND PUSH1 0x0 SWAP1 DUP2 MSTORE PUSH1 0x8 PUSH1 0x20 MSTORE PUSH1 0x40 SWAP1 KECCAK256 PUSH1 0x14 SWAP1 PUSH2 0x4582 PUSH2 0x5014 JUMP JUMPDEST SWAP1 PUSH2 0x100 EXP SWAP1 DIV PUSH4 0xFFFFFFFF AND PUSH4 0xFFFFFFFF AND DUP2 PUSH4 0xFFFFFFFF AND EQ JUMPDEST ISZERO PUSH2 0x45AA JUMPI SWAP1 POP PUSH2 0x1B20 JUMP JUMPDEST PUSH2 0x287F PUSH4 0xFFFFFFFF DUP1 DUP4 AND SWAP1 PUSH1 0x1 SWAP1 PUSH2 0x3E09 AND JUMP JUMPDEST PUSH1 0x1 PUSH1 0x1 PUSH1 0xA0 SHL SUB DUP3 AND PUSH1 0x0 SWAP1 DUP2 MSTORE PUSH1 0x8 PUSH1 0x20 MSTORE DUP1 PUSH1 0x40 DUP2 KECCAK256 PUSH1 0x1C SWAP1 PUSH2 0x45E3 PUSH2 0x5014 JUMP JUMPDEST PUSH4 0xFFFFFFFF PUSH2 0x100 SWAP3 SWAP1 SWAP3 EXP SWAP1 DIV AND SWAP1 POP PUSH1 0x18 PUSH1 0x4 PUSH2 0x4600 PUSH2 0x5014 JUMP JUMPDEST SWAP1 PUSH2 0x100 EXP SWAP1 DIV PUSH4 0xFFFFFFFF AND PUSH4 0xFFFFFFFF AND DUP2 ADD DUP4 PUSH4 0xFFFFFFFF AND GT DUP1 PUSH2 0x3E01 JUMPI POP ISZERO SWAP4 SWAP3 POP POP POP JUMP JUMPDEST PUSH1 0x0 DUP3 DUP3 ADD PUSH1 0x1 PUSH1 0x1 PUSH1 0x40 SHL SUB DUP1 DUP6 AND SWAP1 DUP3 AND LT ISZERO PUSH2 0x287F JUMPI PUSH1 0x40 MLOAD PUSH3 0x461BCD PUSH1 0xE5 SHL DUP2 MSTORE PUSH1 0x20 PUSH1 0x4 DUP3 ADD MSTORE PUSH1 0x1B PUSH1 0x24 DUP3 ADD MSTORE PUSH1 0x0 DUP1 MLOAD PUSH1 0x20 PUSH2 0x54C1 DUP4 CODECOPY DUP2 MLOAD SWAP2 MSTORE PUSH1 0x44 DUP3 ADD MSTORE PUSH1 0x64 ADD PUSH1 0x40 MLOAD DUP1 SWAP2 SUB SWAP1 PUSH2 0x287C PUSH2 0x4FA9 JUMP JUMPDEST PUSH2 0x468D DUP2 PUSH2 0x3D37 JUMP JUMPDEST PUSH2 0x4696 JUMPI PUSH2 0x2C70 JUMP JUMPDEST PUSH1 0x0 PUSH2 0x46AD PUSH4 0xFFFFFFFF DUP1 DUP5 AND SWAP1 PUSH1 0x1 SWAP1 PUSH2 0x3FED AND JUMP JUMPDEST PUSH4 0xFFFFFFFF DUP2 AND PUSH1 0x0 SWAP1 DUP2 MSTORE PUSH1 0x9 PUSH1 0x20 MSTORE SWAP1 SWAP2 POP PUSH1 0x40 SWAP1 KECCAK256 PUSH2 0x46CD PUSH2 0x5014 JUMP JUMPDEST PUSH4 0xFFFFFFFF DUP4 AND PUSH1 0x0 SWAP1 DUP2 MSTORE PUSH1 0x9 PUSH1 0x20 MSTORE PUSH1 0x40 SWAP1 KECCAK256 DUP2 SWAP1 PUSH2 0x46EC PUSH2 0x50B5 JUMP JUMPDEST POP POP POP PUSH4 0xFFFFFFFF DUP2 AND PUSH1 0x0 SWAP1 DUP2 MSTORE PUSH1 0x9 PUSH1 0x20 MSTORE PUSH1 0x40 SWAP1 KECCAK256 PUSH1 0x1 ADD PUSH1 0x10 SWAP1 PUSH2 0x4712 PUSH2 0x5014 JUMP JUMPDEST PUSH4 0xFFFFFFFF DUP5 DUP2 AND PUSH1 0x0 SWAP1 DUP2 MSTORE PUSH1 0x9 PUSH1 0x20 MSTORE PUSH2 0x100 SWAP4 SWAP1 SWAP4 EXP SWAP1 SWAP2 DIV AND SWAP1 PUSH1 0x40 SWAP1 KECCAK256 PUSH1 0x1 ADD PUSH1 0x1 PUSH1 0x80 SHL DUP2 PUSH2 0x4745 PUSH2 0x5014 JUMP JUMPDEST DUP2 PUSH4 0xFFFFFFFF MUL NOT AND SWAP1 DUP4 PUSH4 0xFFFFFFFF AND MUL OR SWAP1 PUSH2 0x4761 PUSH2 0x50B5 JUMP JUMPDEST POP POP POP GAS PUSH2 0x476D PUSH2 0x533D JUMP JUMPDEST PUSH4 0xFFFFFFFF DUP4 AND PUSH1 0x0 SWAP1 DUP2 MSTORE PUSH1 0x9 PUSH1 0x20 MSTORE PUSH1 0x40 SWAP1 KECCAK256 PUSH1 0x1 ADD PUSH1 0x1 PUSH1 0x40 SHL DUP2 PUSH2 0x4793 PUSH2 0x5014 JUMP JUMPDEST DUP2 PUSH1 0x1 PUSH1 0x1 PUSH1 0x40 SHL SUB MUL NOT AND SWAP1 DUP4 PUSH1 0x1 PUSH1 0x1 PUSH1 0x40 SHL SUB AND MUL OR SWAP1 PUSH2 0x47B5 PUSH2 0x50B5 JUMP JUMPDEST POP POP POP PUSH4 0xFFFFFFFF DUP3 AND PUSH1 0x0 SWAP1 DUP2 MSTORE PUSH1 0xA PUSH1 0x20 MSTORE PUSH1 0x40 SWAP1 KECCAK256 PUSH1 0x0 PUSH2 0x47D9 DUP3 DUP3 PUSH2 0x5383 JUMP JUMPDEST PUSH1 0x1 DUP3 DUP2 ADD SWAP1 DUP2 PUSH2 0x47E8 PUSH2 0x5014 JUMP JUMPDEST SWAP1 PUSH4 0xFFFFFFFF MUL NOT AND SWAP1 PUSH2 0x47FA PUSH2 0x50B5 JUMP JUMPDEST POP POP PUSH1 0x1 DUP3 ADD PUSH1 0x1 PUSH1 0x20 SHL DUP2 PUSH2 0x480E PUSH2 0x5014 JUMP JUMPDEST SWAP1 PUSH4 0xFFFFFFFF MUL NOT AND SWAP1 PUSH2 0x4820 PUSH2 0x50B5 JUMP JUMPDEST POP POP PUSH1 0x1 DUP3 ADD PUSH1 0x1 PUSH1 0x40 SHL DUP2 PUSH2 0x4834 PUSH2 0x5014 JUMP JUMPDEST SWAP1 PUSH4 0xFFFFFFFF MUL NOT AND SWAP1 PUSH2 0x4846 PUSH2 0x50B5 JUMP JUMPDEST POP POP PUSH1 0x1 DUP3 ADD PUSH1 0x1 PUSH1 0x60 SHL DUP2 PUSH2 0x485A PUSH2 0x5014 JUMP JUMPDEST SWAP1 PUSH1 0x1 PUSH1 0x1 PUSH1 0x80 SHL SUB MUL NOT AND SWAP1 PUSH2 0x3476 PUSH2 0x50B5 JUMP JUMPDEST PUSH1 0x0 DUP1 DUP3 DUP5 LT PUSH2 0x4887 JUMPI PUSH1 0x0 DUP1 PUSH2 0x4884 PUSH2 0x4FA9 JUMP JUMPDEST POP POP JUMPDEST DUP4 DUP7 GT ISZERO DUP1 ISZERO PUSH2 0x4897 JUMPI POP DUP5 DUP5 GT ISZERO JUMPDEST PUSH2 0x48A9 JUMPI PUSH1 0x0 DUP1 PUSH2 0x48A6 PUSH2 0x4FA9 JUMP JUMPDEST POP POP JUMPDEST DUP3 DUP7 GT ISZERO DUP1 ISZERO PUSH2 0x48B9 JUMPI POP DUP5 DUP4 GT ISZERO JUMPDEST PUSH2 0x48CB JUMPI PUSH1 0x0 DUP1 PUSH2 0x48C8 PUSH2 0x4FA9 JUMP JUMPDEST POP POP JUMPDEST PUSH1 0x7 DUP7 DUP7 SUB LT ISZERO PUSH2 0x48EC JUMPI PUSH2 0x48E3 DUP8 DUP8 DUP8 DUP8 DUP8 PUSH2 0x4A77 JUMP JUMPDEST SWAP2 POP SWAP2 POP PUSH2 0x495D JUMP JUMPDEST PUSH1 0x0 PUSH2 0x48F9 DUP9 DUP9 DUP9 PUSH2 0x4E65 JUMP JUMPDEST SWAP1 POP DUP1 DUP5 GT PUSH2 0x490A JUMPI DUP1 SWAP6 POP PUSH2 0x4957 JUMP JUMPDEST DUP5 DUP2 LT ISZERO PUSH2 0x491D JUMPI DUP1 PUSH1 0x1 ADD SWAP7 POP PUSH2 0x4957 JUMP JUMPDEST DUP1 DUP6 GT ISZERO DUP1 ISZERO PUSH2 0x492C JUMPI POP DUP4 DUP2 LT JUMPDEST PUSH2 0x4932 JUMPI INVALID JUMPDEST PUSH2 0x493E DUP9 DUP9 DUP4 DUP9 PUSH2 0x49D5 JUMP JUMPDEST SWAP3 POP PUSH2 0x494F DUP9 DUP3 PUSH1 0x1 ADD DUP9 DUP8 PUSH2 0x49D5 JUMP JUMPDEST SWAP2 POP POP PUSH2 0x495D JUMP JUMPDEST POP PUSH2 0x48CB JUMP JUMPDEST SWAP6 POP SWAP6 SWAP4 POP POP POP POP JUMP JUMPDEST PUSH1 0x0 DUP1 DUP4 SLT DUP1 ISZERO PUSH2 0x4978 JUMPI POP PUSH1 0x0 DUP3 SGT JUMPDEST DUP1 PUSH2 0x498E JUMPI POP PUSH1 0x0 DUP4 SGT DUP1 ISZERO PUSH2 0x498E JUMPI POP PUSH1 0x0 DUP3 SLT JUMPDEST ISZERO PUSH2 0x49AE JUMPI PUSH1 0x2 PUSH2 0x499F DUP5 DUP5 PUSH2 0x4F42 JUMP JUMPDEST DUP2 PUSH2 0x49A6 JUMPI INVALID JUMPDEST SDIV SWAP1 POP PUSH2 0x2817 JUMP JUMPDEST PUSH1 0x0 PUSH1 0x2 DUP1 DUP6 SMOD DUP2 DUP6 SMOD ADD SDIV SWAP1 POP PUSH2 0x3E01 PUSH2 0x49CF PUSH1 0x2 DUP7 SDIV PUSH1 0x2 DUP7 SDIV PUSH2 0x4F42 JUMP JUMPDEST DUP3 PUSH2 0x4F42 JUMP JUMPDEST PUSH1 0x0 DUP2 DUP5 GT ISZERO PUSH2 0x49ED JUMPI PUSH1 0x0 DUP1 PUSH2 0x49EA PUSH2 0x4FA9 JUMP JUMPDEST POP POP JUMPDEST DUP3 DUP3 GT ISZERO PUSH2 0x4A03 JUMPI PUSH1 0x0 DUP1 PUSH2 0x4A00 PUSH2 0x4FA9 JUMP JUMPDEST POP POP JUMPDEST DUP3 DUP5 LT ISZERO PUSH2 0x4A5A JUMPI PUSH1 0x7 DUP5 DUP5 SUB LT ISZERO PUSH2 0x4A2F JUMPI PUSH1 0x0 PUSH2 0x4A25 DUP7 DUP7 DUP7 DUP7 DUP8 PUSH2 0x4A77 JUMP JUMPDEST POP SWAP2 POP PUSH2 0x3E01 SWAP1 POP JUMP JUMPDEST PUSH1 0x0 PUSH2 0x4A3C DUP7 DUP7 DUP7 PUSH2 0x4E65 JUMP JUMPDEST SWAP1 POP DUP1 DUP4 GT PUSH2 0x4A4D JUMPI DUP1 SWAP4 POP PUSH2 0x4A54 JUMP JUMPDEST DUP1 PUSH1 0x1 ADD SWAP5 POP JUMPDEST POP PUSH2 0x4A03 JUMP JUMPDEST DUP5 DUP5 DUP2 MLOAD DUP2 LT PUSH2 0x4A66 JUMPI INVALID JUMPDEST PUSH1 0x20 MUL PUSH1 0x20 ADD ADD MLOAD SWAP6 SWAP5 POP POP POP POP POP JUMP JUMPDEST PUSH1 0x0 DUP1 DUP6 DUP6 SUB PUSH1 0x1 ADD DUP2 DUP9 DUP9 DUP2 MLOAD DUP2 LT PUSH2 0x4A8D JUMPI INVALID JUMPDEST PUSH1 0x20 MUL PUSH1 0x20 ADD ADD MLOAD SWAP1 POP PUSH1 0x0 DUP3 PUSH1 0x1 LT PUSH2 0x4AAE JUMPI PUSH1 0x1 PUSH1 0x1 PUSH1 0xFF SHL SUB PUSH2 0x4AC6 JUMP JUMPDEST DUP10 DUP10 PUSH1 0x1 ADD DUP2 MLOAD DUP2 LT PUSH2 0x4ABD JUMPI INVALID JUMPDEST PUSH1 0x20 MUL PUSH1 0x20 ADD ADD MLOAD JUMPDEST SWAP1 POP PUSH1 0x0 DUP4 PUSH1 0x2 LT PUSH2 0x4ADF JUMPI PUSH1 0x1 PUSH1 0x1 PUSH1 0xFF SHL SUB PUSH2 0x4AF7 JUMP JUMPDEST DUP11 DUP11 PUSH1 0x2 ADD DUP2 MLOAD DUP2 LT PUSH2 0x4AEE JUMPI INVALID JUMPDEST PUSH1 0x20 MUL PUSH1 0x20 ADD ADD MLOAD JUMPDEST SWAP1 POP PUSH1 0x0 DUP5 PUSH1 0x3 LT PUSH2 0x4B10 JUMPI PUSH1 0x1 PUSH1 0x1 PUSH1 0xFF SHL SUB PUSH2 0x4B28 JUMP JUMPDEST DUP12 DUP12 PUSH1 0x3 ADD DUP2 MLOAD DUP2 LT PUSH2 0x4B1F JUMPI INVALID JUMPDEST PUSH1 0x20 MUL PUSH1 0x20 ADD ADD MLOAD JUMPDEST SWAP1 POP PUSH1 0x0 DUP6 PUSH1 0x4 LT PUSH2 0x4B41 JUMPI PUSH1 0x1 PUSH1 0x1 PUSH1 0xFF SHL SUB PUSH2 0x4B59 JUMP JUMPDEST DUP13 DUP13 PUSH1 0x4 ADD DUP2 MLOAD DUP2 LT PUSH2 0x4B50 JUMPI INVALID JUMPDEST PUSH1 0x20 MUL PUSH1 0x20 ADD ADD MLOAD JUMPDEST SWAP1 POP PUSH1 0x0 DUP7 PUSH1 0x5 LT PUSH2 0x4B72 JUMPI PUSH1 0x1 PUSH1 0x1 PUSH1 0xFF SHL SUB PUSH2 0x4B8A JUMP JUMPDEST DUP14 DUP14 PUSH1 0x5 ADD DUP2 MLOAD DUP2 LT PUSH2 0x4B81 JUMPI INVALID JUMPDEST PUSH1 0x20 MUL PUSH1 0x20 ADD ADD MLOAD JUMPDEST SWAP1 POP PUSH1 0x0 DUP8 PUSH1 0x6 LT PUSH2 0x4BA3 JUMPI PUSH1 0x1 PUSH1 0x1 PUSH1 0xFF SHL SUB PUSH2 0x4BBB JUMP JUMPDEST DUP15 DUP15 PUSH1 0x6 ADD DUP2 MLOAD DUP2 LT PUSH2 0x4BB2 JUMPI INVALID JUMPDEST PUSH1 0x20 MUL PUSH1 0x20 ADD ADD MLOAD JUMPDEST SWAP1 POP DUP6 DUP8 SGT ISZERO PUSH2 0x4BC9 JUMPI SWAP5 SWAP6 SWAP5 JUMPDEST DUP4 DUP6 SGT ISZERO PUSH2 0x4BD5 JUMPI SWAP3 SWAP4 SWAP3 JUMPDEST DUP2 DUP4 SGT ISZERO PUSH2 0x4BE1 JUMPI SWAP1 SWAP2 SWAP1 JUMPDEST DUP5 DUP8 SGT ISZERO PUSH2 0x4BED JUMPI SWAP4 SWAP6 SWAP4 JUMPDEST DUP4 DUP7 SGT ISZERO PUSH2 0x4BF9 JUMPI SWAP3 SWAP5 SWAP3 JUMPDEST DUP1 DUP4 SGT ISZERO PUSH2 0x4C03 JUMPI SWAP2 JUMPDEST DUP5 DUP7 SGT ISZERO PUSH2 0x4C0F JUMPI SWAP4 SWAP5 SWAP4 JUMPDEST DUP1 DUP3 SGT ISZERO PUSH2 0x4C19 JUMPI SWAP1 JUMPDEST DUP3 DUP8 SGT ISZERO PUSH2 0x4C25 JUMPI SWAP2 SWAP6 SWAP2 JUMPDEST DUP2 DUP7 SGT ISZERO PUSH2 0x4C31 JUMPI SWAP1 SWAP5 SWAP1 JUMPDEST DUP1 DUP6 SGT ISZERO PUSH2 0x4C3B JUMPI SWAP4 JUMPDEST DUP3 DUP7 SGT ISZERO PUSH2 0x4C47 JUMPI SWAP2 SWAP5 SWAP2 JUMPDEST DUP1 DUP5 SGT ISZERO PUSH2 0x4C51 JUMPI SWAP3 JUMPDEST DUP3 DUP6 SGT ISZERO PUSH2 0x4C5D JUMPI SWAP2 SWAP4 SWAP2 JUMPDEST DUP2 DUP5 SGT ISZERO PUSH2 0x4C69 JUMPI SWAP1 SWAP3 SWAP1 JUMPDEST DUP3 DUP5 SGT ISZERO PUSH2 0x4C75 JUMPI SWAP2 SWAP3 SWAP2 JUMPDEST DUP14 DUP13 SUB DUP1 PUSH2 0x4C85 JUMPI DUP8 SWAP11 POP PUSH2 0x4D33 JUMP JUMPDEST DUP1 PUSH1 0x1 EQ ISZERO PUSH2 0x4C96 JUMPI DUP7 SWAP11 POP PUSH2 0x4D33 JUMP JUMPDEST DUP1 PUSH1 0x2 EQ ISZERO PUSH2 0x4CA7 JUMPI DUP6 SWAP11 POP PUSH2 0x4D33 JUMP JUMPDEST DUP1 PUSH1 0x3 EQ ISZERO PUSH2 0x4CB8 JUMPI DUP5 SWAP11 POP PUSH2 0x4D33 JUMP JUMPDEST DUP1 PUSH1 0x4 EQ ISZERO PUSH2 0x4CC9 JUMPI DUP4 SWAP11 POP PUSH2 0x4D33 JUMP JUMPDEST DUP1 PUSH1 0x5 EQ ISZERO PUSH2 0x4CDA JUMPI DUP3 SWAP11 POP PUSH2 0x4D33 JUMP JUMPDEST DUP1 PUSH1 0x6 EQ ISZERO PUSH2 0x4CEB JUMPI DUP2 SWAP11 POP PUSH2 0x4D33 JUMP JUMPDEST PUSH1 0x40 MLOAD PUSH3 0x461BCD PUSH1 0xE5 SHL DUP2 MSTORE PUSH1 0x20 PUSH1 0x4 DUP3 ADD MSTORE PUSH1 0x10 PUSH1 0x24 DUP3 ADD MSTORE PUSH16 0x6B31206F7574206F6620626F756E6473 PUSH1 0x80 SHL PUSH1 0x44 DUP3 ADD MSTORE PUSH1 0x64 ADD PUSH1 0x40 MLOAD DUP1 SWAP2 SUB SWAP1 PUSH2 0x4D30 PUSH2 0x4FA9 JUMP JUMPDEST POP POP JUMPDEST DUP15 DUP13 SUB DUP14 DUP14 EQ ISZERO PUSH2 0x4D51 JUMPI POP DUP11 SWAP10 POP PUSH2 0x495D SWAP9 POP POP POP POP POP POP POP POP POP JUMP JUMPDEST DUP1 PUSH2 0x4D68 JUMPI POP SWAP7 SWAP9 POP PUSH2 0x495D SWAP8 POP POP POP POP POP POP POP POP JUMP JUMPDEST DUP1 PUSH1 0x1 EQ ISZERO PUSH2 0x4D83 JUMPI POP SWAP6 SWAP9 POP PUSH2 0x495D SWAP8 POP POP POP POP POP POP POP POP JUMP JUMPDEST DUP1 PUSH1 0x2 EQ ISZERO PUSH2 0x4D9E JUMPI POP SWAP5 SWAP9 POP PUSH2 0x495D SWAP8 POP POP POP POP POP POP POP POP JUMP JUMPDEST DUP1 PUSH1 0x3 EQ ISZERO PUSH2 0x4DB9 JUMPI POP SWAP4 SWAP9 POP PUSH2 0x495D SWAP8 POP POP POP POP POP POP POP POP JUMP JUMPDEST DUP1 PUSH1 0x4 EQ ISZERO PUSH2 0x4DD4 JUMPI POP SWAP3 SWAP9 POP PUSH2 0x495D SWAP8 POP POP POP POP POP POP POP POP JUMP JUMPDEST DUP1 PUSH1 0x5 EQ ISZERO PUSH2 0x4DEF JUMPI POP SWAP2 SWAP9 POP PUSH2 0x495D SWAP8 POP POP POP POP POP POP POP POP JUMP JUMPDEST DUP1 PUSH1 0x6 EQ ISZERO PUSH2 0x4E0A JUMPI POP SWAP1 SWAP9 POP PUSH2 0x495D SWAP8 POP POP POP POP POP POP POP POP JUMP JUMPDEST PUSH1 0x40 MLOAD PUSH3 0x461BCD PUSH1 0xE5 SHL DUP2 MSTORE PUSH1 0x20 PUSH1 0x4 DUP3 ADD MSTORE PUSH1 0x10 PUSH1 0x24 DUP3 ADD MSTORE PUSH16 0x6B32206F7574206F6620626F756E6473 PUSH1 0x80 SHL PUSH1 0x44 DUP3 ADD MSTORE PUSH1 0x64 ADD PUSH1 0x40 MLOAD DUP1 SWAP2 SUB SWAP1 PUSH2 0x4E4F PUSH2 0x4FA9 JUMP JUMPDEST POP POP POP POP POP POP POP POP POP POP POP POP SWAP6 POP SWAP6 SWAP4 POP POP POP POP JUMP JUMPDEST PUSH1 0x0 DUP1 DUP5 PUSH1 0x2 DUP6 DUP6 ADD DIV DUP2 MLOAD DUP2 LT PUSH2 0x4E79 JUMPI INVALID JUMPDEST PUSH1 0x20 MUL PUSH1 0x20 ADD ADD MLOAD SWAP1 POP PUSH1 0x1 DUP5 SUB SWAP4 POP PUSH1 0x1 DUP4 ADD SWAP3 POP JUMPDEST PUSH1 0x1 DUP5 ADD SWAP4 POP DUP1 DUP6 DUP6 DUP2 MLOAD DUP2 LT PUSH2 0x4EA3 JUMPI INVALID JUMPDEST PUSH1 0x20 MUL PUSH1 0x20 ADD ADD MLOAD SLT PUSH2 0x4E90 JUMPI JUMPDEST PUSH1 0x1 DUP4 SUB SWAP3 POP DUP1 DUP6 DUP5 DUP2 MLOAD DUP2 LT PUSH2 0x4EC4 JUMPI INVALID JUMPDEST PUSH1 0x20 MUL PUSH1 0x20 ADD ADD MLOAD SGT PUSH2 0x4EB1 JUMPI DUP3 DUP5 LT ISZERO PUSH2 0x4F34 JUMPI DUP5 DUP4 DUP2 MLOAD DUP2 LT PUSH2 0x4EE5 JUMPI INVALID JUMPDEST PUSH1 0x20 MUL PUSH1 0x20 ADD ADD MLOAD DUP6 DUP6 DUP2 MLOAD DUP2 LT PUSH2 0x4EF9 JUMPI INVALID JUMPDEST PUSH1 0x20 MUL PUSH1 0x20 ADD ADD MLOAD DUP7 DUP7 DUP2 MLOAD DUP2 LT PUSH2 0x4F0D JUMPI INVALID JUMPDEST PUSH1 0x20 MUL PUSH1 0x20 ADD ADD DUP8 DUP7 DUP2 MLOAD DUP2 LT PUSH2 0x4F20 JUMPI INVALID JUMPDEST PUSH1 0x20 SWAP1 DUP2 MUL SWAP2 SWAP1 SWAP2 ADD ADD SWAP2 SWAP1 SWAP2 MSTORE MSTORE PUSH2 0x4F3D JUMP JUMPDEST DUP3 SWAP2 POP POP PUSH2 0x287F JUMP JUMPDEST PUSH2 0x4E90 JUMP JUMPDEST PUSH1 0x0 DUP3 DUP3 ADD DUP2 DUP4 SLT DUP1 ISZERO SWAP1 PUSH2 0x4F57 JUMPI POP DUP4 DUP2 SLT ISZERO JUMPDEST DUP1 PUSH2 0x4F6C JUMPI POP PUSH1 0x0 DUP4 SLT DUP1 ISZERO PUSH2 0x4F6C JUMPI POP DUP4 DUP2 SLT JUMPDEST PUSH2 0x287F JUMPI PUSH1 0x40 MLOAD PUSH3 0x461BCD PUSH1 0xE5 SHL DUP2 MSTORE PUSH1 0x4 ADD DUP1 DUP1 PUSH1 0x20 ADD DUP3 DUP2 SUB DUP3 MSTORE PUSH1 0x21 DUP2 MSTORE PUSH1 0x20 ADD DUP1 PUSH2 0x5480 PUSH1 0x21 SWAP2 CODECOPY PUSH1 0x40 ADD SWAP2 POP POP PUSH1 0x40 MLOAD DUP1 SWAP2 SUB SWAP1 PUSH2 0x287C JUMPDEST PUSH4 0x2A2A7ADB MSIZE DUP2 PUSH1 0xE0 SHL DUP2 MSTORE PUSH1 0x4 DUP2 ADD PUSH1 0x20 DUP2 MSTORE DUP6 PUSH1 0x20 DUP3 ADD MSTORE PUSH1 0x0 JUMPDEST DUP7 DUP2 LT ISZERO PUSH2 0x4FE1 JUMPI DUP1 DUP7 ADD MLOAD DUP3 DUP3 ADD PUSH1 0x40 ADD MSTORE PUSH1 0x20 ADD PUSH2 0x4FC6 JUMP JUMPDEST POP PUSH1 0x20 DUP3 DUP8 PUSH1 0x64 ADD DUP5 CALLER PUSH1 0x0 SWAP1 GAS CALL PC PUSH1 0x1D ADD JUMPI RETURNDATASIZE PUSH1 0x1 EQ PC PUSH1 0xC ADD JUMPI RETURNDATASIZE PUSH1 0x0 DUP1 RETURNDATACOPY RETURNDATASIZE PUSH3 0x123456 MSTORE PUSH1 0xEA PUSH2 0x109C MSTORE POP POP POP JUMP JUMPDEST PUSH4 0x3DAA959 MSIZE DUP2 PUSH1 0xE0 SHL DUP2 MSTORE DUP4 PUSH1 0x4 DUP3 ADD MSTORE PUSH1 0x20 DUP2 PUSH1 0x24 DUP4 CALLER PUSH1 0x0 SWAP1 GAS CALL PC PUSH1 0x1D ADD JUMPI RETURNDATASIZE PUSH1 0x1 EQ PC PUSH1 0xC ADD JUMPI RETURNDATASIZE PUSH1 0x0 DUP1 RETURNDATACOPY RETURNDATASIZE PUSH3 0x123456 MSTORE PUSH1 0xEA PUSH2 0x109C MSTORE DUP1 MLOAD SWAP4 POP PUSH1 0x0 JUMPDEST PUSH1 0x40 DUP2 LT ISZERO PUSH2 0xF31 JUMPI PUSH1 0x0 DUP3 DUP3 ADD MSTORE PUSH1 0x20 ADD PUSH2 0x5058 JUMP JUMPDEST PUSH4 0x73509064 MSIZE DUP2 PUSH1 0xE0 SHL DUP2 MSTORE PUSH1 0x20 DUP2 PUSH1 0x4 DUP4 CALLER PUSH1 0x0 SWAP1 GAS CALL PC PUSH1 0x1D ADD JUMPI RETURNDATASIZE PUSH1 0x1 EQ PC PUSH1 0xC ADD JUMPI RETURNDATASIZE PUSH1 0x0 DUP1 RETURNDATACOPY RETURNDATASIZE PUSH3 0x123456 MSTORE PUSH1 0xEA PUSH2 0x109C MSTORE DUP1 MLOAD PUSH1 0x0 DUP3 MSTORE SWAP4 POP PUSH1 0x20 PUSH2 0x5058 JUMP JUMPDEST PUSH4 0x22BD64C0 MSIZE DUP2 PUSH1 0xE0 SHL DUP2 MSTORE DUP4 PUSH1 0x4 DUP3 ADD MSTORE DUP5 PUSH1 0x24 DUP3 ADD MSTORE PUSH1 0x0 DUP2 PUSH1 0x44 DUP4 CALLER PUSH1 0x0 SWAP1 GAS CALL PC PUSH1 0x1D ADD JUMPI RETURNDATASIZE PUSH1 0x1 EQ PC PUSH1 0xC ADD JUMPI RETURNDATASIZE PUSH1 0x0 DUP1 RETURNDATACOPY RETURNDATASIZE PUSH3 0x123456 MSTORE PUSH1 0xEA PUSH2 0x109C MSTORE PUSH1 0x0 DUP2 MSTORE PUSH1 0x20 PUSH2 0x5058 JUMP JUMPDEST PUSH4 0x8435035B MSIZE DUP2 PUSH1 0xE0 SHL DUP2 MSTORE DUP4 PUSH1 0x4 DUP3 ADD MSTORE PUSH1 0x20 DUP2 PUSH1 0x24 DUP4 CALLER PUSH1 0x0 SWAP1 GAS CALL PC PUSH1 0x1D ADD JUMPI RETURNDATASIZE PUSH1 0x1 EQ PC PUSH1 0xC ADD JUMPI RETURNDATASIZE PUSH1 0x0 DUP1 RETURNDATACOPY RETURNDATASIZE PUSH3 0x123456 MSTORE PUSH1 0xEA PUSH2 0x109C MSTORE DUP1 MLOAD PUSH1 0x0 DUP3 MSTORE SWAP4 POP PUSH1 0x20 PUSH2 0x5058 JUMP JUMPDEST PUSH4 0x85979F76 MSIZE DUP2 PUSH1 0xE0 SHL DUP2 MSTORE PUSH2 0x5180 JUMP JUMPDEST DUP1 DUP1 DUP4 GT ISZERO PUSH2 0x2817 JUMPI POP SWAP1 SWAP2 SWAP1 POP JUMP JUMPDEST DUP1 DUP1 DUP4 LT ISZERO PUSH2 0x2817 JUMPI POP SWAP1 SWAP2 SWAP1 POP JUMP JUMPDEST DUP4 PUSH1 0x4 DUP3 ADD MSTORE DUP5 PUSH1 0x24 DUP3 ADD MSTORE PUSH1 0x60 PUSH1 0x44 DUP3 ADD MSTORE DUP8 PUSH1 0x64 DUP3 ADD MSTORE PUSH1 0x84 DUP2 ADD PUSH1 0x0 JUMPDEST DUP10 DUP2 LT ISZERO PUSH2 0x51B8 JUMPI DUP1 DUP10 ADD MLOAD DUP3 DUP3 ADD MSTORE PUSH1 0x20 ADD PUSH2 0x51A0 JUMP JUMPDEST POP PUSH1 0x60 DUP3 DUP11 PUSH1 0xA4 ADD DUP5 CALLER PUSH1 0x0 SWAP1 GAS CALL PC PUSH1 0x1D ADD JUMPI RETURNDATASIZE PUSH1 0x1 EQ PC PUSH1 0xC ADD JUMPI RETURNDATASIZE PUSH1 0x0 DUP1 RETURNDATACOPY RETURNDATASIZE PUSH3 0x123456 MSTORE PUSH1 0xEA PUSH2 0x109C MSTORE DUP2 MLOAD PUSH1 0x40 DUP4 ADD MLOAD RETURNDATASIZE PUSH1 0x0 DUP6 RETURNDATACOPY DUP13 DUP13 DUP3 PUSH1 0x60 DUP8 ADD CALLER POP PUSH1 0x0 PUSH1 0x4 GAS CALL POP MSIZE PUSH2 0x520D DUP15 RETURNDATASIZE PUSH2 0x5170 JUMP JUMPDEST DUP14 ADD PUSH2 0x5219 DUP2 DUP8 PUSH2 0x5160 JUMP JUMPDEST JUMPDEST DUP3 DUP2 LT ISZERO PUSH2 0x522E JUMPI PUSH1 0x0 DUP2 MSTORE PUSH1 0x20 ADD PUSH2 0x521A JUMP JUMPDEST POP SWAP3 SWAP14 POP POP POP POP POP POP POP JUMP JUMPDEST PUSH1 0x40 MLOAD PUSH1 0x40 DUP1 DUP3 ADD SWAP1 MSTORE PUSH1 0x0 DUP1 DUP3 MSTORE PUSH1 0x20 DUP3 ADD MSTORE SWAP1 JUMP JUMPDEST PUSH4 0x8540661F MSIZE DUP2 PUSH1 0xE0 SHL DUP2 MSTORE DUP4 PUSH1 0x4 DUP3 ADD MSTORE DUP5 PUSH1 0x24 DUP3 ADD MSTORE PUSH1 0x60 PUSH1 0x44 DUP3 ADD MSTORE DUP7 PUSH1 0x64 DUP3 ADD MSTORE PUSH1 0x84 DUP2 ADD PUSH1 0x0 JUMPDEST DUP9 DUP2 LT ISZERO PUSH2 0x5295 JUMPI DUP1 DUP9 ADD MLOAD DUP3 DUP3 ADD MSTORE PUSH1 0x20 ADD PUSH2 0x527D JUMP JUMPDEST POP PUSH1 0x60 DUP3 DUP10 PUSH1 0xA4 ADD DUP5 CALLER PUSH1 0x0 SWAP1 GAS CALL PC PUSH1 0x1D ADD JUMPI RETURNDATASIZE PUSH1 0x1 EQ PC PUSH1 0xC ADD JUMPI RETURNDATASIZE PUSH1 0x0 DUP1 RETURNDATACOPY RETURNDATASIZE PUSH3 0x123456 MSTORE PUSH1 0xEA PUSH2 0x109C MSTORE DUP2 MLOAD PUSH1 0x40 DUP4 ADD MLOAD RETURNDATASIZE PUSH1 0x0 DUP6 RETURNDATACOPY DUP12 DUP12 DUP3 PUSH1 0x60 DUP8 ADD CALLER POP PUSH1 0x0 PUSH1 0x4 GAS CALL POP MSIZE PUSH2 0x52EA DUP14 RETURNDATASIZE PUSH2 0x5170 JUMP JUMPDEST DUP13 ADD PUSH2 0x52F6 DUP2 DUP8 PUSH2 0x5160 JUMP JUMPDEST JUMPDEST DUP3 DUP2 LT ISZERO PUSH2 0x530B JUMPI PUSH1 0x0 DUP2 MSTORE PUSH1 0x20 ADD PUSH2 0x52F7 JUMP JUMPDEST POP SWAP3 SWAP13 POP POP POP POP POP POP POP JUMP JUMPDEST PUSH1 0x40 MLOAD PUSH1 0x80 DUP2 ADD PUSH1 0x40 SWAP1 DUP2 MSTORE PUSH1 0x0 DUP1 DUP4 MSTORE PUSH1 0x20 DUP4 ADD DUP2 SWAP1 MSTORE SWAP1 DUP3 ADD DUP2 SWAP1 MSTORE PUSH1 0x60 DUP3 ADD MSTORE SWAP1 JUMP JUMPDEST PUSH4 0xBDBF8C36 MSIZE DUP2 PUSH1 0xE0 SHL DUP2 MSTORE PUSH1 0x20 DUP2 PUSH1 0x4 DUP4 CALLER PUSH1 0x0 SWAP1 GAS CALL PC PUSH1 0x1D ADD JUMPI RETURNDATASIZE PUSH1 0x1 EQ PC PUSH1 0xC ADD JUMPI RETURNDATASIZE PUSH1 0x0 DUP1 RETURNDATACOPY RETURNDATASIZE PUSH3 0x123456 MSTORE PUSH1 0xEA PUSH2 0x109C MSTORE DUP1 MLOAD PUSH1 0x0 DUP3 MSTORE SWAP4 POP PUSH1 0x20 PUSH2 0x5058 JUMP JUMPDEST POP DUP1 PUSH2 0x538D PUSH2 0x5014 JUMP JUMPDEST PUSH1 0x0 DUP3 PUSH2 0x5398 PUSH2 0x50B5 JUMP JUMPDEST POP POP SWAP1 PUSH1 0x0 MSTORE PUSH1 0x20 PUSH1 0x0 KECCAK256 PUSH2 0x2C70 SWAP2 DUP2 ADD SWAP1 PUSH2 0x5440 JUMP JUMPDEST PUSH1 0x40 MLOAD PUSH1 0xA0 DUP2 ADD PUSH1 0x40 SWAP1 DUP2 MSTORE PUSH1 0x60 DUP1 DUP4 MSTORE PUSH1 0x0 PUSH1 0x20 DUP5 ADD DUP2 SWAP1 MSTORE SWAP2 DUP4 ADD DUP3 SWAP1 MSTORE DUP3 ADD DUP2 SWAP1 MSTORE PUSH1 0x80 DUP3 ADD MSTORE SWAP1 JUMP JUMPDEST DUP3 DUP1 PUSH2 0x53E6 PUSH2 0x5014 JUMP JUMPDEST DUP3 DUP3 PUSH2 0x53F0 PUSH2 0x50B5 JUMP JUMPDEST POP POP SWAP1 PUSH1 0x0 MSTORE PUSH1 0x20 PUSH1 0x0 KECCAK256 SWAP1 DUP2 ADD SWAP3 DUP3 ISZERO PUSH2 0x5430 JUMPI SWAP2 PUSH1 0x20 MUL DUP3 ADD JUMPDEST DUP3 DUP2 GT ISZERO PUSH2 0x5430 JUMPI DUP3 MLOAD DUP3 PUSH2 0x541F PUSH2 0x50B5 JUMP JUMPDEST POP POP SWAP2 PUSH1 0x20 ADD SWAP2 SWAP1 PUSH1 0x1 ADD SWAP1 PUSH2 0x540C JUMP JUMPDEST POP PUSH2 0x543C SWAP3 SWAP2 POP PUSH2 0x5440 JUMP JUMPDEST POP SWAP1 JUMP JUMPDEST DUP1 DUP3 GT ISZERO PUSH2 0x543C JUMPI PUSH1 0x0 DUP1 DUP3 PUSH2 0x5454 PUSH2 0x50B5 JUMP JUMPDEST POP POP POP PUSH1 0x1 ADD PUSH2 0x5440 JUMP INVALID 0xC POP SSTORE CODECOPY MOD GASLIMIT 0xC1 GAS 0x4B 0xE9 LOG2 SHL EXTCODEHASH DUP14 ADD SWAP2 MSTORE8 0xDC 0xB4 LOG0 0xC1 0x25 PUSH9 0x5DA6EB84048E2FE904 MSTORE8 PUSH10 0x676E6564536166654D61 PUSH21 0x683A206164646974696F6E206F766572666C6F7718 0xDD MULMOD PUSH10 0x5E4FBDAE8D1A5EDB1122 0x1E 0xB0 GASLIMIT PUSH5 0x269C29A089 0xB9 PUSH22 0x3A6535C54BA92E536166654D6174683A206164646974 PUSH10 0x6F6E206F766572666C6F PUSH24 0x536166654D6174683A206D756C7469706C6963 PUSH2 0x7469 PUSH16 0x6E206F766572666C6F774F6E6C792063 PUSH2 0x6C6C PUSH2 0x626C PUSH6 0x206279206F77 PUSH15 0x657200000000000000000000536166 PUSH6 0x4D6174683A20 PUSH20 0x75627472616374696F6E206F766572666C6F7700 STOP INVALID 0x25 0xC7 RETURNDATACOPY EXTCODESIZE SWAP1 DUP10 STATICCALL 0xC3 PUSH30 0x55C4C7EFCBA6F04AF04CEBD2FC4D6D7DBB07E1E5234F0000000000000000 "
			},
			"methodIdentifiers": {
				"acceptAdmin(address)": "628806ef",
				"acceptOwnership()": "79ba5097",
				"allocatedFunds()": "d4cc54e4",
				"availableFunds()": "46fcff4c",
				"changeOracles(address[],address[],address[],uint32,uint32,uint32)": "3969c20f",
				"decimals()": "313ce567",
				"description()": "7284e416",
				"getAdmin(address)": "64efb22b",
				"getAnswer(uint256)": "b5ab58dc",
				"getOracles()": "40884c52",
				"getRoundData(uint80)": "9a6fc8f5",
				"getTimestamp(uint256)": "b633620c",
				"latestAnswer()": "50d25bcd",
				"latestRound()": "668a0f02",
				"latestRoundData()": "feaf968c",
				"latestTimestamp()": "8205bf6a",
				"linkToken()": "57970e93",
				"maxSubmissionCount()": "58609e44",
				"maxSubmissionValue()": "23ca2903",
				"minSubmissionCount()": "c9374500",
				"minSubmissionValue()": "7c2b0b21",
				"onTokenTransfer(address,uint256,bytes)": "a4c0ed36",
				"oracleCount()": "613d8fcc",
				"oracleRoundState(address,uint32)": "88aa80e7",
				"owner()": "8da5cb5b",
				"paymentAmount()": "c35905c6",
				"requestNewRound()": "98e5b12a",
				"restartDelay()": "357ebb02",
				"setRequesterPermissions(address,bool,uint32)": "20ed0275",
				"setValidator(address)": "1327d3d8",
				"submit(uint256,int256)": "202ee0ed",
				"timeout()": "70dea79a",
				"transferAdmin(address,address)": "e9ee6eeb",
				"transferOwnership(address)": "f2fde38b",
				"updateAvailableFunds()": "4f8fc3b5",
				"updateFutureRounds(uint128,uint32,uint32,uint32,uint32)": "38aa4c72",
				"validator()": "3a5381b5",
				"version()": "54fd4d50",
				"withdrawFunds(address,uint256)": "c1075329",
				"withdrawPayment(address,address,uint256)": "3d3d7714",
				"withdrawablePayment(address)": "e2e40317"
			}
		},
		"userdoc": {
			"kind": "user",
			"methods": {
				"acceptAdmin(address)": {
					"notice": "accept the admin address transfer for an oracle"
				},
				"allocatedFunds()": {
					"notice": "the amount of payment yet to be withdrawn by oracles"
				},
				"availableFunds()": {
					"notice": "the amount of future funding available to oracles"
				},
				"changeOracles(address[],address[],address[],uint32,uint32,uint32)": {
					"notice": "called by the owner to remove and add new oracles as well as update the round related parameters that pertain to total oracle count"
				},
				"constructor": "set up the aggregator with initial configuration",
				"getAdmin(address)": {
					"notice": "get the admin address of an oracle"
				},
				"getAnswer(uint256)": {
					"notice": "get past rounds answers"
				},
				"getOracles()": {
					"notice": "returns an array of addresses containing the oracles on contract"
				},
				"getRoundData(uint80)": {
					"notice": "get data about a round. Consumers are encouraged to check that they're receiving fresh data by inspecting the updatedAt and answeredInRound return values."
				},
				"getTimestamp(uint256)": {
					"notice": "get timestamp when an answer was last updated"
				},
				"latestAnswer()": {
					"notice": "get the most recently reported answer"
				},
				"latestRound()": {
					"notice": "get the ID of the last updated round"
				},
				"latestRoundData()": {
					"notice": "get data about the latest round. Consumers are encouraged to check that they're receiving fresh data by inspecting the updatedAt and answeredInRound return values. Consumers are encouraged to use this more fully featured method over the \"legacy\" latestRound/ latestAnswer/latestTimestamp functions. Consumers are encouraged to check that they're receiving fresh data by inspecting the updatedAt and answeredInRound return values."
				},
				"latestTimestamp()": {
					"notice": "get the most recent updated at timestamp"
				},
				"onTokenTransfer(address,uint256,bytes)": {
					"notice": "called through LINK's transferAndCall to update available funds in the same transaction as the funds were transferred to the aggregator"
				},
				"oracleCount()": {
					"notice": "returns the number of oracles"
				},
				"oracleRoundState(address,uint32)": {
					"notice": "a method to provide all current info oracles need. Intended only only to be callable by oracles. Not for use by contracts to read state."
				},
				"requestNewRound()": {
					"notice": "allows non-oracles to request a new round"
				},
				"setRequesterPermissions(address,bool,uint32)": {
					"notice": "allows the owner to specify new non-oracles to start new rounds"
				},
				"setValidator(address)": {
					"notice": "method to update the address which does external data validation."
				},
				"submit(uint256,int256)": {
					"notice": "called by oracles when they have witnessed a need to update"
				},
				"transferAdmin(address,address)": {
					"notice": "transfer the admin address for an oracle"
				},
				"updateAvailableFunds()": {
					"notice": "recalculate the amount of LINK available for payouts"
				},
				"updateFutureRounds(uint128,uint32,uint32,uint32,uint32)": {
					"notice": "update the round and payment related parameters for subsequent rounds"
				},
				"withdrawFunds(address,uint256)": {
					"notice": "transfers the owner's LINK to another address"
				},
				"withdrawPayment(address,address,uint256)": {
					"notice": "transfers the oracle's LINK to another address. Can only be called by the oracle's admin."
				},
				"withdrawablePayment(address)": {
					"notice": "query the available amount of LINK for an oracle to withdraw"
				}
			},
			"notice": "Handles aggregating data pushed in from off-chain, and unlocks payment for oracles as they report. Oracles' submissions are gathered in rounds, with each round aggregating the submissions for each oracle into a single answer. The latest aggregated answer is exposed as well as historical answers and their updated at timestamp.",
			"version": 1
		}
	},
	"sourceTreeHashHex": "0x87cc7069c7476215ffff054a4a920f1f13961802bbf4dab5aae0fb07b603b951",
	"compiler": {
		"name": "solc",
		"version": "soljson-v0_6-ovm.js",
		"settings": {
			"optimizer": {
				"runs": 1,
				"enabled": true
			},
			"outputSelection": {
				"*": {
					"*": [
						"abi",
						"devdoc",
						"userdoc",
						"evm.bytecode.object",
						"evm.bytecode.sourceMap",
						"evm.deployedBytecode.object",
						"evm.deployedBytecode.sourceMap",
						"evm.methodIdentifiers",
						"metadata"
					]
				}
			},
			"remappings": []
		}
	},
	"chains": {}
}